{
  "_format": "hh-sol-artifact-1",
  "contractName": "AllBasic",
  "sourceName": "contracts/AllBasic.sol",
  "abi": [
    {
      "inputs": [],
      "stateMutability": "payable",
      "type": "constructor"
    },
    {
      "anonymous": false,
      "inputs": [
        {
          "indexed": true,
          "internalType": "address",
          "name": "account",
          "type": "address"
        },
        {
          "indexed": false,
          "internalType": "uint256",
          "name": "totalDeposit",
          "type": "uint256"
        }
      ],
      "name": "Deposited",
      "type": "event"
    },
    {
      "inputs": [],
      "name": "DOMAIN_SEPARATOR",
      "outputs": [
        {
          "internalType": "bytes32",
          "name": "",
          "type": "bytes32"
        }
      ],
      "stateMutability": "view",
      "type": "function"
    },
    {
      "inputs": [],
      "name": "MESSAGE_TYPEHASH",
      "outputs": [
        {
          "internalType": "bytes32",
          "name": "",
          "type": "bytes32"
        }
      ],
      "stateMutability": "view",
      "type": "function"
    },
    {
      "inputs": [],
      "name": "add",
      "outputs": [],
      "stateMutability": "nonpayable",
      "type": "function"
    },
    {
      "inputs": [
        {
          "internalType": "address",
          "name": "",
          "type": "address"
        }
      ],
      "name": "approvals",
      "outputs": [
        {
          "internalType": "bool",
          "name": "",
          "type": "bool"
        }
      ],
      "stateMutability": "view",
      "type": "function"
    },
    {
      "inputs": [
        {
          "internalType": "address",
          "name": "owner",
          "type": "address"
        },
        {
          "internalType": "address",
          "name": "spender",
          "type": "address"
        }
      ],
      "name": "approve",
      "outputs": [],
      "stateMutability": "nonpayable",
      "type": "function"
    },
    {
      "inputs": [
        {
          "internalType": "uint256",
          "name": "x",
          "type": "uint256"
        },
        {
          "internalType": "uint256",
          "name": "y",
          "type": "uint256"
        }
      ],
      "name": "calculatePower",
      "outputs": [
        {
          "internalType": "uint256",
          "name": "",
          "type": "uint256"
        }
      ],
      "stateMutability": "nonpayable",
      "type": "function"
    },
    {
      "inputs": [
        {
          "internalType": "uint256",
          "name": "_value",
          "type": "uint256"
        },
        {
          "internalType": "string",
          "name": "_message",
          "type": "string"
        }
      ],
      "name": "callFriendWithSelector",
      "outputs": [],
      "stateMutability": "nonpayable",
      "type": "function"
    },
    {
      "inputs": [
        {
          "internalType": "uint256",
          "name": "_value",
          "type": "uint256"
        },
        {
          "internalType": "string",
          "name": "_message",
          "type": "string"
        }
      ],
      "name": "callFriendWithSignature",
      "outputs": [],
      "stateMutability": "nonpayable",
      "type": "function"
    },
    {
      "inputs": [],
      "name": "createLock",
      "outputs": [],
      "stateMutability": "nonpayable",
      "type": "function"
    },
    {
      "inputs": [],
      "name": "createLockCreationCode",
      "outputs": [],
      "stateMutability": "nonpayable",
      "type": "function"
    },
    {
      "inputs": [
        {
          "internalType": "bytes",
          "name": "data",
          "type": "bytes"
        }
      ],
      "name": "decodeData",
      "outputs": [
        {
          "internalType": "uint256",
          "name": "number",
          "type": "uint256"
        },
        {
          "internalType": "string",
          "name": "text",
          "type": "string"
        }
      ],
      "stateMutability": "pure",
      "type": "function"
    },
    {
      "inputs": [
        {
          "internalType": "uint256",
          "name": "number",
          "type": "uint256"
        },
        {
          "internalType": "string",
          "name": "text",
          "type": "string"
        }
      ],
      "name": "encodeData",
      "outputs": [
        {
          "internalType": "bytes",
          "name": "",
          "type": "bytes"
        }
      ],
      "stateMutability": "pure",
      "type": "function"
    },
    {
      "inputs": [],
      "name": "friend",
      "outputs": [
        {
          "internalType": "address",
          "name": "",
          "type": "address"
        }
      ],
      "stateMutability": "view",
      "type": "function"
    },
    {
      "inputs": [],
      "name": "getLockTime",
      "outputs": [
        {
          "internalType": "uint256",
          "name": "",
          "type": "uint256"
        },
        {
          "internalType": "uint256",
          "name": "",
          "type": "uint256"
        }
      ],
      "stateMutability": "view",
      "type": "function"
    },
    {
      "inputs": [],
      "name": "getValue",
      "outputs": [
        {
          "internalType": "uint256",
          "name": "",
          "type": "uint256"
        }
      ],
      "stateMutability": "view",
      "type": "function"
    },
    {
      "inputs": [
        {
          "components": [
            {
              "internalType": "address",
              "name": "from",
              "type": "address"
            },
            {
              "internalType": "string",
              "name": "content",
              "type": "string"
            }
          ],
          "internalType": "struct AllBasic.Message",
          "name": "message",
          "type": "tuple"
        }
      ],
      "name": "hashMessage",
      "outputs": [
        {
          "internalType": "bytes32",
          "name": "",
          "type": "bytes32"
        }
      ],
      "stateMutability": "pure",
      "type": "function"
    },
    {
      "inputs": [],
      "name": "lock",
      "outputs": [
        {
          "internalType": "contract Lock",
          "name": "",
          "type": "address"
        }
      ],
      "stateMutability": "view",
      "type": "function"
    },
    {
      "inputs": [],
      "name": "lock2",
      "outputs": [
        {
          "internalType": "contract Lock",
          "name": "",
          "type": "address"
        }
      ],
      "stateMutability": "view",
      "type": "function"
    },
    {
      "inputs": [
        {
          "internalType": "address",
          "name": "_friend",
          "type": "address"
        }
      ],
      "name": "setFriend",
      "outputs": [],
      "stateMutability": "nonpayable",
      "type": "function"
    },
    {
      "inputs": [
        {
          "components": [
            {
              "internalType": "address",
              "name": "sender",
              "type": "address"
            },
            {
              "internalType": "uint256",
              "name": "nonce",
              "type": "uint256"
            },
            {
              "internalType": "bytes",
              "name": "initCode",
              "type": "bytes"
            },
            {
              "internalType": "bytes",
              "name": "callData",
              "type": "bytes"
            },
            {
              "internalType": "bytes32",
              "name": "accountGasLimits",
              "type": "bytes32"
            },
            {
              "internalType": "uint256",
              "name": "preVerificationGas",
              "type": "uint256"
            },
            {
              "internalType": "uint256",
              "name": "maxFeePerGas",
              "type": "uint256"
            },
            {
              "internalType": "uint256",
              "name": "maxPriorityFeePerGas",
              "type": "uint256"
            },
            {
              "internalType": "bytes",
              "name": "paymasterAndData",
              "type": "bytes"
            },
            {
              "internalType": "bytes",
              "name": "signature",
              "type": "bytes"
            }
          ],
          "internalType": "struct PackedUserOperation",
          "name": "userOp",
          "type": "tuple"
        }
      ],
      "name": "simulateValidation",
      "outputs": [
        {
          "components": [
            {
              "components": [
                {
                  "internalType": "uint256",
                  "name": "preOpGas",
                  "type": "uint256"
                },
                {
                  "internalType": "uint256",
                  "name": "prefund",
                  "type": "uint256"
                }
              ],
              "internalType": "struct IEntryPoint.ReturnInfo",
              "name": "returnInfo",
              "type": "tuple"
            },
            {
              "components": [
                {
                  "internalType": "uint256",
                  "name": "stake",
                  "type": "uint256"
                },
                {
                  "internalType": "uint256",
                  "name": "unstakeDelaySec",
                  "type": "uint256"
                }
              ],
              "internalType": "struct IStakeManager.StakeInfo",
              "name": "senderInfo",
              "type": "tuple"
            }
          ],
          "internalType": "struct IAllBasic.ValidationResult",
          "name": "",
          "type": "tuple"
        }
      ],
      "stateMutability": "nonpayable",
      "type": "function"
    },
    {
      "inputs": [
        {
          "internalType": "address",
          "name": "",
          "type": "address"
        }
      ],
      "name": "spenders",
      "outputs": [
        {
          "internalType": "bool",
          "name": "",
          "type": "bool"
        }
      ],
      "stateMutability": "view",
      "type": "function"
    },
    {
      "inputs": [
        {
          "internalType": "bytes",
          "name": "sig",
          "type": "bytes"
        }
      ],
      "name": "splitSignature",
      "outputs": [
        {
          "internalType": "bytes32",
          "name": "r",
          "type": "bytes32"
        },
        {
          "internalType": "bytes32",
          "name": "s",
          "type": "bytes32"
        },
        {
          "internalType": "uint8",
          "name": "v",
          "type": "uint8"
        }
      ],
      "stateMutability": "pure",
      "type": "function"
    },
    {
      "inputs": [],
      "name": "value",
      "outputs": [
        {
          "internalType": "uint256",
          "name": "",
          "type": "uint256"
        }
      ],
      "stateMutability": "view",
      "type": "function"
    },
    {
      "inputs": [
        {
          "internalType": "address",
          "name": "signer",
          "type": "address"
        },
        {
          "components": [
            {
              "internalType": "address",
              "name": "from",
              "type": "address"
            },
            {
              "internalType": "string",
              "name": "content",
              "type": "string"
            }
          ],
          "internalType": "struct AllBasic.Message",
          "name": "message",
          "type": "tuple"
        },
        {
          "internalType": "bytes",
          "name": "signature",
          "type": "bytes"
        }
      ],
      "name": "verify",
      "outputs": [
        {
          "internalType": "bool",
          "name": "",
          "type": "bool"
        }
      ],
      "stateMutability": "view",
      "type": "function"
    }
  ],
  "bytecode": "0x60016000818155600660808190526504d79444170760d41b60a090815260c093909352603160f81b60e0527f8b73c3c69bb8fe3d512ecc4cf759cc79239f7b179b0ffacaa9a75d522b39400f6101209081527f559d9d71530878fbc251d1e867173b4c7cf19921cc1cbbfb24ef7fd0933e2df1610140527fc89efdaa54c0f20c7adf612882df0950f5a951637e0307cdcb4c672f298b8bc6610160524661018052306101a0526101008490526101c0604052929092209091556115449081906100c890396000f3fe608060405234801561001057600080fd5b50600436106101585760003560e01c8063871a4c0f116100c3578063be026e291161007c578063be026e2914610373578063c0a4d64d14610386578063c8907179146103a3578063d5dfedfc146103b6578063f83d08ba146103fb578063f979f2691461040e57600080fd5b8063871a4c0f146102d65780638e9dc1f3146102e9578063901e4229146102fc57806399d7e58f14610327578063a7bb58031461032f578063a984241e1461036057600080fd5b8063447a06f511610115578063447a06f5146101e057806346e356b1146102015780634f2be91f146102285780635d0341ba1461023057806363a31bd4146102635780637e5465ba1461028657600080fd5b8063089c99641461015d578063209652551461018f57806328853d68146101a65780633644e515146101ae5780633fa4f245146101b757806342a6e672146101c0575b600080fd5b61018d61016b366004610c0d565b600580546001600160a01b0319166001600160a01b0392909216919091179055565b005b6000545b6040519081526020015b60405180910390f35b61018d610421565b61019360065481565b61019360005481565b6101d36101ce366004610cf4565b6104cb565b60405161019d9190610d8b565b6101f36101ee366004610d9e565b6104f8565b60405161019d929190610ddb565b6101937fc534ee5c6c8595709cb74167e71975244b91cd0438faa6145347c0f43f5a656981565b61018d61051a565b61025361023e366004610c0d565b60016020526000908152604090205460ff1681565b604051901515815260200161019d565b610253610271366004610c0d565b60026020526000908152604090205460ff1681565b61018d610294366004610df4565b6001600160a01b039182166000908152600160208181526040808420805460ff1990811685179091559490951683526002905292902080549091169091179055565b6101936102e4366004610e9d565b610533565b6102536102f7366004610ed2565b6105ac565b60055461030f906001600160a01b031681565b6040516001600160a01b03909116815260200161019d565b61018d61068e565b61034261033d366004610d9e565b6107a4565b60408051938452602084019290925260ff169082015260600161019d565b61018d61036e366004610cf4565b61081d565b60045461030f906001600160a01b031681565b61038e610909565b6040805192835260208301919091520161019d565b61018d6103b1366004610cf4565b610a25565b6103c96103c4366004610f46565b610b44565b60405161019d919081518051825260209081015181830152918201518051604083015290910151606082015260800190565b60035461030f906001600160a01b031681565b61019361041c366004610f82565b610b88565b61042c426064610fba565b60405161043890610ba0565b908152602001604051809103906000f08015801561045a573d6000803e3d6000fd5b50600380546001600160a01b0319166001600160a01b0392909216918217905560405163ae04d45d60e01b81526001600482015263ae04d45d90602401600060405180830381600087803b1580156104b157600080fd5b505af11580156104c5573d6000803e3d6000fd5b50505050565b606082826040516020016104e0929190610ddb565b60405160208183030381529060405290505b92915050565b60006060828060200190518101906105109190610fcd565b9094909350915050565b600160008082825461052c9190610fba565b9091555050565b805160208083015180519082012060405160009361058f937fc534ee5c6c8595709cb74167e71975244b91cd0438faa6145347c0f43f5a6569939192019283526001600160a01b03919091166020830152604082015260600190565b604051602081830303815290604052805190602001209050919050565b6000806006546105bb85610533565b60405161190160f01b60208201526022810192909252604282015260620160405160208183030381529060405280519060200120905060008060006105ff866107a4565b925092509250876001600160a01b03166001858386866040516000815260200160405260405161064b949392919093845260ff9290921660208401526040830152606082015260800190565b6020604051602081039080840390855afa15801561066d573d6000803e3d6000fd5b505050602060405103516001600160a01b0316149450505050509392505050565b6000604051806020016106a090610ba0565b601f1982820381018352601f909101166040526106be426064610fba565b6040516020016106d091815260200190565b60408051601f19818403018152908290526106ee9291602001611050565b60408051601f198184030181528282524260208401529250600091016040516020818303038152906040528051906020012090506000818351602085016000f5600480546001600160a01b0319166001600160a01b038316908117825560405163ae04d45d60e01b815260029281019290925291925063ae04d45d90602401600060405180830381600087803b15801561078757600080fd5b505af115801561079b573d6000803e3d6000fd5b50505050505050565b600080600083516041146107ff5760405162461bcd60e51b815260206004820152601860248201527f696e76616c6964207369676e6174757265206c656e677468000000000000000060448201526064015b60405180910390fd5b50505060208101516040820151606090920151909260009190911a90565b60008282604051602401610832929190610ddb565b60408051601f198184030181529181526020820180516001600160e01b0316636309d19160e01b17905260055490519192506000916001600160a01b039091169061087e90849061107f565b6000604051808303816000865af19150503d80600081146108bb576040519150601f19603f3d011682016040523d82523d6000602084013e6108c0565b606091505b50509050806104c55760405162461bcd60e51b815260206004820152601560248201527410d85b1b081d1bc8119c9a595b990819985a5b1959605a1b60448201526064016107f6565b6003546000908190819081906001600160a01b03161561099d57600360009054906101000a90046001600160a01b03166001600160a01b031663602bc62b6040518163ffffffff1660e01b8152600401602060405180830381865afa158015610976573d6000803e3d6000fd5b505050506040513d601f19601f8201168201806040525081019061099a919061109b565b91505b6004546001600160a01b031615610a1c57600480546040805163602bc62b60e01b815290516001600160a01b039092169263602bc62b9282820192602092908290030181865afa1580156109f5573d6000803e3d6000fd5b505050506040513d601f19601f82011682018060405250810190610a19919061109b565b90505b90939092509050565b60007f6309d191bcb9af06db19b272bcd20d41e338544ccb72d555c377e7d4b390359b90506000818484604051602401610a60929190610ddb565b60408051601f198184030181529181526020820180516001600160e01b03166001600160e01b03199094169390931790925260055491519092506000916001600160a01b031690610ab290849061107f565b6000604051808303816000865af19150503d8060008114610aef576040519150601f19603f3d011682016040523d82523d6000602084013e610af4565b606091505b5050905080610b3d5760405162461bcd60e51b815260206004820152601560248201527410d85b1b081d1bc8119c9a595b990819985a5b1959605a1b60448201526064016107f6565b5050505050565b610b4c610bad565b610b54610bad565b6040805180820182526000808252602080830191909152908352815180830190925260018083528282015282015292915050565b6000610b948284611198565b60008190559392505050565b61036a806111a583390190565b60408051608081018252600091810182815260608201929092529081908152602001610bec604051806040016040528060008152602001600081525090565b905290565b80356001600160a01b0381168114610c0857600080fd5b919050565b600060208284031215610c1f57600080fd5b610c2882610bf1565b9392505050565b634e487b7160e01b600052604160045260246000fd5b604051601f8201601f1916810167ffffffffffffffff81118282101715610c6e57610c6e610c2f565b604052919050565b600067ffffffffffffffff821115610c9057610c90610c2f565b50601f01601f191660200190565b600082601f830112610caf57600080fd5b8135610cc2610cbd82610c76565b610c45565b818152846020838601011115610cd757600080fd5b816020850160208301376000918101602001919091529392505050565b60008060408385031215610d0757600080fd5b82359150602083013567ffffffffffffffff811115610d2557600080fd5b610d3185828601610c9e565b9150509250929050565b60005b83811015610d56578181015183820152602001610d3e565b50506000910152565b60008151808452610d77816020860160208601610d3b565b601f01601f19169290920160200192915050565b602081526000610c286020830184610d5f565b600060208284031215610db057600080fd5b813567ffffffffffffffff811115610dc757600080fd5b610dd384828501610c9e565b949350505050565b828152604060208201526000610dd36040830184610d5f565b60008060408385031215610e0757600080fd5b610e1083610bf1565b9150610e1e60208401610bf1565b90509250929050565b600060408284031215610e3957600080fd5b6040516040810167ffffffffffffffff8282108183111715610e5d57610e5d610c2f565b81604052829350610e6d85610bf1565b83526020850135915080821115610e8357600080fd5b50610e9085828601610c9e565b6020830152505092915050565b600060208284031215610eaf57600080fd5b813567ffffffffffffffff811115610ec657600080fd5b610dd384828501610e27565b600080600060608486031215610ee757600080fd5b610ef084610bf1565b9250602084013567ffffffffffffffff80821115610f0d57600080fd5b610f1987838801610e27565b93506040860135915080821115610f2f57600080fd5b50610f3c86828701610c9e565b9150509250925092565b600060208284031215610f5857600080fd5b813567ffffffffffffffff811115610f6f57600080fd5b82016101408185031215610c2857600080fd5b60008060408385031215610f9557600080fd5b50508035926020909101359150565b634e487b7160e01b600052601160045260246000fd5b808201808211156104f2576104f2610fa4565b60008060408385031215610fe057600080fd5b82519150602083015167ffffffffffffffff811115610ffe57600080fd5b8301601f8101851361100f57600080fd5b805161101d610cbd82610c76565b81815286602083850101111561103257600080fd5b611043826020830160208601610d3b565b8093505050509250929050565b60008351611062818460208801610d3b565b835190830190611076818360208801610d3b565b01949350505050565b60008251611091818460208701610d3b565b9190910192915050565b6000602082840312156110ad57600080fd5b5051919050565b600181815b808511156110ef5781600019048211156110d5576110d5610fa4565b808516156110e257918102915b93841c93908002906110b9565b509250929050565b600082611106575060016104f2565b81611113575060006104f2565b816001811461112957600281146111335761114f565b60019150506104f2565b60ff84111561114457611144610fa4565b50506001821b6104f2565b5060208310610133831016604e8410600b8410161715611172575081810a6104f2565b61117c83836110b4565b806000190482111561119057611190610fa4565b029392505050565b6000610c2883836110f756fe60806040526001805560405161036a38038061036a8339810160408190526100269161009f565b8042106100855760405162461bcd60e51b815260206004820152602360248201527f556e6c6f636b2074696d652073686f756c6420626520696e207468652066757460448201526275726560e81b606482015260840160405180910390fd5b600055600280546001600160a01b031916331790556100b8565b6000602082840312156100b157600080fd5b5051919050565b6102a3806100c76000396000f3fe608060405234801561001057600080fd5b506004361061007d5760003560e01c80634f2be91f1161005b5780634f2be91f146100b1578063602bc62b146100b95780638da5cb5b146100c1578063ae04d45d146100ec57600080fd5b8063251c1aa3146100825780633ccfd60b1461009e5780633fa4f245146100a8575b600080fd5b61008b60005481565b6040519081526020015b60405180910390f35b6100a66100ff565b005b61008b60015481565b6100a6610214565b60005461008b565b6002546100d4906001600160a01b031681565b6040516001600160a01b039091168152602001610095565b6100a66100fa36600461022d565b600055565b60005442101561014f5760405162461bcd60e51b8152602060048201526016602482015275165bdd4818d85b89dd081dda5d1a191c985dc81e595d60521b60448201526064015b60405180910390fd5b6002546001600160a01b031633146101a05760405162461bcd60e51b81526020600482015260146024820152732cb7ba9030b932b713ba103a34329037bbb732b960611b6044820152606401610146565b604080514781524260208201527fbf2ed60bd5b5965d685680c01195c9514e4382e28e3a5a2d2d5244bf59411b93910160405180910390a16002546040516001600160a01b03909116904780156108fc02916000818181858888f19350505050158015610211573d6000803e3d6000fd5b50565b60018060008282546102269190610246565b9091555050565b60006020828403121561023f57600080fd5b5035919050565b8082018082111561026757634e487b7160e01b600052601160045260246000fd5b9291505056fea2646970667358221220793d186b6dd56b17d4656888eec9cde7041e5c40b0d381628087993e3808c7f464736f6c63430008180033a26469706673582212204910d9ae7acc1c915e0092742ba2272e084a1251244b95bf6f51895a9f92a1ca64736f6c63430008180033",
  "linkReferences": {},
  "deployedLinkReferences": {}
}