{"abi":[{"type":"function","name":"bar","inputs":[],"outputs":[],"stateMutability":"nonpayable"},{"type":"function","name":"executionManifest","inputs":[],"outputs":[{"name":"","type":"tuple","internalType":"struct ExecutionManifest","components":[{"name":"executionFunctions","type":"tuple[]","internalType":"struct ManifestExecutionFunction[]","components":[{"name":"executionSelector","type":"bytes4","internalType":"bytes4"},{"name":"skipRuntimeValidation","type":"bool","internalType":"bool"},{"name":"allowGlobalValidation","type":"bool","internalType":"bool"}]},{"name":"executionHooks","type":"tuple[]","internalType":"struct ManifestExecutionHook[]","components":[{"name":"executionSelector","type":"bytes4","internalType":"bytes4"},{"name":"entityId","type":"uint32","internalType":"uint32"},{"name":"isPreHook","type":"bool","internalType":"bool"},{"name":"isPostHook","type":"bool","internalType":"bool"}]},{"name":"interfaceIds","type":"bytes4[]","internalType":"bytes4[]"}]}],"stateMutability":"pure"},{"type":"function","name":"moduleId","inputs":[],"outputs":[{"name":"","type":"string","internalType":"string"}],"stateMutability":"pure"},{"type":"function","name":"onInstall","inputs":[{"name":"","type":"bytes","internalType":"bytes"}],"outputs":[],"stateMutability":"nonpayable"},{"type":"function","name":"onUninstall","inputs":[{"name":"","type":"bytes","internalType":"bytes"}],"outputs":[],"stateMutability":"nonpayable"},{"type":"function","name":"preRuntimeValidationHook","inputs":[{"name":"","type":"uint32","internalType":"uint32"},{"name":"","type":"address","internalType":"address"},{"name":"","type":"uint256","internalType":"uint256"},{"name":"","type":"bytes","internalType":"bytes"},{"name":"","type":"bytes","internalType":"bytes"}],"outputs":[],"stateMutability":"pure"},{"type":"function","name":"preSignatureValidationHook","inputs":[{"name":"","type":"uint32","internalType":"uint32"},{"name":"","type":"address","internalType":"address"},{"name":"","type":"bytes32","internalType":"bytes32"},{"name":"","type":"bytes","internalType":"bytes"}],"outputs":[],"stateMutability":"pure"},{"type":"function","name":"preUserOpValidationHook","inputs":[{"name":"entityId","type":"uint32","internalType":"uint32"},{"name":"","type":"tuple","internalType":"struct PackedUserOperation","components":[{"name":"sender","type":"address","internalType":"address"},{"name":"nonce","type":"uint256","internalType":"uint256"},{"name":"initCode","type":"bytes","internalType":"bytes"},{"name":"callData","type":"bytes","internalType":"bytes"},{"name":"accountGasLimits","type":"bytes32","internalType":"bytes32"},{"name":"preVerificationGas","type":"uint256","internalType":"uint256"},{"name":"gasFees","type":"bytes32","internalType":"bytes32"},{"name":"paymasterAndData","type":"bytes","internalType":"bytes"},{"name":"signature","type":"bytes","internalType":"bytes"}]},{"name":"","type":"bytes32","internalType":"bytes32"}],"outputs":[{"name":"","type":"uint256","internalType":"uint256"}],"stateMutability":"view"},{"type":"function","name":"setValidationData","inputs":[{"name":"userOpValidationFunctionData","type":"uint256","internalType":"uint256"},{"name":"preUserOpValidationHook1Data","type":"uint256","internalType":"uint256"}],"outputs":[],"stateMutability":"nonpayable"},{"type":"function","name":"supportsInterface","inputs":[{"name":"interfaceId","type":"bytes4","internalType":"bytes4"}],"outputs":[{"name":"","type":"bool","internalType":"bool"}],"stateMutability":"view"},{"type":"function","name":"validateRuntime","inputs":[{"name":"","type":"address","internalType":"address"},{"name":"","type":"uint32","internalType":"uint32"},{"name":"","type":"address","internalType":"address"},{"name":"","type":"uint256","internalType":"uint256"},{"name":"","type":"bytes","internalType":"bytes"},{"name":"","type":"bytes","internalType":"bytes"}],"outputs":[],"stateMutability":"pure"},{"type":"function","name":"validateSignature","inputs":[{"name":"","type":"address","internalType":"address"},{"name":"","type":"uint32","internalType":"uint32"},{"name":"","type":"address","internalType":"address"},{"name":"","type":"bytes32","internalType":"bytes32"},{"name":"","type":"bytes","internalType":"bytes"}],"outputs":[{"name":"","type":"bytes4","internalType":"bytes4"}],"stateMutability":"pure"},{"type":"function","name":"validateUserOp","inputs":[{"name":"entityId","type":"uint32","internalType":"uint32"},{"name":"","type":"tuple","internalType":"struct PackedUserOperation","components":[{"name":"sender","type":"address","internalType":"address"},{"name":"nonce","type":"uint256","internalType":"uint256"},{"name":"initCode","type":"bytes","internalType":"bytes"},{"name":"callData","type":"bytes","internalType":"bytes"},{"name":"accountGasLimits","type":"bytes32","internalType":"bytes32"},{"name":"preVerificationGas","type":"uint256","internalType":"uint256"},{"name":"gasFees","type":"bytes32","internalType":"bytes32"},{"name":"paymasterAndData","type":"bytes","internalType":"bytes"},{"name":"signature","type":"bytes","internalType":"bytes"}]},{"name":"","type":"bytes32","internalType":"bytes32"}],"outputs":[{"name":"","type":"uint256","internalType":"uint256"}],"stateMutability":"view"},{"type":"error","name":"NotImplemented","inputs":[]}],"bytecode":{"object":"0x6080604052348015600f57600080fd5b506109378061001f6000396000f3fe608060405234801561001057600080fd5b50600436106100cf5760003560e01c80636d61fe701161008c578063a1308f2711610066578063a1308f2714610193578063ae5628c6146101a8578063e7db7f7e146101bd578063febb0f7e1461014357600080fd5b80636d61fe70146101685780638a91b0e31461016857806396797d801461017a57600080fd5b806301ffc9a7146100d45780630ab8785f146100fc5780632a3d428c1461011d5780633d6bda32146101305780633f41826e14610145578063465d33e01461015a575b600080fd5b6100e76100e2366004610395565b6101e9565b60405190151581526020015b60405180910390f35b61010f61010a3660046103d8565b610220565b6040519081526020016100f3565b61010f61012b3660046103d8565b610256565b61014361013e366004610496565b610236565b005b610143610153366004610536565b5050505050565b61014361013e3660046105a5565b610143610176366004610655565b5050565b610143610188366004610697565b600091909155600155565b61019b610288565b6040516100f391906106b9565b6101b06102a8565b6040516100f391906107b6565b6101d06101cb366004610869565b61037a565b6040516001600160e01b031990911681526020016100f3565b60006001600160e01b031982166311b0306d60e21b148061021a57506301ffc9a760e01b6001600160e01b03198316145b92915050565b600063ffffffff8416610236575060005461024f565b60405163d623472560e01b815260040160405180910390fd5b9392505050565b600060001963ffffffff851601610270575060015461024f565b60011963ffffffff851601610236575060025461024f565b60606040518060600160405280602c81526020016108ff602c9139905090565b6102cc60405180606001604052806060815260200160608152602001606081525090565b6102f060405180606001604052806060815260200160608152602001606081525090565b60408051600180825281830190925290816020015b6040805160608101825260008082526020808301829052928201528252600019909201910181610305575050815260408051606081018252637f5d87bf60e11b8152600060208201819052918101829052825180519192909161036a5761036a6108e8565b6020908102919091010152919050565b600060405163d623472560e01b815260040160405180910390fd5b6000602082840312156103a757600080fd5b81356001600160e01b03198116811461024f57600080fd5b803563ffffffff811681146103d357600080fd5b919050565b6000806000606084860312156103ed57600080fd5b6103f6846103bf565b9250602084013567ffffffffffffffff81111561041257600080fd5b8401610120818703121561042557600080fd5b929592945050506040919091013590565b80356001600160a01b03811681146103d357600080fd5b60008083601f84011261045f57600080fd5b50813567ffffffffffffffff81111561047757600080fd5b60208301915083602082850101111561048f57600080fd5b9250929050565b600080600080600080600060a0888a0312156104b157600080fd5b6104ba886103bf565b96506104c860208901610436565b955060408801359450606088013567ffffffffffffffff8111156104eb57600080fd5b6104f78a828b0161044d565b909550935050608088013567ffffffffffffffff81111561051757600080fd5b6105238a828b0161044d565b989b979a50959850939692959293505050565b60008060008060006080868803121561054e57600080fd5b610557866103bf565b945061056560208701610436565b935060408601359250606086013567ffffffffffffffff81111561058857600080fd5b6105948882890161044d565b969995985093965092949392505050565b60008060008060008060008060c0898b0312156105c157600080fd5b6105ca89610436565b97506105d860208a016103bf565b96506105e660408a01610436565b955060608901359450608089013567ffffffffffffffff81111561060957600080fd5b6106158b828c0161044d565b90955093505060a089013567ffffffffffffffff81111561063557600080fd5b6106418b828c0161044d565b999c989b5096995094979396929594505050565b6000806020838503121561066857600080fd5b823567ffffffffffffffff81111561067f57600080fd5b61068b8582860161044d565b90969095509350505050565b600080604083850312156106aa57600080fd5b50508035926020909101359150565b602081526000825180602084015260005b818110156106e757602081860181015160408684010152016106ca565b506000604082850101526040601f19601f83011684010191505092915050565b600081518084526020840193506020830160005b8281101561077057815180516001600160e01b031916875260208082015163ffffffff16818901526040808301511515908901526060918201511515918801919091526080909601959091019060010161071b565b5093949350505050565b600081518084526020840193506020830160005b828110156107705781516001600160e01b03191686526020958601959091019060010161078e565b602080825282516060838301528051608084018190526000929190910190829060a08501905b8083101561082357835163ffffffff60e01b8151168352602081015115156020840152604081015115156040840152506060820191506020840193506001830192506107dc565b506020860151858203601f1901604087015292506108418184610707565b925050506040840151601f19848303016060850152610860828261077a565b95945050505050565b60008060008060008060a0878903121561088257600080fd5b61088b87610436565b9550610899602088016103bf565b94506108a760408801610436565b935060608701359250608087013567ffffffffffffffff8111156108ca57600080fd5b6108d689828a0161044d565b979a9699509497509295939492505050565b634e487b7160e01b600052603260045260246000fdfe657263363930302e6d6f636b2d757365722d6f702d76616c69646174696f6e2d6d6f64756c652e312e302e30a164736f6c634300081a000a","linkReferences":{}},"methodIdentifiers":{"bar()":"febb0f7e","executionManifest()":"ae5628c6","moduleId()":"a1308f27","onInstall(bytes)":"6d61fe70","onUninstall(bytes)":"8a91b0e3","preRuntimeValidationHook(uint32,address,uint256,bytes,bytes)":"3d6bda32","preSignatureValidationHook(uint32,address,bytes32,bytes)":"3f41826e","preUserOpValidationHook(uint32,(address,uint256,bytes,bytes,bytes32,uint256,bytes32,bytes,bytes),bytes32)":"2a3d428c","setValidationData(uint256,uint256)":"96797d80","supportsInterface(bytes4)":"01ffc9a7","validateRuntime(address,uint32,address,uint256,bytes,bytes)":"465d33e0","validateSignature(address,uint32,address,bytes32,bytes)":"e7db7f7e","validateUserOp(uint32,(address,uint256,bytes,bytes,bytes32,uint256,bytes32,bytes,bytes),bytes32)":"0ab8785f"},"id":163}