{"abi":[{"type":"function","name":"executionManifest","inputs":[],"outputs":[{"name":"","type":"tuple","internalType":"struct ExecutionManifest","components":[{"name":"executionFunctions","type":"tuple[]","internalType":"struct ManifestExecutionFunction[]","components":[{"name":"executionSelector","type":"bytes4","internalType":"bytes4"},{"name":"skipRuntimeValidation","type":"bool","internalType":"bool"},{"name":"allowGlobalValidation","type":"bool","internalType":"bool"}]},{"name":"executionHooks","type":"tuple[]","internalType":"struct ManifestExecutionHook[]","components":[{"name":"executionSelector","type":"bytes4","internalType":"bytes4"},{"name":"entityId","type":"uint32","internalType":"uint32"},{"name":"isPreHook","type":"bool","internalType":"bool"},{"name":"isPostHook","type":"bool","internalType":"bool"}]},{"name":"interfaceIds","type":"bytes4[]","internalType":"bytes4[]"}]}],"stateMutability":"pure"},{"type":"function","name":"foo","inputs":[],"outputs":[],"stateMutability":"nonpayable"},{"type":"function","name":"moduleId","inputs":[],"outputs":[{"name":"","type":"string","internalType":"string"}],"stateMutability":"pure"},{"type":"function","name":"onInstall","inputs":[{"name":"","type":"bytes","internalType":"bytes"}],"outputs":[],"stateMutability":"nonpayable"},{"type":"function","name":"onUninstall","inputs":[{"name":"","type":"bytes","internalType":"bytes"}],"outputs":[],"stateMutability":"nonpayable"},{"type":"function","name":"preRuntimeValidationHook","inputs":[{"name":"","type":"uint32","internalType":"uint32"},{"name":"","type":"address","internalType":"address"},{"name":"","type":"uint256","internalType":"uint256"},{"name":"","type":"bytes","internalType":"bytes"},{"name":"","type":"bytes","internalType":"bytes"}],"outputs":[],"stateMutability":"pure"},{"type":"function","name":"preSignatureValidationHook","inputs":[{"name":"","type":"uint32","internalType":"uint32"},{"name":"","type":"address","internalType":"address"},{"name":"","type":"bytes32","internalType":"bytes32"},{"name":"","type":"bytes","internalType":"bytes"}],"outputs":[],"stateMutability":"pure"},{"type":"function","name":"preUserOpValidationHook","inputs":[{"name":"entityId","type":"uint32","internalType":"uint32"},{"name":"","type":"tuple","internalType":"struct PackedUserOperation","components":[{"name":"sender","type":"address","internalType":"address"},{"name":"nonce","type":"uint256","internalType":"uint256"},{"name":"initCode","type":"bytes","internalType":"bytes"},{"name":"callData","type":"bytes","internalType":"bytes"},{"name":"accountGasLimits","type":"bytes32","internalType":"bytes32"},{"name":"preVerificationGas","type":"uint256","internalType":"uint256"},{"name":"gasFees","type":"bytes32","internalType":"bytes32"},{"name":"paymasterAndData","type":"bytes","internalType":"bytes"},{"name":"signature","type":"bytes","internalType":"bytes"}]},{"name":"","type":"bytes32","internalType":"bytes32"}],"outputs":[{"name":"","type":"uint256","internalType":"uint256"}],"stateMutability":"view"},{"type":"function","name":"setValidationData","inputs":[{"name":"userOpValidationFunctionData","type":"uint256","internalType":"uint256"}],"outputs":[],"stateMutability":"nonpayable"},{"type":"function","name":"supportsInterface","inputs":[{"name":"interfaceId","type":"bytes4","internalType":"bytes4"}],"outputs":[{"name":"","type":"bool","internalType":"bool"}],"stateMutability":"view"},{"type":"function","name":"validateRuntime","inputs":[{"name":"","type":"address","internalType":"address"},{"name":"","type":"uint32","internalType":"uint32"},{"name":"","type":"address","internalType":"address"},{"name":"","type":"uint256","internalType":"uint256"},{"name":"","type":"bytes","internalType":"bytes"},{"name":"","type":"bytes","internalType":"bytes"}],"outputs":[],"stateMutability":"pure"},{"type":"function","name":"validateSignature","inputs":[{"name":"","type":"address","internalType":"address"},{"name":"","type":"uint32","internalType":"uint32"},{"name":"","type":"address","internalType":"address"},{"name":"","type":"bytes32","internalType":"bytes32"},{"name":"","type":"bytes","internalType":"bytes"}],"outputs":[{"name":"","type":"bytes4","internalType":"bytes4"}],"stateMutability":"pure"},{"type":"function","name":"validateUserOp","inputs":[{"name":"entityId","type":"uint32","internalType":"uint32"},{"name":"","type":"tuple","internalType":"struct PackedUserOperation","components":[{"name":"sender","type":"address","internalType":"address"},{"name":"nonce","type":"uint256","internalType":"uint256"},{"name":"initCode","type":"bytes","internalType":"bytes"},{"name":"callData","type":"bytes","internalType":"bytes"},{"name":"accountGasLimits","type":"bytes32","internalType":"bytes32"},{"name":"preVerificationGas","type":"uint256","internalType":"uint256"},{"name":"gasFees","type":"bytes32","internalType":"bytes32"},{"name":"paymasterAndData","type":"bytes","internalType":"bytes"},{"name":"signature","type":"bytes","internalType":"bytes"}]},{"name":"","type":"bytes32","internalType":"bytes32"}],"outputs":[{"name":"","type":"uint256","internalType":"uint256"}],"stateMutability":"view"},{"type":"error","name":"NotImplemented","inputs":[]}],"bytecode":{"object":"0x6080604052348015600f57600080fd5b506109288061001f6000396000f3fe608060405234801561001057600080fd5b50600436106100cf5760003560e01c8063465d33e01161008c578063a1308f2711610066578063a1308f271461018d578063ae5628c6146101a2578063c298557814610143578063e7db7f7e146101b757600080fd5b8063465d33e01461016d5780636d61fe701461017b5780638a91b0e31461017b57600080fd5b806301ffc9a7146100d45780630ab8785f146100fc5780632a3d428c1461011d578063331570e9146101305780633d6bda32146101455780633f41826e14610158575b600080fd5b6100e76100e236600461038f565b6101e3565b60405190151581526020015b60405180910390f35b61010f61010a3660046103d2565b61021a565b6040519081526020016100f3565b61010f61012b3660046103d2565b610250565b61014361013e366004610430565b600055565b005b6101436101533660046104a9565b610230565b610143610166366004610549565b5050505050565b6101436101533660046105b8565b610143610189366004610668565b5050565b610195610282565b6040516100f391906106aa565b6101aa6102a2565b6040516100f391906107a7565b6101ca6101c536600461085a565b610374565b6040516001600160e01b031990911681526020016100f3565b60006001600160e01b031982166311b0306d60e21b148061021457506301ffc9a760e01b6001600160e01b03198316145b92915050565b600063ffffffff84166102305750600054610249565b60405163d623472560e01b815260040160405180910390fd5b9392505050565b600060001963ffffffff85160161026a5750600154610249565b60011963ffffffff8516016102305750600254610249565b60606040518060600160405280602c81526020016108f0602c9139905090565b6102c660405180606001604052806060815260200160608152602001606081525090565b6102ea60405180606001604052806060815260200160608152602001606081525090565b60408051600180825281830190925290816020015b60408051606081018252600080825260208083018290529282015282526000199092019101816102ff5750508152604080516060810182526318530aaf60e31b81526000602082018190529181018290528251805191929091610364576103646108d9565b6020908102919091010152919050565b600060405163d623472560e01b815260040160405180910390fd5b6000602082840312156103a157600080fd5b81356001600160e01b03198116811461024957600080fd5b803563ffffffff811681146103cd57600080fd5b919050565b6000806000606084860312156103e757600080fd5b6103f0846103b9565b9250602084013567ffffffffffffffff81111561040c57600080fd5b8401610120818703121561041f57600080fd5b929592945050506040919091013590565b60006020828403121561044257600080fd5b5035919050565b80356001600160a01b03811681146103cd57600080fd5b60008083601f84011261047257600080fd5b50813567ffffffffffffffff81111561048a57600080fd5b6020830191508360208285010111156104a257600080fd5b9250929050565b600080600080600080600060a0888a0312156104c457600080fd5b6104cd886103b9565b96506104db60208901610449565b955060408801359450606088013567ffffffffffffffff8111156104fe57600080fd5b61050a8a828b01610460565b909550935050608088013567ffffffffffffffff81111561052a57600080fd5b6105368a828b01610460565b989b979a50959850939692959293505050565b60008060008060006080868803121561056157600080fd5b61056a866103b9565b945061057860208701610449565b935060408601359250606086013567ffffffffffffffff81111561059b57600080fd5b6105a788828901610460565b969995985093965092949392505050565b60008060008060008060008060c0898b0312156105d457600080fd5b6105dd89610449565b97506105eb60208a016103b9565b96506105f960408a01610449565b955060608901359450608089013567ffffffffffffffff81111561061c57600080fd5b6106288b828c01610460565b90955093505060a089013567ffffffffffffffff81111561064857600080fd5b6106548b828c01610460565b999c989b5096995094979396929594505050565b6000806020838503121561067b57600080fd5b823567ffffffffffffffff81111561069257600080fd5b61069e85828601610460565b90969095509350505050565b602081526000825180602084015260005b818110156106d857602081860181015160408684010152016106bb565b506000604082850101526040601f19601f83011684010191505092915050565b600081518084526020840193506020830160005b8281101561076157815180516001600160e01b031916875260208082015163ffffffff16818901526040808301511515908901526060918201511515918801919091526080909601959091019060010161070c565b5093949350505050565b600081518084526020840193506020830160005b828110156107615781516001600160e01b03191686526020958601959091019060010161077f565b602080825282516060838301528051608084018190526000929190910190829060a08501905b8083101561081457835163ffffffff60e01b8151168352602081015115156020840152604081015115156040840152506060820191506020840193506001830192506107cd565b506020860151858203601f19016040870152925061083281846106f8565b925050506040840151601f19848303016060850152610851828261076b565b95945050505050565b60008060008060008060a0878903121561087357600080fd5b61087c87610449565b955061088a602088016103b9565b945061089860408801610449565b935060608701359250608087013567ffffffffffffffff8111156108bb57600080fd5b6108c789828a01610460565b979a9699509497509295939492505050565b634e487b7160e01b600052603260045260246000fdfe657263363930302e6d6f636b2d757365722d6f702d76616c69646174696f6e2d6d6f64756c652e312e302e30a164736f6c634300081a000a","linkReferences":{}},"methodIdentifiers":{"executionManifest()":"ae5628c6","foo()":"c2985578","moduleId()":"a1308f27","onInstall(bytes)":"6d61fe70","onUninstall(bytes)":"8a91b0e3","preRuntimeValidationHook(uint32,address,uint256,bytes,bytes)":"3d6bda32","preSignatureValidationHook(uint32,address,bytes32,bytes)":"3f41826e","preUserOpValidationHook(uint32,(address,uint256,bytes,bytes,bytes32,uint256,bytes32,bytes,bytes),bytes32)":"2a3d428c","setValidationData(uint256)":"331570e9","supportsInterface(bytes4)":"01ffc9a7","validateRuntime(address,uint32,address,uint256,bytes,bytes)":"465d33e0","validateSignature(address,uint32,address,bytes32,bytes)":"e7db7f7e","validateUserOp(uint32,(address,uint256,bytes,bytes,bytes32,uint256,bytes32,bytes,bytes),bytes32)":"0ab8785f"},"id":163}