{"abi":[{"type":"function","name":"baz","inputs":[],"outputs":[],"stateMutability":"nonpayable"},{"type":"function","name":"executionManifest","inputs":[],"outputs":[{"name":"","type":"tuple","internalType":"struct ExecutionManifest","components":[{"name":"executionFunctions","type":"tuple[]","internalType":"struct ManifestExecutionFunction[]","components":[{"name":"executionSelector","type":"bytes4","internalType":"bytes4"},{"name":"skipRuntimeValidation","type":"bool","internalType":"bool"},{"name":"allowGlobalValidation","type":"bool","internalType":"bool"}]},{"name":"executionHooks","type":"tuple[]","internalType":"struct ManifestExecutionHook[]","components":[{"name":"executionSelector","type":"bytes4","internalType":"bytes4"},{"name":"entityId","type":"uint32","internalType":"uint32"},{"name":"isPreHook","type":"bool","internalType":"bool"},{"name":"isPostHook","type":"bool","internalType":"bool"}]},{"name":"interfaceIds","type":"bytes4[]","internalType":"bytes4[]"}]}],"stateMutability":"pure"},{"type":"function","name":"moduleId","inputs":[],"outputs":[{"name":"","type":"string","internalType":"string"}],"stateMutability":"pure"},{"type":"function","name":"onInstall","inputs":[{"name":"","type":"bytes","internalType":"bytes"}],"outputs":[],"stateMutability":"nonpayable"},{"type":"function","name":"onUninstall","inputs":[{"name":"","type":"bytes","internalType":"bytes"}],"outputs":[],"stateMutability":"nonpayable"},{"type":"function","name":"preRuntimeValidationHook","inputs":[{"name":"","type":"uint32","internalType":"uint32"},{"name":"","type":"address","internalType":"address"},{"name":"","type":"uint256","internalType":"uint256"},{"name":"","type":"bytes","internalType":"bytes"},{"name":"","type":"bytes","internalType":"bytes"}],"outputs":[],"stateMutability":"pure"},{"type":"function","name":"preSignatureValidationHook","inputs":[{"name":"","type":"uint32","internalType":"uint32"},{"name":"","type":"address","internalType":"address"},{"name":"","type":"bytes32","internalType":"bytes32"},{"name":"","type":"bytes","internalType":"bytes"}],"outputs":[],"stateMutability":"pure"},{"type":"function","name":"preUserOpValidationHook","inputs":[{"name":"entityId","type":"uint32","internalType":"uint32"},{"name":"","type":"tuple","internalType":"struct PackedUserOperation","components":[{"name":"sender","type":"address","internalType":"address"},{"name":"nonce","type":"uint256","internalType":"uint256"},{"name":"initCode","type":"bytes","internalType":"bytes"},{"name":"callData","type":"bytes","internalType":"bytes"},{"name":"accountGasLimits","type":"bytes32","internalType":"bytes32"},{"name":"preVerificationGas","type":"uint256","internalType":"uint256"},{"name":"gasFees","type":"bytes32","internalType":"bytes32"},{"name":"paymasterAndData","type":"bytes","internalType":"bytes"},{"name":"signature","type":"bytes","internalType":"bytes"}]},{"name":"","type":"bytes32","internalType":"bytes32"}],"outputs":[{"name":"","type":"uint256","internalType":"uint256"}],"stateMutability":"view"},{"type":"function","name":"setValidationData","inputs":[{"name":"userOpValidationFunctionData","type":"uint256","internalType":"uint256"},{"name":"preUserOpValidationHook1Data","type":"uint256","internalType":"uint256"},{"name":"preUserOpValidationHook2Data","type":"uint256","internalType":"uint256"}],"outputs":[],"stateMutability":"nonpayable"},{"type":"function","name":"supportsInterface","inputs":[{"name":"interfaceId","type":"bytes4","internalType":"bytes4"}],"outputs":[{"name":"","type":"bool","internalType":"bool"}],"stateMutability":"view"},{"type":"function","name":"validateRuntime","inputs":[{"name":"","type":"address","internalType":"address"},{"name":"","type":"uint32","internalType":"uint32"},{"name":"","type":"address","internalType":"address"},{"name":"","type":"uint256","internalType":"uint256"},{"name":"","type":"bytes","internalType":"bytes"},{"name":"","type":"bytes","internalType":"bytes"}],"outputs":[],"stateMutability":"pure"},{"type":"function","name":"validateSignature","inputs":[{"name":"","type":"address","internalType":"address"},{"name":"","type":"uint32","internalType":"uint32"},{"name":"","type":"address","internalType":"address"},{"name":"","type":"bytes32","internalType":"bytes32"},{"name":"","type":"bytes","internalType":"bytes"}],"outputs":[{"name":"","type":"bytes4","internalType":"bytes4"}],"stateMutability":"pure"},{"type":"function","name":"validateUserOp","inputs":[{"name":"entityId","type":"uint32","internalType":"uint32"},{"name":"","type":"tuple","internalType":"struct PackedUserOperation","components":[{"name":"sender","type":"address","internalType":"address"},{"name":"nonce","type":"uint256","internalType":"uint256"},{"name":"initCode","type":"bytes","internalType":"bytes"},{"name":"callData","type":"bytes","internalType":"bytes"},{"name":"accountGasLimits","type":"bytes32","internalType":"bytes32"},{"name":"preVerificationGas","type":"uint256","internalType":"uint256"},{"name":"gasFees","type":"bytes32","internalType":"bytes32"},{"name":"paymasterAndData","type":"bytes","internalType":"bytes"},{"name":"signature","type":"bytes","internalType":"bytes"}]},{"name":"","type":"bytes32","internalType":"bytes32"}],"outputs":[{"name":"","type":"uint256","internalType":"uint256"}],"stateMutability":"view"},{"type":"error","name":"NotImplemented","inputs":[]}],"bytecode":{"object":"0x6080604052348015600f57600080fd5b506109448061001f6000396000f3fe608060405234801561001057600080fd5b50600436106100cf5760003560e01c80636d61fe701161008c578063a7916fac11610066578063a7916fac14610143578063ae5628c61461018f578063cb2c544a146101a4578063e7db7f7e146101c057600080fd5b80636d61fe70146101685780638a91b0e314610168578063a1308f271461017a57600080fd5b806301ffc9a7146100d45780630ab8785f146100fc5780632a3d428c1461011d5780633d6bda32146101305780633f41826e14610145578063465d33e01461015a575b600080fd5b6100e76100e2366004610398565b6101ec565b60405190151581526020015b60405180910390f35b61010f61010a3660046103db565b610223565b6040519081526020016100f3565b61010f61012b3660046103db565b610259565b61014361013e366004610499565b610239565b005b610143610153366004610539565b5050505050565b61014361013e3660046105a8565b610143610176366004610658565b5050565b61018261028b565b6040516100f3919061069a565b6101976102ab565b6040516100f39190610797565b6101436101b236600461084a565b600092909255600155600255565b6101d36101ce366004610876565b61037d565b6040516001600160e01b031990911681526020016100f3565b60006001600160e01b031982166311b0306d60e21b148061021d57506301ffc9a760e01b6001600160e01b03198316145b92915050565b600063ffffffff84166102395750600054610252565b60405163d623472560e01b815260040160405180910390fd5b9392505050565b600060001963ffffffff8516016102735750600154610252565b60011963ffffffff8516016102395750600254610252565b60606040518060600160405280602c815260200161090c602c9139905090565b6102cf60405180606001604052806060815260200160608152602001606081525090565b6102f360405180606001604052806060815260200160608152602001606081525090565b60408051600180825281830190925290816020015b60408051606081018252600080825260208083018290529282015282526000199092019101816103085750508152604080516060810182526329e45beb60e21b8152600060208201819052918101829052825180519192909161036d5761036d6108f5565b6020908102919091010152919050565b600060405163d623472560e01b815260040160405180910390fd5b6000602082840312156103aa57600080fd5b81356001600160e01b03198116811461025257600080fd5b803563ffffffff811681146103d657600080fd5b919050565b6000806000606084860312156103f057600080fd5b6103f9846103c2565b9250602084013567ffffffffffffffff81111561041557600080fd5b8401610120818703121561042857600080fd5b929592945050506040919091013590565b80356001600160a01b03811681146103d657600080fd5b60008083601f84011261046257600080fd5b50813567ffffffffffffffff81111561047a57600080fd5b60208301915083602082850101111561049257600080fd5b9250929050565b600080600080600080600060a0888a0312156104b457600080fd5b6104bd886103c2565b96506104cb60208901610439565b955060408801359450606088013567ffffffffffffffff8111156104ee57600080fd5b6104fa8a828b01610450565b909550935050608088013567ffffffffffffffff81111561051a57600080fd5b6105268a828b01610450565b989b979a50959850939692959293505050565b60008060008060006080868803121561055157600080fd5b61055a866103c2565b945061056860208701610439565b935060408601359250606086013567ffffffffffffffff81111561058b57600080fd5b61059788828901610450565b969995985093965092949392505050565b60008060008060008060008060c0898b0312156105c457600080fd5b6105cd89610439565b97506105db60208a016103c2565b96506105e960408a01610439565b955060608901359450608089013567ffffffffffffffff81111561060c57600080fd5b6106188b828c01610450565b90955093505060a089013567ffffffffffffffff81111561063857600080fd5b6106448b828c01610450565b999c989b5096995094979396929594505050565b6000806020838503121561066b57600080fd5b823567ffffffffffffffff81111561068257600080fd5b61068e85828601610450565b90969095509350505050565b602081526000825180602084015260005b818110156106c857602081860181015160408684010152016106ab565b506000604082850101526040601f19601f83011684010191505092915050565b600081518084526020840193506020830160005b8281101561075157815180516001600160e01b031916875260208082015163ffffffff1681890152604080830151151590890152606091820151151591880191909152608090960195909101906001016106fc565b5093949350505050565b600081518084526020840193506020830160005b828110156107515781516001600160e01b03191686526020958601959091019060010161076f565b602080825282516060838301528051608084018190526000929190910190829060a08501905b8083101561080457835163ffffffff60e01b8151168352602081015115156020840152604081015115156040840152506060820191506020840193506001830192506107bd565b506020860151858203601f19016040870152925061082281846106e8565b925050506040840151601f19848303016060850152610841828261075b565b95945050505050565b60008060006060848603121561085f57600080fd5b505081359360208301359350604090920135919050565b60008060008060008060a0878903121561088f57600080fd5b61089887610439565b95506108a6602088016103c2565b94506108b460408801610439565b935060608701359250608087013567ffffffffffffffff8111156108d757600080fd5b6108e389828a01610450565b979a9699509497509295939492505050565b634e487b7160e01b600052603260045260246000fdfe657263363930302e6d6f636b2d757365722d6f702d76616c69646174696f6e2d6d6f64756c652e312e302e30a164736f6c634300081a000a","linkReferences":{}},"methodIdentifiers":{"baz()":"a7916fac","executionManifest()":"ae5628c6","moduleId()":"a1308f27","onInstall(bytes)":"6d61fe70","onUninstall(bytes)":"8a91b0e3","preRuntimeValidationHook(uint32,address,uint256,bytes,bytes)":"3d6bda32","preSignatureValidationHook(uint32,address,bytes32,bytes)":"3f41826e","preUserOpValidationHook(uint32,(address,uint256,bytes,bytes,bytes32,uint256,bytes32,bytes,bytes),bytes32)":"2a3d428c","setValidationData(uint256,uint256,uint256)":"cb2c544a","supportsInterface(bytes4)":"01ffc9a7","validateRuntime(address,uint32,address,uint256,bytes,bytes)":"465d33e0","validateSignature(address,uint32,address,bytes32,bytes)":"e7db7f7e","validateUserOp(uint32,(address,uint256,bytes,bytes,bytes32,uint256,bytes32,bytes,bytes),bytes32)":"0ab8785f"},"id":163}