{
  "address": "0x2B2f78c5BF6D9C12Ee1225D5F374aa91204580c3",
  "abi": [
    {
      "inputs": [
        {
          "internalType": "string",
          "name": "name_",
          "type": "string"
        },
        {
          "internalType": "string",
          "name": "symbol_",
          "type": "string"
        }
      ],
      "stateMutability": "nonpayable",
      "type": "constructor"
    },
    {
      "inputs": [
        {
          "internalType": "address",
          "name": "spender",
          "type": "address"
        },
        {
          "internalType": "uint256",
          "name": "allowance",
          "type": "uint256"
        },
        {
          "internalType": "uint256",
          "name": "needed",
          "type": "uint256"
        }
      ],
      "name": "ERC20InsufficientAllowance",
      "type": "error"
    },
    {
      "inputs": [
        {
          "internalType": "address",
          "name": "sender",
          "type": "address"
        },
        {
          "internalType": "uint256",
          "name": "balance",
          "type": "uint256"
        },
        {
          "internalType": "uint256",
          "name": "needed",
          "type": "uint256"
        }
      ],
      "name": "ERC20InsufficientBalance",
      "type": "error"
    },
    {
      "inputs": [
        {
          "internalType": "address",
          "name": "approver",
          "type": "address"
        }
      ],
      "name": "ERC20InvalidApprover",
      "type": "error"
    },
    {
      "inputs": [
        {
          "internalType": "address",
          "name": "receiver",
          "type": "address"
        }
      ],
      "name": "ERC20InvalidReceiver",
      "type": "error"
    },
    {
      "inputs": [
        {
          "internalType": "address",
          "name": "sender",
          "type": "address"
        }
      ],
      "name": "ERC20InvalidSender",
      "type": "error"
    },
    {
      "inputs": [
        {
          "internalType": "address",
          "name": "spender",
          "type": "address"
        }
      ],
      "name": "ERC20InvalidSpender",
      "type": "error"
    },
    {
      "anonymous": false,
      "inputs": [
        {
          "indexed": true,
          "internalType": "address",
          "name": "owner",
          "type": "address"
        },
        {
          "indexed": true,
          "internalType": "address",
          "name": "spender",
          "type": "address"
        },
        {
          "indexed": false,
          "internalType": "uint256",
          "name": "value",
          "type": "uint256"
        }
      ],
      "name": "Approval",
      "type": "event"
    },
    {
      "anonymous": false,
      "inputs": [
        {
          "indexed": true,
          "internalType": "address",
          "name": "from",
          "type": "address"
        },
        {
          "indexed": true,
          "internalType": "address",
          "name": "to",
          "type": "address"
        },
        {
          "indexed": false,
          "internalType": "uint256",
          "name": "value",
          "type": "uint256"
        }
      ],
      "name": "Transfer",
      "type": "event"
    },
    {
      "inputs": [
        {
          "internalType": "address",
          "name": "owner",
          "type": "address"
        },
        {
          "internalType": "address",
          "name": "spender",
          "type": "address"
        }
      ],
      "name": "allowance",
      "outputs": [
        {
          "internalType": "uint256",
          "name": "",
          "type": "uint256"
        }
      ],
      "stateMutability": "view",
      "type": "function"
    },
    {
      "inputs": [
        {
          "internalType": "address",
          "name": "spender",
          "type": "address"
        },
        {
          "internalType": "uint256",
          "name": "value",
          "type": "uint256"
        }
      ],
      "name": "approve",
      "outputs": [
        {
          "internalType": "bool",
          "name": "",
          "type": "bool"
        }
      ],
      "stateMutability": "nonpayable",
      "type": "function"
    },
    {
      "inputs": [
        {
          "internalType": "address",
          "name": "account",
          "type": "address"
        }
      ],
      "name": "balanceOf",
      "outputs": [
        {
          "internalType": "uint256",
          "name": "",
          "type": "uint256"
        }
      ],
      "stateMutability": "view",
      "type": "function"
    },
    {
      "inputs": [],
      "name": "decimals",
      "outputs": [
        {
          "internalType": "uint8",
          "name": "",
          "type": "uint8"
        }
      ],
      "stateMutability": "view",
      "type": "function"
    },
    {
      "inputs": [],
      "name": "name",
      "outputs": [
        {
          "internalType": "string",
          "name": "",
          "type": "string"
        }
      ],
      "stateMutability": "view",
      "type": "function"
    },
    {
      "inputs": [
        {
          "internalType": "address",
          "name": "to",
          "type": "address"
        },
        {
          "internalType": "uint256",
          "name": "amount",
          "type": "uint256"
        }
      ],
      "name": "send",
      "outputs": [],
      "stateMutability": "nonpayable",
      "type": "function"
    },
    {
      "inputs": [],
      "name": "symbol",
      "outputs": [
        {
          "internalType": "string",
          "name": "",
          "type": "string"
        }
      ],
      "stateMutability": "view",
      "type": "function"
    },
    {
      "inputs": [],
      "name": "totalSupply",
      "outputs": [
        {
          "internalType": "uint256",
          "name": "",
          "type": "uint256"
        }
      ],
      "stateMutability": "view",
      "type": "function"
    },
    {
      "inputs": [
        {
          "internalType": "address",
          "name": "to",
          "type": "address"
        },
        {
          "internalType": "uint256",
          "name": "value",
          "type": "uint256"
        }
      ],
      "name": "transfer",
      "outputs": [
        {
          "internalType": "bool",
          "name": "",
          "type": "bool"
        }
      ],
      "stateMutability": "nonpayable",
      "type": "function"
    },
    {
      "inputs": [
        {
          "internalType": "address",
          "name": "from",
          "type": "address"
        },
        {
          "internalType": "address",
          "name": "to",
          "type": "address"
        },
        {
          "internalType": "uint256",
          "name": "value",
          "type": "uint256"
        }
      ],
      "name": "transferFrom",
      "outputs": [
        {
          "internalType": "bool",
          "name": "",
          "type": "bool"
        }
      ],
      "stateMutability": "nonpayable",
      "type": "function"
    }
  ],
  "transactionHash": "0x49dd8e57b8c0ade618ff300b65dc93862a1d9087ac4797b2d485aec7d61865c0",
  "args": [
    "DMS Token",
    "DMS"
  ],
  "numDeployments": 1,
  "solcInputHash": "72a9205f02e0da42d19bdd74cc3fbdd9",
  "bytecode": "0x60806040523480156200001157600080fd5b5060405162000e8138038062000e818339810160408190526200003491620002af565b81816003620000448382620003aa565b506004620000538282620003aa565b5050506200006a336103e86200007260201b60201c565b50506200049e565b6001600160a01b038216620000a25760405163ec442f0560e01b8152600060048201526024015b60405180910390fd5b620000b060008383620000b4565b5050565b6001600160a01b038316620000e3578060026000828254620000d7919062000476565b90915550620001579050565b6001600160a01b03831660009081526020819052604090205481811015620001385760405163391434e360e21b81526001600160a01b0385166004820152602481018290526044810183905260640162000099565b6001600160a01b03841660009081526020819052604090209082900390555b6001600160a01b038216620001755760028054829003905562000194565b6001600160a01b03821660009081526020819052604090208054820190555b816001600160a01b0316836001600160a01b03167fddf252ad1be2c89b69c2b068fc378daa952ba7f163c4a11628f55a4df523b3ef83604051620001da91815260200190565b60405180910390a3505050565b634e487b7160e01b600052604160045260246000fd5b600082601f8301126200020f57600080fd5b81516001600160401b03808211156200022c576200022c620001e7565b604051601f8301601f19908116603f01168101908282118183101715620002575762000257620001e7565b81604052838152602092508660208588010111156200027557600080fd5b600091505b838210156200029957858201830151818301840152908201906200027a565b6000602085830101528094505050505092915050565b60008060408385031215620002c357600080fd5b82516001600160401b0380821115620002db57600080fd5b620002e986838701620001fd565b935060208501519150808211156200030057600080fd5b506200030f85828601620001fd565b9150509250929050565b600181811c908216806200032e57607f821691505b6020821081036200034f57634e487b7160e01b600052602260045260246000fd5b50919050565b601f821115620003a5576000816000526020600020601f850160051c81016020861015620003805750805b601f850160051c820191505b81811015620003a1578281556001016200038c565b5050505b505050565b81516001600160401b03811115620003c657620003c6620001e7565b620003de81620003d7845462000319565b8462000355565b602080601f831160018114620004165760008415620003fd5750858301515b600019600386901b1c1916600185901b178555620003a1565b600085815260208120601f198616915b82811015620004475788860151825594840194600190910190840162000426565b5085821015620004665787850151600019600388901b60f8161c191681555b5050505050600190811b01905550565b808201808211156200049857634e487b7160e01b600052601160045260246000fd5b92915050565b6109d380620004ae6000396000f3fe608060405234801561001057600080fd5b50600436106100be5760003560e01c806370a0823111610076578063a9059cbb1161005b578063a9059cbb14610176578063d0679d3414610189578063dd62ed3e1461019e57600080fd5b806370a082311461013857806395d89b411461016e57600080fd5b806318160ddd116100a757806318160ddd1461010457806323b872dd14610116578063313ce5671461012957600080fd5b806306fdde03146100c3578063095ea7b3146100e1575b600080fd5b6100cb6101e4565b6040516100d891906107bf565b60405180910390f35b6100f46100ef366004610855565b610276565b60405190151581526020016100d8565b6002545b6040519081526020016100d8565b6100f461012436600461087f565b610290565b604051601281526020016100d8565b6101086101463660046108bb565b73ffffffffffffffffffffffffffffffffffffffff1660009081526020819052604090205490565b6100cb6102b4565b6100f4610184366004610855565b6102c3565b61019c610197366004610855565b6102d1565b005b6101086101ac3660046108dd565b73ffffffffffffffffffffffffffffffffffffffff918216600090815260016020908152604080832093909416825291909152205490565b6060600380546101f390610910565b80601f016020809104026020016040519081016040528092919081815260200182805461021f90610910565b801561026c5780601f106102415761010080835404028352916020019161026c565b820191906000526020600020905b81548152906001019060200180831161024f57829003601f168201915b5050505050905090565b6000336102848185856102df565b60019150505b92915050565b60003361029e8582856102f1565b6102a98585856103c5565b506001949350505050565b6060600480546101f390610910565b6000336102848185856103c5565b6102db8282610470565b5050565b6102ec83838360016104cc565b505050565b73ffffffffffffffffffffffffffffffffffffffff8381166000908152600160209081526040808320938616835292905220547fffffffffffffffffffffffffffffffffffffffffffffffffffffffffffffffff81146103bf57818110156103b0576040517ffb8f41b200000000000000000000000000000000000000000000000000000000815273ffffffffffffffffffffffffffffffffffffffff8416600482015260248101829052604481018390526064015b60405180910390fd5b6103bf848484840360006104cc565b50505050565b73ffffffffffffffffffffffffffffffffffffffff8316610415576040517f96c6fd1e000000000000000000000000000000000000000000000000000000008152600060048201526024016103a7565b73ffffffffffffffffffffffffffffffffffffffff8216610465576040517fec442f05000000000000000000000000000000000000000000000000000000008152600060048201526024016103a7565b6102ec838383610614565b73ffffffffffffffffffffffffffffffffffffffff82166104c0576040517fec442f05000000000000000000000000000000000000000000000000000000008152600060048201526024016103a7565b6102db60008383610614565b73ffffffffffffffffffffffffffffffffffffffff841661051c576040517fe602df05000000000000000000000000000000000000000000000000000000008152600060048201526024016103a7565b73ffffffffffffffffffffffffffffffffffffffff831661056c576040517f94280d62000000000000000000000000000000000000000000000000000000008152600060048201526024016103a7565b73ffffffffffffffffffffffffffffffffffffffff808516600090815260016020908152604080832093871683529290522082905580156103bf578273ffffffffffffffffffffffffffffffffffffffff168473ffffffffffffffffffffffffffffffffffffffff167f8c5be1e5ebec7d5bd14f71427d1e84f3dd0314c0f7b2291e5b200ac8c7c3b9258460405161060691815260200190565b60405180910390a350505050565b73ffffffffffffffffffffffffffffffffffffffff831661064c5780600260008282546106419190610963565b909155506106fe9050565b73ffffffffffffffffffffffffffffffffffffffff8316600090815260208190526040902054818110156106d2576040517fe450d38c00000000000000000000000000000000000000000000000000000000815273ffffffffffffffffffffffffffffffffffffffff8516600482015260248101829052604481018390526064016103a7565b73ffffffffffffffffffffffffffffffffffffffff841660009081526020819052604090209082900390555b73ffffffffffffffffffffffffffffffffffffffff821661072757600280548290039055610753565b73ffffffffffffffffffffffffffffffffffffffff821660009081526020819052604090208054820190555b8173ffffffffffffffffffffffffffffffffffffffff168373ffffffffffffffffffffffffffffffffffffffff167fddf252ad1be2c89b69c2b068fc378daa952ba7f163c4a11628f55a4df523b3ef836040516107b291815260200190565b60405180910390a3505050565b60006020808352835180602085015260005b818110156107ed578581018301518582016040015282016107d1565b5060006040828601015260407fffffffffffffffffffffffffffffffffffffffffffffffffffffffffffffffe0601f8301168501019250505092915050565b803573ffffffffffffffffffffffffffffffffffffffff8116811461085057600080fd5b919050565b6000806040838503121561086857600080fd5b6108718361082c565b946020939093013593505050565b60008060006060848603121561089457600080fd5b61089d8461082c565b92506108ab6020850161082c565b9150604084013590509250925092565b6000602082840312156108cd57600080fd5b6108d68261082c565b9392505050565b600080604083850312156108f057600080fd5b6108f98361082c565b91506109076020840161082c565b90509250929050565b600181811c9082168061092457607f821691505b60208210810361095d577f4e487b7100000000000000000000000000000000000000000000000000000000600052602260045260246000fd5b50919050565b8082018082111561028a577f4e487b7100000000000000000000000000000000000000000000000000000000600052601160045260246000fdfea26469706673582212206ddd77478263789fcb6731b6531b6096ccdfd9c22496571d883bfee25c9d342964736f6c63430008170033",
  "devdoc": {
    "errors": {
      "ERC20InsufficientAllowance(address,uint256,uint256)": [
        {
          "details": "Indicates a failure with the `spender`s `allowance`. Used in transfers.",
          "params": {
            "allowance": "Amount of tokens a `spender` is allowed to operate with.",
            "needed": "Minimum amount required to perform a transfer.",
            "spender": "Address that may be allowed to operate on tokens without being their owner."
          }
        }
      ],
      "ERC20InsufficientBalance(address,uint256,uint256)": [
        {
          "details": "Indicates an error related to the current `balance` of a `sender`. Used in transfers.",
          "params": {
            "balance": "Current balance for the interacting account.",
            "needed": "Minimum amount required to perform a transfer.",
            "sender": "Address whose tokens are being transferred."
          }
        }
      ],
      "ERC20InvalidApprover(address)": [
        {
          "details": "Indicates a failure with the `approver` of a token to be approved. Used in approvals.",
          "params": {
            "approver": "Address initiating an approval operation."
          }
        }
      ],
      "ERC20InvalidReceiver(address)": [
        {
          "details": "Indicates a failure with the token `receiver`. Used in transfers.",
          "params": {
            "receiver": "Address to which tokens are being transferred."
          }
        }
      ],
      "ERC20InvalidSender(address)": [
        {
          "details": "Indicates a failure with the token `sender`. Used in transfers.",
          "params": {
            "sender": "Address whose tokens are being transferred."
          }
        }
      ],
      "ERC20InvalidSpender(address)": [
        {
          "details": "Indicates a failure with the `spender` to be approved. Used in approvals.",
          "params": {
            "spender": "Address that may be allowed to operate on tokens without being their owner."
          }
        }
      ]
    },
    "events": {
      "Approval(address,address,uint256)": {
        "details": "Emitted when the allowance of a `spender` for an `owner` is set by a call to {approve}. `value` is the new allowance."
      },
      "Transfer(address,address,uint256)": {
        "details": "Emitted when `value` tokens are moved from one account (`from`) to another (`to`). Note that `value` may be zero."
      }
    },
    "kind": "dev",
    "methods": {
      "allowance(address,address)": {
        "details": "See {IERC20-allowance}."
      },
      "approve(address,uint256)": {
        "details": "See {IERC20-approve}. NOTE: If `value` is the maximum `uint256`, the allowance is not updated on `transferFrom`. This is semantically equivalent to an infinite approval. Requirements: - `spender` cannot be the zero address."
      },
      "balanceOf(address)": {
        "details": "See {IERC20-balanceOf}."
      },
      "decimals()": {
        "details": "Returns the number of decimals used to get its user representation. For example, if `decimals` equals `2`, a balance of `505` tokens should be displayed to a user as `5.05` (`505 / 10 ** 2`). Tokens usually opt for a value of 18, imitating the relationship between Ether and Wei. This is the default value returned by this function, unless it's overridden. NOTE: This information is only used for _display_ purposes: it in no way affects any of the arithmetic of the contract, including {IERC20-balanceOf} and {IERC20-transfer}."
      },
      "name()": {
        "details": "Returns the name of the token."
      },
      "symbol()": {
        "details": "Returns the symbol of the token, usually a shorter version of the name."
      },
      "totalSupply()": {
        "details": "See {IERC20-totalSupply}."
      },
      "transfer(address,uint256)": {
        "details": "See {IERC20-transfer}. Requirements: - `to` cannot be the zero address. - the caller must have a balance of at least `value`."
      },
      "transferFrom(address,address,uint256)": {
        "details": "See {IERC20-transferFrom}. Emits an {Approval} event indicating the updated allowance. This is not required by the EIP. See the note at the beginning of {ERC20}. NOTE: Does not update the allowance if the current allowance is the maximum `uint256`. Requirements: - `from` and `to` cannot be the zero address. - `from` must have a balance of at least `value`. - the caller must have allowance for ``from``'s tokens of at least `value`."
      }
    },
    "version": 1
  },
  "userdoc": {
    "kind": "user",
    "methods": {},
    "version": 1
  },
  "storageLayout": {
    "storage": [
      {
        "astId": 1276,
        "contract": "contracts/DMSToken.sol:DMSToken",
        "label": "_balances",
        "offset": 0,
        "slot": "0",
        "type": "t_mapping(t_address,t_uint256)"
      },
      {
        "astId": 1282,
        "contract": "contracts/DMSToken.sol:DMSToken",
        "label": "_allowances",
        "offset": 0,
        "slot": "1",
        "type": "t_mapping(t_address,t_mapping(t_address,t_uint256))"
      },
      {
        "astId": 1284,
        "contract": "contracts/DMSToken.sol:DMSToken",
        "label": "_totalSupply",
        "offset": 0,
        "slot": "2",
        "type": "t_uint256"
      },
      {
        "astId": 1286,
        "contract": "contracts/DMSToken.sol:DMSToken",
        "label": "_name",
        "offset": 0,
        "slot": "3",
        "type": "t_string_storage"
      },
      {
        "astId": 1288,
        "contract": "contracts/DMSToken.sol:DMSToken",
        "label": "_symbol",
        "offset": 0,
        "slot": "4",
        "type": "t_string_storage"
      }
    ],
    "types": {
      "t_address": {
        "encoding": "inplace",
        "label": "address",
        "numberOfBytes": "20"
      },
      "t_mapping(t_address,t_mapping(t_address,t_uint256))": {
        "encoding": "mapping",
        "key": "t_address",
        "label": "mapping(address => mapping(address => uint256))",
        "numberOfBytes": "32",
        "value": "t_mapping(t_address,t_uint256)"
      },
      "t_mapping(t_address,t_uint256)": {
        "encoding": "mapping",
        "key": "t_address",
        "label": "mapping(address => uint256)",
        "numberOfBytes": "32",
        "value": "t_uint256"
      },
      "t_string_storage": {
        "encoding": "bytes",
        "label": "string",
        "numberOfBytes": "32"
      },
      "t_uint256": {
        "encoding": "inplace",
        "label": "uint256",
        "numberOfBytes": "32"
      }
    }
  }
}