{
  "address": "0xa2F6E6029638cCb484A2ccb6414499aD3e825CaC",
  "abi": [
    {
      "inputs": [
        {
          "internalType": "uint256",
          "name": "_unlockTime",
          "type": "uint256"
        },
        {
          "internalType": "address",
          "name": "_token",
          "type": "address"
        },
        {
          "internalType": "address",
          "name": "_to",
          "type": "address"
        }
      ],
      "stateMutability": "payable",
      "type": "constructor"
    },
    {
      "anonymous": false,
      "inputs": [
        {
          "indexed": false,
          "internalType": "uint256",
          "name": "amount",
          "type": "uint256"
        },
        {
          "indexed": false,
          "internalType": "uint256",
          "name": "when",
          "type": "uint256"
        }
      ],
      "name": "Withdrawal",
      "type": "event"
    },
    {
      "inputs": [],
      "name": "owner",
      "outputs": [
        {
          "internalType": "address payable",
          "name": "",
          "type": "address"
        }
      ],
      "stateMutability": "view",
      "type": "function"
    },
    {
      "inputs": [],
      "name": "token",
      "outputs": [
        {
          "internalType": "address",
          "name": "",
          "type": "address"
        }
      ],
      "stateMutability": "view",
      "type": "function"
    },
    {
      "inputs": [],
      "name": "unlockTime",
      "outputs": [
        {
          "internalType": "uint256",
          "name": "",
          "type": "uint256"
        }
      ],
      "stateMutability": "view",
      "type": "function"
    },
    {
      "inputs": [],
      "name": "withdraw",
      "outputs": [],
      "stateMutability": "nonpayable",
      "type": "function"
    }
  ],
  "transactionHash": "0x466776b54129744608215c4ab176cf4d02f15b7e1e01946c8370ca7bb13dd373",
  "args": [
    1746573281,
    "0x2B2f78c5BF6D9C12Ee1225D5F374aa91204580c3",
    "0xF49b089183Ec02baD392630a82C0f5B5C3BfAbe9"
  ],
  "numDeployments": 1,
  "solcInputHash": "72a9205f02e0da42d19bdd74cc3fbdd9",
  "bytecode": "0x608060405260405161066e38038061066e833981016040819052610022916102c0565b8242106100825760405162461bcd60e51b815260206004820152602360248201527f556e6c6f636b2074696d652073686f756c6420626520696e207468652066757460448201526275726560e81b60648201526084015b60405180910390fd5b6000839055600280546001600160a01b0384166001600160a01b031991821617909155600180549091163317905560408051808201909152600e81526d03a3434b99030b2323932b9b99d160951b60208201526100df9030610220565b600254604080518082018252601581527f73656e6428616464726573732c75696e74323536290000000000000000000000602090910152516001600160a01b038381166024830152600a604483015260009216907fd0679d348e31f920eb3e7d19ca8e6e0eefd2a433b604fce4d93f5c4960573aed9060640160408051601f198184030181529181526020820180516001600160e01b03166001600160e01b03199094169390931790925290516101969190610320565b6000604051808303816000865af19150503d80600081146101d3576040519150601f19603f3d011682016040523d82523d6000602084013e6101d8565b606091505b50509050806102175760405162461bcd60e51b815260206004820152600b60248201526a14d95b990819985a5b195960aa1b6044820152606401610079565b50505050610380565b610269828260405160240161023692919061033c565b60408051601f198184030181529190526020810180516001600160e01b0390811663319af33360e01b1790915261026d16565b5050565b6102808161028360201b61024f1760201c565b50565b60006a636f6e736f6c652e6c6f679050600080835160208501845afa505050565b80516001600160a01b03811681146102bb57600080fd5b919050565b6000806000606084860312156102d557600080fd5b835192506102e5602085016102a4565b91506102f3604085016102a4565b90509250925092565b60005b838110156103175781810151838201526020016102ff565b50506000910152565b600082516103328184602087016102fc565b9190910192915050565b604081526000835180604084015261035b8160608501602088016102fc565b6001600160a01b0393909316602083015250601f91909101601f191601606001919050565b6102df8061038f6000396000f3fe608060405234801561001057600080fd5b506004361061004c5760003560e01c8063251c1aa3146100515780633ccfd60b1461006d5780638da5cb5b14610077578063fc0c546a146100bc575b600080fd5b61005a60005481565b6040519081526020015b60405180910390f35b6100756100dc565b005b6001546100979073ffffffffffffffffffffffffffffffffffffffff1681565b60405173ffffffffffffffffffffffffffffffffffffffff9091168152602001610064565b6002546100979073ffffffffffffffffffffffffffffffffffffffff1681565b60005442101561014d576040517f08c379a000000000000000000000000000000000000000000000000000000000815260206004820152601660248201527f596f752063616e2774207769746864726177207965740000000000000000000060448201526064015b60405180910390fd5b60015473ffffffffffffffffffffffffffffffffffffffff1633146101ce576040517f08c379a000000000000000000000000000000000000000000000000000000000815260206004820152601460248201527f596f75206172656e277420746865206f776e65720000000000000000000000006044820152606401610144565b604080514781524260208201527fbf2ed60bd5b5965d685680c01195c9514e4382e28e3a5a2d2d5244bf59411b93910160405180910390a160015460405173ffffffffffffffffffffffffffffffffffffffff909116904780156108fc02916000818181858888f1935050505015801561024c573d6000803e3d6000fd5b50565b60006a636f6e736f6c652e6c6f679050600080835160208501845afa505050565b61027861027a565b565b7f4e487b7100000000000000000000000000000000000000000000000000000000600052605160045260246000fdfea26469706673582212207bade92d57bf8a8765914e1854072f938cc421e9307485a7eb3678806456e17364736f6c63430008170033",
  "devdoc": {
    "kind": "dev",
    "methods": {},
    "version": 1
  },
  "userdoc": {
    "kind": "user",
    "methods": {},
    "version": 1
  },
  "storageLayout": {
    "storage": [
      {
        "astId": 6642,
        "contract": "contracts/old/Lock2.sol:Lock2",
        "label": "unlockTime",
        "offset": 0,
        "slot": "0",
        "type": "t_uint256"
      },
      {
        "astId": 6644,
        "contract": "contracts/old/Lock2.sol:Lock2",
        "label": "owner",
        "offset": 0,
        "slot": "1",
        "type": "t_address_payable"
      },
      {
        "astId": 6657,
        "contract": "contracts/old/Lock2.sol:Lock2",
        "label": "token",
        "offset": 0,
        "slot": "2",
        "type": "t_address"
      }
    ],
    "types": {
      "t_address": {
        "encoding": "inplace",
        "label": "address",
        "numberOfBytes": "20"
      },
      "t_address_payable": {
        "encoding": "inplace",
        "label": "address payable",
        "numberOfBytes": "20"
      },
      "t_uint256": {
        "encoding": "inplace",
        "label": "uint256",
        "numberOfBytes": "32"
      }
    }
  }
}