{"abi":[{"type":"function","name":"isValidSignature","inputs":[{"name":"digest","type":"bytes32","internalType":"bytes32"},{"name":"signature","type":"bytes","internalType":"bytes"}],"outputs":[{"name":"","type":"bytes4","internalType":"bytes4"}],"stateMutability":"pure"},{"type":"function","name":"sign","inputs":[{"name":"digest","type":"bytes32","internalType":"bytes32"}],"outputs":[{"name":"","type":"bytes","internalType":"bytes"}],"stateMutability":"pure"}],"bytecode":{"object":"0x6080604052348015600f57600080fd5b506102478061001f6000396000f3fe608060405234801561001057600080fd5b50600436106100365760003560e01c80631626ba7e1461003b578063799cd3331461006c575b600080fd5b61004e610049366004610110565b61008c565b6040516001600160e01b031990911681526020015b60405180910390f35b61007f61007a3660046101d3565b6100ca565b60405161006391906101ec565b6000610097836100ca565b805190602001208280519060200120036100b95750630b135d3f60e11b6100c4565b506001600160e01b03195b92915050565b6040805167029b4b3b732b21d160c51b602082015260288082019390935281518082039093018352604801905290565b634e487b7160e01b600052604160045260246000fd5b6000806040838503121561012357600080fd5b82359150602083013567ffffffffffffffff81111561014157600080fd5b8301601f8101851361015257600080fd5b803567ffffffffffffffff81111561016c5761016c6100fa565b604051601f8201601f19908116603f0116810167ffffffffffffffff8111828210171561019b5761019b6100fa565b6040528181528282016020018710156101b357600080fd5b816020840160208301376000602083830101528093505050509250929050565b6000602082840312156101e557600080fd5b5035919050565b602081526000825180602084015260005b8181101561021a57602081860181015160408684010152016101fd565b506000604082850101526040601f19601f8301168401019150509291505056fea164736f6c634300081a000a","linkReferences":{}},"methodIdentifiers":{"isValidSignature(bytes32,bytes)":"1626ba7e","sign(bytes32)":"799cd333"},"id":149}