{"abi":[{"type":"function","name":"checkAllowlistCalldata","inputs":[{"name":"entityId","type":"uint32","internalType":"uint32"},{"name":"callData","type":"bytes","internalType":"bytes"}],"outputs":[],"stateMutability":"view"},{"type":"function","name":"moduleId","inputs":[],"outputs":[{"name":"","type":"string","internalType":"string"}],"stateMutability":"pure"},{"type":"function","name":"onInstall","inputs":[{"name":"data","type":"bytes","internalType":"bytes"}],"outputs":[],"stateMutability":"nonpayable"},{"type":"function","name":"onUninstall","inputs":[{"name":"data","type":"bytes","internalType":"bytes"}],"outputs":[],"stateMutability":"nonpayable"},{"type":"function","name":"preRuntimeValidationHook","inputs":[{"name":"entityId","type":"uint32","internalType":"uint32"},{"name":"","type":"address","internalType":"address"},{"name":"","type":"uint256","internalType":"uint256"},{"name":"data","type":"bytes","internalType":"bytes"},{"name":"","type":"bytes","internalType":"bytes"}],"outputs":[],"stateMutability":"view"},{"type":"function","name":"preSignatureValidationHook","inputs":[{"name":"","type":"uint32","internalType":"uint32"},{"name":"","type":"address","internalType":"address"},{"name":"","type":"bytes32","internalType":"bytes32"},{"name":"","type":"bytes","internalType":"bytes"}],"outputs":[],"stateMutability":"pure"},{"type":"function","name":"preUserOpValidationHook","inputs":[{"name":"entityId","type":"uint32","internalType":"uint32"},{"name":"userOp","type":"tuple","internalType":"struct PackedUserOperation","components":[{"name":"sender","type":"address","internalType":"address"},{"name":"nonce","type":"uint256","internalType":"uint256"},{"name":"initCode","type":"bytes","internalType":"bytes"},{"name":"callData","type":"bytes","internalType":"bytes"},{"name":"accountGasLimits","type":"bytes32","internalType":"bytes32"},{"name":"preVerificationGas","type":"uint256","internalType":"uint256"},{"name":"gasFees","type":"bytes32","internalType":"bytes32"},{"name":"paymasterAndData","type":"bytes","internalType":"bytes"},{"name":"signature","type":"bytes","internalType":"bytes"}]},{"name":"","type":"bytes32","internalType":"bytes32"}],"outputs":[{"name":"","type":"uint256","internalType":"uint256"}],"stateMutability":"view"},{"type":"function","name":"selectorAllowlist","inputs":[{"name":"entityId","type":"uint32","internalType":"uint32"},{"name":"target","type":"address","internalType":"address"},{"name":"selector","type":"bytes4","internalType":"bytes4"},{"name":"account","type":"address","internalType":"address"}],"outputs":[{"name":"","type":"bool","internalType":"bool"}],"stateMutability":"view"},{"type":"function","name":"setAllowlistSelector","inputs":[{"name":"entityId","type":"uint32","internalType":"uint32"},{"name":"target","type":"address","internalType":"address"},{"name":"selector","type":"bytes4","internalType":"bytes4"},{"name":"allowed","type":"bool","internalType":"bool"}],"outputs":[],"stateMutability":"nonpayable"},{"type":"function","name":"setAllowlistTarget","inputs":[{"name":"entityId","type":"uint32","internalType":"uint32"},{"name":"target","type":"address","internalType":"address"},{"name":"allowed","type":"bool","internalType":"bool"},{"name":"hasSelectorAllowlist","type":"bool","internalType":"bool"}],"outputs":[],"stateMutability":"nonpayable"},{"type":"function","name":"supportsInterface","inputs":[{"name":"interfaceId","type":"bytes4","internalType":"bytes4"}],"outputs":[{"name":"","type":"bool","internalType":"bool"}],"stateMutability":"view"},{"type":"function","name":"targetAllowlist","inputs":[{"name":"entityId","type":"uint32","internalType":"uint32"},{"name":"target","type":"address","internalType":"address"},{"name":"account","type":"address","internalType":"address"}],"outputs":[{"name":"allowed","type":"bool","internalType":"bool"},{"name":"hasSelectorAllowlist","type":"bool","internalType":"bool"}],"stateMutability":"view"},{"type":"event","name":"AllowlistSelectorUpdated","inputs":[{"name":"entityId","type":"uint32","indexed":true,"internalType":"uint32"},{"name":"account","type":"address","indexed":true,"internalType":"address"},{"name":"targetAndSelector","type":"bytes24","indexed":true,"internalType":"bytes24"},{"name":"allowed","type":"bool","indexed":false,"internalType":"bool"}],"anonymous":false},{"type":"event","name":"AllowlistTargetUpdated","inputs":[{"name":"entityId","type":"uint32","indexed":true,"internalType":"uint32"},{"name":"account","type":"address","indexed":true,"internalType":"address"},{"name":"target","type":"address","indexed":true,"internalType":"address"},{"name":"entry","type":"tuple","indexed":false,"internalType":"struct AllowlistModule.AllowlistEntry","components":[{"name":"allowed","type":"bool","internalType":"bool"},{"name":"hasSelectorAllowlist","type":"bool","internalType":"bool"}]}],"anonymous":false},{"type":"error","name":"NoSelectorSpecified","inputs":[]},{"type":"error","name":"NotImplemented","inputs":[]},{"type":"error","name":"SelectorNotAllowed","inputs":[]},{"type":"error","name":"TargetNotAllowed","inputs":[]}],"bytecode":{"object":"0x6080604052348015600f57600080fd5b506111cd8061001f6000396000f3fe608060405234801561001057600080fd5b50600436106100b45760003560e01c80635fa5de5e116100715780635fa5de5e146101925780636d61fe70146101cf57806377c1da65146101e25780638a91b0e3146101f5578063a1308f2714610208578063eb424aa61461024757600080fd5b806301ffc9a7146100b95780630a80192f146100e1578063263d8632146100f65780632a3d428c146101495780633d6bda321461016a5780633f41826e1461017d575b600080fd5b6100cc6100c73660046108aa565b61025a565b60405190151581526020015b60405180910390f35b6100f46100ef366004610928565b610285565b005b610132610104366004610992565b6000602081815293815260408082208552928152828120909352825290205460ff8082169161010090041682565b6040805192151583529015156020830152016100d8565b61015c6101573660046109db565b61038c565b6040519081526020016100d8565b6100f4610178366004610a38565b6103a9565b6100f461018b366004610ad8565b5050505050565b6100cc6101a0366004610b48565b600160209081526000948552604080862082529385528385208152918452828420909152825290205460ff1681565b6100f46101dd366004610ba0565b6103bd565b6100f46101f0366004610bf1565b6104e1565b6100f4610203366004610ba0565b610599565b604080518082018252601e81527f657263363930302e616c6c6f776c6973742d6d6f64756c652e302e302e310000602082015290516100d89190610c47565b6100f4610255366004610c95565b6106a0565b60006001600160e01b0319821663028171ad60e41b148061027f575061027f82610750565b92915050565b635b0e93fb60e11b61029b600460008486610cd2565b6102a491610cfc565b6001600160e01b031916036102e1576000806102c38360048187610cd2565b8101906102d09190610e11565b925050915061018b85338484610785565b631a7e6adf60e11b6102f7600460008486610cd2565b61030091610cfc565b6001600160e01b0319160361038757600061031e8260048186610cd2565b81019061032b9190610e8c565b905060005b815181101561018b5761037f853384848151811061035057610350610f9d565b60200260200101516000015185858151811061036e5761036e610f9d565b602002602001015160400151610785565b600101610330565b505050565b600061039f846100ef6060860186610fb3565b5060009392505050565b6103b4878585610285565b50505050505050565b6000806103cc83850185610ff9565b9150915060005b815181101561018b57610423838383815181106103f2576103f2610f9d565b602002602001015160000151600185858151811061041257610412610f9d565b6020026020010151602001516104e1565b81818151811061043557610435610f9d565b602002602001015160200151156104d95760005b82828151811061045b5761045b610f9d565b602002602001015160400151518110156104d7576104cf8484848151811061048557610485610f9d565b6020026020010151600001518585815181106104a3576104a3610f9d565b60200260200101516040015184815181106104c0576104c0610f9d565b602002602001015160016106a0565b600101610449565b505b6001016103d3565b6040805180820182528315158152821515602080830191825263ffffffff881660008181528083528581206001600160a01b038a16808352908452868220338084529085529187902086518154875115156101000261ff001992151592831661ffff19909216919091171790915587519081529451151593850193909352939491939290917f77852f2ab9ef10747088eb1fc2ef48dbba1012f6c2d58f4031974265b49263f791015b60405180910390a45050505050565b6000806105a883850185610ff9565b9150915060005b815181101561018b576105e2838383815181106105ce576105ce610f9d565b6020026020010151600001516000806104e1565b8181815181106105f4576105f4610f9d565b602002602001015160200151156106985760005b82828151811061061a5761061a610f9d565b602002602001015160400151518110156106965761068e8484848151811061064457610644610f9d565b60200260200101516000015185858151811061066257610662610f9d565b602002602001015160400151848151811061067f5761067f610f9d565b602002602001015160006106a0565b600101610608565b505b6001016105af565b63ffffffff841660008181526001602090815260408083206001600160a01b038816845282528083206001600160e01b03198716845282528083203380855290835292819020805460ff1916861515908117909155905190815260a086901c6bffffffff000000000000000016606088901b6bffffffffffffffffffffffff1916179384939290917fd799b45a4588541dc29269c9c7ae941807b6bf1fa40c61fd3335c1cbee2e8167910161058a565b60006001600160e01b031982166311b0306d60e21b148061027f57506301ffc9a760e01b6001600160e01b031983161461027f565b63ffffffff84166000908152602081815260408083206001600160a01b03808716855290835281842090871684529091529020805460ff80821691610100900416816107e4576040516348cbf26d60e01b815260040160405180910390fd5b80156103b45760048451101561080d57604051633aeca77f60e01b815260040160405180910390fd5b600061081885611182565b63ffffffff891660009081526001602090815260408083206001600160a01b03808c1685529083528184206001600160e01b0319861685528352818420908c16845290915290205490915060ff1661088357604051635eda8c6960e11b815260040160405180910390fd5b5050505050505050565b80356001600160e01b0319811681146108a557600080fd5b919050565b6000602082840312156108bc57600080fd5b6108c58261088d565b9392505050565b803563ffffffff811681146108a557600080fd5b60008083601f8401126108f257600080fd5b5081356001600160401b0381111561090957600080fd5b60208301915083602082850101111561092157600080fd5b9250929050565b60008060006040848603121561093d57600080fd5b610946846108cc565b925060208401356001600160401b0381111561096157600080fd5b61096d868287016108e0565b9497909650939450505050565b6001600160a01b038116811461098f57600080fd5b50565b6000806000606084860312156109a757600080fd5b6109b0846108cc565b925060208401356109c08161097a565b915060408401356109d08161097a565b809150509250925092565b6000806000606084860312156109f057600080fd5b6109f9846108cc565b925060208401356001600160401b03811115610a1457600080fd5b84016101208187031215610a2757600080fd5b929592945050506040919091013590565b600080600080600080600060a0888a031215610a5357600080fd5b610a5c886108cc565b96506020880135610a6c8161097a565b95506040880135945060608801356001600160401b03811115610a8e57600080fd5b610a9a8a828b016108e0565b90955093505060808801356001600160401b03811115610ab957600080fd5b610ac58a828b016108e0565b989b979a50959850939692959293505050565b600080600080600060808688031215610af057600080fd5b610af9866108cc565b94506020860135610b098161097a565b93506040860135925060608601356001600160401b03811115610b2b57600080fd5b610b37888289016108e0565b969995985093965092949392505050565b60008060008060808587031215610b5e57600080fd5b610b67856108cc565b93506020850135610b778161097a565b9250610b856040860161088d565b91506060850135610b958161097a565b939692955090935050565b60008060208385031215610bb357600080fd5b82356001600160401b03811115610bc957600080fd5b610bd5858286016108e0565b90969095509350505050565b803580151581146108a557600080fd5b60008060008060808587031215610c0757600080fd5b610c10856108cc565b93506020850135610c208161097a565b9250610c2e60408601610be1565b9150610c3c60608601610be1565b905092959194509250565b602081526000825180602084015260005b81811015610c755760208186018101516040868401015201610c58565b506000604082850101526040601f19601f83011684010191505092915050565b60008060008060808587031215610cab57600080fd5b610cb4856108cc565b93506020850135610cc48161097a565b9250610c2e6040860161088d565b60008085851115610ce257600080fd5b83861115610cef57600080fd5b5050820193919092039150565b80356001600160e01b03198116906004841015610d2d576001600160e01b0319600485900360031b81901b82161691505b5092915050565b634e487b7160e01b600052604160045260246000fd5b604051606081016001600160401b0381118282101715610d6c57610d6c610d34565b60405290565b604051601f8201601f191681016001600160401b0381118282101715610d9a57610d9a610d34565b604052919050565b600082601f830112610db357600080fd5b81356001600160401b03811115610dcc57610dcc610d34565b610ddf601f8201601f1916602001610d72565b818152846020838601011115610df457600080fd5b816020850160208301376000918101602001919091529392505050565b600080600060608486031215610e2657600080fd5b8335610e318161097a565b92506020840135915060408401356001600160401b03811115610e5357600080fd5b610e5f86828701610da2565b9150509250925092565b60006001600160401b03821115610e8257610e82610d34565b5060051b60200190565b600060208284031215610e9e57600080fd5b81356001600160401b03811115610eb457600080fd5b8201601f81018413610ec557600080fd5b8035610ed8610ed382610e69565b610d72565b8082825260208201915060208360051b850101925086831115610efa57600080fd5b602084015b83811015610f925780356001600160401b03811115610f1d57600080fd5b85016060818a03601f19011215610f3357600080fd5b610f3b610d4a565b6020820135610f498161097a565b81526040820135602082015260608201356001600160401b03811115610f6e57600080fd5b610f7d8b602083860101610da2565b60408301525084525060209283019201610eff565b509695505050505050565b634e487b7160e01b600052603260045260246000fd5b6000808335601e19843603018112610fca57600080fd5b8301803591506001600160401b03821115610fe457600080fd5b60200191503681900382131561092157600080fd5b6000806040838503121561100c57600080fd5b611015836108cc565b915060208301356001600160401b0381111561103057600080fd5b8301601f8101851361104157600080fd5b803561104f610ed382610e69565b8082825260208201915060208360051b85010192508783111561107157600080fd5b602084015b838110156111735780356001600160401b0381111561109457600080fd5b85016060818b03601f190112156110aa57600080fd5b6110b2610d4a565b60208201356110c08161097a565b81526110ce60408301610be1565b602082015260608201356001600160401b038111156110ec57600080fd5b6020818401019250508a601f83011261110457600080fd5b8135611112610ed382610e69565b8082825260208201915060208360051b86010192508d83111561113457600080fd5b6020850194505b8285101561115d5761114c8561088d565b82526020948501949091019061113b565b6040840152505084525060209283019201611076565b50809450505050509250929050565b805160208201516001600160e01b03198116919060048210156111b9576001600160e01b0319600483900360031b81901b82161692505b505091905056fea164736f6c634300081a000a","linkReferences":{}},"methodIdentifiers":{"checkAllowlistCalldata(uint32,bytes)":"0a80192f","moduleId()":"a1308f27","onInstall(bytes)":"6d61fe70","onUninstall(bytes)":"8a91b0e3","preRuntimeValidationHook(uint32,address,uint256,bytes,bytes)":"3d6bda32","preSignatureValidationHook(uint32,address,bytes32,bytes)":"3f41826e","preUserOpValidationHook(uint32,(address,uint256,bytes,bytes,bytes32,uint256,bytes32,bytes,bytes),bytes32)":"2a3d428c","selectorAllowlist(uint32,address,bytes4,address)":"5fa5de5e","setAllowlistSelector(uint32,address,bytes4,bool)":"eb424aa6","setAllowlistTarget(uint32,address,bool,bool)":"77c1da65","supportsInterface(bytes4)":"01ffc9a7","targetAllowlist(uint32,address,address)":"263d8632"},"id":123}