{"abi":[{"type":"function","name":"executionManifest","inputs":[],"outputs":[{"name":"","type":"tuple","internalType":"struct ExecutionManifest","components":[{"name":"executionFunctions","type":"tuple[]","internalType":"struct ManifestExecutionFunction[]","components":[{"name":"executionSelector","type":"bytes4","internalType":"bytes4"},{"name":"skipRuntimeValidation","type":"bool","internalType":"bool"},{"name":"allowGlobalValidation","type":"bool","internalType":"bool"}]},{"name":"executionHooks","type":"tuple[]","internalType":"struct ManifestExecutionHook[]","components":[{"name":"executionSelector","type":"bytes4","internalType":"bytes4"},{"name":"entityId","type":"uint32","internalType":"uint32"},{"name":"isPreHook","type":"bool","internalType":"bool"},{"name":"isPostHook","type":"bool","internalType":"bool"}]},{"name":"interfaceIds","type":"bytes4[]","internalType":"bytes4[]"}]}],"stateMutability":"pure"},{"type":"function","name":"moduleId","inputs":[],"outputs":[{"name":"","type":"string","internalType":"string"}],"stateMutability":"pure"},{"type":"function","name":"onInstall","inputs":[{"name":"","type":"bytes","internalType":"bytes"}],"outputs":[],"stateMutability":"nonpayable"},{"type":"function","name":"onUninstall","inputs":[{"name":"","type":"bytes","internalType":"bytes"}],"outputs":[],"stateMutability":"nonpayable"},{"type":"function","name":"supportsInterface","inputs":[{"name":"interfaceId","type":"bytes4","internalType":"bytes4"}],"outputs":[{"name":"","type":"bool","internalType":"bool"}],"stateMutability":"view"},{"type":"function","name":"usePermittedCallAllowed","inputs":[],"outputs":[{"name":"","type":"bytes","internalType":"bytes"}],"stateMutability":"view"},{"type":"function","name":"usePermittedCallNotAllowed","inputs":[],"outputs":[{"name":"","type":"bytes","internalType":"bytes"}],"stateMutability":"view"},{"type":"error","name":"NotImplemented","inputs":[]}],"bytecode":{"object":"0x6080604052348015600f57600080fd5b506106178061001f6000396000f3fe608060405234801561001057600080fd5b506004361061007d5760003560e01c80638a91b0e31161005b5780638a91b0e3146100bf5780638dad4a55146100d3578063a1308f27146100db578063ae5628c6146100e357600080fd5b806301ffc9a7146100825780631564eca0146100aa5780636d61fe70146100bf575b600080fd5b610095610090366004610356565b6100f8565b60405190151581526020015b60405180910390f35b6100b261012f565b6040516100a191906103cd565b6100d16100cd3660046103e0565b5050565b005b6100b26101b9565b6100b26101f9565b6100eb610219565b6040516100a19190610503565b60006001600160e01b031982166311b0306d60e21b148061012957506301ffc9a760e01b6001600160e01b03198316145b92915050565b6060336001600160a01b031663febb0f7e6040518163ffffffff1660e01b8152600401602060405180830381865afa15801561016f573d6000803e3d6000fd5b505050506040513d601f19601f8201168201806040525081019061019391906105b6565b6040516020016101a591815260200190565b604051602081830303815290604052905090565b6060336001600160a01b031663c29855786040518163ffffffff1660e01b8152600401602060405180830381865afa15801561016f573d6000803e3d6000fd5b60606040518060600160405280602581526020016105e660259139905090565b61023d60405180606001604052806060815260200160608152602001606081525090565b61026160405180606001604052806060815260200160608152602001606081525090565b6040805160028082526060820190925290816020015b60408051606081018252600080825260208083018290529282015282526000199092019101816102775750508082528051638dad4a5560e01b91906000906102c1576102c16105cf565b60209081029190910101516001600160e01b031990911690528051805162ab276560e51b919060019081106102f8576102f86105cf565b60209081029190910101516001600160e01b0319909116905260005b81515181101561035057600182600001518281518110610336576103366105cf565b602090810291909101810151911515910152600101610314565b50919050565b60006020828403121561036857600080fd5b81356001600160e01b03198116811461038057600080fd5b9392505050565b6000815180845260005b818110156103ad57602081850181015186830182015201610391565b506000602082860101526020601f19601f83011685010191505092915050565b6020815260006103806020830184610387565b600080602083850312156103f357600080fd5b823567ffffffffffffffff81111561040a57600080fd5b8301601f8101851361041b57600080fd5b803567ffffffffffffffff81111561043257600080fd5b85602082840101111561044457600080fd5b6020919091019590945092505050565b600081518084526020840193506020830160005b828110156104bd57815180516001600160e01b031916875260208082015163ffffffff168189015260408083015115159089015260609182015115159188019190915260809096019590910190600101610468565b5093949350505050565b600081518084526020840193506020830160005b828110156104bd5781516001600160e01b0319168652602095860195909101906001016104db565b602080825282516060838301528051608084018190526000929190910190829060a08501905b8083101561057057835163ffffffff60e01b815116835260208101511515602084015260408101511515604084015250606082019150602084019350600183019250610529565b506020860151858203601f19016040870152925061058e8184610454565b925050506040840151601f198483030160608501526105ad82826104c7565b95945050505050565b6000602082840312156105c857600080fd5b5051919050565b634e487b7160e01b600052603260045260246000fdfe657263363930302e7065726d69747465642d63616c6c65722d6d6f64756c652e312e302e30a164736f6c634300081a000a","linkReferences":{}},"methodIdentifiers":{"executionManifest()":"ae5628c6","moduleId()":"a1308f27","onInstall(bytes)":"6d61fe70","onUninstall(bytes)":"8a91b0e3","supportsInterface(bytes4)":"01ffc9a7","usePermittedCallAllowed()":"8dad4a55","usePermittedCallNotAllowed()":"1564eca0"},"id":161}