{
  "_format": "hh-sol-artifact-1",
  "contractName": "SecretDoor",
  "sourceName": "contracts/zhacking/2-sensitive/SecretDoor.sol",
  "abi": [
    {
      "inputs": [
        {
          "internalType": "uint8",
          "name": "_doorNumber",
          "type": "uint8"
        },
        {
          "internalType": "bool",
          "name": "_isLocked",
          "type": "bool"
        },
        {
          "internalType": "bytes32",
          "name": "_doorOwnerName",
          "type": "bytes32"
        },
        {
          "internalType": "bytes32",
          "name": "_secretSpell",
          "type": "bytes32"
        }
      ],
      "stateMutability": "nonpayable",
      "type": "constructor"
    },
    {
      "anonymous": false,
      "inputs": [
        {
          "indexed": true,
          "internalType": "address",
          "name": "previousOwner",
          "type": "address"
        },
        {
          "indexed": true,
          "internalType": "address",
          "name": "newOwner",
          "type": "address"
        }
      ],
      "name": "OwnershipTransferred",
      "type": "event"
    },
    {
      "inputs": [],
      "name": "isLocked",
      "outputs": [
        {
          "internalType": "bool",
          "name": "",
          "type": "bool"
        }
      ],
      "stateMutability": "view",
      "type": "function"
    },
    {
      "inputs": [],
      "name": "owner",
      "outputs": [
        {
          "internalType": "address",
          "name": "",
          "type": "address"
        }
      ],
      "stateMutability": "view",
      "type": "function"
    },
    {
      "inputs": [],
      "name": "renounceOwnership",
      "outputs": [],
      "stateMutability": "nonpayable",
      "type": "function"
    },
    {
      "inputs": [
        {
          "internalType": "address",
          "name": "newOwner",
          "type": "address"
        }
      ],
      "name": "transferOwnership",
      "outputs": [],
      "stateMutability": "nonpayable",
      "type": "function"
    },
    {
      "inputs": [
        {
          "internalType": "bytes32",
          "name": "_secretSpell",
          "type": "bytes32"
        }
      ],
      "name": "unlockDoor",
      "outputs": [
        {
          "internalType": "bool",
          "name": "",
          "type": "bool"
        }
      ],
      "stateMutability": "nonpayable",
      "type": "function"
    }
  ],
  "bytecode": "0x608060405234801561000f575f80fd5b506040516104c83803806104c883398101604081905261002e916100be565b6100373361006f565b600180556002805493151560ff1960ff909616610100029590951661ffff19909416939093179390931790915560035560045561010c565b5f80546001600160a01b038381166001600160a01b0319831681178455604051919092169283917f8be0079c531659141344cd1fd0a4f28419497f9722a3daafe3b4186f6b6457e09190a35050565b5f805f80608085870312156100d1575f80fd5b845160ff811681146100e1575f80fd5b602086015190945080151581146100f6575f80fd5b6040860151606090960151949790965092505050565b6103af806101195f395ff3fe608060405234801561000f575f80fd5b5060043610610055575f3560e01c8063715018a6146100595780638da5cb5b14610063578063a4e2d63414610082578063c1ce0d431461009f578063f2fde38b146100b2575b5f80fd5b6100616100c5565b005b5f546040516001600160a01b0390911681526020015b60405180910390f35b60025461008f9060ff1681565b6040519015158152602001610079565b61008f6100ad3660046102e1565b6100d8565b6100616100c03660046102f8565b61014f565b6100cd6101cd565b6100d65f610226565b565b5f81600454036100f1576002805460ff191690556100ff565b6002805460ff191660011790555b60408051808201909152601881527f756e6c6f636b446f6f723a2069734c6f636b65643a20257300000000000000006020820152600254610143919060ff16610275565b505060025460ff161590565b6101576101cd565b6001600160a01b0381166101c15760405162461bcd60e51b815260206004820152602660248201527f4f776e61626c653a206e6577206f776e657220697320746865207a65726f206160448201526564647265737360d01b60648201526084015b60405180910390fd5b6101ca81610226565b50565b5f546001600160a01b031633146100d65760405162461bcd60e51b815260206004820181905260248201527f4f776e61626c653a2063616c6c6572206973206e6f7420746865206f776e657260448201526064016101b8565b5f80546001600160a01b038381166001600160a01b0319831681178455604051919092169283917f8be0079c531659141344cd1fd0a4f28419497f9722a3daafe3b4186f6b6457e09190a35050565b6102ba828260405160240161028b929190610325565b60408051601f198184030181529190526020810180516001600160e01b031663c3b5563560e01b1790526102be565b5050565b6101ca815f6a636f6e736f6c652e6c6f6790505f80835160208501845afa505050565b5f602082840312156102f1575f80fd5b5035919050565b5f60208284031215610308575f80fd5b81356001600160a01b038116811461031e575f80fd5b9392505050565b604081525f83518060408401525f5b818110156103515760208187018101516060868401015201610334565b505f606082850101526060601f19601f8301168401019150508215156020830152939250505056fea26469706673582212205a9391960f57c3047d6f5e6f13ff1750b408aedb19dc30218e6503754e9cd9d164736f6c63430008180033",
  "linkReferences": {},
  "deployedLinkReferences": {}
}