{"abi":[{"type":"constructor","inputs":[{"name":"_executionManifest","type":"tuple","internalType":"struct ExecutionManifest","components":[{"name":"executionFunctions","type":"tuple[]","internalType":"struct ManifestExecutionFunction[]","components":[{"name":"executionSelector","type":"bytes4","internalType":"bytes4"},{"name":"skipRuntimeValidation","type":"bool","internalType":"bool"},{"name":"allowGlobalValidation","type":"bool","internalType":"bool"}]},{"name":"executionHooks","type":"tuple[]","internalType":"struct ManifestExecutionHook[]","components":[{"name":"executionSelector","type":"bytes4","internalType":"bytes4"},{"name":"entityId","type":"uint32","internalType":"uint32"},{"name":"isPreHook","type":"bool","internalType":"bool"},{"name":"isPostHook","type":"bool","internalType":"bool"}]},{"name":"interfaceIds","type":"bytes4[]","internalType":"bytes4[]"}]}],"stateMutability":"nonpayable"},{"type":"fallback","stateMutability":"payable"},{"type":"receive","stateMutability":"payable"},{"type":"function","name":"executionManifest","inputs":[],"outputs":[{"name":"","type":"tuple","internalType":"struct ExecutionManifest","components":[{"name":"executionFunctions","type":"tuple[]","internalType":"struct ManifestExecutionFunction[]","components":[{"name":"executionSelector","type":"bytes4","internalType":"bytes4"},{"name":"skipRuntimeValidation","type":"bool","internalType":"bool"},{"name":"allowGlobalValidation","type":"bool","internalType":"bool"}]},{"name":"executionHooks","type":"tuple[]","internalType":"struct ManifestExecutionHook[]","components":[{"name":"executionSelector","type":"bytes4","internalType":"bytes4"},{"name":"entityId","type":"uint32","internalType":"uint32"},{"name":"isPreHook","type":"bool","internalType":"bool"},{"name":"isPostHook","type":"bool","internalType":"bool"}]},{"name":"interfaceIds","type":"bytes4[]","internalType":"bytes4[]"}]}],"stateMutability":"pure"},{"type":"function","name":"moduleId","inputs":[],"outputs":[{"name":"","type":"string","internalType":"string"}],"stateMutability":"pure"},{"type":"function","name":"supportsInterface","inputs":[{"name":"interfaceId","type":"bytes4","internalType":"bytes4"}],"outputs":[{"name":"","type":"bool","internalType":"bool"}],"stateMutability":"view"},{"type":"event","name":"ReceivedCall","inputs":[{"name":"msgData","type":"bytes","indexed":false,"internalType":"bytes"},{"name":"msgValue","type":"uint256","indexed":false,"internalType":"uint256"}],"anonymous":false}],"bytecode":{"object":"0x608060405234801561001057600080fd5b50604051610f17380380610f1783398101604081905261002f91610277565b80604051602001610040919061048a565b6040516020818303038152906040526000908161005d91906105c6565b5050610684565b634e487b7160e01b600052604160045260246000fd5b604051608081016001600160401b038111828210171561009c5761009c610064565b60405290565b604051606081016001600160401b038111828210171561009c5761009c610064565b604051601f8201601f191681016001600160401b03811182821017156100ec576100ec610064565b604052919050565b60006001600160401b0382111561010d5761010d610064565b5060051b60200190565b80516001600160e01b03198116811461012f57600080fd5b919050565b8051801515811461012f57600080fd5b600082601f83011261015557600080fd5b8151610168610163826100f4565b6100c4565b8082825260208201915060208360071b86010192508583111561018a57600080fd5b602085015b8381101561020857608081880312156101a757600080fd5b6101af61007a565b6101b882610117565b8152602082015163ffffffff811681146101d157600080fd5b60208201526101e260408301610134565b60408201526101f360608301610134565b6060820152835260209092019160800161018f565b5095945050505050565b600082601f83011261022357600080fd5b8151610231610163826100f4565b8082825260208201915060208360051b86010192508583111561025357600080fd5b602085015b838110156102085761026981610117565b835260209283019201610258565b60006020828403121561028957600080fd5b81516001600160401b0381111561029f57600080fd5b8201606081850312156102b157600080fd5b6102b96100a2565b81516001600160401b038111156102cf57600080fd5b8201601f810186136102e057600080fd5b80516102ee610163826100f4565b8082825260208201915060206060840285010192508883111561031057600080fd5b6020840193505b82841015610378576060848a03121561032f57600080fd5b6103376100a2565b61034085610117565b815261034e60208601610134565b602082015261035f60408601610134565b6040820152825260609390930192602090910190610317565b845250505060208201516001600160401b0381111561039657600080fd5b6103a286828501610144565b60208301525060408201516001600160401b038111156103c157600080fd5b6103cd86828501610212565b604083015250949350505050565b600081518084526020840193506020830160005b8281101561044457815180516001600160e01b031916875260208082015163ffffffff1681890152604080830151151590890152606091820151151591880191909152608090960195909101906001016103ef565b5093949350505050565b600081518084526020840193506020830160005b828110156104445781516001600160e01b031916865260209586019590910190600101610462565b602080825282516060838301528051608084018190526000929190910190829060a08501905b808310156104f757835163ffffffff60e01b8151168352602081015115156020840152604081015115156040840152506060820191506020840193506001830192506104b0565b506020860151858203601f19016040870152925061051581846103db565b925050506040840151601f19848303016060850152610534828261044e565b95945050505050565b600181811c9082168061055157607f821691505b60208210810361057157634e487b7160e01b600052602260045260246000fd5b50919050565b601f8211156105c157806000526020600020601f840160051c8101602085101561059e5750805b601f840160051c820191505b818110156105be57600081556001016105aa565b50505b505050565b81516001600160401b038111156105df576105df610064565b6105f3816105ed845461053d565b84610577565b6020601f821160018114610627576000831561060f5750848201515b600019600385901b1c1916600184901b1784556105be565b600084815260208120601f198516915b828110156106575787850151825560209485019460019092019101610637565b50848210156106755786840151600019600387901b60f8161c191681555b50505050600190811b01905550565b610884806106936000396000f3fe6080604052600436106100385760003560e01c806301ffc9a7146100dc578063a1308f2714610111578063ae5628c61461015d5761003f565b3661003f57005b7f8e00410e3b3e2c0157d0126ac13294a87f1f4d023a85464724f6bd2f7835053e60003634604051610073939291906102aa565b60405180910390a16000356001600160e01b031916630ab8785f60e01b14806100ae57506000356001600160e01b031916630232e99f60e51b145b806100cb57506000356001600160e01b03191663ed6dfb1360e01b145b156100da576000805260206000f35b005b3480156100e857600080fd5b506100fc6100f73660046102fc565b61017f565b60405190151581526020015b60405180910390f35b34801561011d57600080fd5b50604080518082018252601981527f657263363930302e6d6f636b2d6d6f64756c652e312e302e3000000000000000602082015290516101089190610320565b34801561016957600080fd5b506101726101b6565b604051610108919061041d565b60006001600160e01b031982166311b0306d60e21b14806101b057506301ffc9a760e01b6001600160e01b03198316145b92915050565b6101da60405180606001604052806060815260200160608152602001606081525090565b6101e26101e7565b905090565b61020b60405180606001604052806060815260200160608152602001606081525090565b6000808054610219906104d0565b80601f0160208091040260200160405190810160405280929190818152602001828054610245906104d0565b80156102925780601f1061026757610100808354040283529160200191610292565b820191906000526020600020905b81548152906001019060200180831161027557829003601f168201915b50505050508060200190518101906101b0919061070d565b604081528260408201528284606083013760006060848301015260006060601f19601f8601168301019050826020830152949350505050565b6001600160e01b0319811681146102f957600080fd5b50565b60006020828403121561030e57600080fd5b8135610319816102e3565b9392505050565b602081526000825180602084015260005b8181101561034e5760208186018101516040868401015201610331565b506000604082850101526040601f19601f83011684010191505092915050565b600081518084526020840193506020830160005b828110156103d757815180516001600160e01b031916875260208082015163ffffffff168189015260408083015115159089015260609182015115159188019190915260809096019590910190600101610382565b5093949350505050565b600081518084526020840193506020830160005b828110156103d75781516001600160e01b0319168652602095860195909101906001016103f5565b602080825282516060838301528051608084018190526000929190910190829060a08501905b8083101561048a57835163ffffffff60e01b815116835260208101511515602084015260408101511515604084015250606082019150602084019350600183019250610443565b506020860151858203601f1901604087015292506104a8818461036e565b925050506040840151601f198483030160608501526104c782826103e1565b95945050505050565b600181811c908216806104e457607f821691505b60208210810361050457634e487b7160e01b600052602260045260246000fd5b50919050565b634e487b7160e01b600052604160045260246000fd5b6040516080810167ffffffffffffffff811182821017156105435761054361050a565b60405290565b6040516060810167ffffffffffffffff811182821017156105435761054361050a565b604051601f8201601f1916810167ffffffffffffffff811182821017156105955761059561050a565b604052919050565b600067ffffffffffffffff8211156105b7576105b761050a565b5060051b60200190565b805180151581146105d157600080fd5b919050565b600082601f8301126105e757600080fd5b81516105fa6105f58261059d565b61056c565b8082825260208201915060208360071b86010192508583111561061c57600080fd5b602085015b8381101561069c576080818803121561063957600080fd5b610641610520565b815161064c816102e3565b8152602082015163ffffffff8116811461066557600080fd5b6020820152610676604083016105c1565b6040820152610687606083016105c1565b60608201528352602090920191608001610621565b5095945050505050565b600082601f8301126106b757600080fd5b81516106c56105f58261059d565b8082825260208201915060208360051b8601019250858311156106e757600080fd5b602085015b8381101561069c5780516106ff816102e3565b8352602092830192016106ec565b60006020828403121561071f57600080fd5b815167ffffffffffffffff81111561073657600080fd5b82016060818503121561074857600080fd5b610750610549565b815167ffffffffffffffff81111561076757600080fd5b8201601f8101861361077857600080fd5b80516107866105f58261059d565b808282526020820191506020606084028501019250888311156107a857600080fd5b6020840193505b82841015610812576060848a0312156107c757600080fd5b6107cf610549565b84516107da816102e3565b81526107e8602086016105c1565b60208201526107f9604086016105c1565b60408201528252606093909301926020909101906107af565b8452505050602082015167ffffffffffffffff81111561083157600080fd5b61083d868285016105d6565b602083015250604082015167ffffffffffffffff81111561085d57600080fd5b610869868285016106a6565b60408301525094935050505056fea164736f6c634300081a000a","linkReferences":{}},"methodIdentifiers":{"executionManifest()":"ae5628c6","moduleId()":"a1308f27","supportsInterface(bytes4)":"01ffc9a7"},"id":156}