{
  "address": "0xaCA7A4F5E1111572C3764F9E5B4072AfA95593aB",
  "abi": [
    {
      "inputs": [
        {
          "internalType": "bool",
          "name": "success",
          "type": "bool"
        },
        {
          "internalType": "bytes",
          "name": "ret",
          "type": "bytes"
        }
      ],
      "name": "DelegateAndRevert",
      "type": "error"
    },
    {
      "inputs": [
        {
          "internalType": "uint256",
          "name": "opIndex",
          "type": "uint256"
        },
        {
          "internalType": "string",
          "name": "reason",
          "type": "string"
        }
      ],
      "name": "FailedOp",
      "type": "error"
    },
    {
      "inputs": [
        {
          "internalType": "uint256",
          "name": "opIndex",
          "type": "uint256"
        },
        {
          "internalType": "string",
          "name": "reason",
          "type": "string"
        },
        {
          "internalType": "bytes",
          "name": "inner",
          "type": "bytes"
        }
      ],
      "name": "FailedOpWithRevert",
      "type": "error"
    },
    {
      "inputs": [
        {
          "internalType": "bytes",
          "name": "returnData",
          "type": "bytes"
        }
      ],
      "name": "PostOpReverted",
      "type": "error"
    },
    {
      "inputs": [],
      "name": "ReentrancyGuardReentrantCall",
      "type": "error"
    },
    {
      "inputs": [
        {
          "internalType": "address",
          "name": "sender",
          "type": "address"
        }
      ],
      "name": "SenderAddressResult",
      "type": "error"
    },
    {
      "inputs": [
        {
          "internalType": "address",
          "name": "aggregator",
          "type": "address"
        }
      ],
      "name": "SignatureValidationFailed",
      "type": "error"
    },
    {
      "inputs": [
        {
          "internalType": "uint256",
          "name": "value",
          "type": "uint256"
        },
        {
          "internalType": "uint256",
          "name": "length",
          "type": "uint256"
        }
      ],
      "name": "StringsInsufficientHexLength",
      "type": "error"
    },
    {
      "anonymous": false,
      "inputs": [
        {
          "indexed": true,
          "internalType": "bytes32",
          "name": "userOpHash",
          "type": "bytes32"
        },
        {
          "indexed": true,
          "internalType": "address",
          "name": "sender",
          "type": "address"
        },
        {
          "indexed": false,
          "internalType": "address",
          "name": "factory",
          "type": "address"
        },
        {
          "indexed": false,
          "internalType": "address",
          "name": "paymaster",
          "type": "address"
        }
      ],
      "name": "AccountDeployed",
      "type": "event"
    },
    {
      "anonymous": false,
      "inputs": [],
      "name": "BeforeExecution",
      "type": "event"
    },
    {
      "anonymous": false,
      "inputs": [
        {
          "indexed": true,
          "internalType": "address",
          "name": "account",
          "type": "address"
        },
        {
          "indexed": false,
          "internalType": "uint256",
          "name": "totalDeposit",
          "type": "uint256"
        }
      ],
      "name": "Deposited",
      "type": "event"
    },
    {
      "anonymous": false,
      "inputs": [
        {
          "indexed": true,
          "internalType": "bytes32",
          "name": "userOpHash",
          "type": "bytes32"
        },
        {
          "indexed": true,
          "internalType": "address",
          "name": "sender",
          "type": "address"
        },
        {
          "indexed": false,
          "internalType": "uint256",
          "name": "nonce",
          "type": "uint256"
        },
        {
          "indexed": false,
          "internalType": "bytes",
          "name": "revertReason",
          "type": "bytes"
        }
      ],
      "name": "PostOpRevertReason",
      "type": "event"
    },
    {
      "anonymous": false,
      "inputs": [
        {
          "indexed": true,
          "internalType": "address",
          "name": "aggregator",
          "type": "address"
        }
      ],
      "name": "SignatureAggregatorChanged",
      "type": "event"
    },
    {
      "anonymous": false,
      "inputs": [
        {
          "indexed": true,
          "internalType": "address",
          "name": "account",
          "type": "address"
        },
        {
          "indexed": false,
          "internalType": "uint256",
          "name": "totalStaked",
          "type": "uint256"
        },
        {
          "indexed": false,
          "internalType": "uint256",
          "name": "unstakeDelaySec",
          "type": "uint256"
        }
      ],
      "name": "StakeLocked",
      "type": "event"
    },
    {
      "anonymous": false,
      "inputs": [
        {
          "indexed": true,
          "internalType": "address",
          "name": "account",
          "type": "address"
        },
        {
          "indexed": false,
          "internalType": "uint256",
          "name": "withdrawTime",
          "type": "uint256"
        }
      ],
      "name": "StakeUnlocked",
      "type": "event"
    },
    {
      "anonymous": false,
      "inputs": [
        {
          "indexed": true,
          "internalType": "address",
          "name": "account",
          "type": "address"
        },
        {
          "indexed": false,
          "internalType": "address",
          "name": "withdrawAddress",
          "type": "address"
        },
        {
          "indexed": false,
          "internalType": "uint256",
          "name": "amount",
          "type": "uint256"
        }
      ],
      "name": "StakeWithdrawn",
      "type": "event"
    },
    {
      "anonymous": false,
      "inputs": [
        {
          "indexed": true,
          "internalType": "bytes32",
          "name": "userOpHash",
          "type": "bytes32"
        },
        {
          "indexed": true,
          "internalType": "address",
          "name": "sender",
          "type": "address"
        },
        {
          "indexed": true,
          "internalType": "address",
          "name": "paymaster",
          "type": "address"
        },
        {
          "indexed": false,
          "internalType": "uint256",
          "name": "nonce",
          "type": "uint256"
        },
        {
          "indexed": false,
          "internalType": "bool",
          "name": "success",
          "type": "bool"
        },
        {
          "indexed": false,
          "internalType": "uint256",
          "name": "actualGasCost",
          "type": "uint256"
        },
        {
          "indexed": false,
          "internalType": "uint256",
          "name": "actualGasUsed",
          "type": "uint256"
        }
      ],
      "name": "UserOperationEvent",
      "type": "event"
    },
    {
      "anonymous": false,
      "inputs": [
        {
          "indexed": true,
          "internalType": "bytes32",
          "name": "userOpHash",
          "type": "bytes32"
        },
        {
          "indexed": true,
          "internalType": "address",
          "name": "sender",
          "type": "address"
        },
        {
          "indexed": false,
          "internalType": "uint256",
          "name": "nonce",
          "type": "uint256"
        },
        {
          "indexed": false,
          "internalType": "bytes",
          "name": "revertReason",
          "type": "bytes"
        }
      ],
      "name": "UserOperationRevertReason",
      "type": "event"
    },
    {
      "anonymous": false,
      "inputs": [
        {
          "indexed": true,
          "internalType": "address",
          "name": "account",
          "type": "address"
        },
        {
          "indexed": false,
          "internalType": "address",
          "name": "withdrawAddress",
          "type": "address"
        },
        {
          "indexed": false,
          "internalType": "uint256",
          "name": "amount",
          "type": "uint256"
        }
      ],
      "name": "Withdrawn",
      "type": "event"
    },
    {
      "inputs": [],
      "name": "SIG_VALIDATION_FAILED",
      "outputs": [
        {
          "internalType": "uint256",
          "name": "",
          "type": "uint256"
        }
      ],
      "stateMutability": "view",
      "type": "function"
    },
    {
      "inputs": [
        {
          "internalType": "uint32",
          "name": "unstakeDelaySec",
          "type": "uint32"
        }
      ],
      "name": "addStake",
      "outputs": [],
      "stateMutability": "payable",
      "type": "function"
    },
    {
      "inputs": [
        {
          "internalType": "address",
          "name": "account",
          "type": "address"
        }
      ],
      "name": "balanceOf",
      "outputs": [
        {
          "internalType": "uint256",
          "name": "",
          "type": "uint256"
        }
      ],
      "stateMutability": "view",
      "type": "function"
    },
    {
      "inputs": [
        {
          "internalType": "address",
          "name": "target",
          "type": "address"
        },
        {
          "internalType": "bytes",
          "name": "data",
          "type": "bytes"
        }
      ],
      "name": "delegateAndRevert",
      "outputs": [],
      "stateMutability": "nonpayable",
      "type": "function"
    },
    {
      "inputs": [
        {
          "internalType": "address",
          "name": "account",
          "type": "address"
        }
      ],
      "name": "depositTo",
      "outputs": [],
      "stateMutability": "payable",
      "type": "function"
    },
    {
      "inputs": [
        {
          "internalType": "address",
          "name": "",
          "type": "address"
        }
      ],
      "name": "deposits",
      "outputs": [
        {
          "internalType": "uint256",
          "name": "deposit",
          "type": "uint256"
        },
        {
          "internalType": "bool",
          "name": "staked",
          "type": "bool"
        },
        {
          "internalType": "uint112",
          "name": "stake",
          "type": "uint112"
        },
        {
          "internalType": "uint32",
          "name": "unstakeDelaySec",
          "type": "uint32"
        },
        {
          "internalType": "uint48",
          "name": "withdrawTime",
          "type": "uint48"
        }
      ],
      "stateMutability": "view",
      "type": "function"
    },
    {
      "inputs": [
        {
          "internalType": "address",
          "name": "account",
          "type": "address"
        }
      ],
      "name": "getDepositInfo",
      "outputs": [
        {
          "components": [
            {
              "internalType": "uint256",
              "name": "deposit",
              "type": "uint256"
            },
            {
              "internalType": "bool",
              "name": "staked",
              "type": "bool"
            },
            {
              "internalType": "uint112",
              "name": "stake",
              "type": "uint112"
            },
            {
              "internalType": "uint32",
              "name": "unstakeDelaySec",
              "type": "uint32"
            },
            {
              "internalType": "uint48",
              "name": "withdrawTime",
              "type": "uint48"
            }
          ],
          "internalType": "struct IStakeManager.DepositInfo",
          "name": "info",
          "type": "tuple"
        }
      ],
      "stateMutability": "view",
      "type": "function"
    },
    {
      "inputs": [
        {
          "internalType": "address",
          "name": "sender",
          "type": "address"
        },
        {
          "internalType": "uint192",
          "name": "key",
          "type": "uint192"
        }
      ],
      "name": "getNonce",
      "outputs": [
        {
          "internalType": "uint256",
          "name": "nonce",
          "type": "uint256"
        }
      ],
      "stateMutability": "view",
      "type": "function"
    },
    {
      "inputs": [
        {
          "internalType": "bytes",
          "name": "initCode",
          "type": "bytes"
        }
      ],
      "name": "getSenderAddress",
      "outputs": [],
      "stateMutability": "nonpayable",
      "type": "function"
    },
    {
      "inputs": [
        {
          "components": [
            {
              "internalType": "address",
              "name": "sender",
              "type": "address"
            },
            {
              "internalType": "uint256",
              "name": "nonce",
              "type": "uint256"
            },
            {
              "internalType": "bytes",
              "name": "initCode",
              "type": "bytes"
            },
            {
              "internalType": "bytes",
              "name": "callData",
              "type": "bytes"
            },
            {
              "internalType": "bytes32",
              "name": "accountGasLimits",
              "type": "bytes32"
            },
            {
              "internalType": "uint256",
              "name": "preVerificationGas",
              "type": "uint256"
            },
            {
              "internalType": "uint256",
              "name": "maxFeePerGas",
              "type": "uint256"
            },
            {
              "internalType": "uint256",
              "name": "maxPriorityFeePerGas",
              "type": "uint256"
            },
            {
              "internalType": "bytes",
              "name": "paymasterAndData",
              "type": "bytes"
            },
            {
              "internalType": "bytes",
              "name": "signature",
              "type": "bytes"
            }
          ],
          "internalType": "struct PackedUserOperation",
          "name": "userOp",
          "type": "tuple"
        }
      ],
      "name": "getUserOpHash",
      "outputs": [
        {
          "internalType": "bytes32",
          "name": "",
          "type": "bytes32"
        }
      ],
      "stateMutability": "view",
      "type": "function"
    },
    {
      "inputs": [
        {
          "components": [
            {
              "components": [
                {
                  "internalType": "address",
                  "name": "sender",
                  "type": "address"
                },
                {
                  "internalType": "uint256",
                  "name": "nonce",
                  "type": "uint256"
                },
                {
                  "internalType": "bytes",
                  "name": "initCode",
                  "type": "bytes"
                },
                {
                  "internalType": "bytes",
                  "name": "callData",
                  "type": "bytes"
                },
                {
                  "internalType": "bytes32",
                  "name": "accountGasLimits",
                  "type": "bytes32"
                },
                {
                  "internalType": "uint256",
                  "name": "preVerificationGas",
                  "type": "uint256"
                },
                {
                  "internalType": "uint256",
                  "name": "maxFeePerGas",
                  "type": "uint256"
                },
                {
                  "internalType": "uint256",
                  "name": "maxPriorityFeePerGas",
                  "type": "uint256"
                },
                {
                  "internalType": "bytes",
                  "name": "paymasterAndData",
                  "type": "bytes"
                },
                {
                  "internalType": "bytes",
                  "name": "signature",
                  "type": "bytes"
                }
              ],
              "internalType": "struct PackedUserOperation[]",
              "name": "userOps",
              "type": "tuple[]"
            },
            {
              "internalType": "contract IAggregator",
              "name": "aggregator",
              "type": "address"
            },
            {
              "internalType": "bytes",
              "name": "signature",
              "type": "bytes"
            }
          ],
          "internalType": "struct IEntryPoint.UserOpsPerAggregator[]",
          "name": "opsPerAggregator",
          "type": "tuple[]"
        },
        {
          "internalType": "address payable",
          "name": "beneficiary",
          "type": "address"
        }
      ],
      "name": "handleAggregatedOps",
      "outputs": [],
      "stateMutability": "nonpayable",
      "type": "function"
    },
    {
      "inputs": [
        {
          "components": [
            {
              "internalType": "address",
              "name": "sender",
              "type": "address"
            },
            {
              "internalType": "uint256",
              "name": "nonce",
              "type": "uint256"
            },
            {
              "internalType": "bytes",
              "name": "initCode",
              "type": "bytes"
            },
            {
              "internalType": "bytes",
              "name": "callData",
              "type": "bytes"
            },
            {
              "internalType": "bytes32",
              "name": "accountGasLimits",
              "type": "bytes32"
            },
            {
              "internalType": "uint256",
              "name": "preVerificationGas",
              "type": "uint256"
            },
            {
              "internalType": "uint256",
              "name": "maxFeePerGas",
              "type": "uint256"
            },
            {
              "internalType": "uint256",
              "name": "maxPriorityFeePerGas",
              "type": "uint256"
            },
            {
              "internalType": "bytes",
              "name": "paymasterAndData",
              "type": "bytes"
            },
            {
              "internalType": "bytes",
              "name": "signature",
              "type": "bytes"
            }
          ],
          "internalType": "struct PackedUserOperation[]",
          "name": "ops",
          "type": "tuple[]"
        },
        {
          "internalType": "address payable",
          "name": "beneficiary",
          "type": "address"
        }
      ],
      "name": "handleOps",
      "outputs": [],
      "stateMutability": "nonpayable",
      "type": "function"
    },
    {
      "inputs": [
        {
          "internalType": "uint192",
          "name": "key",
          "type": "uint192"
        }
      ],
      "name": "incrementNonce",
      "outputs": [],
      "stateMutability": "nonpayable",
      "type": "function"
    },
    {
      "inputs": [
        {
          "internalType": "bytes",
          "name": "callData",
          "type": "bytes"
        },
        {
          "components": [
            {
              "components": [
                {
                  "internalType": "address",
                  "name": "sender",
                  "type": "address"
                },
                {
                  "internalType": "uint256",
                  "name": "nonce",
                  "type": "uint256"
                },
                {
                  "internalType": "uint256",
                  "name": "verificationGasLimit",
                  "type": "uint256"
                },
                {
                  "internalType": "uint256",
                  "name": "callGasLimit",
                  "type": "uint256"
                },
                {
                  "internalType": "uint256",
                  "name": "paymasterVerificationGasLimit",
                  "type": "uint256"
                },
                {
                  "internalType": "uint256",
                  "name": "paymasterPostOpGasLimit",
                  "type": "uint256"
                },
                {
                  "internalType": "uint256",
                  "name": "preVerificationGas",
                  "type": "uint256"
                },
                {
                  "internalType": "address",
                  "name": "paymaster",
                  "type": "address"
                },
                {
                  "internalType": "uint256",
                  "name": "maxFeePerGas",
                  "type": "uint256"
                },
                {
                  "internalType": "uint256",
                  "name": "maxPriorityFeePerGas",
                  "type": "uint256"
                }
              ],
              "internalType": "struct EntryPoint.MemoryUserOp",
              "name": "mUserOp",
              "type": "tuple"
            },
            {
              "internalType": "bytes32",
              "name": "userOpHash",
              "type": "bytes32"
            },
            {
              "internalType": "uint256",
              "name": "prefund",
              "type": "uint256"
            },
            {
              "internalType": "uint256",
              "name": "contextOffset",
              "type": "uint256"
            },
            {
              "internalType": "uint256",
              "name": "preOpGas",
              "type": "uint256"
            }
          ],
          "internalType": "struct EntryPoint.UserOpInfo",
          "name": "opInfo",
          "type": "tuple"
        },
        {
          "internalType": "bytes",
          "name": "context",
          "type": "bytes"
        }
      ],
      "name": "innerHandleOp",
      "outputs": [
        {
          "internalType": "uint256",
          "name": "actualGasCost",
          "type": "uint256"
        }
      ],
      "stateMutability": "nonpayable",
      "type": "function"
    },
    {
      "inputs": [
        {
          "internalType": "address",
          "name": "",
          "type": "address"
        },
        {
          "internalType": "uint192",
          "name": "",
          "type": "uint192"
        }
      ],
      "name": "nonceSequenceNumber",
      "outputs": [
        {
          "internalType": "uint256",
          "name": "",
          "type": "uint256"
        }
      ],
      "stateMutability": "view",
      "type": "function"
    },
    {
      "inputs": [
        {
          "internalType": "bytes4",
          "name": "interfaceId",
          "type": "bytes4"
        }
      ],
      "name": "supportsInterface",
      "outputs": [
        {
          "internalType": "bool",
          "name": "",
          "type": "bool"
        }
      ],
      "stateMutability": "view",
      "type": "function"
    },
    {
      "inputs": [],
      "name": "unlockStake",
      "outputs": [],
      "stateMutability": "nonpayable",
      "type": "function"
    },
    {
      "inputs": [
        {
          "internalType": "address payable",
          "name": "withdrawAddress",
          "type": "address"
        }
      ],
      "name": "withdrawStake",
      "outputs": [],
      "stateMutability": "nonpayable",
      "type": "function"
    },
    {
      "inputs": [
        {
          "internalType": "address payable",
          "name": "withdrawAddress",
          "type": "address"
        },
        {
          "internalType": "uint256",
          "name": "withdrawAmount",
          "type": "uint256"
        }
      ],
      "name": "withdrawTo",
      "outputs": [],
      "stateMutability": "nonpayable",
      "type": "function"
    },
    {
      "stateMutability": "payable",
      "type": "receive"
    }
  ],
  "transactionHash": "0x5f6d0ec80d400fcb457ec13d67440c1c9c5ee444731478e76bb18d29b64ae05d",
  "args": [],
  "numDeployments": 1,
  "solcInputHash": "e43f298caa7547341dbedb9cfb92ccf3",
  "bytecode": "0x60a08060405234620000825760016002556101df8181016001600160401b038111838210176200006c578291620040d1833903906000f0801562000060576080526040516140499081620000888239608051818181610d2d01526131ea0152f35b6040513d6000823e3d90fd5b634e487b7160e01b600052604160045260246000fd5b600080fdfe60806040526004361015610024575b361561001957600080fd5b61002233612781565b005b60003560e01c806242dc5314611b4557806301ffc9a7146119f357806302101e491461198d5780630396cb60146116555780630bd28e3b146115d95780631b2e01b814611545578063205c2878146113b057806335567e1a146112f85780635287ce12146111ea5780636b21db5114610f2c57806370a0823114610ec7578063850aaf6214610e085780638f41ec5a14610dce5780639b249f6914610c7f578063b760faf914610c45578063bb9fe6bf14610a73578063c23a5cea146107cf578063ea8ad612146101ac5763fc7e286d0361000e57346101a75760207ffffffffffffffffffffffffffffffffffffffffffffffffffffffffffffffffc3601126101a75773ffffffffffffffffffffffffffffffffffffffff6101456122d9565b16600052600060205260a0604060002065ffffffffffff6001825492015460405192835260ff8116151560208401526dffffffffffffffffffffffffffff8160081c16604084015263ffffffff8160781c16606084015260981c166080820152f35b600080fd5b346101a7576101ba36612351565b906101c3612a01565b60009160005b82811061057a57506101db84936125c1565b6000805b8481106103075750507fbb47ee3e183a558b1a2ff0874b079f3fc5478b7454eacf2bfc5af2ff5878f972600080a16000809360005b8181106102525761024b868660007f575ff3acadd5ab348fe1855e217e0f3678f8d767d7494c9f9fefbee2e17cca4d8180a2613e0c565b6001600255005b6102ad61026082848a6127cf565b73ffffffffffffffffffffffffffffffffffffffff61028160208301612863565b167f575ff3acadd5ab348fe1855e217e0f3678f8d767d7494c9f9fefbee2e17cca4d600080a28061280f565b906000915b8083106102c457505050600101610214565b909194976102fe6102f86001926102f28c8b6102eb826102e58e8b8d6126d6565b92612693565b519161354a565b90612532565b9961253f565b950191906102b2565b60206103148287896127cf565b61032a610321828061280f565b93909201612863565b9160009273ffffffffffffffffffffffffffffffffffffffff8091165b82851061035b5750505050506001016101df565b909192939561038a83610383610371848c612693565b5161037d8b898b6126d6565b85612a3a565b9290613f7d565b91168403610515576104b0576103a08491613f7d565b911661044b576103c0576103b560019161253f565b960193929190610347565b60a487604051907f220266b6000000000000000000000000000000000000000000000000000000008252600482015260406024820152602160448201527f41413332207061796d61737465722065787069726564206f72206e6f7420647560648201527f65000000000000000000000000000000000000000000000000000000000000006084820152fd5b608488604051907f220266b6000000000000000000000000000000000000000000000000000000008252600482015260406024820152601460448201527f41413334207369676e6174757265206572726f720000000000000000000000006064820152fd5b608488604051907f220266b6000000000000000000000000000000000000000000000000000000008252600482015260406024820152601760448201527f414132322065787069726564206f72206e6f74206475650000000000000000006064820152fd5b608489604051907f220266b6000000000000000000000000000000000000000000000000000000008252600482015260406024820152601460448201527f41413234207369676e6174757265206572726f720000000000000000000000006064820152fd5b6105858184876127cf565b93610590858061280f565b919095602073ffffffffffffffffffffffffffffffffffffffff6105b5828401612863565b1697600192838a1461077157896105e5575b5050505060019293949550906105dc91612532565b939291016101c9565b8060406105f3920190612884565b918a3b156101a757929391906040519485937ffe96cf2300000000000000000000000000000000000000000000000000000000855288604486016040600488015252606490818601918a60051b8701019680936000915b8c83106106f15750505050505083839261068f927ffffffffffffffffffffffffffffffffffffffffffffffffffffffffffffffffc8560009803016024860152612742565b03818a5afa90816106e2575b506106d157602486604051907f86a9f7500000000000000000000000000000000000000000000000000000000082526004820152fd5b93945084936105dc600189806105c7565b6106eb906121f7565b8861069b565b91939596977fffffffffffffffffffffffffffffffffffffffffffffffffffffffffffffff9c908a9294969a0301865288357ffffffffffffffffffffffffffffffffffffffffffffffffffffffffffffffec1833603018112156101a7578361075e879385839401612925565b9a0196019301909189979695949261064a565b606483604051907f08c379a00000000000000000000000000000000000000000000000000000000082526004820152601760248201527f4141393620696e76616c69642061676772656761746f720000000000000000006044820152fd5b346101a7576020807ffffffffffffffffffffffffffffffffffffffffffffffffffffffffffffffffc3601126101a7576108076122d9565b33600052600082526001604060002001908154916dffffffffffffffffffffffffffff8360081c16928315610a155765ffffffffffff8160981c1680156109b75742106109595760009373ffffffffffffffffffffffffffffffffffffffff859485947fffffffffffffff000000000000000000000000000000000000000000000000ff86951690556040517fb7c918e0e249f999e965cafeb6c664271b3f4317d296461500e71da39f0cbda33391806108e58786836020909392919373ffffffffffffffffffffffffffffffffffffffff60408201951681520152565b0390a2165af16108f3612579565b50156108fb57005b606490604051907f08c379a00000000000000000000000000000000000000000000000000000000082526004820152601860248201527f6661696c656420746f207769746864726177207374616b6500000000000000006044820152fd5b606485604051907f08c379a00000000000000000000000000000000000000000000000000000000082526004820152601b60248201527f5374616b65207769746864726177616c206973206e6f742064756500000000006044820152fd5b606486604051907f08c379a00000000000000000000000000000000000000000000000000000000082526004820152601d60248201527f6d7573742063616c6c20756e6c6f636b5374616b6528292066697273740000006044820152fd5b606485604051907f08c379a00000000000000000000000000000000000000000000000000000000082526004820152601460248201527f4e6f207374616b6520746f2077697468647261770000000000000000000000006044820152fd5b346101a75760007ffffffffffffffffffffffffffffffffffffffffffffffffffffffffffffffffc3601126101a7573360005260006020526001604060002001805463ffffffff8160781c16908115610be75760ff1615610b895765ffffffffffff908142160191818311610b5a5780547fffffffffffffff000000000000ffffffffffffffffffffffffffffffffffff001678ffffffffffff00000000000000000000000000000000000000609885901b161790556040519116815233907ffa9b3c14cc825c412c9ed81b3ba365a5b459439403f18829e572ed53a4180f0a90602090a2005b7f4e487b7100000000000000000000000000000000000000000000000000000000600052601160045260246000fd5b60646040517f08c379a000000000000000000000000000000000000000000000000000000000815260206004820152601160248201527f616c726561647920756e7374616b696e670000000000000000000000000000006044820152fd5b60646040517f08c379a000000000000000000000000000000000000000000000000000000000815260206004820152600a60248201527f6e6f74207374616b6564000000000000000000000000000000000000000000006044820152fd5b60207ffffffffffffffffffffffffffffffffffffffffffffffffffffffffffffffffc3601126101a757610022610c7a6122d9565b612781565b346101a75760207ffffffffffffffffffffffffffffffffffffffffffffffffffffffffffffffffc3601126101a75760043567ffffffffffffffff81116101a7576020610cd3610d269236906004016122fc565b919073ffffffffffffffffffffffffffffffffffffffff9260405194859283927f570e1a360000000000000000000000000000000000000000000000000000000084528560048501526024840191612742565b03816000857f0000000000000000000000000000000000000000000000000000000000000000165af1908115610dc257602492600092610d91575b50604051917f6ca7b806000000000000000000000000000000000000000000000000000000008352166004820152fd5b610db491925060203d602011610dbb575b610dac8183612227565b810190612716565b9083610d61565b503d610da2565b6040513d6000823e3d90fd5b346101a75760007ffffffffffffffffffffffffffffffffffffffffffffffffffffffffffffffffc3601126101a757602060405160018152f35b346101a75760407ffffffffffffffffffffffffffffffffffffffffffffffffffffffffffffffffc3601126101a757610e3f6122d9565b60243567ffffffffffffffff81116101a757600091610e63839236906004016122fc565b90816040519283928337810184815203915af4610e7e612579565b90610ec36040519283927f9941055400000000000000000000000000000000000000000000000000000000845215156004840152604060248401526044830190612400565b0390fd5b346101a75760207ffffffffffffffffffffffffffffffffffffffffffffffffffffffffffffffffc3601126101a75773ffffffffffffffffffffffffffffffffffffffff610f136122d9565b1660005260006020526020604060002054604051908152f35b346101a757610f3a36612351565b610f45929192612a01565b610f4e836125c1565b60005b848110610fc657506000927fbb47ee3e183a558b1a2ff0874b079f3fc5478b7454eacf2bfc5af2ff5878f972600080a16000915b858310610f965761024b8585613e0c565b909193600190610fbc610faa8789876126d6565b610fb48886612693565b51908861354a565b0194019190610f85565b610ff1610fea610fd883859795612693565b51610fe48489876126d6565b84612a3a565b9190613f7d565b73ffffffffffffffffffffffffffffffffffffffff92918316611185576111205761101b90613f7d565b91166110bb5761103057600101929092610f51565b60a490604051907f220266b6000000000000000000000000000000000000000000000000000000008252600482015260406024820152602160448201527f41413332207061796d61737465722065787069726564206f72206e6f7420647560648201527f65000000000000000000000000000000000000000000000000000000000000006084820152fd5b608482604051907f220266b6000000000000000000000000000000000000000000000000000000008252600482015260406024820152601460448201527f41413334207369676e6174757265206572726f720000000000000000000000006064820152fd5b608483604051907f220266b6000000000000000000000000000000000000000000000000000000008252600482015260406024820152601760448201527f414132322065787069726564206f72206e6f74206475650000000000000000006064820152fd5b608484604051907f220266b6000000000000000000000000000000000000000000000000000000008252600482015260406024820152601460448201527f41413234207369676e6174757265206572726f720000000000000000000000006064820152fd5b346101a75760207ffffffffffffffffffffffffffffffffffffffffffffffffffffffffffffffffc3601126101a75773ffffffffffffffffffffffffffffffffffffffff6112366122d9565b600060806040516112468161218f565b828152826020820152826040820152826060820152015216600052600060205260a06040600020608060405161127b8161218f565b6001835493848352015490602081019060ff8316151582526dffffffffffffffffffffffffffff60408201818560081c16815263ffffffff936060840193858760781c16855265ffffffffffff978891019660981c1686526040519788525115156020880152511660408601525116606084015251166080820152f35b346101a75760407ffffffffffffffffffffffffffffffffffffffffffffffffffffffffffffffffc3601126101a75760206113316122d9565b73ffffffffffffffffffffffffffffffffffffffff61134e61232a565b911660005260018252604060002077ffffffffffffffffffffffffffffffffffffffffffffffff821660005282526040600020547fffffffffffffffffffffffffffffffffffffffffffffffff00000000000000006040519260401b16178152f35b346101a75760407ffffffffffffffffffffffffffffffffffffffffffffffffffffffffffffffffc3601126101a7576113e76122d9565b602435903360005260006020526040600020908154918284116114e7576000808573ffffffffffffffffffffffffffffffffffffffff8295839561142b848a61256c565b90556040805173ffffffffffffffffffffffffffffffffffffffff831681526020810185905233917fd1c19fbcd4551a5edfb66d43d2e337c04837afda3482b42bdf569a8fccdae5fb91a2165af1611481612579565b501561148957005b60646040517f08c379a000000000000000000000000000000000000000000000000000000000815260206004820152601260248201527f6661696c656420746f20776974686472617700000000000000000000000000006044820152fd5b60646040517f08c379a000000000000000000000000000000000000000000000000000000000815260206004820152601960248201527f576974686472617720616d6f756e7420746f6f206c61726765000000000000006044820152fd5b346101a75760407ffffffffffffffffffffffffffffffffffffffffffffffffffffffffffffffffc3601126101a75761157c6122d9565b73ffffffffffffffffffffffffffffffffffffffff61159961232a565b9116600052600160205277ffffffffffffffffffffffffffffffffffffffffffffffff604060002091166000526020526020604060002054604051908152f35b346101a75760207ffffffffffffffffffffffffffffffffffffffffffffffffffffffffffffffffc3601126101a75760043577ffffffffffffffffffffffffffffffffffffffffffffffff81168091036101a7573360005260016020526040600020906000526020526040600020611651815461253f565b9055005b6020807ffffffffffffffffffffffffffffffffffffffffffffffffffffffffffffffffc3601126101a75760043563ffffffff918282168092036101a7573360005260008152604060002092821561192f576001840154908160781c1683106118d1576116d76dffffffffffffffffffffffffffff9182349160081c16612532565b93841561187357818511611815579065ffffffffffff6117e49254604051906116ff8261218f565b8152848101926001845260408201908816815260608201878152600160808401936000855233600052600089526040600020905181550194511515917fffffffffffffffffffffffffff0000000000000000000000000000000000000060ff72ffffffff0000000000000000000000000000006effffffffffffffffffffffffffff008954945160081b16945160781b1694169116171717835551167fffffffffffffff000000000000ffffffffffffffffffffffffffffffffffffff78ffffffffffff0000000000000000000000000000000000000083549260981b169116179055565b6040519283528201527fa5ae833d0bb1dcd632d98a8b70973e8516812898e19bf27b70071ebc8dc52c0160403392a2005b606483604051907f08c379a00000000000000000000000000000000000000000000000000000000082526004820152600e60248201527f7374616b65206f766572666c6f770000000000000000000000000000000000006044820152fd5b606483604051907f08c379a00000000000000000000000000000000000000000000000000000000082526004820152601260248201527f6e6f207374616b652073706563696669656400000000000000000000000000006044820152fd5b606482604051907f08c379a00000000000000000000000000000000000000000000000000000000082526004820152601c60248201527f63616e6e6f7420646563726561736520756e7374616b652074696d65000000006044820152fd5b606482604051907f08c379a00000000000000000000000000000000000000000000000000000000082526004820152601a60248201527f6d757374207370656369667920756e7374616b652064656c61790000000000006044820152fd5b346101a7577ffffffffffffffffffffffffffffffffffffffffffffffffffffffffffffffffc6020813601126101a7576004359067ffffffffffffffff82116101a7576101409082360301126101a7576119eb602091600401612443565b604051908152f35b346101a75760207ffffffffffffffffffffffffffffffffffffffffffffffffffffffffffffffffc3601126101a7576004357fffffffff0000000000000000000000000000000000000000000000000000000081168091036101a757807f6c393cb70000000000000000000000000000000000000000000000000000000060209214908115611b1b575b8115611af1575b8115611ac7575b8115611a9d575b506040519015158152f35b7f01ffc9a70000000000000000000000000000000000000000000000000000000091501482611a92565b7f3e84f0210000000000000000000000000000000000000000000000000000000081149150611a8b565b7fcf28ef970000000000000000000000000000000000000000000000000000000081149150611a84565b7f9d9523010000000000000000000000000000000000000000000000000000000081149150611a7d565b346101a7576102007ffffffffffffffffffffffffffffffffffffffffffffffffffffffffffffffffc3601126101a75767ffffffffffffffff6004358181116101a757366023820112156101a757611ba79036906024816004013591016122a2565b907fffffffffffffffffffffffffffffffffffffffffffffffffffffffffffffffdc3601916101c083126101a75761014060405193611be58561218f565b126101a75760405192611bf7846121da565b60243573ffffffffffffffffffffffffffffffffffffffff811681036101a7578452602093604435858201526064356040820152608435606082015260a435608082015260c43560a082015260e43560c08201526101043573ffffffffffffffffffffffffffffffffffffffff811681036101a75760e082015261012435610100820152610144356101208201528152610164358482015260408101926101843584526101a43560608301526101c43560808301526101e4359081116101a757611cc59036906004016122fc565b925a91303303612131578351606081015192603f5a0260061c61271060a084015186010111612108576000938151918261202e575b50505050611d1491925a90036080850151019436916122a2565b9160005a825195611d2487613f31565b9073ffffffffffffffffffffffffffffffffffffffff60e0890151168015600014611edb575073ffffffffffffffffffffffffffffffffffffffff885116925b5a9003019560608801519051611ed0575b6080850151870390818111611ebc575b505085029687815110611e58579087611da092510390613efd565b506003831015611e2b57506080867f49628fd1471006c1482da88028e9ce4dbb080b815c9b0344d39e5a8e6ec1419f9201519273ffffffffffffffffffffffffffffffffffffffff865116948873ffffffffffffffffffffffffffffffffffffffff60e0890151169701519160405192835215898301528760408301526060820152a4604051908152f35b807f4e487b7100000000000000000000000000000000000000000000000000000000602492526021600452fd5b6084838a604051917f220266b600000000000000000000000000000000000000000000000000000000835260048301526040602483015260448201527f414135312070726566756e642062656c6f772061637475616c476173436f73746064820152fd5b6064919003600a0204909501948980611d85565b60a088015101611d75565b92838851611eea575b50611d64565b6003881015611fff576002880315611ee45760a08a999897969c9b9a0151813b156101a757886000918983611f5b956040518097819682957f7c627b210000000000000000000000000000000000000000000000000000000084526004840152608060248401526084830190612400565b8b8b0260448301528b60648301520393f19081611feb575b50611fdd578a8a3d610800808211611fd5575b506040519282828501016040528184528284013e610ec36040519283927fad7954bc00000000000000000000000000000000000000000000000000000000845260048401526024830190612400565b905083611f86565b99939495969798998b611ee4565b611ff6919c506121f7565b60009a8c611f73565b7f4e487b7100000000000000000000000000000000000000000000000000000000600052602160045260246000fd5b91600092918380938d73ffffffffffffffffffffffffffffffffffffffff885116910192f115612061575b808080611cfa565b611d1492503d610800808211612100575b5060405190898183010160405280825260008a83013e8051612099575b5050600191612059565b7f1c4fada7374c0a9ee8841fc38afe82932dc0f8e69012e927f061a8bae611a2018980880151926120f68273ffffffffffffffffffffffffffffffffffffffff875116960151916040805194859485528401526040830190612400565b0390a3878061208f565b905089612072565b887fdeaddead000000000000000000000000000000000000000000000000000000006000526000fd5b606487604051907f08c379a00000000000000000000000000000000000000000000000000000000082526004820152601760248201527f4141393220696e7465726e616c2063616c6c206f6e6c790000000000000000006044820152fd5b60a0810190811067ffffffffffffffff8211176121ab57604052565b7f4e487b7100000000000000000000000000000000000000000000000000000000600052604160045260246000fd5b610140810190811067ffffffffffffffff8211176121ab57604052565b67ffffffffffffffff81116121ab57604052565b6060810190811067ffffffffffffffff8211176121ab57604052565b90601f7fffffffffffffffffffffffffffffffffffffffffffffffffffffffffffffffe0910116810190811067ffffffffffffffff8211176121ab57604052565b67ffffffffffffffff81116121ab57601f017fffffffffffffffffffffffffffffffffffffffffffffffffffffffffffffffe01660200190565b9291926122ae82612268565b916122bc6040519384612227565b8294818452818301116101a7578281602093846000960137010152565b6004359073ffffffffffffffffffffffffffffffffffffffff821682036101a757565b9181601f840112156101a75782359167ffffffffffffffff83116101a757602083818601950101116101a757565b6024359077ffffffffffffffffffffffffffffffffffffffffffffffff821682036101a757565b9060407ffffffffffffffffffffffffffffffffffffffffffffffffffffffffffffffffc8301126101a75760043567ffffffffffffffff928382116101a757806023830112156101a75781600401359384116101a75760248460051b830101116101a757602401919060243573ffffffffffffffffffffffffffffffffffffffff811681036101a75790565b60005b8381106123f05750506000910152565b81810151838201526020016123e0565b907fffffffffffffffffffffffffffffffffffffffffffffffffffffffffffffffe0601f60209361243c815180928187528780880191016123dd565b0116010190565b60409061245282820182612884565b9081845191823720906124686060820182612884565b90818551918237209061010060e061248282840184612884565b908188519182372092865194602086019673ffffffffffffffffffffffffffffffffffffffff833516885260208301358988015260608701526080860152608081013560a086015260a081013560c086015260c081013582860152013590830152610120908183015281526124f6816121da565b5190209080519060208201928352308183015246606083015260608252608082019082821067ffffffffffffffff8311176121ab575251902090565b91908201809211610b5a57565b7fffffffffffffffffffffffffffffffffffffffffffffffffffffffffffffffff8114610b5a5760010190565b91908203918211610b5a57565b3d156125a4573d9061258a82612268565b916125986040519384612227565b82523d6000602084013e565b606090565b67ffffffffffffffff81116121ab5760051b60200190565b906125cb826125a9565b6040906125db6040519182612227565b8381527fffffffffffffffffffffffffffffffffffffffffffffffffffffffffffffffe061260982956125a9565b019160005b83811061261b5750505050565b60209082516126298161218f565b8351612634816121da565b600081526000849181838201528187820152816060818184015260809282848201528260a08201528260c08201528260e0820152826101008201528261012082015286528185870152818987015285015283015282860101520161260e565b80518210156126a75760209160051b010190565b7f4e487b7100000000000000000000000000000000000000000000000000000000600052603260045260246000fd5b91908110156126a75760051b810135907ffffffffffffffffffffffffffffffffffffffffffffffffffffffffffffffec1813603018212156101a7570190565b908160209103126101a7575173ffffffffffffffffffffffffffffffffffffffff811681036101a75790565b601f82602094937fffffffffffffffffffffffffffffffffffffffffffffffffffffffffffffffe0938186528686013760008582860101520116010190565b7f2da466a7b24304f47e87fa2e1e5a81b9831ce54fec19055ce277ca2f39ba42c4602073ffffffffffffffffffffffffffffffffffffffff6127c33485613efd565b936040519485521692a2565b91908110156126a75760051b810135907fffffffffffffffffffffffffffffffffffffffffffffffffffffffffffffffa1813603018212156101a7570190565b9035907fffffffffffffffffffffffffffffffffffffffffffffffffffffffffffffffe1813603018212156101a7570180359067ffffffffffffffff82116101a757602001918160051b360383136101a757565b3573ffffffffffffffffffffffffffffffffffffffff811681036101a75790565b9035907fffffffffffffffffffffffffffffffffffffffffffffffffffffffffffffffe1813603018212156101a7570180359067ffffffffffffffff82116101a7576020019181360383136101a757565b90357fffffffffffffffffffffffffffffffffffffffffffffffffffffffffffffffe1823603018112156101a757016020813591019167ffffffffffffffff82116101a75781360383136101a757565b61014091813573ffffffffffffffffffffffffffffffffffffffff81168091036101a75761299b6129806129fe956129df9385526020860135602086015261297060408701876128d5565b9091806040880152860191612742565b61298d60608601866128d5565b908583036060870152612742565b6080840135608084015260a084013560a084015260c084013560c084015260e084013560e08401526101006129d2818601866128d5565b9185840390860152612742565b916129f061012091828101906128d5565b929091818503910152612742565b90565b6002805414612a105760028055565b60046040517f3ee5aeb5000000000000000000000000000000000000000000000000000000008152fd5b9290916000925a908251813573ffffffffffffffffffffffffffffffffffffffff81168091036101a75781526020820135602082015260808201356fffffffffffffffffffffffffffffffff8116606083015260801c604082015260a082013560c082015261010060c08301358183015260e0830135610120830152612ac281840184612884565b801561352e57603481106134d057806014116101a757806024116101a7576034116101a757602481013560801c60a0840152601481013560801c60808401523560601c60e08301525b612b1483612443565b60208601526effffffffffffffffffffffffffffff60c083015160408401511760608401511760808401511760e08501359060c08601359060a08601511717171161347257604082015160608301510160808301510160a08301510160c0830151019082015102845173ffffffffffffffffffffffffffffffffffffffff815116612ba26040860186612884565b80613183575b5050612c17602073ffffffffffffffffffffffffffffffffffffffff60e085015116936000908515613151575b60400151828b01516000868b604051978896879586937f8803e45100000000000000000000000000000000000000000000000000000000855260048501613f5b565b0393f16000918161311d575b50612ccb573d8b610800808311612cc3575b50604051916020818401016040528083526000602084013e610ec36040519283927f65c8fd4d000000000000000000000000000000000000000000000000000000008452600484015260606024840152600d60648401527f4141323320726576657274656400000000000000000000000000000000000000608484015260a0604484015260a4830190612400565b915082612c35565b9115613097575b509773ffffffffffffffffffffffffffffffffffffffff835116602084015190600052600160205260406000208160401c60005260205267ffffffffffffffff604060002091825492612d248461253f565b905516036130325760609273ffffffffffffffffffffffffffffffffffffffff60e082015116612de6575b5a860390608060408201519101510110612d8157506040850152606084015260809160a090910135905a900301910152565b608490604051907f220266b6000000000000000000000000000000000000000000000000000000008252600482015260406024820152601e60448201527f41413430206f76657220766572696669636174696f6e4761734c696d697400006064820152fd5b9198969594939250965083519773ffffffffffffffffffffffffffffffffffffffff60e08a0151169889600052600060205260406000208054838110612fcd579a6080600093859384612e789d9e9f0390550151908360208a015191604051809d819682957f703ae88f0000000000000000000000000000000000000000000000000000000084528c60048501613f5b565b0393f19687600091600099612f40575b50612f30573d8a610800808311612f28575b50604051916020818401016040528083526000602084013e610ec36040519283927f65c8fd4d000000000000000000000000000000000000000000000000000000008452600484015260606024840152600d60648401527f4141333320726576657274656400000000000000000000000000000000000000608484015260a0604484015260a4830190612400565b915082612e9a565b9890919293949596979892612d4f565b915097503d90816000823e612f558282612227565b60408183810103126101a75780519067ffffffffffffffff82116101a757828101601f8383010112156101a7578181015191612f9083612268565b93612f9e6040519586612227565b83855282016020848385010101116101a757602092612fc49184808701918501016123dd565b01519738612e88565b60848b604051907f220266b6000000000000000000000000000000000000000000000000000000008252600482015260406024820152601e60448201527f41413331207061796d6173746572206465706f73697420746f6f206c6f7700006064820152fd5b608490604051907f220266b6000000000000000000000000000000000000000000000000000000008252600482015260406024820152601a60448201527f4141323520696e76616c6964206163636f756e74206e6f6e63650000000000006064820152fd5b6000526000602052604060002080548084116130b857839003905538612cd2565b60848b604051907f220266b6000000000000000000000000000000000000000000000000000000008252600482015260406024820152601760448201527f41413231206469646e2774207061792070726566756e640000000000000000006064820152fd5b9091506020813d602011613149575b8161313960209383612227565b810103126101a757519038612c23565b3d915061312c565b905083600052600082526040600020548681116000146131795750604060005b919050612bd5565b6040908703613171565b823b61340d57604089510151602060405180927f570e1a36000000000000000000000000000000000000000000000000000000008252826004830152816000816131d160248201898b612742565b039273ffffffffffffffffffffffffffffffffffffffff7f00000000000000000000000000000000000000000000000000000000000000001690f1908115610dc2576000916133ee575b5073ffffffffffffffffffffffffffffffffffffffff811615613389578373ffffffffffffffffffffffffffffffffffffffff821603613324573b156132bf576014116101a75781907fd51a9c61267aa6196961883ecf5ff2da6619c37dac0fa92122513fb32c032d2d604060208b01519273ffffffffffffffffffffffffffffffffffffffff60e08d510151168251913560601c82526020820152a33880612ba8565b60848c604051907f220266b6000000000000000000000000000000000000000000000000000000008252600482015260406024820152602060448201527f4141313520696e6974436f6465206d757374206372656174652073656e6465726064820152fd5b60848d604051907f220266b6000000000000000000000000000000000000000000000000000000008252600482015260406024820152602060448201527f4141313420696e6974436f6465206d7573742072657475726e2073656e6465726064820152fd5b60848d604051907f220266b6000000000000000000000000000000000000000000000000000000008252600482015260406024820152601b60448201527f4141313320696e6974436f6465206661696c6564206f72204f4f4700000000006064820152fd5b613407915060203d602011610dbb57610dac8183612227565b3861321b565b60848c604051907f220266b6000000000000000000000000000000000000000000000000000000008252600482015260406024820152601f60448201527f414131302073656e64657220616c726561647920636f6e7374727563746564006064820152fd5b60646040517f08c379a000000000000000000000000000000000000000000000000000000000815260206004820152601860248201527f41413934206761732076616c756573206f766572666c6f7700000000000000006044820152fd5b60646040517f08c379a000000000000000000000000000000000000000000000000000000000815260206004820152601d60248201527f4141393320696e76616c6964207061796d6173746572416e64446174610000006044820152fd5b5050600060e083015260006080830152600060a0830152612b0b565b9092915a606082015190604051956135656060820182612884565b60008060038311613e03575b8160e01c8082918460f01c80613df7575b5060081c613ded575b600180830180821b939183917f7fffffffffffffffffffffffffffffffffffffffffffffffffffffffffffffff16830301613dc0576002840193848111613d39576135ee6135d886612268565b956135e66040519788612227565b808752612268565b7fffffffffffffffffffffffffffffffffffffffffffffffffffffffffffffffe0602087019101368237855115613d935760309053845160011015613d66576078602186015360018101809111613d39575b60018111613cc55750613c8b575050604051906040820182811067ffffffffffffffff821117613c5e57928061370a61376660209a989561373a7fffffffff00000000000000000000000000000000000000000000000000000000999660009c99604052601583527f232323205f65786563757465557365724f7020257300000000000000000000008e8401526040519485938f7f4b5c42770000000000000000000000000000000000000000000000000000000090860152604060248601526064850190612400565b907fffffffffffffffffffffffffffffffffffffffffffffffffffffffffffffffdc848303016044850152612400565b037fffffffffffffffffffffffffffffffffffffffffffffffffffffffffffffffe08101835282612227565b89815191016a636f6e736f6c652e6c6f675afa507f18ad2e1200000000000000000000000000000000000000000000000000000000931683148514613c0e5750506138469161380661392592868a01516137d46040519485938a850152604060248501526064840190612925565b906044830152037fffffffffffffffffffffffffffffffffffffffffffffffffffffffffffffffe08101835282612227565b61373a6040519384927e42dc5300000000000000000000000000000000000000000000000000000000888501526102006024850152610224840190612400565b6138f4604484018b60806101a091805173ffffffffffffffffffffffffffffffffffffffff808251168652602082015160208701526040820151604087015260608201516060870152838201518487015260a082015160a087015260c082015160c087015260e08201511660e0860152610100808201519086015261012080910151908501526020810151610140850152604081015161016085015260608101516101808501520151910152565b7fffffffffffffffffffffffffffffffffffffffffffffffffffffffffffffffdc8382030161020484015288612400565b828151910182305af16000519660405215613941575b50505050565b90919293945060003d602014613bff575b7fdeaddead00000000000000000000000000000000000000000000000000000000036139dd57608484604051907f220266b6000000000000000000000000000000000000000000000000000000008252600482015260406024820152600f60448201527f41413935206f7574206f662067617300000000000000000000000000000000006064820152fd5b613a729060208401518451907ff62676f440ff169a3a9afdbf812e89e7f95975ee8e5c31214ffdef631c5f4792602073ffffffffffffffffffffffffffffffffffffffff8451169301513d90610800808311613bf7575b50604051916020818401016040528083526000602084013e613a686040519283928352604060208401526040830190612400565b0390a35a9061256c565b613a826080840191825190612532565b905a936000815195613a9387613f31565b60e088019673ffffffffffffffffffffffffffffffffffffffff96878951168015600014613be65750878a5116935b5a9003019560608a01519151613bd9575b51860390818111613bc5575b5050840297604084019089825110613b605750829189613b0192510390613efd565b50611e2b57507f49628fd1471006c1482da88028e9ce4dbb080b815c9b0344d39e5a8e6ec1419f916020806080930151948088511696511696015190604051918252600060208301528760408301526060820152a4903880808061393b565b608490604051907f220266b6000000000000000000000000000000000000000000000000000000008252600482015260406024820152602060448201527f414135312070726566756e642062656c6f772061637475616c476173436f73746064820152fd5b6064919003600a0204909401933880613adf565b9060a08a01510190613ad3565b93825115613ac25760009550613ac2565b915038613a34565b5060206000803e600051613952565b909250613c59915061373a6138466040519485937e42dc5300000000000000000000000000000000000000000000000000000000898601526102006024860152610224850191612742565b613925565b6024847f4e487b710000000000000000000000000000000000000000000000000000000081526041600452fd5b906001604492604051927fe22e27eb0000000000000000000000000000000000000000000000000000000084526004840152016024820152fd5b906010600f82161015613d66578451821015613d66577f3031323334353637383961626364656600000000000000000000000000000000600f82161a6020838701015360041c908015613d39577fffffffffffffffffffffffffffffffffffffffffffffffffffffffffffffffff01613640565b6024867f4e487b710000000000000000000000000000000000000000000000000000000081526011600452fd5b6024867f4e487b710000000000000000000000000000000000000000000000000000000081526032600452fd5b6024877f4e487b710000000000000000000000000000000000000000000000000000000081526032600452fd5b6024857f4e487b710000000000000000000000000000000000000000000000000000000081526011600452fd5b906001019061358b565b60029350905038613582565b83359150613571565b73ffffffffffffffffffffffffffffffffffffffff168015613e9f57600080809381935af1613e39612579565b5015613e4157565b60646040517f08c379a000000000000000000000000000000000000000000000000000000000815260206004820152601f60248201527f41413931206661696c65642073656e6420746f2062656e6566696369617279006044820152fd5b60646040517f08c379a000000000000000000000000000000000000000000000000000000000815260206004820152601860248201527f4141393020696e76616c69642062656e656669636961727900000000000000006044820152fd5b73ffffffffffffffffffffffffffffffffffffffff166000526000602052613f2b6040600020918254612532565b80915590565b610120610100820151910151808214613f5757480180821015613f52575090565b905090565b5090565b613f7360409295949395606083526060830190612925565b9460208201520152565b801561400a57600060408051613f928161220b565b828152826020820152015273ffffffffffffffffffffffffffffffffffffffff811690604065ffffffffffff91828160a01c16908115614002575b60d01c92825191613fdd8361220b565b8583528460208401521691829101524211908115613ffa57509091565b905042109091565b839150613fcd565b5060009060009056fea2646970667358221220bf9b279e210f1ac631d93fcd6da7c4b3c25686a7b7f9f9ce7b6536013c6b34e864736f6c6343000817003360808060405234610016576101c3908161001c8239f35b600080fdfe6080600436101561000f57600080fd5b6000803560e01c63570e1a361461002557600080fd5b3461018a5760207ffffffffffffffffffffffffffffffffffffffffffffffffffffffffffffffffc36011261018a576004359167ffffffffffffffff9081841161018657366023850112156101865783600401358281116101825736602482870101116101825780601411610182577fffffffffffffffffffffffffffffffffffffffffffffffffffffffffffffffec810192808411610155577fffffffffffffffffffffffffffffffffffffffffffffffffffffffffffffffe0603f81600b8501160116830190838210908211176101555792846024819482600c60209a968b9960405286845289840196603889018837830101525193013560601c5af1908051911561014d575b5073ffffffffffffffffffffffffffffffffffffffff60405191168152f35b90503861012e565b6024857f4e487b710000000000000000000000000000000000000000000000000000000081526041600452fd5b8380fd5b8280fd5b80fdfea264697066735822122024ef3abfd31dde9e4d27e341c25802405d1557306fee7d71d82bd22012501cfb64736f6c63430008170033"
}