{"abi":[{"type":"function","name":"limits","inputs":[{"name":"funcIds","type":"uint256","internalType":"uint256"},{"name":"account","type":"address","internalType":"address"}],"outputs":[{"name":"limit","type":"uint256","internalType":"uint256"}],"stateMutability":"view"},{"type":"function","name":"moduleId","inputs":[],"outputs":[{"name":"","type":"string","internalType":"string"}],"stateMutability":"pure"},{"type":"function","name":"onInstall","inputs":[{"name":"data","type":"bytes","internalType":"bytes"}],"outputs":[],"stateMutability":"nonpayable"},{"type":"function","name":"onUninstall","inputs":[{"name":"data","type":"bytes","internalType":"bytes"}],"outputs":[],"stateMutability":"nonpayable"},{"type":"function","name":"postExecutionHook","inputs":[{"name":"","type":"uint32","internalType":"uint32"},{"name":"","type":"bytes","internalType":"bytes"}],"outputs":[],"stateMutability":"pure"},{"type":"function","name":"preExecutionHook","inputs":[{"name":"entityId","type":"uint32","internalType":"uint32"},{"name":"","type":"address","internalType":"address"},{"name":"","type":"uint256","internalType":"uint256"},{"name":"data","type":"bytes","internalType":"bytes"}],"outputs":[{"name":"","type":"bytes","internalType":"bytes"}],"stateMutability":"nonpayable"},{"type":"function","name":"preRuntimeValidationHook","inputs":[{"name":"","type":"uint32","internalType":"uint32"},{"name":"","type":"address","internalType":"address"},{"name":"","type":"uint256","internalType":"uint256"},{"name":"","type":"bytes","internalType":"bytes"},{"name":"","type":"bytes","internalType":"bytes"}],"outputs":[],"stateMutability":"pure"},{"type":"function","name":"preSignatureValidationHook","inputs":[{"name":"","type":"uint32","internalType":"uint32"},{"name":"","type":"address","internalType":"address"},{"name":"","type":"bytes32","internalType":"bytes32"},{"name":"","type":"bytes","internalType":"bytes"}],"outputs":[],"stateMutability":"pure"},{"type":"function","name":"preUserOpValidationHook","inputs":[{"name":"entityId","type":"uint32","internalType":"uint32"},{"name":"userOp","type":"tuple","internalType":"struct PackedUserOperation","components":[{"name":"sender","type":"address","internalType":"address"},{"name":"nonce","type":"uint256","internalType":"uint256"},{"name":"initCode","type":"bytes","internalType":"bytes"},{"name":"callData","type":"bytes","internalType":"bytes"},{"name":"accountGasLimits","type":"bytes32","internalType":"bytes32"},{"name":"preVerificationGas","type":"uint256","internalType":"uint256"},{"name":"gasFees","type":"bytes32","internalType":"bytes32"},{"name":"paymasterAndData","type":"bytes","internalType":"bytes"},{"name":"signature","type":"bytes","internalType":"bytes"}]},{"name":"","type":"bytes32","internalType":"bytes32"}],"outputs":[{"name":"","type":"uint256","internalType":"uint256"}],"stateMutability":"nonpayable"},{"type":"function","name":"specialPaymasters","inputs":[{"name":"paymaster","type":"address","internalType":"address"},{"name":"account","type":"address","internalType":"address"}],"outputs":[{"name":"allowed","type":"bool","internalType":"bool"}],"stateMutability":"view"},{"type":"function","name":"supportsInterface","inputs":[{"name":"interfaceId","type":"bytes4","internalType":"bytes4"}],"outputs":[{"name":"","type":"bool","internalType":"bool"}],"stateMutability":"view"},{"type":"function","name":"updateLimits","inputs":[{"name":"entityId","type":"uint32","internalType":"uint32"},{"name":"newLimit","type":"uint256","internalType":"uint256"}],"outputs":[],"stateMutability":"nonpayable"},{"type":"function","name":"updateSpecialPaymaster","inputs":[{"name":"paymaster","type":"address","internalType":"address"},{"name":"allowed","type":"bool","internalType":"bool"}],"outputs":[],"stateMutability":"nonpayable"},{"type":"error","name":"ExceededNativeTokenLimit","inputs":[]},{"type":"error","name":"ExceededNumberOfEntities","inputs":[]},{"type":"error","name":"NotImplemented","inputs":[]}],"bytecode":{"object":"0x6080604052348015600f57600080fd5b506112828061001f6000396000f3fe608060405234801561001057600080fd5b50600436106100cf5760003560e01c80636d61fe701161008c5780639f176d5f116100665780639f176d5f146101f8578063a1308f2714610226578063e19500ba1461023b578063ed6dfb131461026357600080fd5b80636d61fe70146101a257806371280be3146101b55780638a91b0e3146101e557600080fd5b806301ffc9a7146100d45780632a3d428c146100fc5780633d6bda321461011d5780633f41826e146101365780635c6e51691461014b5780635d413a811461018f575b600080fd5b6100e76100e2366004610851565b610276565b60405190151581526020015b60405180910390f35b61010f61010a36600461089b565b6102a1565b6040519081526020016100f3565b61013461012b36600461095c565b50505050505050565b005b6101346101443660046109fc565b5050505050565b610134610159366004610a6c565b6001600160a01b039190911660009081526001602090815260408083203384529091529020805460ff1916911515919091179055565b61013461019d366004610aaa565b610421565b6101346101b0366004610afc565b61043a565b6101346101c3366004610b3d565b63ffffffff909116600090815260208181526040808320338452909152902055565b6101346101f3366004610afc565b6104e2565b6100e7610206366004610b67565b600160209081526000928352604080842090915290825290205460ff1681565b61022e610529565b6040516100f39190610be5565b61010f610249366004610bf8565b600060208181529281526040808220909352908152205481565b61022e6102713660046109fc565b610549565b60006001600160e01b0319821663581660c960e11b148061029b575061029b82610560565b92915050565b60006102b060e0840184610c1d565b159050806103075750600160006102ca60e0860186610c1d565b6102d991601491600091610c63565b6102e291610c8d565b60601c81526020808201929092526040908101600090812033825290925290205460ff165b1561041757600061031784610595565b90506000610324856105a5565b90506000808061033760e0890189610c1d565b9050111561035b5761035461034f60e0890189610c1d565b6105ba565b9093509150505b600081838561036e8860a08d0135610cf0565b6103789190610cf0565b6103829190610cf0565b61038c9190610cf0565b9050600061039989610622565b6103a39083610d03565b63ffffffff8b16600090815260208181526040808320338452909152902054909150808211156103e657604051632531632560e21b815260040160405180910390fd5b6103f08282610d1a565b63ffffffff8c16600090815260208181526040808320338452909152902055505050505050505b5060009392505050565b60405163d623472560e01b815260040160405180910390fd5b60008061044983850185610de1565b8051919350915063ffffffff9061046290828516610cf0565b11156104815760405163e3a3537760e01b815260040160405180910390fd5b60005b81518110156101445781818151811061049f5761049f610e8e565b60200260200101516000808563ffffffff16846104bc9190610cf0565b815260208082019290925260409081016000908120338252909252902055600101610484565b60006104f082840184610ea4565b905060005b8163ffffffff16811015610523576000818152602081815260408083203384529091528120556001016104f5565b50505050565b606060405180606001604052806027815260200161124f60279139905090565b6060610556868484610637565b9695505050505050565b60006001600160e01b031982166311b0306d60e21b148061029b57506301ffc9a760e01b6001600160e01b031983161461029b565b600061029b826080013560801c90565b60006001600160801b0360808301351661029b565b600080806105cb6014828688610c63565b6105d491610c8d565b60601c6105e5602460148789610c63565b6105ee91610ebf565b60801c6105ff60346024888a610c63565b61060891610ebf565b9194506001600160801b0316925060801c90509250925092565b60006001600160801b0360c08301351661029b565b60606000806106468585610777565b909250905060006324f16c0560e11b6001600160e01b031984160161068257818060200190518101906106799190610ef5565b91506106f49050565b636581952160e11b6001600160e01b03198416016106f4576000828060200190518101906106b09190610f4a565b905060005b81518110156106f1578181815181106106d0576106d0610e8e565b602002602001015160200151836106e79190610cf0565b92506001016106b5565b50505b63ffffffff87166000908152602081815260408083203384529091529020548082111561073457604051632531632560e21b815260040160405180910390fd5b61073e8282610d1a565b63ffffffff8916600090815260208181526040808320338452825280832093909355825190810190925281529450505050509392505050565b60006060638dd7712f60e01b6107906004848688610c63565b61079991611093565b6001600160e01b031916036107e75760006107b78460048188610c63565b8101906107c4919061111a565b5060600151602481015181516007190160089092019182529350915061084a9050565b6107f5600460008587610c63565b6107fe91611093565b61080b8460048188610c63565b81818080601f01602080910402602001604051908101604052809392919081815260200183838082843760009201919091525095975091955050505050505b9250929050565b60006020828403121561086357600080fd5b81356001600160e01b03198116811461087b57600080fd5b9392505050565b803563ffffffff8116811461089657600080fd5b919050565b6000806000606084860312156108b057600080fd5b6108b984610882565b925060208401356001600160401b038111156108d457600080fd5b840161012081870312156108e757600080fd5b929592945050506040919091013590565b6001600160a01b038116811461090d57600080fd5b50565b8035610896816108f8565b60008083601f84011261092d57600080fd5b5081356001600160401b0381111561094457600080fd5b60208301915083602082850101111561084a57600080fd5b600080600080600080600060a0888a03121561097757600080fd5b61098088610882565b96506020880135610990816108f8565b95506040880135945060608801356001600160401b038111156109b257600080fd5b6109be8a828b0161091b565b90955093505060808801356001600160401b038111156109dd57600080fd5b6109e98a828b0161091b565b989b979a50959850939692959293505050565b600080600080600060808688031215610a1457600080fd5b610a1d86610882565b94506020860135610a2d816108f8565b93506040860135925060608601356001600160401b03811115610a4f57600080fd5b610a5b8882890161091b565b969995985093965092949392505050565b60008060408385031215610a7f57600080fd5b8235610a8a816108f8565b915060208301358015158114610a9f57600080fd5b809150509250929050565b600080600060408486031215610abf57600080fd5b610ac884610882565b925060208401356001600160401b03811115610ae357600080fd5b610aef8682870161091b565b9497909650939450505050565b60008060208385031215610b0f57600080fd5b82356001600160401b03811115610b2557600080fd5b610b318582860161091b565b90969095509350505050565b60008060408385031215610b5057600080fd5b610b5983610882565b946020939093013593505050565b60008060408385031215610b7a57600080fd5b8235610b85816108f8565b91506020830135610a9f816108f8565b60005b83811015610bb0578181015183820152602001610b98565b50506000910152565b60008151808452610bd1816020860160208601610b95565b601f01601f19169290920160200192915050565b60208152600061087b6020830184610bb9565b60008060408385031215610c0b57600080fd5b823591506020830135610a9f816108f8565b6000808335601e19843603018112610c3457600080fd5b8301803591506001600160401b03821115610c4e57600080fd5b60200191503681900382131561084a57600080fd5b60008085851115610c7357600080fd5b83861115610c8057600080fd5b5050820193919092039150565b80356bffffffffffffffffffffffff198116906014841015610cd3576bffffffffffffffffffffffff196bffffffffffffffffffffffff198560140360031b1b82161691505b5092915050565b634e487b7160e01b600052601160045260246000fd5b8082018082111561029b5761029b610cda565b808202811582820484141761029b5761029b610cda565b8181038181111561029b5761029b610cda565b634e487b7160e01b600052604160045260246000fd5b604051606081016001600160401b0381118282101715610d6557610d65610d2d565b60405290565b60405161012081016001600160401b0381118282101715610d6557610d65610d2d565b604051601f8201601f191681016001600160401b0381118282101715610db657610db6610d2d565b604052919050565b60006001600160401b03821115610dd757610dd7610d2d565b5060051b60200190565b60008060408385031215610df457600080fd5b610dfd83610882565b915060208301356001600160401b03811115610e1857600080fd5b8301601f81018513610e2957600080fd5b8035610e3c610e3782610dbe565b610d8e565b8082825260208201915060208360051b850101925087831115610e5e57600080fd5b6020840193505b82841015610e80578335825260209384019390910190610e65565b809450505050509250929050565b634e487b7160e01b600052603260045260246000fd5b600060208284031215610eb657600080fd5b61087b82610882565b80356001600160801b03198116906010841015610cd3576001600160801b031960109490940360031b84901b1690921692915050565b60008060408385031215610f0857600080fd5b8251610f13816108f8565b6020939093015192949293505050565b60006001600160401b03821115610f3c57610f3c610d2d565b50601f01601f191660200190565b600060208284031215610f5c57600080fd5b81516001600160401b03811115610f7257600080fd5b8201601f81018413610f8357600080fd5b8051610f91610e3782610dbe565b8082825260208201915060208360051b850101925086831115610fb357600080fd5b602084015b838110156110885780516001600160401b03811115610fd657600080fd5b85016060818a03601f19011215610fec57600080fd5b610ff4610d43565b6020820151611002816108f8565b81526040820151602082015260608201516001600160401b0381111561102757600080fd5b60208184010192505089601f83011261103f57600080fd5b815161104d610e3782610f23565b8181528b602083860101111561106257600080fd5b611073826020830160208701610b95565b60408301525084525060209283019201610fb8565b509695505050505050565b80356001600160e01b03198116906004841015610cd3576001600160e01b031960049490940360031b84901b1690921692915050565b600082601f8301126110da57600080fd5b81356110e8610e3782610f23565b8181528460208386010111156110fd57600080fd5b816020850160208301376000918101602001919091529392505050565b6000806040838503121561112d57600080fd5b82356001600160401b0381111561114357600080fd5b8301610120818603121561115657600080fd5b61115e610d6b565b61116782610910565b81526020828101359082015260408201356001600160401b0381111561118c57600080fd5b611198878285016110c9565b60408301525060608201356001600160401b038111156111b757600080fd5b6111c3878285016110c9565b6060830152506080828101359082015260a0808301359082015260c0808301359082015260e08201356001600160401b0381111561120057600080fd5b61120c878285016110c9565b60e0830152506101008201356001600160401b0381111561122c57600080fd5b611238878285016110c9565b610100830152509560209490940135945050505056fe657263363930302e6e61746976652d746f6b656e2d6c696d69742d6d6f64756c652e312e302e30a164736f6c634300081a000a","linkReferences":{}},"methodIdentifiers":{"limits(uint256,address)":"e19500ba","moduleId()":"a1308f27","onInstall(bytes)":"6d61fe70","onUninstall(bytes)":"8a91b0e3","postExecutionHook(uint32,bytes)":"5d413a81","preExecutionHook(uint32,address,uint256,bytes)":"ed6dfb13","preRuntimeValidationHook(uint32,address,uint256,bytes,bytes)":"3d6bda32","preSignatureValidationHook(uint32,address,bytes32,bytes)":"3f41826e","preUserOpValidationHook(uint32,(address,uint256,bytes,bytes,bytes32,uint256,bytes32,bytes,bytes),bytes32)":"2a3d428c","specialPaymasters(address,address)":"9f176d5f","supportsInterface(bytes4)":"01ffc9a7","updateLimits(uint32,uint256)":"71280be3","updateSpecialPaymaster(address,bool)":"5c6e5169"},"id":125}