{"abi":[{"type":"function","name":"executionManifest","inputs":[],"outputs":[{"name":"","type":"tuple","internalType":"struct ExecutionManifest","components":[{"name":"executionFunctions","type":"tuple[]","internalType":"struct ManifestExecutionFunction[]","components":[{"name":"executionSelector","type":"bytes4","internalType":"bytes4"},{"name":"skipRuntimeValidation","type":"bool","internalType":"bool"},{"name":"allowGlobalValidation","type":"bool","internalType":"bool"}]},{"name":"executionHooks","type":"tuple[]","internalType":"struct ManifestExecutionHook[]","components":[{"name":"executionSelector","type":"bytes4","internalType":"bytes4"},{"name":"entityId","type":"uint32","internalType":"uint32"},{"name":"isPreHook","type":"bool","internalType":"bool"},{"name":"isPostHook","type":"bool","internalType":"bool"}]},{"name":"interfaceIds","type":"bytes4[]","internalType":"bytes4[]"}]}],"stateMutability":"pure"},{"type":"function","name":"moduleId","inputs":[],"outputs":[{"name":"","type":"string","internalType":"string"}],"stateMutability":"pure"},{"type":"function","name":"onERC1155BatchReceived","inputs":[{"name":"","type":"address","internalType":"address"},{"name":"","type":"address","internalType":"address"},{"name":"","type":"uint256[]","internalType":"uint256[]"},{"name":"","type":"uint256[]","internalType":"uint256[]"},{"name":"","type":"bytes","internalType":"bytes"}],"outputs":[{"name":"","type":"bytes4","internalType":"bytes4"}],"stateMutability":"pure"},{"type":"function","name":"onERC1155Received","inputs":[{"name":"","type":"address","internalType":"address"},{"name":"","type":"address","internalType":"address"},{"name":"","type":"uint256","internalType":"uint256"},{"name":"","type":"uint256","internalType":"uint256"},{"name":"","type":"bytes","internalType":"bytes"}],"outputs":[{"name":"","type":"bytes4","internalType":"bytes4"}],"stateMutability":"pure"},{"type":"function","name":"onERC721Received","inputs":[{"name":"","type":"address","internalType":"address"},{"name":"","type":"address","internalType":"address"},{"name":"","type":"uint256","internalType":"uint256"},{"name":"","type":"bytes","internalType":"bytes"}],"outputs":[{"name":"","type":"bytes4","internalType":"bytes4"}],"stateMutability":"pure"},{"type":"function","name":"onInstall","inputs":[{"name":"","type":"bytes","internalType":"bytes"}],"outputs":[],"stateMutability":"pure"},{"type":"function","name":"onUninstall","inputs":[{"name":"","type":"bytes","internalType":"bytes"}],"outputs":[],"stateMutability":"pure"},{"type":"function","name":"supportsInterface","inputs":[{"name":"interfaceId","type":"bytes4","internalType":"bytes4"}],"outputs":[{"name":"","type":"bool","internalType":"bool"}],"stateMutability":"view"},{"type":"error","name":"NotImplemented","inputs":[]}],"bytecode":{"object":"0x6080604052348015600f57600080fd5b5061088f8061001f6000396000f3fe608060405234801561001057600080fd5b50600436106100885760003560e01c8063a1308f271161005b578063a1308f2714610101578063ae5628c614610116578063bc197c811461012b578063f23a6e611461014d57600080fd5b806301ffc9a71461008d578063150b7a02146100b55780636d61fe70146100ed5780638a91b0e3146100ed575b600080fd5b6100a061009b3660046103ce565b61016d565b60405190151581526020015b60405180910390f35b6100d46100c3366004610464565b630a85bd0160e11b95945050505050565b6040516001600160e01b031990911681526020016100ac565b6100ff6100fb3660046104d3565b5050565b005b6101096101a4565b6040516100ac9190610515565b61011e6101c4565b6040516100ac9190610612565b6100d461013936600461070a565b63bc197c8160e01b98975050505050505050565b6100d461015b3660046107d1565b63f23a6e6160e01b9695505050505050565b60006001600160e01b031982166311b0306d60e21b148061019e57506301ffc9a760e01b6001600160e01b03198316145b92915050565b606060405180606001604052806023815260200161086060239139905090565b6101e860405180606001604052806060815260200160608152602001606081525090565b61020c60405180606001604052806060815260200160608152602001606081525090565b6040805160038082526080820190925290816020015b6040805160608101825260008082526020808301829052928201528252600019909201910181610222575050815260408051606081018252630a85bd0160e11b8152600160208201526000918101829052825180519192909161028757610287610849565b6020026020010181905250604051806060016040528063f23a6e6160e01b6001600160e01b03191681526020016001151581526020016000151581525081600001516001815181106102db576102db610849565b6020908102919091018101919091526040805160608101825263bc197c8160e01b815260019281019290925260009082015281518051600290811061032257610322610849565b60209081029190910101526040805160028082526060820190925290816020016020820280368337505050604082018190528051630a85bd0160e11b919060009061036f5761036f610849565b60200260200101906001600160e01b03191690816001600160e01b03191681525050630271189760e51b81604001516001815181106103b0576103b0610849565b6001600160e01b031990921660209283029190910190910152919050565b6000602082840312156103e057600080fd5b81356001600160e01b0319811681146103f857600080fd5b9392505050565b80356001600160a01b038116811461041657600080fd5b919050565b60008083601f84011261042d57600080fd5b50813567ffffffffffffffff81111561044557600080fd5b60208301915083602082850101111561045d57600080fd5b9250929050565b60008060008060006080868803121561047c57600080fd5b610485866103ff565b9450610493602087016103ff565b935060408601359250606086013567ffffffffffffffff8111156104b657600080fd5b6104c28882890161041b565b969995985093965092949392505050565b600080602083850312156104e657600080fd5b823567ffffffffffffffff8111156104fd57600080fd5b6105098582860161041b565b90969095509350505050565b602081526000825180602084015260005b818110156105435760208186018101516040868401015201610526565b506000604082850101526040601f19601f83011684010191505092915050565b600081518084526020840193506020830160005b828110156105cc57815180516001600160e01b031916875260208082015163ffffffff168189015260408083015115159089015260609182015115159188019190915260809096019590910190600101610577565b5093949350505050565b600081518084526020840193506020830160005b828110156105cc5781516001600160e01b0319168652602095860195909101906001016105ea565b602080825282516060838301528051608084018190526000929190910190829060a08501905b8083101561067f57835163ffffffff60e01b815116835260208101511515602084015260408101511515604084015250606082019150602084019350600183019250610638565b506020860151858203601f19016040870152925061069d8184610563565b925050506040840151601f198483030160608501526106bc82826105d6565b95945050505050565b60008083601f8401126106d757600080fd5b50813567ffffffffffffffff8111156106ef57600080fd5b6020830191508360208260051b850101111561045d57600080fd5b60008060008060008060008060a0898b03121561072657600080fd5b61072f896103ff565b975061073d60208a016103ff565b9650604089013567ffffffffffffffff81111561075957600080fd5b6107658b828c016106c5565b909750955050606089013567ffffffffffffffff81111561078557600080fd5b6107918b828c016106c5565b909550935050608089013567ffffffffffffffff8111156107b157600080fd5b6107bd8b828c0161041b565b999c989b5096995094979396929594505050565b60008060008060008060a087890312156107ea57600080fd5b6107f3876103ff565b9550610801602088016103ff565b94506040870135935060608701359250608087013567ffffffffffffffff81111561082b57600080fd5b61083789828a0161041b565b979a9699509497509295939492505050565b634e487b7160e01b600052603260045260246000fdfe657263363930302e746f6b656e2d72656365697665722d6d6f64756c652e312e302e30a164736f6c634300081a000a","linkReferences":{}},"methodIdentifiers":{"executionManifest()":"ae5628c6","moduleId()":"a1308f27","onERC1155BatchReceived(address,address,uint256[],uint256[],bytes)":"bc197c81","onERC1155Received(address,address,uint256,uint256,bytes)":"f23a6e61","onERC721Received(address,address,uint256,bytes)":"150b7a02","onInstall(bytes)":"6d61fe70","onUninstall(bytes)":"8a91b0e3","supportsInterface(bytes4)":"01ffc9a7"},"id":122}