{
  "contracts/ignition/BasicContract.sol": {
    "BasicContract": {
      "abi": [
        {
          "inputs": [
            {
              "internalType": "address",
              "name": "_sender",
              "type": "address"
            }
          ],
          "stateMutability": "nonpayable",
          "type": "constructor"
        },
        {
          "anonymous": false,
          "inputs": [
            {
              "indexed": false,
              "internalType": "uint256",
              "name": "eventArg",
              "type": "uint256"
            }
          ],
          "name": "BasicEvent",
          "type": "event"
        },
        {
          "inputs": [
            {
              "internalType": "uint256",
              "name": "funcArg",
              "type": "uint256"
            }
          ],
          "name": "basicFunction",
          "outputs": [],
          "stateMutability": "nonpayable",
          "type": "function"
        },
        {
          "inputs": [
            {
              "internalType": "uint256",
              "name": "arg",
              "type": "uint256"
            }
          ],
          "name": "otherFunction",
          "outputs": [],
          "stateMutability": "payable",
          "type": "function"
        },
        {
          "inputs": [],
          "name": "savedArg",
          "outputs": [
            {
              "internalType": "uint256",
              "name": "",
              "type": "uint256"
            }
          ],
          "stateMutability": "view",
          "type": "function"
        },
        {
          "inputs": [],
          "name": "sender",
          "outputs": [
            {
              "internalType": "address",
              "name": "",
              "type": "address"
            }
          ],
          "stateMutability": "view",
          "type": "function"
        },
        {
          "stateMutability": "payable",
          "type": "receive"
        }
      ],
      "devdoc": {
        "kind": "dev",
        "methods": {},
        "version": 1
      },
      "evm": {
        "bytecode": {
          "linkReferences": {},
          "object": "608060405234801561000f575f80fd5b506040516101e83803806101e883398101604081905261002e91610053565b600180546001600160a01b0319166001600160a01b0392909216919091179055610080565b5f60208284031215610063575f80fd5b81516001600160a01b0381168114610079575f80fd5b9392505050565b61015b8061008d5f395ff3fe608060405260043610610041575f3560e01c806353a57b4a1461004c578063673b6d911461007357806367e404ce1461008757806392b4bb8a146100be575f80fd5b3661004857005b5f80fd5b348015610057575f80fd5b506100605f5481565b6040519081526020015b60405180910390f35b61008561008136600461010e565b5f55565b005b348015610092575f80fd5b506001546100a6906001600160a01b031681565b6040516001600160a01b03909116815260200161006a565b3480156100c9575f80fd5b506100856100d836600461010e565b6040518181527fb532177e7c269fcc7b98812c0fc27f2dd1970ad68f68cea8c18f0191848377a29060200160405180910390a150565b5f6020828403121561011e575f80fd5b503591905056fea264697066735822122002e40e9d59c0f8bb81613924f866932ce1b5b9f85e68885cf90ff22b733848a264736f6c63430008180033",
          "opcodes": "PUSH1 0x80 PUSH1 0x40 MSTORE CALLVALUE DUP1 ISZERO PUSH2 0xF JUMPI PUSH0 DUP1 REVERT JUMPDEST POP PUSH1 0x40 MLOAD PUSH2 0x1E8 CODESIZE SUB DUP1 PUSH2 0x1E8 DUP4 CODECOPY DUP2 ADD PUSH1 0x40 DUP2 SWAP1 MSTORE PUSH2 0x2E SWAP2 PUSH2 0x53 JUMP JUMPDEST PUSH1 0x1 DUP1 SLOAD PUSH1 0x1 PUSH1 0x1 PUSH1 0xA0 SHL SUB NOT AND PUSH1 0x1 PUSH1 0x1 PUSH1 0xA0 SHL SUB SWAP3 SWAP1 SWAP3 AND SWAP2 SWAP1 SWAP2 OR SWAP1 SSTORE PUSH2 0x80 JUMP JUMPDEST PUSH0 PUSH1 0x20 DUP3 DUP5 SUB SLT ISZERO PUSH2 0x63 JUMPI PUSH0 DUP1 REVERT JUMPDEST DUP2 MLOAD PUSH1 0x1 PUSH1 0x1 PUSH1 0xA0 SHL SUB DUP2 AND DUP2 EQ PUSH2 0x79 JUMPI PUSH0 DUP1 REVERT JUMPDEST SWAP4 SWAP3 POP POP POP JUMP JUMPDEST PUSH2 0x15B DUP1 PUSH2 0x8D PUSH0 CODECOPY PUSH0 RETURN INVALID PUSH1 0x80 PUSH1 0x40 MSTORE PUSH1 0x4 CALLDATASIZE LT PUSH2 0x41 JUMPI PUSH0 CALLDATALOAD PUSH1 0xE0 SHR DUP1 PUSH4 0x53A57B4A EQ PUSH2 0x4C JUMPI DUP1 PUSH4 0x673B6D91 EQ PUSH2 0x73 JUMPI DUP1 PUSH4 0x67E404CE EQ PUSH2 0x87 JUMPI DUP1 PUSH4 0x92B4BB8A EQ PUSH2 0xBE JUMPI PUSH0 DUP1 REVERT JUMPDEST CALLDATASIZE PUSH2 0x48 JUMPI STOP JUMPDEST PUSH0 DUP1 REVERT JUMPDEST CALLVALUE DUP1 ISZERO PUSH2 0x57 JUMPI PUSH0 DUP1 REVERT JUMPDEST POP PUSH2 0x60 PUSH0 SLOAD DUP2 JUMP JUMPDEST PUSH1 0x40 MLOAD SWAP1 DUP2 MSTORE PUSH1 0x20 ADD JUMPDEST PUSH1 0x40 MLOAD DUP1 SWAP2 SUB SWAP1 RETURN JUMPDEST PUSH2 0x85 PUSH2 0x81 CALLDATASIZE PUSH1 0x4 PUSH2 0x10E JUMP JUMPDEST PUSH0 SSTORE JUMP JUMPDEST STOP JUMPDEST CALLVALUE DUP1 ISZERO PUSH2 0x92 JUMPI PUSH0 DUP1 REVERT JUMPDEST POP PUSH1 0x1 SLOAD PUSH2 0xA6 SWAP1 PUSH1 0x1 PUSH1 0x1 PUSH1 0xA0 SHL SUB AND DUP2 JUMP JUMPDEST PUSH1 0x40 MLOAD PUSH1 0x1 PUSH1 0x1 PUSH1 0xA0 SHL SUB SWAP1 SWAP2 AND DUP2 MSTORE PUSH1 0x20 ADD PUSH2 0x6A JUMP JUMPDEST CALLVALUE DUP1 ISZERO PUSH2 0xC9 JUMPI PUSH0 DUP1 REVERT JUMPDEST POP PUSH2 0x85 PUSH2 0xD8 CALLDATASIZE PUSH1 0x4 PUSH2 0x10E JUMP JUMPDEST PUSH1 0x40 MLOAD DUP2 DUP2 MSTORE PUSH32 0xB532177E7C269FCC7B98812C0FC27F2DD1970AD68F68CEA8C18F0191848377A2 SWAP1 PUSH1 0x20 ADD PUSH1 0x40 MLOAD DUP1 SWAP2 SUB SWAP1 LOG1 POP JUMP JUMPDEST PUSH0 PUSH1 0x20 DUP3 DUP5 SUB SLT ISZERO PUSH2 0x11E JUMPI PUSH0 DUP1 REVERT JUMPDEST POP CALLDATALOAD SWAP2 SWAP1 POP JUMP INVALID LOG2 PUSH5 0x6970667358 0x22 SLT KECCAK256 MUL 0xE4 0xE SWAP14 MSIZE 0xC0 0xF8 0xBB DUP2 PUSH2 0x3924 0xF8 PUSH7 0x932CE1B5B9F85E PUSH9 0x885CF90FF22B733848 LOG2 PUSH5 0x736F6C6343 STOP ADDMOD XOR STOP CALLER "
        },
        "gasEstimates": {
          "creation": {
            "codeDepositCost": "69400",
            "executionCost": "infinite",
            "totalCost": "infinite"
          },
          "external": {
            "basicFunction(uint256)": "1310",
            "otherFunction(uint256)": "22285",
            "savedArg()": "2260",
            "sender()": "2358"
          }
        },
        "methodIdentifiers": {
          "basicFunction(uint256)": "92b4bb8a",
          "otherFunction(uint256)": "673b6d91",
          "savedArg()": "53a57b4a",
          "sender()": "67e404ce"
        }
      },
      "storageLayout": {
        "storage": [
          {
            "astId": 3,
            "contract": "contracts/ignition/BasicContract.sol:BasicContract",
            "label": "savedArg",
            "offset": 0,
            "slot": "0",
            "type": "t_uint256"
          },
          {
            "astId": 5,
            "contract": "contracts/ignition/BasicContract.sol:BasicContract",
            "label": "sender",
            "offset": 0,
            "slot": "1",
            "type": "t_address"
          }
        ],
        "types": {
          "t_address": {
            "encoding": "inplace",
            "label": "address",
            "numberOfBytes": "20"
          },
          "t_uint256": {
            "encoding": "inplace",
            "label": "uint256",
            "numberOfBytes": "32"
          }
        }
      },
      "userdoc": {
        "kind": "user",
        "methods": {},
        "version": 1
      }
    }
  }
}