{
  "contracts/ignition/BasicLibrary.sol": {
    "BasicLibrary": {
      "abi": [
        {
          "inputs": [
            {
              "internalType": "uint256",
              "name": "self",
              "type": "uint256"
            }
          ],
          "name": "addTwo",
          "outputs": [
            {
              "internalType": "uint256",
              "name": "",
              "type": "uint256"
            }
          ],
          "stateMutability": "pure",
          "type": "function"
        }
      ],
      "devdoc": {
        "kind": "dev",
        "methods": {},
        "version": 1
      },
      "evm": {
        "bytecode": {
          "linkReferences": {},
          "object": "60d1610034600b8282823980515f1a60731461002857634e487b7160e01b5f525f60045260245ffd5b305f52607381538281f3fe73000000000000000000000000000000000000000030146080604052600436106032575f3560e01c8063cae57913146036575b5f80fd5b604560413660046067565b6057565b60405190815260200160405180910390f35b5f6061826002607d565b92915050565b5f602082840312156076575f80fd5b5035919050565b80820180821115606157634e487b7160e01b5f52601160045260245ffdfea2646970667358221220b02109bb98bc0a9f109797c1255bd0e140075db864627f40f0f7e41df9551c6a64736f6c63430008180033",
          "opcodes": "PUSH1 0xD1 PUSH2 0x34 PUSH1 0xB DUP3 DUP3 DUP3 CODECOPY DUP1 MLOAD PUSH0 BYTE PUSH1 0x73 EQ PUSH2 0x28 JUMPI PUSH4 0x4E487B71 PUSH1 0xE0 SHL PUSH0 MSTORE PUSH0 PUSH1 0x4 MSTORE PUSH1 0x24 PUSH0 REVERT JUMPDEST ADDRESS PUSH0 MSTORE PUSH1 0x73 DUP2 MSTORE8 DUP3 DUP2 RETURN INVALID PUSH20 0x0 ADDRESS EQ PUSH1 0x80 PUSH1 0x40 MSTORE PUSH1 0x4 CALLDATASIZE LT PUSH1 0x32 JUMPI PUSH0 CALLDATALOAD PUSH1 0xE0 SHR DUP1 PUSH4 0xCAE57913 EQ PUSH1 0x36 JUMPI JUMPDEST PUSH0 DUP1 REVERT JUMPDEST PUSH1 0x45 PUSH1 0x41 CALLDATASIZE PUSH1 0x4 PUSH1 0x67 JUMP JUMPDEST PUSH1 0x57 JUMP JUMPDEST PUSH1 0x40 MLOAD SWAP1 DUP2 MSTORE PUSH1 0x20 ADD PUSH1 0x40 MLOAD DUP1 SWAP2 SUB SWAP1 RETURN JUMPDEST PUSH0 PUSH1 0x61 DUP3 PUSH1 0x2 PUSH1 0x7D JUMP JUMPDEST SWAP3 SWAP2 POP POP JUMP JUMPDEST PUSH0 PUSH1 0x20 DUP3 DUP5 SUB SLT ISZERO PUSH1 0x76 JUMPI PUSH0 DUP1 REVERT JUMPDEST POP CALLDATALOAD SWAP2 SWAP1 POP JUMP JUMPDEST DUP1 DUP3 ADD DUP1 DUP3 GT ISZERO PUSH1 0x61 JUMPI PUSH4 0x4E487B71 PUSH1 0xE0 SHL PUSH0 MSTORE PUSH1 0x11 PUSH1 0x4 MSTORE PUSH1 0x24 PUSH0 REVERT INVALID LOG2 PUSH5 0x6970667358 0x22 SLT KECCAK256 0xB0 0x21 MULMOD 0xBB SWAP9 0xBC EXP SWAP16 LT SWAP8 SWAP8 0xC1 0x25 JUMPDEST 0xD0 0xE1 BLOCKHASH SMOD TSTORE 0xB8 PUSH5 0x627F40F0F7 0xE4 SAR 0xF9 SSTORE SHR PUSH11 0x64736F6C63430008180033 "
        },
        "gasEstimates": {
          "creation": {
            "codeDepositCost": "41800",
            "executionCost": "120",
            "totalCost": "41920"
          },
          "external": {
            "addTwo(uint256)": "infinite"
          }
        },
        "methodIdentifiers": {
          "addTwo(uint256)": "cae57913"
        }
      },
      "storageLayout": {
        "storage": [],
        "types": null
      },
      "userdoc": {
        "kind": "user",
        "methods": {},
        "version": 1
      }
    }
  }
}