{
  "contracts/ignition/ContractWithLibrary.sol": {
    "ContractWithLibrary": {
      "abi": [
        {
          "inputs": [
            {
              "internalType": "uint256",
              "name": "num",
              "type": "uint256"
            }
          ],
          "name": "readonlyFunction",
          "outputs": [
            {
              "internalType": "uint256",
              "name": "",
              "type": "uint256"
            }
          ],
          "stateMutability": "pure",
          "type": "function"
        }
      ],
      "devdoc": {
        "kind": "dev",
        "methods": {},
        "version": 1
      },
      "evm": {
        "bytecode": {
          "linkReferences": {
            "contracts/ignition/BasicLibrary.sol": {
              "BasicLibrary": [
                {
                  "length": 20,
                  "start": 128
                }
              ]
            }
          },
          "object": "608060405234801561000f575f80fd5b506101248061001d5f395ff3fe6080604052348015600e575f80fd5b50600436106026575f3560e01c80630689b57e14602a575b5f80fd5b6039603536600460c2565b604b565b60405190815260200160405180910390f35b60405163cae5791360e01b8152600481018290525f9073__$e0599baf1d425e46767254420f2ab646bc$__9063cae5791390602401602060405180830381865af4158015609a573d5f803e3d5ffd5b505050506040513d601f19601f8201168201806040525081019060bc919060d8565b92915050565b5f6020828403121560d1575f80fd5b5035919050565b5f6020828403121560e7575f80fd5b505191905056fea264697066735822122004e109d819f097d5f22f3b12a8c19c25cfba7ae56e5439b39e7a418f73dc132664736f6c63430008180033",
          "opcodes": "PUSH1 0x80 PUSH1 0x40 MSTORE CALLVALUE DUP1 ISZERO PUSH2 0xF JUMPI PUSH0 DUP1 REVERT JUMPDEST POP PUSH2 0x124 DUP1 PUSH2 0x1D PUSH0 CODECOPY PUSH0 RETURN INVALID PUSH1 0x80 PUSH1 0x40 MSTORE CALLVALUE DUP1 ISZERO PUSH1 0xE JUMPI PUSH0 DUP1 REVERT JUMPDEST POP PUSH1 0x4 CALLDATASIZE LT PUSH1 0x26 JUMPI PUSH0 CALLDATALOAD PUSH1 0xE0 SHR DUP1 PUSH4 0x689B57E EQ PUSH1 0x2A JUMPI JUMPDEST PUSH0 DUP1 REVERT JUMPDEST PUSH1 0x39 PUSH1 0x35 CALLDATASIZE PUSH1 0x4 PUSH1 0xC2 JUMP JUMPDEST PUSH1 0x4B JUMP JUMPDEST PUSH1 0x40 MLOAD SWAP1 DUP2 MSTORE PUSH1 0x20 ADD PUSH1 0x40 MLOAD DUP1 SWAP2 SUB SWAP1 RETURN JUMPDEST PUSH1 0x40 MLOAD PUSH4 0xCAE57913 PUSH1 0xE0 SHL DUP2 MSTORE PUSH1 0x4 DUP2 ADD DUP3 SWAP1 MSTORE PUSH0 SWAP1 PUSH20 0x0 SWAP1 PUSH4 0xCAE57913 SWAP1 PUSH1 0x24 ADD PUSH1 0x20 PUSH1 0x40 MLOAD DUP1 DUP4 SUB DUP2 DUP7 GAS DELEGATECALL ISZERO DUP1 ISZERO PUSH1 0x9A JUMPI RETURNDATASIZE PUSH0 DUP1 RETURNDATACOPY RETURNDATASIZE PUSH0 REVERT JUMPDEST POP POP POP POP PUSH1 0x40 MLOAD RETURNDATASIZE PUSH1 0x1F NOT PUSH1 0x1F DUP3 ADD AND DUP3 ADD DUP1 PUSH1 0x40 MSTORE POP DUP2 ADD SWAP1 PUSH1 0xBC SWAP2 SWAP1 PUSH1 0xD8 JUMP JUMPDEST SWAP3 SWAP2 POP POP JUMP JUMPDEST PUSH0 PUSH1 0x20 DUP3 DUP5 SUB SLT ISZERO PUSH1 0xD1 JUMPI PUSH0 DUP1 REVERT JUMPDEST POP CALLDATALOAD SWAP2 SWAP1 POP JUMP JUMPDEST PUSH0 PUSH1 0x20 DUP3 DUP5 SUB SLT ISZERO PUSH1 0xE7 JUMPI PUSH0 DUP1 REVERT JUMPDEST POP MLOAD SWAP2 SWAP1 POP JUMP INVALID LOG2 PUSH5 0x6970667358 0x22 SLT KECCAK256 DIV 0xE1 MULMOD 0xD8 NOT CREATE SWAP8 0xD5 CALLCODE 0x2F EXTCODESIZE SLT 0xA8 0xC1 SWAP13 0x25 0xCF 0xBA PUSH27 0xE56E5439B39E7A418F73DC132664736F6C63430008180033000000 "
        },
        "gasEstimates": {
          "creation": {
            "codeDepositCost": "58400",
            "executionCost": "109",
            "totalCost": "58509"
          },
          "external": {
            "readonlyFunction(uint256)": "infinite"
          }
        },
        "methodIdentifiers": {
          "readonlyFunction(uint256)": "0689b57e"
        }
      },
      "storageLayout": {
        "storage": [],
        "types": null
      },
      "userdoc": {
        "kind": "user",
        "methods": {},
        "version": 1
      }
    }
  }
}