{
  "contracts/ignition/Rocket.sol": {
    "Rocket": {
      "abi": [
        {
          "inputs": [
            {
              "internalType": "string",
              "name": "_name",
              "type": "string"
            }
          ],
          "stateMutability": "nonpayable",
          "type": "constructor"
        },
        {
          "inputs": [],
          "name": "launch",
          "outputs": [],
          "stateMutability": "nonpayable",
          "type": "function"
        },
        {
          "inputs": [],
          "name": "name",
          "outputs": [
            {
              "internalType": "string",
              "name": "",
              "type": "string"
            }
          ],
          "stateMutability": "view",
          "type": "function"
        },
        {
          "inputs": [],
          "name": "status",
          "outputs": [
            {
              "internalType": "string",
              "name": "",
              "type": "string"
            }
          ],
          "stateMutability": "view",
          "type": "function"
        }
      ],
      "devdoc": {
        "kind": "dev",
        "methods": {},
        "version": 1
      },
      "evm": {
        "bytecode": {
          "linkReferences": {},
          "object": "608060405234801561000f575f80fd5b506040516105a73803806105a783398101604081905261002e91610081565b5f61003982826101c7565b5060408051808201909152600881526734b3b734ba34b7b760c11b602082015260019061006690826101c7565b5050610286565b634e487b7160e01b5f52604160045260245ffd5b5f6020808385031215610092575f80fd5b82516001600160401b03808211156100a8575f80fd5b818501915085601f8301126100bb575f80fd5b8151818111156100cd576100cd61006d565b604051601f8201601f19908116603f011681019083821181831017156100f5576100f561006d565b81604052828152888684870101111561010c575f80fd5b5f93505b8284101561012d5784840186015181850187015292850192610110565b5f86848301015280965050505050505092915050565b600181811c9082168061015757607f821691505b60208210810361017557634e487b7160e01b5f52602260045260245ffd5b50919050565b601f8211156101c257805f5260205f20601f840160051c810160208510156101a05750805b601f840160051c820191505b818110156101bf575f81556001016101ac565b50505b505050565b81516001600160401b038111156101e0576101e061006d565b6101f4816101ee8454610143565b8461017b565b602080601f831160018114610227575f84156102105750858301515b5f19600386901b1c1916600185901b17855561027e565b5f85815260208120601f198616915b8281101561025557888601518255948401946001909101908401610236565b508582101561027257878501515f19600388901b60f8161c191681555b505060018460011b0185555b505050505050565b610314806102935f395ff3fe608060405234801561000f575f80fd5b506004361061003f575f3560e01c806301339c211461004357806306fdde031461004d578063200d2ed21461006b575b5f80fd5b61004b610073565b005b6100556100a2565b604051610062919061013a565b60405180910390f35b61005561012d565b6040805180820190915260088152673634b33a16b7b33360c11b602082015260019061009f908261021e565b50565b5f80546100ae9061019a565b80601f01602080910402602001604051908101604052809291908181526020018280546100da9061019a565b80156101255780601f106100fc57610100808354040283529160200191610125565b820191905f5260205f20905b81548152906001019060200180831161010857829003601f168201915b505050505081565b600180546100ae9061019a565b5f602080835283518060208501525f5b818110156101665785810183015185820160400152820161014a565b505f604082860101526040601f19601f8301168501019250505092915050565b634e487b7160e01b5f52604160045260245ffd5b600181811c908216806101ae57607f821691505b6020821081036101cc57634e487b7160e01b5f52602260045260245ffd5b50919050565b601f82111561021957805f5260205f20601f840160051c810160208510156101f75750805b601f840160051c820191505b81811015610216575f8155600101610203565b50505b505050565b815167ffffffffffffffff81111561023857610238610186565b61024c81610246845461019a565b846101d2565b602080601f83116001811461027f575f84156102685750858301515b5f19600386901b1c1916600185901b1785556102d6565b5f85815260208120601f198616915b828110156102ad5788860151825594840194600190910190840161028e565b50858210156102ca57878501515f19600388901b60f8161c191681555b505060018460011b0185555b50505050505056fea2646970667358221220e2a94f205758b4a248dfbfe00bdf2598d33c4451fc2625d7cf81e5f0fc1fe81264736f6c63430008180033",
          "opcodes": "PUSH1 0x80 PUSH1 0x40 MSTORE CALLVALUE DUP1 ISZERO PUSH2 0xF JUMPI PUSH0 DUP1 REVERT JUMPDEST POP PUSH1 0x40 MLOAD PUSH2 0x5A7 CODESIZE SUB DUP1 PUSH2 0x5A7 DUP4 CODECOPY DUP2 ADD PUSH1 0x40 DUP2 SWAP1 MSTORE PUSH2 0x2E SWAP2 PUSH2 0x81 JUMP JUMPDEST PUSH0 PUSH2 0x39 DUP3 DUP3 PUSH2 0x1C7 JUMP JUMPDEST POP PUSH1 0x40 DUP1 MLOAD DUP1 DUP3 ADD SWAP1 SWAP2 MSTORE PUSH1 0x8 DUP2 MSTORE PUSH8 0x34B3B734BA34B7B7 PUSH1 0xC1 SHL PUSH1 0x20 DUP3 ADD MSTORE PUSH1 0x1 SWAP1 PUSH2 0x66 SWAP1 DUP3 PUSH2 0x1C7 JUMP JUMPDEST POP POP PUSH2 0x286 JUMP JUMPDEST PUSH4 0x4E487B71 PUSH1 0xE0 SHL PUSH0 MSTORE PUSH1 0x41 PUSH1 0x4 MSTORE PUSH1 0x24 PUSH0 REVERT JUMPDEST PUSH0 PUSH1 0x20 DUP1 DUP4 DUP6 SUB SLT ISZERO PUSH2 0x92 JUMPI PUSH0 DUP1 REVERT JUMPDEST DUP3 MLOAD PUSH1 0x1 PUSH1 0x1 PUSH1 0x40 SHL SUB DUP1 DUP3 GT ISZERO PUSH2 0xA8 JUMPI PUSH0 DUP1 REVERT JUMPDEST DUP2 DUP6 ADD SWAP2 POP DUP6 PUSH1 0x1F DUP4 ADD SLT PUSH2 0xBB JUMPI PUSH0 DUP1 REVERT JUMPDEST DUP2 MLOAD DUP2 DUP2 GT ISZERO PUSH2 0xCD JUMPI PUSH2 0xCD PUSH2 0x6D JUMP JUMPDEST PUSH1 0x40 MLOAD PUSH1 0x1F DUP3 ADD PUSH1 0x1F NOT SWAP1 DUP2 AND PUSH1 0x3F ADD AND DUP2 ADD SWAP1 DUP4 DUP3 GT DUP2 DUP4 LT OR ISZERO PUSH2 0xF5 JUMPI PUSH2 0xF5 PUSH2 0x6D JUMP JUMPDEST DUP2 PUSH1 0x40 MSTORE DUP3 DUP2 MSTORE DUP9 DUP7 DUP5 DUP8 ADD ADD GT ISZERO PUSH2 0x10C JUMPI PUSH0 DUP1 REVERT JUMPDEST PUSH0 SWAP4 POP JUMPDEST DUP3 DUP5 LT ISZERO PUSH2 0x12D JUMPI DUP5 DUP5 ADD DUP7 ADD MLOAD DUP2 DUP6 ADD DUP8 ADD MSTORE SWAP3 DUP6 ADD SWAP3 PUSH2 0x110 JUMP JUMPDEST PUSH0 DUP7 DUP5 DUP4 ADD ADD MSTORE DUP1 SWAP7 POP POP POP POP POP POP POP SWAP3 SWAP2 POP POP JUMP JUMPDEST PUSH1 0x1 DUP2 DUP2 SHR SWAP1 DUP3 AND DUP1 PUSH2 0x157 JUMPI PUSH1 0x7F DUP3 AND SWAP2 POP JUMPDEST PUSH1 0x20 DUP3 LT DUP2 SUB PUSH2 0x175 JUMPI PUSH4 0x4E487B71 PUSH1 0xE0 SHL PUSH0 MSTORE PUSH1 0x22 PUSH1 0x4 MSTORE PUSH1 0x24 PUSH0 REVERT JUMPDEST POP SWAP2 SWAP1 POP JUMP JUMPDEST PUSH1 0x1F DUP3 GT ISZERO PUSH2 0x1C2 JUMPI DUP1 PUSH0 MSTORE PUSH1 0x20 PUSH0 KECCAK256 PUSH1 0x1F DUP5 ADD PUSH1 0x5 SHR DUP2 ADD PUSH1 0x20 DUP6 LT ISZERO PUSH2 0x1A0 JUMPI POP DUP1 JUMPDEST PUSH1 0x1F DUP5 ADD PUSH1 0x5 SHR DUP3 ADD SWAP2 POP JUMPDEST DUP2 DUP2 LT ISZERO PUSH2 0x1BF JUMPI PUSH0 DUP2 SSTORE PUSH1 0x1 ADD PUSH2 0x1AC JUMP JUMPDEST POP POP JUMPDEST POP POP POP JUMP JUMPDEST DUP2 MLOAD PUSH1 0x1 PUSH1 0x1 PUSH1 0x40 SHL SUB DUP2 GT ISZERO PUSH2 0x1E0 JUMPI PUSH2 0x1E0 PUSH2 0x6D JUMP JUMPDEST PUSH2 0x1F4 DUP2 PUSH2 0x1EE DUP5 SLOAD PUSH2 0x143 JUMP JUMPDEST DUP5 PUSH2 0x17B JUMP JUMPDEST PUSH1 0x20 DUP1 PUSH1 0x1F DUP4 GT PUSH1 0x1 DUP2 EQ PUSH2 0x227 JUMPI PUSH0 DUP5 ISZERO PUSH2 0x210 JUMPI POP DUP6 DUP4 ADD MLOAD JUMPDEST PUSH0 NOT PUSH1 0x3 DUP7 SWAP1 SHL SHR NOT AND PUSH1 0x1 DUP6 SWAP1 SHL OR DUP6 SSTORE PUSH2 0x27E JUMP JUMPDEST PUSH0 DUP6 DUP2 MSTORE PUSH1 0x20 DUP2 KECCAK256 PUSH1 0x1F NOT DUP7 AND SWAP2 JUMPDEST DUP3 DUP2 LT ISZERO PUSH2 0x255 JUMPI DUP9 DUP7 ADD MLOAD DUP3 SSTORE SWAP5 DUP5 ADD SWAP5 PUSH1 0x1 SWAP1 SWAP2 ADD SWAP1 DUP5 ADD PUSH2 0x236 JUMP JUMPDEST POP DUP6 DUP3 LT ISZERO PUSH2 0x272 JUMPI DUP8 DUP6 ADD MLOAD PUSH0 NOT PUSH1 0x3 DUP9 SWAP1 SHL PUSH1 0xF8 AND SHR NOT AND DUP2 SSTORE JUMPDEST POP POP PUSH1 0x1 DUP5 PUSH1 0x1 SHL ADD DUP6 SSTORE JUMPDEST POP POP POP POP POP POP JUMP JUMPDEST PUSH2 0x314 DUP1 PUSH2 0x293 PUSH0 CODECOPY PUSH0 RETURN INVALID PUSH1 0x80 PUSH1 0x40 MSTORE CALLVALUE DUP1 ISZERO PUSH2 0xF JUMPI PUSH0 DUP1 REVERT JUMPDEST POP PUSH1 0x4 CALLDATASIZE LT PUSH2 0x3F JUMPI PUSH0 CALLDATALOAD PUSH1 0xE0 SHR DUP1 PUSH4 0x1339C21 EQ PUSH2 0x43 JUMPI DUP1 PUSH4 0x6FDDE03 EQ PUSH2 0x4D JUMPI DUP1 PUSH4 0x200D2ED2 EQ PUSH2 0x6B JUMPI JUMPDEST PUSH0 DUP1 REVERT JUMPDEST PUSH2 0x4B PUSH2 0x73 JUMP JUMPDEST STOP JUMPDEST PUSH2 0x55 PUSH2 0xA2 JUMP JUMPDEST PUSH1 0x40 MLOAD PUSH2 0x62 SWAP2 SWAP1 PUSH2 0x13A JUMP JUMPDEST PUSH1 0x40 MLOAD DUP1 SWAP2 SUB SWAP1 RETURN JUMPDEST PUSH2 0x55 PUSH2 0x12D JUMP JUMPDEST PUSH1 0x40 DUP1 MLOAD DUP1 DUP3 ADD SWAP1 SWAP2 MSTORE PUSH1 0x8 DUP2 MSTORE PUSH8 0x3634B33A16B7B333 PUSH1 0xC1 SHL PUSH1 0x20 DUP3 ADD MSTORE PUSH1 0x1 SWAP1 PUSH2 0x9F SWAP1 DUP3 PUSH2 0x21E JUMP JUMPDEST POP JUMP JUMPDEST PUSH0 DUP1 SLOAD PUSH2 0xAE SWAP1 PUSH2 0x19A JUMP JUMPDEST DUP1 PUSH1 0x1F ADD PUSH1 0x20 DUP1 SWAP2 DIV MUL PUSH1 0x20 ADD PUSH1 0x40 MLOAD SWAP1 DUP2 ADD PUSH1 0x40 MSTORE DUP1 SWAP3 SWAP2 SWAP1 DUP2 DUP2 MSTORE PUSH1 0x20 ADD DUP3 DUP1 SLOAD PUSH2 0xDA SWAP1 PUSH2 0x19A JUMP JUMPDEST DUP1 ISZERO PUSH2 0x125 JUMPI DUP1 PUSH1 0x1F LT PUSH2 0xFC JUMPI PUSH2 0x100 DUP1 DUP4 SLOAD DIV MUL DUP4 MSTORE SWAP2 PUSH1 0x20 ADD SWAP2 PUSH2 0x125 JUMP JUMPDEST DUP3 ADD SWAP2 SWAP1 PUSH0 MSTORE PUSH1 0x20 PUSH0 KECCAK256 SWAP1 JUMPDEST DUP2 SLOAD DUP2 MSTORE SWAP1 PUSH1 0x1 ADD SWAP1 PUSH1 0x20 ADD DUP1 DUP4 GT PUSH2 0x108 JUMPI DUP3 SWAP1 SUB PUSH1 0x1F AND DUP3 ADD SWAP2 JUMPDEST POP POP POP POP POP DUP2 JUMP JUMPDEST PUSH1 0x1 DUP1 SLOAD PUSH2 0xAE SWAP1 PUSH2 0x19A JUMP JUMPDEST PUSH0 PUSH1 0x20 DUP1 DUP4 MSTORE DUP4 MLOAD DUP1 PUSH1 0x20 DUP6 ADD MSTORE PUSH0 JUMPDEST DUP2 DUP2 LT ISZERO PUSH2 0x166 JUMPI DUP6 DUP2 ADD DUP4 ADD MLOAD DUP6 DUP3 ADD PUSH1 0x40 ADD MSTORE DUP3 ADD PUSH2 0x14A JUMP JUMPDEST POP PUSH0 PUSH1 0x40 DUP3 DUP7 ADD ADD MSTORE PUSH1 0x40 PUSH1 0x1F NOT PUSH1 0x1F DUP4 ADD AND DUP6 ADD ADD SWAP3 POP POP POP SWAP3 SWAP2 POP POP JUMP JUMPDEST PUSH4 0x4E487B71 PUSH1 0xE0 SHL PUSH0 MSTORE PUSH1 0x41 PUSH1 0x4 MSTORE PUSH1 0x24 PUSH0 REVERT JUMPDEST PUSH1 0x1 DUP2 DUP2 SHR SWAP1 DUP3 AND DUP1 PUSH2 0x1AE JUMPI PUSH1 0x7F DUP3 AND SWAP2 POP JUMPDEST PUSH1 0x20 DUP3 LT DUP2 SUB PUSH2 0x1CC JUMPI PUSH4 0x4E487B71 PUSH1 0xE0 SHL PUSH0 MSTORE PUSH1 0x22 PUSH1 0x4 MSTORE PUSH1 0x24 PUSH0 REVERT JUMPDEST POP SWAP2 SWAP1 POP JUMP JUMPDEST PUSH1 0x1F DUP3 GT ISZERO PUSH2 0x219 JUMPI DUP1 PUSH0 MSTORE PUSH1 0x20 PUSH0 KECCAK256 PUSH1 0x1F DUP5 ADD PUSH1 0x5 SHR DUP2 ADD PUSH1 0x20 DUP6 LT ISZERO PUSH2 0x1F7 JUMPI POP DUP1 JUMPDEST PUSH1 0x1F DUP5 ADD PUSH1 0x5 SHR DUP3 ADD SWAP2 POP JUMPDEST DUP2 DUP2 LT ISZERO PUSH2 0x216 JUMPI PUSH0 DUP2 SSTORE PUSH1 0x1 ADD PUSH2 0x203 JUMP JUMPDEST POP POP JUMPDEST POP POP POP JUMP JUMPDEST DUP2 MLOAD PUSH8 0xFFFFFFFFFFFFFFFF DUP2 GT ISZERO PUSH2 0x238 JUMPI PUSH2 0x238 PUSH2 0x186 JUMP JUMPDEST PUSH2 0x24C DUP2 PUSH2 0x246 DUP5 SLOAD PUSH2 0x19A JUMP JUMPDEST DUP5 PUSH2 0x1D2 JUMP JUMPDEST PUSH1 0x20 DUP1 PUSH1 0x1F DUP4 GT PUSH1 0x1 DUP2 EQ PUSH2 0x27F JUMPI PUSH0 DUP5 ISZERO PUSH2 0x268 JUMPI POP DUP6 DUP4 ADD MLOAD JUMPDEST PUSH0 NOT PUSH1 0x3 DUP7 SWAP1 SHL SHR NOT AND PUSH1 0x1 DUP6 SWAP1 SHL OR DUP6 SSTORE PUSH2 0x2D6 JUMP JUMPDEST PUSH0 DUP6 DUP2 MSTORE PUSH1 0x20 DUP2 KECCAK256 PUSH1 0x1F NOT DUP7 AND SWAP2 JUMPDEST DUP3 DUP2 LT ISZERO PUSH2 0x2AD JUMPI DUP9 DUP7 ADD MLOAD DUP3 SSTORE SWAP5 DUP5 ADD SWAP5 PUSH1 0x1 SWAP1 SWAP2 ADD SWAP1 DUP5 ADD PUSH2 0x28E JUMP JUMPDEST POP DUP6 DUP3 LT ISZERO PUSH2 0x2CA JUMPI DUP8 DUP6 ADD MLOAD PUSH0 NOT PUSH1 0x3 DUP9 SWAP1 SHL PUSH1 0xF8 AND SHR NOT AND DUP2 SSTORE JUMPDEST POP POP PUSH1 0x1 DUP5 PUSH1 0x1 SHL ADD DUP6 SSTORE JUMPDEST POP POP POP POP POP POP JUMP INVALID LOG2 PUSH5 0x6970667358 0x22 SLT KECCAK256 0xE2 0xA9 0x4F KECCAK256 JUMPI PC 0xB4 LOG2 BASEFEE 0xDF 0xBF 0xE0 SIGNEXTEND 0xDF 0x25 SWAP9 0xD3 EXTCODECOPY PREVRANDAO MLOAD 0xFC 0x26 0x25 0xD7 0xCF DUP2 0xE5 CREATE 0xFC 0x1F 0xE8 SLT PUSH5 0x736F6C6343 STOP ADDMOD XOR STOP CALLER "
        },
        "gasEstimates": {
          "creation": {
            "codeDepositCost": "157600",
            "executionCost": "infinite",
            "totalCost": "infinite"
          },
          "external": {
            "launch()": "infinite",
            "name()": "infinite",
            "status()": "infinite"
          }
        },
        "methodIdentifiers": {
          "launch()": "01339c21",
          "name()": "06fdde03",
          "status()": "200d2ed2"
        }
      },
      "storageLayout": {
        "storage": [
          {
            "astId": 3,
            "contract": "contracts/ignition/Rocket.sol:Rocket",
            "label": "name",
            "offset": 0,
            "slot": "0",
            "type": "t_string_storage"
          },
          {
            "astId": 5,
            "contract": "contracts/ignition/Rocket.sol:Rocket",
            "label": "status",
            "offset": 0,
            "slot": "1",
            "type": "t_string_storage"
          }
        ],
        "types": {
          "t_string_storage": {
            "encoding": "bytes",
            "label": "string",
            "numberOfBytes": "32"
          }
        }
      },
      "userdoc": {
        "kind": "user",
        "methods": {},
        "version": 1
      }
    }
  }
}