{"abi":[{"type":"function","name":"executionManifest","inputs":[],"outputs":[{"name":"","type":"tuple","internalType":"struct ExecutionManifest","components":[{"name":"executionFunctions","type":"tuple[]","internalType":"struct ManifestExecutionFunction[]","components":[{"name":"executionSelector","type":"bytes4","internalType":"bytes4"},{"name":"skipRuntimeValidation","type":"bool","internalType":"bool"},{"name":"allowGlobalValidation","type":"bool","internalType":"bool"}]},{"name":"executionHooks","type":"tuple[]","internalType":"struct ManifestExecutionHook[]","components":[{"name":"executionSelector","type":"bytes4","internalType":"bytes4"},{"name":"entityId","type":"uint32","internalType":"uint32"},{"name":"isPreHook","type":"bool","internalType":"bool"},{"name":"isPostHook","type":"bool","internalType":"bool"}]},{"name":"interfaceIds","type":"bytes4[]","internalType":"bytes4[]"}]}],"stateMutability":"pure"},{"type":"function","name":"foo","inputs":[],"outputs":[],"stateMutability":"nonpayable"},{"type":"function","name":"moduleId","inputs":[],"outputs":[{"name":"","type":"string","internalType":"string"}],"stateMutability":"pure"},{"type":"function","name":"onInstall","inputs":[{"name":"","type":"bytes","internalType":"bytes"}],"outputs":[],"stateMutability":"nonpayable"},{"type":"function","name":"onUninstall","inputs":[{"name":"","type":"bytes","internalType":"bytes"}],"outputs":[],"stateMutability":"nonpayable"},{"type":"function","name":"postExecutionHook","inputs":[{"name":"entityId","type":"uint32","internalType":"uint32"},{"name":"","type":"bytes","internalType":"bytes"}],"outputs":[],"stateMutability":"pure"},{"type":"function","name":"preExecutionHook","inputs":[{"name":"entityId","type":"uint32","internalType":"uint32"},{"name":"","type":"address","internalType":"address"},{"name":"","type":"uint256","internalType":"uint256"},{"name":"","type":"bytes","internalType":"bytes"}],"outputs":[{"name":"","type":"bytes","internalType":"bytes"}],"stateMutability":"pure"},{"type":"function","name":"preRuntimeValidationHook","inputs":[{"name":"entityId","type":"uint32","internalType":"uint32"},{"name":"","type":"address","internalType":"address"},{"name":"","type":"uint256","internalType":"uint256"},{"name":"","type":"bytes","internalType":"bytes"},{"name":"","type":"bytes","internalType":"bytes"}],"outputs":[],"stateMutability":"pure"},{"type":"function","name":"preSignatureValidationHook","inputs":[{"name":"","type":"uint32","internalType":"uint32"},{"name":"","type":"address","internalType":"address"},{"name":"","type":"bytes32","internalType":"bytes32"},{"name":"","type":"bytes","internalType":"bytes"}],"outputs":[],"stateMutability":"pure"},{"type":"function","name":"preUserOpValidationHook","inputs":[{"name":"entityId","type":"uint32","internalType":"uint32"},{"name":"","type":"tuple","internalType":"struct PackedUserOperation","components":[{"name":"sender","type":"address","internalType":"address"},{"name":"nonce","type":"uint256","internalType":"uint256"},{"name":"initCode","type":"bytes","internalType":"bytes"},{"name":"callData","type":"bytes","internalType":"bytes"},{"name":"accountGasLimits","type":"bytes32","internalType":"bytes32"},{"name":"preVerificationGas","type":"uint256","internalType":"uint256"},{"name":"gasFees","type":"bytes32","internalType":"bytes32"},{"name":"paymasterAndData","type":"bytes","internalType":"bytes"},{"name":"signature","type":"bytes","internalType":"bytes"}]},{"name":"","type":"bytes32","internalType":"bytes32"}],"outputs":[{"name":"","type":"uint256","internalType":"uint256"}],"stateMutability":"pure"},{"type":"function","name":"supportsInterface","inputs":[{"name":"interfaceId","type":"bytes4","internalType":"bytes4"}],"outputs":[{"name":"","type":"bool","internalType":"bool"}],"stateMutability":"view"},{"type":"function","name":"validateRuntime","inputs":[{"name":"","type":"address","internalType":"address"},{"name":"entityId","type":"uint32","internalType":"uint32"},{"name":"","type":"address","internalType":"address"},{"name":"","type":"uint256","internalType":"uint256"},{"name":"","type":"bytes","internalType":"bytes"},{"name":"","type":"bytes","internalType":"bytes"}],"outputs":[],"stateMutability":"pure"},{"type":"function","name":"validateSignature","inputs":[{"name":"","type":"address","internalType":"address"},{"name":"entityId","type":"uint32","internalType":"uint32"},{"name":"","type":"address","internalType":"address"},{"name":"","type":"bytes32","internalType":"bytes32"},{"name":"","type":"bytes","internalType":"bytes"}],"outputs":[{"name":"","type":"bytes4","internalType":"bytes4"}],"stateMutability":"pure"},{"type":"function","name":"validateUserOp","inputs":[{"name":"entityId","type":"uint32","internalType":"uint32"},{"name":"","type":"tuple","internalType":"struct PackedUserOperation","components":[{"name":"sender","type":"address","internalType":"address"},{"name":"nonce","type":"uint256","internalType":"uint256"},{"name":"initCode","type":"bytes","internalType":"bytes"},{"name":"callData","type":"bytes","internalType":"bytes"},{"name":"accountGasLimits","type":"bytes32","internalType":"bytes32"},{"name":"preVerificationGas","type":"uint256","internalType":"uint256"},{"name":"gasFees","type":"bytes32","internalType":"bytes32"},{"name":"paymasterAndData","type":"bytes","internalType":"bytes"},{"name":"signature","type":"bytes","internalType":"bytes"}]},{"name":"","type":"bytes32","internalType":"bytes32"}],"outputs":[{"name":"","type":"uint256","internalType":"uint256"}],"stateMutability":"pure"},{"type":"error","name":"NotImplemented","inputs":[]}],"bytecode":{"object":"0x6080604052348015600f57600080fd5b50610baa8061001f6000396000f3fe608060405234801561001057600080fd5b50600436106100ea5760003560e01c80636d61fe701161008c578063ae5628c611610066578063ae5628c6146101c2578063c29855781461015e578063e7db7f7e146101d7578063ed6dfb131461020357600080fd5b80636d61fe701461019b5780638a91b0e31461019b578063a1308f27146101ad57600080fd5b80633d6bda32116100c85780633d6bda321461014b5780633f41826e14610160578063465d33e0146101755780635d413a811461018857600080fd5b806301ffc9a7146100ef5780630ab8785f146101175780632a3d428c14610138575b600080fd5b6101026100fd3660046105df565b610216565b60405190151581526020015b60405180910390f35b61012a610125366004610622565b61024d565b60405190815260200161010e565b61012a610146366004610622565b61028c565b61015e6101593660046106e0565b6102a8565b005b61015e61016e366004610780565b5050505050565b61015e6101833660046107ef565b6102e6565b61015e61019636600461089f565b610319565b61015e6101a93660046108f2565b5050565b6101b5610341565b60405161010e919061097a565b6101ca610361565b60405161010e9190610a3c565b6101ea6101e5366004610ae6565b61056b565b6040516001600160e01b0319909116815260200161010e565b6101b5610211366004610780565b610590565b60006001600160e01b031982166311b0306d60e21b148061024757506301ffc9a760e01b6001600160e01b03198316145b92915050565b600060025b63ffffffff168463ffffffff160361026c57506000610285565b60405163d623472560e01b815260040160405180910390fd5b9392505050565b600063ffffffff84166102a157506000610285565b6001610252565b63ffffffff8716156102dd5760001963ffffffff881601156102dd5760405163d623472560e01b815260040160405180910390fd5b50505050505050565b60011963ffffffff8816011561030f5760405163d623472560e01b815260040160405180910390fd5b5050505050505050565b60041963ffffffff84160161032d57505050565b60021963ffffffff84160161026c57505050565b6060604051806060016040528060228152602001610b7c60229139905090565b61038560405180606001604052806060815260200160608152602001606081525090565b6103a960405180606001604052806060815260200160608152602001606081525090565b60408051600180825281830190925290816020015b60408051606081018252600080825260208083018290529282015282526000199092019101816103be5750508152604080516060810182526318530aaf60e31b8152600060208201819052918101829052825180519192909161042357610423610b65565b60209081029190910101526040805160038082526080820190925290816020015b6040805160808101825260008082526020808301829052928201819052606082015282526000199092019101816104445750506020828101918252604080516080810182526318530aaf60e31b815260039281019290925260019082018190526060820152905180516000906104bc576104bc610b65565b602090810291909101810191909152604080516080810182526318530aaf60e31b8152600481840152600191810182905260006060820152918301518051909190811061050b5761050b610b65565b602090810291909101810191909152604080516080810182526318530aaf60e31b815260058184015260009181019190915260016060820152908201518051600290811061055b5761055b610b65565b6020908102919091010152919050565b600060051963ffffffff87160161026c57506001600160e01b03199695505050505050565b606060031963ffffffff8716016105b657506040805160208101909152600081526105d6565b60021963ffffffff87160161026c57506040805160208101909152600081525b95945050505050565b6000602082840312156105f157600080fd5b81356001600160e01b03198116811461028557600080fd5b803563ffffffff8116811461061d57600080fd5b919050565b60008060006060848603121561063757600080fd5b61064084610609565b9250602084013567ffffffffffffffff81111561065c57600080fd5b8401610120818703121561066f57600080fd5b929592945050506040919091013590565b80356001600160a01b038116811461061d57600080fd5b60008083601f8401126106a957600080fd5b50813567ffffffffffffffff8111156106c157600080fd5b6020830191508360208285010111156106d957600080fd5b9250929050565b600080600080600080600060a0888a0312156106fb57600080fd5b61070488610609565b965061071260208901610680565b955060408801359450606088013567ffffffffffffffff81111561073557600080fd5b6107418a828b01610697565b909550935050608088013567ffffffffffffffff81111561076157600080fd5b61076d8a828b01610697565b989b979a50959850939692959293505050565b60008060008060006080868803121561079857600080fd5b6107a186610609565b94506107af60208701610680565b935060408601359250606086013567ffffffffffffffff8111156107d257600080fd5b6107de88828901610697565b969995985093965092949392505050565b60008060008060008060008060c0898b03121561080b57600080fd5b61081489610680565b975061082260208a01610609565b965061083060408a01610680565b955060608901359450608089013567ffffffffffffffff81111561085357600080fd5b61085f8b828c01610697565b90955093505060a089013567ffffffffffffffff81111561087f57600080fd5b61088b8b828c01610697565b999c989b5096995094979396929594505050565b6000806000604084860312156108b457600080fd5b6108bd84610609565b9250602084013567ffffffffffffffff8111156108d957600080fd5b6108e586828701610697565b9497909650939450505050565b6000806020838503121561090557600080fd5b823567ffffffffffffffff81111561091c57600080fd5b61092885828601610697565b90969095509350505050565b6000815180845260005b8181101561095a5760208185018101518683018201520161093e565b506000602082860101526020601f19601f83011685010191505092915050565b6020815260006102856020830184610934565b600081518084526020840193506020830160005b828110156109f657815180516001600160e01b031916875260208082015163ffffffff1681890152604080830151151590890152606091820151151591880191909152608090960195909101906001016109a1565b5093949350505050565b600081518084526020840193506020830160005b828110156109f65781516001600160e01b031916865260209586019590910190600101610a14565b602080825282516060838301528051608084018190526000929190910190829060a08501905b80831015610aa957835163ffffffff60e01b815116835260208101511515602084015260408101511515604084015250606082019150602084019350600183019250610a62565b506020860151858203601f190160408701529250610ac7818461098d565b925050506040840151601f198483030160608501526105d68282610a00565b60008060008060008060a08789031215610aff57600080fd5b610b0887610680565b9550610b1660208801610609565b9450610b2460408801610680565b935060608701359250608087013567ffffffffffffffff811115610b4757600080fd5b610b5389828a01610697565b979a9699509497509295939492505050565b634e487b7160e01b600052603260045260246000fdfe657263363930302e636f6d70726568656e736976652d6d6f64756c652e312e302e30a164736f6c634300081a000a","linkReferences":{}},"methodIdentifiers":{"executionManifest()":"ae5628c6","foo()":"c2985578","moduleId()":"a1308f27","onInstall(bytes)":"6d61fe70","onUninstall(bytes)":"8a91b0e3","postExecutionHook(uint32,bytes)":"5d413a81","preExecutionHook(uint32,address,uint256,bytes)":"ed6dfb13","preRuntimeValidationHook(uint32,address,uint256,bytes,bytes)":"3d6bda32","preSignatureValidationHook(uint32,address,bytes32,bytes)":"3f41826e","preUserOpValidationHook(uint32,(address,uint256,bytes,bytes,bytes32,uint256,bytes32,bytes,bytes),bytes32)":"2a3d428c","supportsInterface(bytes4)":"01ffc9a7","validateRuntime(address,uint32,address,uint256,bytes,bytes)":"465d33e0","validateSignature(address,uint32,address,bytes32,bytes)":"e7db7f7e","validateUserOp(uint32,(address,uint256,bytes,bytes,bytes32,uint256,bytes32,bytes,bytes),bytes32)":"0ab8785f"},"id":158}