{"abi":[{"type":"constructor","inputs":[{"name":"_entryPoint","type":"address","internalType":"contract IEntryPoint"},{"name":"_accountImpl","type":"address","internalType":"contract ReferenceModularAccount"},{"name":"_semiModularImpl","type":"address","internalType":"contract SemiModularAccount"},{"name":"_singleSignerValidationModule","type":"address","internalType":"address"},{"name":"owner","type":"address","internalType":"address"}],"stateMutability":"nonpayable"},{"type":"function","name":"ACCOUNT_IMPL","inputs":[],"outputs":[{"name":"","type":"address","internalType":"contract ReferenceModularAccount"}],"stateMutability":"view"},{"type":"function","name":"ENTRY_POINT","inputs":[],"outputs":[{"name":"","type":"address","internalType":"contract IEntryPoint"}],"stateMutability":"view"},{"type":"function","name":"SEMI_MODULAR_ACCOUNT_IMPL","inputs":[],"outputs":[{"name":"","type":"address","internalType":"contract SemiModularAccount"}],"stateMutability":"view"},{"type":"function","name":"SINGLE_SIGNER_VALIDATION_MODULE","inputs":[],"outputs":[{"name":"","type":"address","internalType":"address"}],"stateMutability":"view"},{"type":"function","name":"addStake","inputs":[{"name":"unstakeDelay","type":"uint32","internalType":"uint32"}],"outputs":[],"stateMutability":"payable"},{"type":"function","name":"createAccount","inputs":[{"name":"owner","type":"address","internalType":"address"},{"name":"salt","type":"uint256","internalType":"uint256"},{"name":"entityId","type":"uint32","internalType":"uint32"}],"outputs":[{"name":"","type":"address","internalType":"contract ReferenceModularAccount"}],"stateMutability":"nonpayable"},{"type":"function","name":"createSemiModularAccount","inputs":[{"name":"owner","type":"address","internalType":"address"},{"name":"salt","type":"uint256","internalType":"uint256"}],"outputs":[{"name":"","type":"address","internalType":"contract SemiModularAccount"}],"stateMutability":"nonpayable"},{"type":"function","name":"getAddress","inputs":[{"name":"owner","type":"address","internalType":"address"},{"name":"salt","type":"uint256","internalType":"uint256"},{"name":"entityId","type":"uint32","internalType":"uint32"}],"outputs":[{"name":"","type":"address","internalType":"address"}],"stateMutability":"view"},{"type":"function","name":"getAddressSemiModular","inputs":[{"name":"owner","type":"address","internalType":"address"},{"name":"salt","type":"uint256","internalType":"uint256"}],"outputs":[{"name":"","type":"address","internalType":"address"}],"stateMutability":"view"},{"type":"function","name":"getSalt","inputs":[{"name":"owner","type":"address","internalType":"address"},{"name":"salt","type":"uint256","internalType":"uint256"},{"name":"entityId","type":"uint32","internalType":"uint32"}],"outputs":[{"name":"","type":"bytes32","internalType":"bytes32"}],"stateMutability":"pure"},{"type":"function","name":"owner","inputs":[],"outputs":[{"name":"","type":"address","internalType":"address"}],"stateMutability":"view"},{"type":"function","name":"renounceOwnership","inputs":[],"outputs":[],"stateMutability":"nonpayable"},{"type":"function","name":"transferOwnership","inputs":[{"name":"newOwner","type":"address","internalType":"address"}],"outputs":[],"stateMutability":"nonpayable"},{"type":"function","name":"unlockStake","inputs":[],"outputs":[],"stateMutability":"nonpayable"},{"type":"function","name":"withdrawStake","inputs":[{"name":"withdrawAddress","type":"address","internalType":"address payable"}],"outputs":[],"stateMutability":"nonpayable"},{"type":"event","name":"ModularAccountDeployed","inputs":[{"name":"account","type":"address","indexed":true,"internalType":"address"},{"name":"owner","type":"address","indexed":true,"internalType":"address"},{"name":"salt","type":"uint256","indexed":false,"internalType":"uint256"}],"anonymous":false},{"type":"event","name":"OwnershipTransferred","inputs":[{"name":"previousOwner","type":"address","indexed":true,"internalType":"address"},{"name":"newOwner","type":"address","indexed":true,"internalType":"address"}],"anonymous":false},{"type":"event","name":"SemiModularAccountDeployed","inputs":[{"name":"account","type":"address","indexed":true,"internalType":"address"},{"name":"owner","type":"address","indexed":true,"internalType":"address"},{"name":"salt","type":"uint256","indexed":false,"internalType":"uint256"}],"anonymous":false},{"type":"error","name":"OwnableInvalidOwner","inputs":[{"name":"owner","type":"address","internalType":"address"}]},{"type":"error","name":"OwnableUnauthorizedAccount","inputs":[{"name":"account","type":"address","internalType":"address"}]}],"bytecode":{"object":"0x61012060405234801561001157600080fd5b506040516118ca3803806118ca83398101604081905261003091610185565b806001600160a01b03811661005f57604051631e4fbdf760e01b81526000600482015260240160405180910390fd5b61006881610110565b506001600160a01b03851660e05260405161008560208201610160565b601f1982820381018352601f9091011660408181526001600160a01b0387166020830152808201526000606082015260800160408051601f19818403018152908290526100d5929160200161022a565b60408051601f19818403018152919052805160209091012060c052506001600160a01b0392831660805290821660a052166101005250610247565b600080546001600160a01b038381166001600160a01b0319831681178455604051919092169283917f8be0079c531659141344cd1fd0a4f28419497f9722a3daafe3b4186f6b6457e09190a35050565b6103e7806114e383390190565b6001600160a01b038116811461018257600080fd5b50565b600080600080600060a0868803121561019d57600080fd5b85516101a88161016d565b60208701519095506101b98161016d565b60408701519094506101ca8161016d565b60608701519093506101db8161016d565b60808701519092506101ec8161016d565b809150509295509295909350565b6000815160005b8181101561021b5760208185018101518683015201610201565b50600093019283525090919050565b600061023f61023983866101fa565b846101fa565b949350505050565b60805160a05160c05160e051610100516112206102c360003960008181610193015261064001526000818161025a015281816103470152818161075101526107eb01526000818161041901526105550152600081816102e301526104b6015260008181610147015281816105c2015261090601526112206000f3fe6080604052600436106100e85760003560e01c80638b4e464e1161008a578063bb9fe6bf11610059578063bb9fe6bf1461029c578063c23a5cea146102b1578063c95ff21e146102d1578063f2fde38b1461030557600080fd5b80638b4e464e1461020a5780638da5cb5b1461022a57806394430fa514610248578063afa63a101461027c57600080fd5b80632f8aae1d116100c65780632f8aae1d14610181578063421a21e0146101b55780636aa34063146101d5578063715018a6146101f557600080fd5b80630396cb60146100ed57806303c7e13114610102578063121ee54114610135575b600080fd5b6101006100fb366004610c58565b610325565b005b34801561010e57600080fd5b5061012261011d366004610c88565b6103b0565b6040519081526020015b60405180910390f35b34801561014157600080fd5b506101697f000000000000000000000000000000000000000000000000000000000000000081565b6040516001600160a01b03909116815260200161012c565b34801561018d57600080fd5b506101697f000000000000000000000000000000000000000000000000000000000000000081565b3480156101c157600080fd5b506101696101d0366004610c88565b610407565b3480156101e157600080fd5b506101696101f0366004610cc6565b610445565b34801561020157600080fd5b50610100610479565b34801561021657600080fd5b50610169610225366004610cc6565b61048d565b34801561023657600080fd5b506000546001600160a01b0316610169565b34801561025457600080fd5b506101697f000000000000000000000000000000000000000000000000000000000000000081565b34801561028857600080fd5b50610169610297366004610c88565b61053d565b3480156102a857600080fd5b50610100610747565b3480156102bd57600080fd5b506101006102cc366004610cf2565b6107c4565b3480156102dd57600080fd5b506101697f000000000000000000000000000000000000000000000000000000000000000081565b34801561031157600080fd5b50610100610320366004610cf2565b61084a565b61032d61088d565b604051621cb65b60e51b815263ffffffff821660048201527f00000000000000000000000000000000000000000000000000000000000000006001600160a01b031690630396cb609034906024016000604051808303818588803b15801561039457600080fd5b505af11580156103a8573d6000803e3d6000fd5b505050505050565b6040516001600160601b0319606085901b166020820152603481018390526001600160e01b031960e083901b1660548201526000906058016040516020818303038152906040528051906020012090509392505050565b600061043d6104178585856103b0565b7f00000000000000000000000000000000000000000000000000000000000000006108ba565b949350505050565b600080610457848463ffffffff6103b0565b90506000610464856108ce565b905061047081836108ff565b95945050505050565b61048161088d565b61048b600061092d565b565b60008061049f848463ffffffff6103b0565b905060006104ac856108ce565b90506000806104dc7f0000000000000000000000000000000000000000000000000000000000000000848661097d565b915091508161053357866001600160a01b0316816001600160a01b03167fd32049610f0cd3babd266cf338d726cc8c34c8ff97356c0f33c13fa59962ac928860405161052a91815260200190565b60405180910390a35b9695505050505050565b60008061054b8585856103b0565b90506000610579827f00000000000000000000000000000000000000000000000000000000000000006108ba565b9050806001600160a01b03163b600003610470576040805163ffffffff861660208201526001600160a01b038816818301528151808203830181526060909101918290529083907f0000000000000000000000000000000000000000000000000000000000000000906105eb90610c32565b6001600160a01b0390911681526040602082018190526000908201526060018190604051809103906000f590508015801561062a573d6000803e3d6000fd5b5050816001600160a01b031663e919a62361066a7f0000000000000000000000000000000000000000000000000000000000000000886001806001610999565b604080516000808252602082018181528284019093529091869161069e565b60608152602001906001900390816106895790505b506040518563ffffffff1660e01b81526004016106be9493929190610d55565b600060405180830381600087803b1580156106d857600080fd5b505af11580156106ec573d6000803e3d6000fd5b50505050866001600160a01b0316826001600160a01b03167f965f7f47ad3d6fb75196915b245b826100063bf2d9bc0a5e5304a41843baf97f8860405161073591815260200190565b60405180910390a35095945050505050565b61074f61088d565b7f00000000000000000000000000000000000000000000000000000000000000006001600160a01b031663bb9fe6bf6040518163ffffffff1660e01b8152600401600060405180830381600087803b1580156107aa57600080fd5b505af11580156107be573d6000803e3d6000fd5b50505050565b6107cc61088d565b60405163611d2e7560e11b81526001600160a01b0382811660048301527f0000000000000000000000000000000000000000000000000000000000000000169063c23a5cea90602401600060405180830381600087803b15801561082f57600080fd5b505af1158015610843573d6000803e3d6000fd5b5050505050565b61085261088d565b6001600160a01b03811661088157604051631e4fbdf760e01b8152600060048201526024015b60405180910390fd5b61088a8161092d565b50565b6000546001600160a01b0316331461048b5760405163118cdaa760e01b8152336004820152602401610878565b60006108c7838330610a0e565b9392505050565b604051606082811b6001600160601b0319166020830152906034016040516020818303038152906040529050919050565b60006108c77f0000000000000000000000000000000000000000000000000000000000000000848430610a41565b600080546001600160a01b038381166001600160a01b0319831681178455604051919092169283917f8be0079c531659141344cd1fd0a4f28419497f9722a3daafe3b4186f6b6457e09190a35050565b60008061098d6000868686610a5b565b91509150935093915050565b6000816109a75760006109b1565b6701000000000000005b836109bd5760006109c7565b6702000000000000005b856109d35760006109dd565b6704000000000000005b6001600160601b031960608a901b166bffffffff000000000000000060408a901b1617171717905095945050505050565b6000604051836040820152846020820152828152600b8101905060ff8153605590206001600160a01b0316949350505050565b600080610a4e8686610b62565b9050610533818585610c10565b60008060405184518060608301826020890160045afa507fcc3735a920a3ca505d382bbc545af43d6000803e6038573d6000fd5b3d6000f360408301527f5155f3363d3d373d3d363d7f360894a13ba1a3210667c828492db98dca3e20766020830152616009601652866014528060381b6afe61003d3d8160233d39730161ffc2821152601651825260ff6000536060810182206035523060601b6001528460155260556000209250823b610b2c578460608201838af5925082610b275763301164256000526004601cfd5b610b52565b600193508715610b52576000386000388b875af1610b525763b12d13eb6000526004601cfd5b5050600060355294509492505050565b6000604051825161ffc281113d3d3e60005b81811015610b915760208186018101516060858401015201610b74565b507fcc3735a920a3ca505d382bbc545af43d6000803e6038573d6000fd5b3d6000f360408301527f5155f3363d3d373d3d363d7f360894a13ba1a3210667c828492db98dca3e20766020830152616009601652846014528060381b6961003d3d8160233d39730160005260165182526060810182209250505092915050565b600060ff60005350603592835260601b60015260155260556000908120915290565b6103e780610e2d83390190565b803563ffffffff81168114610c5357600080fd5b919050565b600060208284031215610c6a57600080fd5b6108c782610c3f565b6001600160a01b038116811461088a57600080fd5b600080600060608486031215610c9d57600080fd5b8335610ca881610c73565b925060208401359150610cbd60408501610c3f565b90509250925092565b60008060408385031215610cd957600080fd5b8235610ce481610c73565b946020939093013593505050565b600060208284031215610d0457600080fd5b81356108c781610c73565b6000815180845260005b81811015610d3557602081850181015186830182015201610d19565b506000602082860101526020601f19601f83011685010191505092915050565b60006080820166ffffffffffffff19871683526080602084015280865180835260a08501915060208801925060005b81811015610dac5783516001600160e01b031916835260209384019390920191600101610d84565b50508381036040850152610dc08187610d0f565b9150508281036060840152806000855180845260208401925060208160051b8501016020880160005b83811015610e1b57601f19878403018652610e05838351610d0f565b6020968701969093509190910190600101610de9565b50909b9a505050505050505050505056fe60806040526040516103e73803806103e783398101604081905261002291610268565b61002c8282610033565b5050610358565b61003c82610092565b6040516001600160a01b038316907fbc7cd75a20ee27fd9adebab32041f755214dbc6bffa90cc0225b39da2e5c2d3b90600090a280511561008657610081828261010e565b505050565b61008e610185565b5050565b806001600160a01b03163b6000036100cd57604051634c9c8ce360e01b81526001600160a01b03821660048201526024015b60405180910390fd5b7f360894a13ba1a3210667c828492db98dca3e2076cc3735a920a3ca505d382bbc80546001600160a01b0319166001600160a01b0392909216919091179055565b6060600080846001600160a01b03168460405161012b919061033c565b600060405180830381855af49150503d8060008114610166576040519150601f19603f3d011682016040523d82523d6000602084013e61016b565b606091505b50909250905061017c8583836101a6565b95945050505050565b34156101a45760405163b398979f60e01b815260040160405180910390fd5b565b6060826101bb576101b682610205565b6101fe565b81511580156101d257506001600160a01b0384163b155b156101fb57604051639996b31560e01b81526001600160a01b03851660048201526024016100c4565b50805b9392505050565b8051156102155780518082602001fd5b60405163d6bda27560e01b815260040160405180910390fd5b634e487b7160e01b600052604160045260246000fd5b60005b8381101561025f578181015183820152602001610247565b50506000910152565b6000806040838503121561027b57600080fd5b82516001600160a01b038116811461029257600080fd5b60208401519092506001600160401b038111156102ae57600080fd5b8301601f810185136102bf57600080fd5b80516001600160401b038111156102d8576102d861022e565b604051601f8201601f19908116603f011681016001600160401b03811182821017156103065761030661022e565b60405281815282820160200187101561031e57600080fd5b61032f826020830160208601610244565b8093505050509250929050565b6000825161034e818460208701610244565b9190910192915050565b6081806103666000396000f3fe6080604052600a600c565b005b60186014601a565b6051565b565b6000604c7f360894a13ba1a3210667c828492db98dca3e2076cc3735a920a3ca505d382bbc546001600160a01b031690565b905090565b3660008037600080366000845af43d6000803e808015606f573d6000f35b3d6000fdfea164736f6c634300081a000aa164736f6c634300081a000a60806040526040516103e73803806103e783398101604081905261002291610268565b61002c8282610033565b5050610358565b61003c82610092565b6040516001600160a01b038316907fbc7cd75a20ee27fd9adebab32041f755214dbc6bffa90cc0225b39da2e5c2d3b90600090a280511561008657610081828261010e565b505050565b61008e610185565b5050565b806001600160a01b03163b6000036100cd57604051634c9c8ce360e01b81526001600160a01b03821660048201526024015b60405180910390fd5b7f360894a13ba1a3210667c828492db98dca3e2076cc3735a920a3ca505d382bbc80546001600160a01b0319166001600160a01b0392909216919091179055565b6060600080846001600160a01b03168460405161012b919061033c565b600060405180830381855af49150503d8060008114610166576040519150601f19603f3d011682016040523d82523d6000602084013e61016b565b606091505b50909250905061017c8583836101a6565b95945050505050565b34156101a45760405163b398979f60e01b815260040160405180910390fd5b565b6060826101bb576101b682610205565b6101fe565b81511580156101d257506001600160a01b0384163b155b156101fb57604051639996b31560e01b81526001600160a01b03851660048201526024016100c4565b50805b9392505050565b8051156102155780518082602001fd5b60405163d6bda27560e01b815260040160405180910390fd5b634e487b7160e01b600052604160045260246000fd5b60005b8381101561025f578181015183820152602001610247565b50506000910152565b6000806040838503121561027b57600080fd5b82516001600160a01b038116811461029257600080fd5b60208401519092506001600160401b038111156102ae57600080fd5b8301601f810185136102bf57600080fd5b80516001600160401b038111156102d8576102d861022e565b604051601f8201601f19908116603f011681016001600160401b03811182821017156103065761030661022e565b60405281815282820160200187101561031e57600080fd5b61032f826020830160208601610244565b8093505050509250929050565b6000825161034e818460208701610244565b9190910192915050565b6081806103666000396000f3fe6080604052600a600c565b005b60186014601a565b6051565b565b6000604c7f360894a13ba1a3210667c828492db98dca3e2076cc3735a920a3ca505d382bbc546001600160a01b031690565b905090565b3660008037600080366000845af43d6000803e808015606f573d6000f35b3d6000fdfea164736f6c634300081a000a","linkReferences":{}},"methodIdentifiers":{"ACCOUNT_IMPL()":"121ee541","ENTRY_POINT()":"94430fa5","SEMI_MODULAR_ACCOUNT_IMPL()":"c95ff21e","SINGLE_SIGNER_VALIDATION_MODULE()":"2f8aae1d","addStake(uint32)":"0396cb60","createAccount(address,uint256,uint32)":"afa63a10","createSemiModularAccount(address,uint256)":"8b4e464e","getAddress(address,uint256,uint32)":"421a21e0","getAddressSemiModular(address,uint256)":"6aa34063","getSalt(address,uint256,uint32)":"03c7e131","owner()":"8da5cb5b","renounceOwnership()":"715018a6","transferOwnership(address)":"f2fde38b","unlockStake()":"bb9fe6bf","withdrawStake(address)":"c23a5cea"},"id":95}