{"abi":[{"type":"constructor","inputs":[{"name":"anEntryPoint","type":"address","internalType":"contract IEntryPoint"}],"stateMutability":"nonpayable"},{"type":"fallback","stateMutability":"payable"},{"type":"receive","stateMutability":"payable"},{"type":"function","name":"UPGRADE_INTERFACE_VERSION","inputs":[],"outputs":[{"name":"","type":"string","internalType":"string"}],"stateMutability":"view"},{"type":"function","name":"accountId","inputs":[],"outputs":[{"name":"","type":"string","internalType":"string"}],"stateMutability":"pure"},{"type":"function","name":"entryPoint","inputs":[],"outputs":[{"name":"","type":"address","internalType":"contract IEntryPoint"}],"stateMutability":"view"},{"type":"function","name":"execute","inputs":[{"name":"target","type":"address","internalType":"address"},{"name":"value","type":"uint256","internalType":"uint256"},{"name":"data","type":"bytes","internalType":"bytes"}],"outputs":[{"name":"result","type":"bytes","internalType":"bytes"}],"stateMutability":"payable"},{"type":"function","name":"executeBatch","inputs":[{"name":"calls","type":"tuple[]","internalType":"struct Call[]","components":[{"name":"target","type":"address","internalType":"address"},{"name":"value","type":"uint256","internalType":"uint256"},{"name":"data","type":"bytes","internalType":"bytes"}]}],"outputs":[{"name":"results","type":"bytes[]","internalType":"bytes[]"}],"stateMutability":"payable"},{"type":"function","name":"executeUserOp","inputs":[{"name":"userOp","type":"tuple","internalType":"struct PackedUserOperation","components":[{"name":"sender","type":"address","internalType":"address"},{"name":"nonce","type":"uint256","internalType":"uint256"},{"name":"initCode","type":"bytes","internalType":"bytes"},{"name":"callData","type":"bytes","internalType":"bytes"},{"name":"accountGasLimits","type":"bytes32","internalType":"bytes32"},{"name":"preVerificationGas","type":"uint256","internalType":"uint256"},{"name":"gasFees","type":"bytes32","internalType":"bytes32"},{"name":"paymasterAndData","type":"bytes","internalType":"bytes"},{"name":"signature","type":"bytes","internalType":"bytes"}]},{"name":"","type":"bytes32","internalType":"bytes32"}],"outputs":[],"stateMutability":"nonpayable"},{"type":"function","name":"executeWithRuntimeValidation","inputs":[{"name":"data","type":"bytes","internalType":"bytes"},{"name":"authorization","type":"bytes","internalType":"bytes"}],"outputs":[{"name":"","type":"bytes","internalType":"bytes"}],"stateMutability":"payable"},{"type":"function","name":"getExecutionData","inputs":[{"name":"selector","type":"bytes4","internalType":"bytes4"}],"outputs":[{"name":"data","type":"tuple","internalType":"struct ExecutionDataView","components":[{"name":"module","type":"address","internalType":"address"},{"name":"skipRuntimeValidation","type":"bool","internalType":"bool"},{"name":"allowGlobalValidation","type":"bool","internalType":"bool"},{"name":"executionHooks","type":"bytes25[]","internalType":"HookConfig[]"}]}],"stateMutability":"view"},{"type":"function","name":"getNonce","inputs":[],"outputs":[{"name":"","type":"uint256","internalType":"uint256"}],"stateMutability":"view"},{"type":"function","name":"getValidationData","inputs":[{"name":"validationFunction","type":"bytes24","internalType":"ModuleEntity"}],"outputs":[{"name":"data","type":"tuple","internalType":"struct ValidationDataView","components":[{"name":"isGlobal","type":"bool","internalType":"bool"},{"name":"isSignatureValidation","type":"bool","internalType":"bool"},{"name":"isUserOpValidation","type":"bool","internalType":"bool"},{"name":"validationHooks","type":"bytes25[]","internalType":"HookConfig[]"},{"name":"executionHooks","type":"bytes25[]","internalType":"HookConfig[]"},{"name":"selectors","type":"bytes4[]","internalType":"bytes4[]"}]}],"stateMutability":"view"},{"type":"function","name":"initializeWithValidation","inputs":[{"name":"validationConfig","type":"bytes25","internalType":"ValidationConfig"},{"name":"selectors","type":"bytes4[]","internalType":"bytes4[]"},{"name":"installData","type":"bytes","internalType":"bytes"},{"name":"hooks","type":"bytes[]","internalType":"bytes[]"}],"outputs":[],"stateMutability":"nonpayable"},{"type":"function","name":"installExecution","inputs":[{"name":"module","type":"address","internalType":"address"},{"name":"manifest","type":"tuple","internalType":"struct ExecutionManifest","components":[{"name":"executionFunctions","type":"tuple[]","internalType":"struct ManifestExecutionFunction[]","components":[{"name":"executionSelector","type":"bytes4","internalType":"bytes4"},{"name":"skipRuntimeValidation","type":"bool","internalType":"bool"},{"name":"allowGlobalValidation","type":"bool","internalType":"bool"}]},{"name":"executionHooks","type":"tuple[]","internalType":"struct ManifestExecutionHook[]","components":[{"name":"executionSelector","type":"bytes4","internalType":"bytes4"},{"name":"entityId","type":"uint32","internalType":"uint32"},{"name":"isPreHook","type":"bool","internalType":"bool"},{"name":"isPostHook","type":"bool","internalType":"bool"}]},{"name":"interfaceIds","type":"bytes4[]","internalType":"bytes4[]"}]},{"name":"moduleInstallData","type":"bytes","internalType":"bytes"}],"outputs":[],"stateMutability":"nonpayable"},{"type":"function","name":"installValidation","inputs":[{"name":"validationConfig","type":"bytes25","internalType":"ValidationConfig"},{"name":"selectors","type":"bytes4[]","internalType":"bytes4[]"},{"name":"installData","type":"bytes","internalType":"bytes"},{"name":"hooks","type":"bytes[]","internalType":"bytes[]"}],"outputs":[],"stateMutability":"nonpayable"},{"type":"function","name":"isValidSignature","inputs":[{"name":"hash","type":"bytes32","internalType":"bytes32"},{"name":"signature","type":"bytes","internalType":"bytes"}],"outputs":[{"name":"","type":"bytes4","internalType":"bytes4"}],"stateMutability":"view"},{"type":"function","name":"proxiableUUID","inputs":[],"outputs":[{"name":"","type":"bytes32","internalType":"bytes32"}],"stateMutability":"view"},{"type":"function","name":"supportsInterface","inputs":[{"name":"interfaceId","type":"bytes4","internalType":"bytes4"}],"outputs":[{"name":"","type":"bool","internalType":"bool"}],"stateMutability":"view"},{"type":"function","name":"uninstallExecution","inputs":[{"name":"module","type":"address","internalType":"address"},{"name":"manifest","type":"tuple","internalType":"struct ExecutionManifest","components":[{"name":"executionFunctions","type":"tuple[]","internalType":"struct ManifestExecutionFunction[]","components":[{"name":"executionSelector","type":"bytes4","internalType":"bytes4"},{"name":"skipRuntimeValidation","type":"bool","internalType":"bool"},{"name":"allowGlobalValidation","type":"bool","internalType":"bool"}]},{"name":"executionHooks","type":"tuple[]","internalType":"struct ManifestExecutionHook[]","components":[{"name":"executionSelector","type":"bytes4","internalType":"bytes4"},{"name":"entityId","type":"uint32","internalType":"uint32"},{"name":"isPreHook","type":"bool","internalType":"bool"},{"name":"isPostHook","type":"bool","internalType":"bool"}]},{"name":"interfaceIds","type":"bytes4[]","internalType":"bytes4[]"}]},{"name":"moduleUninstallData","type":"bytes","internalType":"bytes"}],"outputs":[],"stateMutability":"nonpayable"},{"type":"function","name":"uninstallValidation","inputs":[{"name":"validationFunction","type":"bytes24","internalType":"ModuleEntity"},{"name":"uninstallData","type":"bytes","internalType":"bytes"},{"name":"hookUninstallData","type":"bytes[]","internalType":"bytes[]"}],"outputs":[],"stateMutability":"nonpayable"},{"type":"function","name":"upgradeToAndCall","inputs":[{"name":"newImplementation","type":"address","internalType":"address"},{"name":"data","type":"bytes","internalType":"bytes"}],"outputs":[],"stateMutability":"payable"},{"type":"function","name":"validateUserOp","inputs":[{"name":"userOp","type":"tuple","internalType":"struct PackedUserOperation","components":[{"name":"sender","type":"address","internalType":"address"},{"name":"nonce","type":"uint256","internalType":"uint256"},{"name":"initCode","type":"bytes","internalType":"bytes"},{"name":"callData","type":"bytes","internalType":"bytes"},{"name":"accountGasLimits","type":"bytes32","internalType":"bytes32"},{"name":"preVerificationGas","type":"uint256","internalType":"uint256"},{"name":"gasFees","type":"bytes32","internalType":"bytes32"},{"name":"paymasterAndData","type":"bytes","internalType":"bytes"},{"name":"signature","type":"bytes","internalType":"bytes"}]},{"name":"userOpHash","type":"bytes32","internalType":"bytes32"},{"name":"missingAccountFunds","type":"uint256","internalType":"uint256"}],"outputs":[{"name":"validationData","type":"uint256","internalType":"uint256"}],"stateMutability":"nonpayable"},{"type":"event","name":"ExecutionInstalled","inputs":[{"name":"module","type":"address","indexed":true,"internalType":"address"},{"name":"manifest","type":"tuple","indexed":false,"internalType":"struct ExecutionManifest","components":[{"name":"executionFunctions","type":"tuple[]","internalType":"struct ManifestExecutionFunction[]","components":[{"name":"executionSelector","type":"bytes4","internalType":"bytes4"},{"name":"skipRuntimeValidation","type":"bool","internalType":"bool"},{"name":"allowGlobalValidation","type":"bool","internalType":"bool"}]},{"name":"executionHooks","type":"tuple[]","internalType":"struct ManifestExecutionHook[]","components":[{"name":"executionSelector","type":"bytes4","internalType":"bytes4"},{"name":"entityId","type":"uint32","internalType":"uint32"},{"name":"isPreHook","type":"bool","internalType":"bool"},{"name":"isPostHook","type":"bool","internalType":"bool"}]},{"name":"interfaceIds","type":"bytes4[]","internalType":"bytes4[]"}]}],"anonymous":false},{"type":"event","name":"ExecutionUninstalled","inputs":[{"name":"module","type":"address","indexed":true,"internalType":"address"},{"name":"onUninstallSucceeded","type":"bool","indexed":false,"internalType":"bool"},{"name":"manifest","type":"tuple","indexed":false,"internalType":"struct ExecutionManifest","components":[{"name":"executionFunctions","type":"tuple[]","internalType":"struct ManifestExecutionFunction[]","components":[{"name":"executionSelector","type":"bytes4","internalType":"bytes4"},{"name":"skipRuntimeValidation","type":"bool","internalType":"bool"},{"name":"allowGlobalValidation","type":"bool","internalType":"bool"}]},{"name":"executionHooks","type":"tuple[]","internalType":"struct ManifestExecutionHook[]","components":[{"name":"executionSelector","type":"bytes4","internalType":"bytes4"},{"name":"entityId","type":"uint32","internalType":"uint32"},{"name":"isPreHook","type":"bool","internalType":"bool"},{"name":"isPostHook","type":"bool","internalType":"bool"}]},{"name":"interfaceIds","type":"bytes4[]","internalType":"bytes4[]"}]}],"anonymous":false},{"type":"event","name":"Initialized","inputs":[{"name":"version","type":"uint64","indexed":false,"internalType":"uint64"}],"anonymous":false},{"type":"event","name":"Upgraded","inputs":[{"name":"implementation","type":"address","indexed":true,"internalType":"address"}],"anonymous":false},{"type":"event","name":"ValidationInstalled","inputs":[{"name":"module","type":"address","indexed":true,"internalType":"address"},{"name":"entityId","type":"uint32","indexed":true,"internalType":"uint32"}],"anonymous":false},{"type":"event","name":"ValidationUninstalled","inputs":[{"name":"module","type":"address","indexed":true,"internalType":"address"},{"name":"entityId","type":"uint32","indexed":true,"internalType":"uint32"},{"name":"onUninstallSucceeded","type":"bool","indexed":false,"internalType":"bool"}],"anonymous":false},{"type":"error","name":"AddressEmptyCode","inputs":[{"name":"target","type":"address","internalType":"address"}]},{"type":"error","name":"ArrayLengthMismatch","inputs":[]},{"type":"error","name":"ERC1967InvalidImplementation","inputs":[{"name":"implementation","type":"address","internalType":"address"}]},{"type":"error","name":"ERC1967NonPayable","inputs":[]},{"type":"error","name":"Erc4337FunctionNotAllowed","inputs":[{"name":"selector","type":"bytes4","internalType":"bytes4"}]},{"type":"error","name":"ExecutionFunctionAlreadySet","inputs":[{"name":"selector","type":"bytes4","internalType":"bytes4"}]},{"type":"error","name":"ExecutionHookAlreadySet","inputs":[{"name":"hookConfig","type":"bytes25","internalType":"HookConfig"}]},{"type":"error","name":"FailedCall","inputs":[]},{"type":"error","name":"IModuleFunctionNotAllowed","inputs":[{"name":"selector","type":"bytes4","internalType":"bytes4"}]},{"type":"error","name":"InterfaceNotSupported","inputs":[{"name":"module","type":"address","internalType":"address"}]},{"type":"error","name":"InvalidInitialization","inputs":[]},{"type":"error","name":"ModuleInstallCallbackFailed","inputs":[{"name":"module","type":"address","internalType":"address"},{"name":"revertReason","type":"bytes","internalType":"bytes"}]},{"type":"error","name":"ModuleNotInstalled","inputs":[{"name":"module","type":"address","internalType":"address"}]},{"type":"error","name":"NativeFunctionNotAllowed","inputs":[{"name":"selector","type":"bytes4","internalType":"bytes4"}]},{"type":"error","name":"NonCanonicalEncoding","inputs":[]},{"type":"error","name":"NotEntryPoint","inputs":[]},{"type":"error","name":"NotInitializing","inputs":[]},{"type":"error","name":"NullModule","inputs":[]},{"type":"error","name":"PostExecHookReverted","inputs":[{"name":"module","type":"address","internalType":"address"},{"name":"entityId","type":"uint32","internalType":"uint32"},{"name":"revertReason","type":"bytes","internalType":"bytes"}]},{"type":"error","name":"PreExecHookReverted","inputs":[{"name":"module","type":"address","internalType":"address"},{"name":"entityId","type":"uint32","internalType":"uint32"},{"name":"revertReason","type":"bytes","internalType":"bytes"}]},{"type":"error","name":"PreRuntimeValidationHookFailed","inputs":[{"name":"module","type":"address","internalType":"address"},{"name":"entityId","type":"uint32","internalType":"uint32"},{"name":"revertReason","type":"bytes","internalType":"bytes"}]},{"type":"error","name":"PreValidationHookLimitExceeded","inputs":[]},{"type":"error","name":"RequireUserOperationContext","inputs":[]},{"type":"error","name":"RuntimeValidationFunctionReverted","inputs":[{"name":"module","type":"address","internalType":"address"},{"name":"entityId","type":"uint32","internalType":"uint32"},{"name":"revertReason","type":"bytes","internalType":"bytes"}]},{"type":"error","name":"SegmentOutOfOrder","inputs":[]},{"type":"error","name":"SelfCallRecursionDepthExceeded","inputs":[]},{"type":"error","name":"SignatureValidationInvalid","inputs":[{"name":"module","type":"address","internalType":"address"},{"name":"entityId","type":"uint32","internalType":"uint32"}]},{"type":"error","name":"UUPSUnauthorizedCallContext","inputs":[]},{"type":"error","name":"UUPSUnsupportedProxiableUUID","inputs":[{"name":"slot","type":"bytes32","internalType":"bytes32"}]},{"type":"error","name":"UnexpectedAggregator","inputs":[{"name":"module","type":"address","internalType":"address"},{"name":"entityId","type":"uint32","internalType":"uint32"},{"name":"aggregator","type":"address","internalType":"address"}]},{"type":"error","name":"UnrecognizedFunction","inputs":[{"name":"selector","type":"bytes4","internalType":"bytes4"}]},{"type":"error","name":"UserOpValidationInvalid","inputs":[{"name":"module","type":"address","internalType":"address"},{"name":"entityId","type":"uint32","internalType":"uint32"}]},{"type":"error","name":"ValidationAlreadySet","inputs":[{"name":"selector","type":"bytes4","internalType":"bytes4"},{"name":"validationFunction","type":"bytes24","internalType":"ModuleEntity"}]},{"type":"error","name":"ValidationFunctionMissing","inputs":[{"name":"selector","type":"bytes4","internalType":"bytes4"}]},{"type":"error","name":"ValidationSignatureSegmentMissing","inputs":[]}],"bytecode":{"object":"0x60c06040523060805234801561001457600080fd5b50604051615769380380615769833981016040819052610033916100e7565b6001600160a01b03811660a05261004861004e565b50610117565b7fc531f081ecdb5a90f38c197521797881a6e5c752a7d451780f325a95f8b91f458054610100900460ff16156100975760405163f92ee8a960e01b815260040160405180910390fd5b805460ff908116146100e457805460ff191660ff90811782556040519081527fc7f505b2f371ae2175ee4913f4499e1f2633a7b5936321eed1cdaeb6115181d29060200160405180910390a15b50565b6000602082840312156100f957600080fd5b81516001600160a01b038116811461011057600080fd5b9392505050565b60805160a0516156036101666000396000818161042d0152818161053f01528181610f2d0152818161116a0152611f870152600081816124df01528181612508015261259a01526156036000f3fe6080604052600436106101225760003560e01c806393b1dc61116100a0578063b6b1ccfe11610064578063b6b1ccfe1461046a578063d087d2881461048a578063d31b575b1461049f578063e919a623146104cc578063f2680c0f146104ec57610129565b806393b1dc61146103a05780639cfd7cff146103c0578063ad3cb1cc146103e2578063b0d691fe14610413578063b61d27f61461045757610129565b806334fcd5be116100e757806334fcd5be1461030b5780634f1ef2861461032b57806352d1902d1461033e578063757c8a26146103535780638dd7712f1461038057610129565b80621a63e91461023957806301ffc9a71461025b5780631626ba7e1461029057806319822f7c146102bd5780631bbf564c146102eb57610129565b3661012957005b600036606060006101386104ff565b600080356001600160e01b031916815260019190910160205260409020546001600160a01b0316905080610196576000356001600160e01b03191660405163fcfc5aad60e01b815260040161018d9190614129565b60405180910390fd5b6000806101a1610523565b91509150600080846001600160a01b03166000366040516101c392919061413e565b6000604051808303816000865af19150503d8060008114610200576040519150601f19603f3d011682016040523d82523d6000602084013e610205565b606091505b50915091508161021757805160208201fd5b610220836107c3565b610229846107c3565b8051975060200195505050505050f35b34801561024557600080fd5b506102596102543660046141af565b6108c4565b005b34801561026757600080fd5b5061027b610276366004614246565b6108f9565b60405190151581526020015b60405180910390f35b34801561029c57600080fd5b506102b06102ab366004614263565b61096b565b6040516102879190614129565b3480156102c957600080fd5b506102dd6102d83660046142c7565b610b36565b604051908152602001610287565b3480156102f757600080fd5b50610259610306366004614358565b610b55565b61031e61031936600461441b565b610b90565b60405161028791906144ac565b61025961033936600461461f565b610d06565b34801561034a57600080fd5b506102dd610d3f565b34801561035f57600080fd5b5061037361036e366004614246565b610d5c565b60405161028791906146b4565b34801561038c57600080fd5b5061025961039b3660046146f9565b610f22565b3480156103ac57600080fd5b506102596103bb3660046141af565b611084565b3480156103cc57600080fd5b506103d561109f565b604051610287919061473d565b3480156103ee57600080fd5b506103d5604051806040016040528060058152602001640352e302e360dc1b81525081565b34801561041f57600080fd5b506040516001600160a01b037f0000000000000000000000000000000000000000000000000000000000000000168152602001610287565b6103d5610465366004614750565b6110bf565b34801561047657600080fd5b506102596104853660046147ab565b61112f565b34801561049657600080fd5b506102dd611166565b3480156104ab57600080fd5b506104bf6104ba36600461482f565b6111ff565b604051610287919061484a565b3480156104d857600080fd5b506102596104e7366004614358565b61144c565b6103d56104fa366004614902565b61153c565b7fc531f081ecdb5a90f38c197521797881a6e5c752a7d451780f325a95f8b91f4590565b60608060006105306104ff565b90506060336001600160a01b037f0000000000000000000000000000000000000000000000000000000000000000161480159061056d5750333014155b801561059c5750600080356001600160e01b0319168152600183016020526040902054600160a01b900460ff16155b1561073e5760006105b13363ffffffff61169d565b90506105c16000368360026116c7565b6001600160401b03198116600090815260028401602090815260408083206001018054825181850281018501909352808352919290919083018282801561063557602002820191906000526020600020905b815460381b66ffffffffffffff19168152600190910190602001808311610613575b505083519394506000925050505b818110156106cb576106c361067884838151811061066357610663614959565b602002602001015166ffffffffffffff191690565b6000368080601f0160208091040260200160405190810160405280939291908181526020018383808284376000920182905250604080516020810190915290815292506118a4915050565b600101610643565b50610738856002016000856001600160401b0319166001600160401b03191681526020019081526020016000206002016000368080601f01602080910402602001604051908101604052809392919081815260200183838082843760009201919091525061193a92505050565b93505050505b60006107b783600101600080356001600160e01b0319166001600160e01b0319166001600160e01b03191681526020019081526020016000206001016000368080601f01602080910402602001604051908101604052809392919081815260200183838082843760009201919091525061193a92505050565b91959194509092505050565b8051805b80156108bf576107d681614985565b905060008382815181106107ec576107ec614959565b6020026020010151905061081681602001516001600160401b0319166001600160401b0319161590565b1561082157506107c7565b6020810151815160408051635d413a8160e01b8152606084901c9390911c63ffffffff16918391635d413a819161085d9185919060040161499c565b600060405180830381600087803b15801561087757600080fd5b505af1925050508015610888575060015b6108b7576000610896611a8c565b90508282826040516304b130f960e21b815260040161018d939291906149bb565b5050506107c7565b505050565b6000806108cf610523565b915091506108df86868686611aab565b6108e8816107c3565b6108f1826107c3565b505050505050565b6000600160e01b6001600160e01b031983160161091857506000919050565b63fe00365960e01b6001600160e01b031983160161093857506001919050565b60006109426104ff565b6001600160e01b0319909316600090815260039390930160205260409092205491909111919050565b60008061097883856149eb565b90506109878360188187614a21565b9350935060006109956104ff565b6001600160401b031983166000908152600291909101602090815260409182902060010180548351818402810184019094528084529091830182828015610a0957602002820191906000526020600020905b815460381b66ffffffffffffff191681526001909101906020018083116109e7575b5050505050905060005b8151811015610b0f57600080610a4c610a3785858151811061066357610663614959565b606081901c9160409190911c63ffffffff1690565b90925090506060610a5e898986611d53565b83838080601f01602080910402602001604051908101604052809392919081815260200183838082843760009201919091525050604051631fa0c13760e11b8152949f50929d50909550506001600160a01b0387169350633f41826e9250610ad19186915033908f908790600401614a4b565b60006040518083038186803b158015610ae957600080fd5b505afa158015610afd573d6000803e3d6000fd5b50505050505050806001019050610a13565b50610b1a8585611dff565b94509450610b2a82878787611e48565b925050505b9392505050565b6000610b40611f7c565b610b4a8484611ff6565b9050610b2f8261217f565b600080610b60610523565b91509150610b73898989898989896121cc565b610b7c816107c3565b610b85826107c3565b505050505050505050565b6060600080610b9d610523565b909250905083806001600160401b03811115610bbb57610bbb614511565b604051908082528060200260200182016040528015610bee57816020015b6060815260200190600190039081610bd95790505b50935060005b81811015610cea57610cc5878783818110610c1157610c11614959565b9050602002810190610c239190614a88565b610c31906020810190614aa8565b888884818110610c4357610c43614959565b9050602002810190610c559190614a88565b60200135898985818110610c6b57610c6b614959565b9050602002810190610c7d9190614a88565b610c8b906040810190614ac5565b8080601f01602080910402602001604051908101604052809392919081815260200183838082843760009201919091525061245b92505050565b858281518110610cd757610cd7614959565b6020908102919091010152600101610bf4565b5050610cf5816107c3565b610cfe826107c3565b505092915050565b610d0e6124d4565b600080610d19610523565b91509150610d278484612579565b610d30816107c3565b610d39826107c3565b50505050565b6000610d4961258f565b506000805160206155b083398151915290565b60408051608081018252600080825260208201819052918101919091526060808201526001600160e01b03198216635b0e93fb60e11b1480610dae57506001600160e01b03198216631a7e6adf60e11b145b80610dc957506001600160e01b0319821663278f794360e11b145b80610de357506001600160e01b03198216621a63e960e01b145b80610dfe57506001600160e01b031982166393b1dc6160e01b145b15610e125730815260016040820152919050565b6000610e1c6104ff565b6001600160e01b03198416600090815260019182016020908152604080832080546001600160a01b038116885260ff600160a01b82048116151594890194909452600160a81b9004909216151590860152925090610e7b9083016125d8565b9050806001600160401b03811115610e9557610e95614511565b604051908082528060200260200182016040528015610ebe578160200160208202803683370190505b50606084015260005b81811015610f1957610ee2610edf60018501836125e2565b90565b84606001518281518110610ef857610ef8614959565b66ffffffffffffff1990921660209283029190910190910152600101610ec7565b5050505b919050565b336001600160a01b037f00000000000000000000000000000000000000000000000000000000000000001614610f6b57604051636b31ba1560e11b815260040160405180910390fd5b6000610f7b610100840184614ac5565b610f8a91601891600091614a21565b610f93916149eb565b90506000610ff8610fa26104ff565b6001600160401b031984166000908152600291820160209081526040808320815136601f810185900485028201850190935282815294019392918190840183828082843760009201919091525061193a92505050565b90506000803061100b6060880188614ac5565b611019916004908290614a21565b60405161102792919061413e565b6000604051808303816000865af19150503d8060008114611064576040519150601f19603f3d011682016040523d82523d6000602084013e611069565b606091505b50915091508161107b57805160208201fd5b6108f1836107c3565b60008061108f610523565b915091506108df868686866125ee565b60606040518060600160405280602781526020016155d060279139905090565b60606000806110cc610523565b91509150611111878787878080601f01602080910402602001604051908101604052809392919081815260200183838082843760009201919091525061245b92505050565b925061111c816107c3565b611125826107c3565b5050949350505050565b60008061113a610523565b9150915061114b87878787876127fa565b611154816107c3565b61115d826107c3565b50505050505050565b60007f0000000000000000000000000000000000000000000000000000000000000000604051631aab3f0d60e11b8152306004820152600060248201526001600160a01b0391909116906335567e1a90604401602060405180830381865afa1580156111d6573d6000803e3d6000fd5b505050506040513d601f19601f820116820180604052508101906111fa9190614b0b565b905090565b6040805160c08101825260008082526020820181905291810182905260608082018190526080820181905260a0820152906112386104ff565b6001600160401b0319841660009081526002919091016020908152604091829020805460ff80821615158752610100820481161515878501526201000090910416151585840152600181018054845181850281018501909552808552919450918301828280156112d557602002820191906000526020600020905b815460381b66ffffffffffffff191681526001909101906020018083116112b3575b5050505050826060018190525060006112f0826002016125d8565b9050806001600160401b0381111561130a5761130a614511565b604051908082528060200260200182016040528015611333578160200160208202803683370190505b50608084015260005b8181101561138b57611354610edf60028501836125e2565b8460800151828151811061136a5761136a614959565b66ffffffffffffff199092166020928302919091019091015260010161133c565b50600061139a83600401612ab3565b8051909150806001600160401b038111156113b7576113b7614511565b6040519080825280602002602001820160405280156113e0578160200160208202803683370190505b5060a086015260005b818110156114425782818151811061140357611403614959565b60200260200101518660a00151828151811061142157611421614959565b6001600160e01b0319909216602092830291909101909101526001016113e9565b5050505050919050565b60006114566104ff565b805490915060ff610100820481161591166000811580156114745750825b90506000826001600160401b031660011480156114905750303b155b90508115801561149e575080155b156114bc5760405163f92ee8a960e01b815260040160405180910390fd5b845460ff1916600117855583156114db57845461ff0019166101001785555b6114ea8c8c8c8c8c8c8c6121cc565b831561152e57845461ff0019168555604051600181527fc7f505b2f371ae2175ee4913f4499e1f2633a7b5936321eed1cdaeb6115181d29060200160405180910390a15b505050505050505050505050565b6060600061154d6018828587614a21565b611556916149eb565b905060008484601881811061156d5761156d614959565b9091013560f81c600114915061159490508787848461158d5760016116c7565b60006116c7565b6115ac8288886115a7886019818c614a21565b612ac0565b60006116126115b96104ff565b6001600160401b031985166000908152600291820160209081526040918290208251601f8d018390048302810183019093528b8352909201918b908b908190840183828082843760009201919091525061193a92505050565b9050600080306001600160a01b03168a8a60405161163192919061413e565b6000604051808303816000865af19150503d806000811461166e576040519150601f19603f3d011682016040523d82523d6000602084013e611673565b606091505b50915091508161168557805160208201fd5b61168e836107c3565b9450505050505b949350505050565b6bffffffffffffffffffffffff19606083901b1663ffffffff60401b604083901b16175b92915050565b60006116d66004828688614a21565b6116df91614b24565b90506372288ed160e01b6001600160e01b0319821601611725576117068460048188614a21565b9095509350611719600460008688614a21565b61172291614b24565b90505b611730818484612c1f565b6324f16c0560e11b6001600160e01b03198216016117985760006117578560048189614a21565b8101906117649190614b5a565b5090915050306001600160a01b03821603611792576040516354ff929d60e01b815260040160405180910390fd5b5061189d565b636581952160e11b6001600160e01b031982160161189d5760006117bf8560048189614a21565b8101906117cc9190614bb2565b905060005b815181101561115d57306001600160a01b03168282815181106117f6576117f6614959565b6020026020010151600001516001600160a01b03160361189557600082828151811061182457611824614959565b60200260200101516040015161183990614ccd565b90506001600160e01b03198116635b0e93fb60e11b148061186a57506001600160e01b03198116631a7e6adf60e11b145b15611888576040516354ff929d60e01b815260040160405180910390fd5b611893818787612c1f565b505b6001016117d1565b5050505050565b60408051631eb5ed1960e11b8152606085901c9185901c63ffffffff16908290633d6bda32906118e0908490339034908a908a90600401614d0b565b600060405180830381600087803b1580156118fa57600080fd5b505af192505050801561190b575060015b61189d576000611919611a8c565b905082828260405163a53ac97560e01b815260040161018d939291906149bb565b60606000611947846125d8565b9050806001600160401b0381111561196157611961614511565b6040519080825280602002602001820160405280156119a757816020015b60408051808201909152606081526000602082015281526020019060019003908161197f5790505b50915060005b81811015611a145760006119c4610edf87846125e2565b9050600160391b811615611a0b5766ffffffffffffff1981168483815181106119ef576119ef614959565b6020908102919091018101516001600160401b03199092169101525b506001016119ad565b5060005b81811015610cfe576000611a2f610edf87846125e2565b90506001603a1b811615611a83576060611a5366ffffffffffffff19831687612cc2565b9050600160391b821615611a815780858481518110611a7457611a74614959565b6020908102919091010151525b505b50600101611a18565b604080513d81523d8101603f01601f19169091523d6000602083013e90565b6000611ab56104ff565b90506001600160a01b038516611ade5760405163021507ad60e41b815260040160405180910390fd5b6000611aea8580614d5c565b9050905060005b81811015611bb3576000611b058780614d5c565b83818110611b1557611b15614959565b611b2b9260206060909202019081019150614246565b90506000611b398880614d5c565b84818110611b4957611b49614959565b9050606002016020016020810190611b619190614db4565b90506000611b6f8980614d5c565b85818110611b7f57611b7f614959565b9050606002016040016020810190611b979190614db4565b9050611ba58383838d612d6d565b505050806001019050611af1565b50611bc16020860186614dcf565b9050905060005b81811015611c61576000611bdf6020880188614dcf565b83818110611bef57611bef614959565b905060800201803603810190611c059190614e2c565b80516001600160e01b0319166000908152600180870160209081526040808420918501519085015160608601519596509190920193611c47928d929091612e83565b9050611c538282612ed8565b505050806001019050611bc8565b50611c6f6040860186614eac565b9050905060005b81811015611cf6576001600384016000611c9360408a018a614eac565b85818110611ca357611ca3614959565b9050602002016020810190611cb89190614246565b6001600160e01b0319166001600160e01b03191681526020019081526020016000206000828254611ce99190614ef5565b9091555050600101611c76565b50611d0a8685856311b0306d60e21b612f15565b856001600160a01b03167ffaa447b433b10d3cedff587bf1c996e5c2d62c8bda30ca3956de7ebb207206c286604051611d43919061515b565b60405180910390a2505050505050565b36600036600080611d648888612fd3565b90508560ff168160ff161015611d8d576040516312b8d96760e31b815260040160405180910390fd5b8560ff168160ff1603611de757366000366000611daa8c8c612ff8565b935093509350935083839050600003611dd65760405163b91b669d60e01b815260040160405180910390fd5b92975090955093509150611df69050565b36600089899450945094509450505b93509350935093565b36600060ff611e0e8585612fd3565b60ff1614611e2f57604051630a8ec87f60e11b815260040160405180910390fd5b611e3c8360018187614a21565b915091505b9250929050565b600080611e536104ff565b9050600080606088901c604089901c63ffffffff166001600160401b03198a1660009081526002860160205260409020549193509150610100900460ff16611ec557604051635f5943f760e01b81526001600160a01b038316600482015263ffffffff8216602482015260440161018d565b6040516373edbfbf60e11b8152630b135d3f60e11b906001600160a01b0384169063e7db7f7e90611f04903090869033908e908e908e90600401615197565b602060405180830381865afa158015611f21573d6000803e3d6000fd5b505050506040513d601f19601f82011682018060405250810190611f4591906151d7565b6001600160e01b03191603611f675750630b135d3f60e11b9250611695915050565b506001600160e01b0319979650505050505050565b336001600160a01b037f00000000000000000000000000000000000000000000000000000000000000001614611ff45760405162461bcd60e51b815260206004820152601c60248201527f6163636f756e743a206e6f742066726f6d20456e747279506f696e7400000000604482015260640161018d565b565b600060046120076060850185614ac5565b9050101561203f5761201c6060840184614ac5565b61202591614b24565b60405163fcfc5aad60e01b815260040161018d9190614129565b600061204f610100850185614ac5565b61205e91601891600091614a21565b612067916149eb565b90506000612079610100860186614ac5565b601881811061208a5761208a614959565b9091013560f81c60011491506120b590506120a86060870187614ac5565b848461158d5760016116c7565b60006120e46120c26104ff565b6001600160401b031985166000908152600291820160205260409020016125d8565b1180156121265750638dd7712f60e01b6121016060870187614ac5565b61211091600491600091614a21565b61211991614b24565b6001600160e01b03191614155b1561214457604051632fa4f80560e11b815260040160405180910390fd5b61217382612151876151f4565b61215f610100890189614ac5565b61216d916019908290614a21565b8861305a565b95945050505050565b50565b801561217c57604051600090339060001990849084818181858888f193505050503d806000811461189d576040519150601f19603f3d011682016040523d82523d6000602084013e61189d565b60006121d66104ff565b6001600160401b03198916600090815260029190910160205260408120915066ffffffffffffff198916905b8381101561232d57600085858381811061221e5761221e614959565b90506020028101906122309190614ac5565b61223f91601991600091614a21565b612248916152f6565b905036600087878581811061225f5761225f614959565b90506020028101906122719190614ac5565b61227f916019908290614a21565b9092509050600160381b8316156122fd5760018681018054918201815560008181526020902090910180546001600160c81b031916603886901c1790555460ff10156122de576040516378f2405560e01b815260040160405180910390fd5b6122f5606084901c838363028171ad60e41b612f15565b505050612325565b61230a8660020184612ed8565b612321606084901c838363581660c960e11b612f15565b5050505b600101612202565b5060005b878110156123bd57600089898381811061234d5761234d614959565b90506020020160208101906123629190614246565b905061237b600485016001600160e01b031983166132d0565b6123b457604051636aea20cf60e11b81526001600160e01b0319821660048201526001600160401b03198416602482015260440161018d565b50600101612331565b50815462ff00001961ff00196001603a1b8c1615151661ffff1990921691909117610100600160391b8c16151502171662010000600160381b8b1615150217825561241560608a901c878763ab3e34c160e01b612f15565b60408051908a901c63ffffffff169060608b901c907fc36a28045e90a1163d24d4216c8cfd8c44c4e835a486fb84d511d6b9e0736db990600090a3505050505050505050565b60606000846001600160a01b03168484604051612478919061532c565b60006040518083038185875af1925050503d80600081146124b5576040519150601f19603f3d011682016040523d82523d6000602084013e6124ba565b606091505b5092509050806124cc57815160208301fd5b509392505050565b306001600160a01b037f000000000000000000000000000000000000000000000000000000000000000016148061255b57507f00000000000000000000000000000000000000000000000000000000000000006001600160a01b031661254f6000805160206155b0833981519152546001600160a01b031690565b6001600160a01b031614155b15611ff45760405163703e46dd60e11b815260040160405180910390fd5b6125816124d4565b61258b82826132dc565b5050565b306001600160a01b037f00000000000000000000000000000000000000000000000000000000000000001614611ff45760405163703e46dd60e11b815260040160405180910390fd5b60006116c1825490565b6000610b2f8383613399565b60006125f86104ff565b905060006126096020860186614dcf565b9050905060005b818110156126a95760006126276020880188614dcf565b8381811061263757612637614959565b90506080020180360381019061264d9190614e2c565b80516001600160e01b031916600090815260018087016020908152604080842091850151908501516060860151959650919092019361268f928d929091612e83565b905061269b82826133c3565b505050806001019050612610565b506126b48580614d5c565b9050905060005b818110156127095760006126cf8780614d5c565b838181106126df576126df614959565b6126f59260206060909202019081019150614246565b9050612700816133d7565b506001016126bb565b506127176040860186614eac565b9050905060005b8181101561279e57600160038401600061273b60408a018a614eac565b8581811061274b5761274b614959565b90506020020160208101906127609190614246565b6001600160e01b0319166001600160e01b03191681526020019081526020016000206000828254612791919061533e565b909155505060010161271e565b5060006127ac878686613410565b9050866001600160a01b03167f333064fd0a538a0f9c35864ea1c585e562fb83b5b4649ba362ac250e8178aa6382886040516127e9929190615351565b60405180910390a250505050505050565b60006128046104ff565b6001600160401b031987166000908152600291909101602052604090209050600161282e8761347d565b82156129a357612840826002016125d8565b600183015461284f9190614ef5565b831461286e5760405163512509d360e11b815260040160405180910390fd5b6000805b60018401548110156129155736600087878581811061289357612893614959565b90506020028101906128a59190614ac5565b9150915060006128e2610a378860010186815481106128c6576128c6614959565b60009182526020909120015460381b66ffffffffffffff191690565b5090508580156128f857506128f8818484613410565b9550846129048161536c565b955050505050806001019050612872565b5060005b612925846002016125d8565b8110156129a05736600087878581811061294157612941614959565b90506020028101906129539190614ac5565b9092509050600061296d610a37610edf60028a01876125e2565b5090508580156129835750612983818484613410565b95508461298f8161536c565b955050505050806001019050612919565b50505b6129b16001830160006140f7565b6002820160006129c0826125d8565b905060005b818110156129ef5760006129d984826125e2565b90506129e584826134b2565b50506001016129c5565b5060006129fe856004016125d8565b905060005b81811015612a33576000612a1a60048801826125e2565b9050612a2960048801826134b2565b5050600101612a03565b5060608a901c63ffffffff60408c901c16858015612a575750612a57828c8c613410565b95508063ffffffff16826001600160a01b03167f43f7309d11ba6b2e180e9ab8a6da09d2fa1f585d7daed4b26c1c7f2a90b867a288604051612a9d911515815260200190565b60405180910390a3505050505050505050505050565b60606000610b2f836134be565b6000612aca6104ff565b6001600160401b031987166000908152600291909101602090815260409182902060010180548351818402810184019094528084529091830182828015612b3e57602002820191906000526020600020905b815460381b66ffffffffffffff19168152600190910190602001808311612b1c575b5050505050905060005b8151811015612c03576060612b5e858584611d53565b83838080601f016020809104026020016040519081016040528093929190818152602001838380828437600092019190915250508951949b50929950909550612bfa9450612bbc935087928792508210905061066357610663614959565b88888080601f0160208091040260200160405190810160405280939291908181526020018383808284376000920191909152508692506118a4915050565b50600101612b48565b50612c0e8383611dff565b925092506108f1868686868661351a565b6000816002811115612c3357612c33615385565b03612c6157612c4283836135b6565b6108bf57826040516367bda4fb60e11b815260040161018d9190614129565b6001816002811115612c7557612c75615385565b03612c8457612c4283836135d1565b612c8e83836135b6565b158015612ca25750612ca083836135d1565b155b156108bf57826040516367bda4fb60e11b815260040161018d9190614129565b6040805163ed6dfb1360e01b815260609184831c919085901c63ffffffff1690829063ed6dfb1390612cfe908490339034908a90600401614a4b565b6000604051808303816000875af1925050508015612d3e57506040513d6000823e601f3d908101601f19168201604052612d3b919081019061539b565b60015b612173576000612d4c611a8c565b90508282826040516307a7515d60e41b815260040161018d939291906149bb565b6000612d776104ff565b6001600160e01b0319861660009081526001919091016020526040902080549091506001600160a01b031615612dc2578460405163ec9cbcb360e01b815260040161018d9190614129565b612dcb8561360f565b15612deb578460405163e171c77960e01b815260040161018d9190614129565b612df485613788565b15612e145784604051636899f9b360e11b815260040161018d9190614129565b612e1d856138b1565b15612e3d5784604051633cecfc3760e01b815260040161018d9190614129565b8054921515600160a81b0260ff60a81b19941515600160a01b026001600160a81b03199094166001600160a01b0390931692909217929092179290921691909117905550565b600081612e91576000612e97565b600160391b5b83612ea3576000612ea9565b6001603a1b5b6bffffffffffffffffffffffff19606088901b1663ffffffff60401b604088901b161717179050949350505050565b612eec8266ffffffffffffff1983166132d0565b61258b5760405163236e22ad60e01b815266ffffffffffffff198216600482015260240161018d565b8115610d3957612f258482613938565b612f4d57604051631c1582ff60e21b81526001600160a01b038516600482015260240161018d565b6040516306d61fe760e41b81526001600160a01b03851690636d61fe7090612f7b9086908690600401615408565b600060405180830381600087803b158015612f9557600080fd5b505af1925050508015612fa6575060015b610d39576000612fb4611a8c565b90508481604051631672bd9360e01b815260040161018d92919061541c565b600082826000818110612fe857612fe8614959565b919091013560f81c949350505050565b36600081818061300c60056001888a614a21565b61301591614b24565b60e01c90506000613027826005615440565b63ffffffff16905061303c816005898b614a21565b909650945061304d8782818b614a21565b9699959850965050505050565b60008060006130676104ff565b6001600160401b0319891660009081526002919091016020908152604091829020600101805483518184028101840190945280845290918301828280156130db57602002820191906000526020600020905b815460381b66ffffffffffffff191681526001909101906020018083116130b9575b5050505050905060005b815181101561324f576130f9878783611d53565b83838080601f016020809104026020016040519081016040528093929190818152602001838380828437600081840152601f19601f820116905080830192505050505050509250909192508a6101000182829a509a50839052505050600080613170610a3785858151811061066357610663614959565b915091506000826001600160a01b0316632a3d428c838d8b6040518463ffffffff1660e01b81526004016131a69392919061545c565b6020604051808303816000875af11580156131c5573d6000803e3d6000fd5b505050506040513d601f19601f820116820180604052508101906131e99190614b0b565b90506001816001600160a01b0316111561323557604051630934314160e01b81526001600160a01b03808516600483015263ffffffff841660248301528216604482015260640161018d565b61323f8682613954565b95505050508060010190506130e5565b5061325a8686611dff565b8080601f01602080910402602001604051908101604052809392919081815260200183838082843760009201829052506101008c0194909452506132a391508a90508987613a18565b905081516000146132bf576132b88382613b14565b92506132c3565b8092505b5090979650505050505050565b6000610b2f8383613bef565b816001600160a01b03166352d1902d6040518163ffffffff1660e01b8152600401602060405180830381865afa925050508015613336575060408051601f3d908101601f1916820190925261333391810190614b0b565b60015b61335e57604051634c9c8ce360e01b81526001600160a01b038316600482015260240161018d565b6000805160206155b0833981519152811461338f57604051632a87526960e21b81526004810182905260240161018d565b6108bf8383613c3e565b60008260000182815481106133b0576133b0614959565b9060005260206000200154905092915050565b6108bf8266ffffffffffffff1983166134b2565b60006133e16104ff565b6001600160e01b03199092166000908152600192909201602052506040902080546001600160b01b0319169055565b60018115610b2f57604051638a91b0e360e01b81526001600160a01b03851690638a91b0e3906134469086908690600401615408565b600060405180830381600087803b15801561346057600080fd5b505af1925050508015613471575060015b610b2f57506000610b2f565b60006134876104ff565b6001600160401b031990921660009081526002929092016020525060409020805462ffffff19169055565b6000610b2f8383613c94565b60608160000180548060200260200160405190810160405280929190818152602001828054801561350e57602002820191906000526020600020905b8154815260200190600101908083116134fa575b50505050509050919050565b60408051630232e99f60e51b8152606087901c9187901c63ffffffff1690829063465d33e09061355c9030908590339034908d908d908d908d90600401615537565b600060405180830381600087803b15801561357657600080fd5b505af1925050508015613587575060015b61115d576000613595611a8c565b90508282826040516392a47d6b60e01b815260040161018d939291906149bb565b60006135c183613d8e565b8015610b2f5750610b2f82613e87565b6000610b2f6001600160e01b031984166135e96104ff565b6001600160401b0319851660009081526002919091016020526040902060040190613eb7565b60006001600160e01b031982166306608bdf60e21b148061363f57506001600160e01b03198216621a63e960e01b145b8061365a57506001600160e01b031982166393b1dc6160e01b145b8061367557506001600160e01b031982166306efd59360e21b145b8061369057506001600160e01b03198216635b58e67f60e11b145b806136ab57506001600160e01b03198216635b0e93fb60e11b145b806136c657506001600160e01b03198216631a7e6adf60e11b145b806136e157506001600160e01b0319821663f2680c0f60e01b145b806136fc57506001600160e01b03198216639cfd7cff60e01b145b8061371757506001600160e01b031982166301ffc9a760e01b145b8061373257506001600160e01b031982166352d1902d60e01b145b8061374d57506001600160e01b0319821663278f794360e11b145b8061376857506001600160e01b03198216633abe451360e11b145b806116c157506001600160e01b0319821663d31b575b60e01b1492915050565b60006001600160e01b031982166306d61fe760e41b14806137b957506001600160e01b03198216638a91b0e360e01b145b806137d457506001600160e01b0319821663a1308f2760e01b145b806137ef57506001600160e01b0319821663572b146360e11b145b8061380a57506001600160e01b0319821663ed6dfb1360e01b145b8061382557506001600160e01b03198216635d413a8160e01b145b8061384057506001600160e01b03198216630ab8785f60e01b145b8061385b57506001600160e01b03198216630232e99f60e51b145b8061387657506001600160e01b031982166373edbfbf60e11b145b8061389157506001600160e01b03198216630a8f50a360e21b145b806116c157506001600160e01b03198216631eb5ed1960e11b1492915050565b60006001600160e01b03198216632dd8113360e01b14806138e257506001600160e01b0319821663062a422b60e01b145b806138fd57506001600160e01b0319821663ae574a4360e01b145b8061391857506001600160e01b031982166314add44b60e21b145b806116c157506001600160e01b03198216637c627b2160e01b1492915050565b600061394383613ecf565b8015610b2f5750610b2f8383613f02565b600060a083901c65ffffffffffff81168203613973575065ffffffffffff5b60a083901c65ffffffffffff8116600003613991575065ffffffffffff5b8065ffffffffffff168265ffffffffffff16116139ba5760a08265ffffffffffff16901b6139c8565b60a08165ffffffffffff16901b5b925060d085811c9085901c8082106139ec5760d08265ffffffffffff16901b6139fa565b60d08165ffffffffffff16901b5b851794508587176001600160a01b0316851794505050505092915050565b600080613a236104ff565b9050600080606087901c604088901c63ffffffff166001600160401b031989166000908152600286016020526040902054919350915062010000900460ff16613a96576040516366058a4360e11b81526001600160a01b038316600482015263ffffffff8216602482015260440161018d565b604051630ab8785f60e01b81526001600160a01b03831690630ab8785f90613ac69084908a908a9060040161545c565b6020604051808303816000875af1158015613ae5573d6000803e3d6000fd5b505050506040513d601f19601f82011682018060405250810190613b099190614b0b565b979650505050505050565b600060a083901c65ffffffffffff81168203613b33575065ffffffffffff5b60a083901c65ffffffffffff8116600003613b51575065ffffffffffff5b8065ffffffffffff168265ffffffffffff1611613b7a5760a08265ffffffffffff16901b613b88565b60a08165ffffffffffff16901b5b925060d085811c9085901c808210613bac5760d08265ffffffffffff16901b613bba565b60d08165ffffffffffff16901b5b85179450866001600160a01b0316600114613bd55785613bd8565b60015b6001600160a01b0316851794505050505092915050565b6000818152600183016020526040812054613c36575081546001818101845560008481526020808220909301849055845484825282860190935260409020919091556116c1565b5060006116c1565b613c4782613f81565b6040516001600160a01b038316907fbc7cd75a20ee27fd9adebab32041f755214dbc6bffa90cc0225b39da2e5c2d3b90600090a2805115613c8c576108bf8282613fe6565b61258b614053565b60008181526001830160205260408120548015613d7d576000613cb860018361533e565b8554909150600090613ccc9060019061533e565b9050808214613d31576000866000018281548110613cec57613cec614959565b9060005260206000200154905080876000018481548110613d0f57613d0f614959565b6000918252602080832090910192909255918252600188019052604090208390555b8554869080613d4257613d42615599565b6001900381819060005260206000200160009055905585600101600086815260200190815260200160002060009055600193505050506116c1565b60009150506116c1565b5092915050565b60006001600160e01b03198216635b0e93fb60e11b1480613dbf57506001600160e01b03198216631a7e6adf60e11b145b80613dd957506001600160e01b03198216621a63e960e01b145b80613df457506001600160e01b031982166393b1dc6160e01b145b80613e0f57506001600160e01b031982166306efd59360e21b145b80613e2a57506001600160e01b03198216635b58e67f60e11b145b80613e4557506001600160e01b0319821663278f794360e11b145b15613e5257506001919050565b613e5a6104ff565b6001600160e01b03199290921660009081526001909201602052506040902054600160a81b900460ff1690565b6000613e916104ff565b6001600160401b0319909216600090815260029290920160205250604090205460ff1690565b60008181526001830160205260408120541515610b2f565b6000613ee2826301ffc9a760e01b613f02565b80156116c15750613efb826001600160e01b0319613f02565b1592915050565b60008082604051602401613f169190614129565b60408051601f19818403018152919052602080820180516001600160e01b03166301ffc9a760e01b178152825192935060009283928392909183918a617530fa92503d91506000519050828015613f6e575060208210155b8015613b09575015159695505050505050565b806001600160a01b03163b600003613fb757604051634c9c8ce360e01b81526001600160a01b038216600482015260240161018d565b6000805160206155b083398151915280546001600160a01b0319166001600160a01b0392909216919091179055565b6060600080846001600160a01b031684604051614003919061532c565b600060405180830381855af49150503d806000811461403e576040519150601f19603f3d011682016040523d82523d6000602084013e614043565b606091505b5091509150612173858383614072565b3415611ff45760405163b398979f60e01b815260040160405180910390fd5b60608261408757614082826140ce565b610b2f565b815115801561409e57506001600160a01b0384163b155b156140c757604051639996b31560e01b81526001600160a01b038516600482015260240161018d565b5080610b2f565b8051156140de5780518082602001fd5b60405163d6bda27560e01b815260040160405180910390fd5b508054600082559060005260206000209081019061217c91905b808211156141255760008155600101614111565b5090565b6001600160e01b031991909116815260200190565b8183823760009101908152919050565b6001600160a01b038116811461217c57600080fd5b8035610f1d8161414e565b60008083601f84011261418057600080fd5b5081356001600160401b0381111561419757600080fd5b602083019150836020828501011115611e4157600080fd5b600080600080606085870312156141c557600080fd5b84356141d08161414e565b935060208501356001600160401b038111156141eb57600080fd5b8501606081880312156141fd57600080fd5b925060408501356001600160401b0381111561421857600080fd5b6142248782880161416e565b95989497509550505050565b6001600160e01b03198116811461217c57600080fd5b60006020828403121561425857600080fd5b8135610b2f81614230565b60008060006040848603121561427857600080fd5b8335925060208401356001600160401b0381111561429557600080fd5b6142a18682870161416e565b9497909650939450505050565b600061012082840312156142c157600080fd5b50919050565b6000806000606084860312156142dc57600080fd5b83356001600160401b038111156142f257600080fd5b6142fe868287016142ae565b9660208601359650604090950135949350505050565b60008083601f84011261432657600080fd5b5081356001600160401b0381111561433d57600080fd5b6020830191508360208260051b8501011115611e4157600080fd5b60008060008060008060006080888a03121561437357600080fd5b873566ffffffffffffff198116811461438b57600080fd5b965060208801356001600160401b038111156143a657600080fd5b6143b28a828b01614314565b90975095505060408801356001600160401b038111156143d157600080fd5b6143dd8a828b0161416e565b90955093505060608801356001600160401b038111156143fc57600080fd5b6144088a828b01614314565b989b979a50959850939692959293505050565b6000806020838503121561442e57600080fd5b82356001600160401b0381111561444457600080fd5b61445085828601614314565b90969095509350505050565b60005b8381101561447757818101518382015260200161445f565b50506000910152565b6000815180845261449881602086016020860161445c565b601f01601f19169290920160200192915050565b6000602082016020835280845180835260408501915060408160051b86010192506020860160005b8281101561450557603f198786030184526144f0858351614480565b945060209384019391909101906001016144d4565b50929695505050505050565b634e487b7160e01b600052604160045260246000fd5b604051606081016001600160401b038111828210171561454957614549614511565b60405290565b60405161012081016001600160401b038111828210171561454957614549614511565b604051601f8201601f191681016001600160401b038111828210171561459a5761459a614511565b604052919050565b60006001600160401b038211156145bb576145bb614511565b50601f01601f191660200190565b600082601f8301126145da57600080fd5b81356145ed6145e8826145a2565b614572565b81815284602083860101111561460257600080fd5b816020850160208301376000918101602001919091529392505050565b6000806040838503121561463257600080fd5b823561463d8161414e565b915060208301356001600160401b0381111561465857600080fd5b614664858286016145c9565b9150509250929050565b600081518084526020840193506020830160005b828110156146aa57815166ffffffffffffff1916865260209586019590910190600101614682565b5093949350505050565b6020815260018060a01b0382511660208201526020820151151560408201526040820151151560608201526000606083015160808084015261169560a084018261466e565b6000806040838503121561470c57600080fd5b82356001600160401b0381111561472257600080fd5b61472e858286016142ae565b95602094909401359450505050565b602081526000610b2f6020830184614480565b6000806000806060858703121561476657600080fd5b84356147718161414e565b93506020850135925060408501356001600160401b0381111561421857600080fd5b80356001600160401b031981168114610f1d57600080fd5b6000806000806000606086880312156147c357600080fd5b6147cc86614793565b945060208601356001600160401b038111156147e757600080fd5b6147f38882890161416e565b90955093505060408601356001600160401b0381111561481257600080fd5b61481e88828901614314565b969995985093965092949392505050565b60006020828403121561484157600080fd5b610b2f82614793565b602081528151151560208201526020820151151560408201526040820151151560608201526000606083015160c0608084015261488a60e084018261466e565b90506080840151601f198483030160a08501526148a7828261466e565b60a0860151858203601f190160c0870152805180835260209182019450600093509101905b808310156148f85783516001600160e01b031916825260209384019360019390930192909101906148cc565b5095945050505050565b6000806000806040858703121561491857600080fd5b84356001600160401b0381111561492e57600080fd5b61493a8782880161416e565b90955093505060208501356001600160401b0381111561421857600080fd5b634e487b7160e01b600052603260045260246000fd5b634e487b7160e01b600052601160045260246000fd5b6000816149945761499461496f565b506000190190565b63ffffffff831681526040602082015260006116956040830184614480565b6001600160a01b038416815263ffffffff8316602082015260606040820181905260009061217390830184614480565b80356001600160401b03198116906018841015613d87576001600160401b031960189490940360031b84901b1690921692915050565b60008085851115614a3157600080fd5b83861115614a3e57600080fd5b5050820193919092039150565b63ffffffff8516815260018060a01b0384166020820152826040820152608060608201526000614a7e6080830184614480565b9695505050505050565b60008235605e19833603018112614a9e57600080fd5b9190910192915050565b600060208284031215614aba57600080fd5b8135610b2f8161414e565b6000808335601e19843603018112614adc57600080fd5b8301803591506001600160401b03821115614af657600080fd5b602001915036819003821315611e4157600080fd5b600060208284031215614b1d57600080fd5b5051919050565b80356001600160e01b03198116906004841015613d87576001600160e01b031960049490940360031b84901b1690921692915050565b600080600060608486031215614b6f57600080fd5b8335614b7a8161414e565b92506020840135915060408401356001600160401b03811115614b9c57600080fd5b614ba8868287016145c9565b9150509250925092565b600060208284031215614bc457600080fd5b81356001600160401b03811115614bda57600080fd5b8201601f81018413614beb57600080fd5b80356001600160401b03811115614c0457614c04614511565b8060051b614c1460208201614572565b91825260208184018101929081019087841115614c3057600080fd5b6020850192505b83831015613b095782356001600160401b03811115614c5557600080fd5b85016060818a03601f19011215614c6b57600080fd5b614c73614527565b6020820135614c818161414e565b81526040820135602082015260608201356001600160401b03811115614ca657600080fd5b614cb58b6020838601016145c9565b60408301525083525060209283019290910190614c37565b805160208201516001600160e01b0319811691906004821015614d04576001600160e01b0319600483900360031b81901b82161692505b5050919050565b63ffffffff8616815260018060a01b038516602082015283604082015260a060608201526000614d3e60a0830185614480565b8281036080840152614d508185614480565b98975050505050505050565b6000808335601e19843603018112614d7357600080fd5b8301803591506001600160401b03821115614d8d57600080fd5b6020019150606081023603821315611e4157600080fd5b80358015158114610f1d57600080fd5b600060208284031215614dc657600080fd5b610b2f82614da4565b6000808335601e19843603018112614de657600080fd5b8301803591506001600160401b03821115614e0057600080fd5b6020019150600781901b3603821315611e4157600080fd5b803563ffffffff81168114610f1d57600080fd5b60006080828403128015614e3f57600080fd5b50604051608081016001600160401b0381118282101715614e6257614e62614511565b6040528235614e7081614230565b8152614e7e60208401614e18565b6020820152614e8f60408401614da4565b6040820152614ea060608401614da4565b60608201529392505050565b6000808335601e19843603018112614ec357600080fd5b8301803591506001600160401b03821115614edd57600080fd5b6020019150600581901b3603821315611e4157600080fd5b808201808211156116c1576116c161496f565b81835260208301925060008160005b848110156146aa578135614f2a81614230565b6001600160e01b0319168652614f4260208301614da4565b15156020870152614f5560408301614da4565b151560408701526060958601959190910190600101614f17565b6000808335601e19843603018112614f8657600080fd5b83016020810192503590506001600160401b03811115614fa557600080fd5b8060071b3603821315611e4157600080fd5b81835260208301925060008160005b848110156146aa578135614fd981614230565b6001600160e01b031916865263ffffffff614ff660208401614e18565b16602087015261500860408301614da4565b1515604087015261501b60608301614da4565b151560608701526080958601959190910190600101614fc6565b6000808335601e1984360301811261504c57600080fd5b83016020810192503590506001600160401b0381111561506b57600080fd5b8060051b3603821315611e4157600080fd5b81835260208301925060008160005b848110156146aa57813561509f81614230565b6001600160e01b0319168652602095860195919091019060010161508c565b60008135601e198336030181126150d457600080fd5b82016020810190356001600160401b038111156150f057600080fd5b60608102360382131561510257600080fd5b60608552615114606086018284614f08565b9150506151246020840184614f6f565b8583036020870152615137838284614fb7565b925050506151486040840184615035565b8583036040870152614a7e83828461507d565b602081526000610b2f60208301846150be565b81835281816020850137506000828201602090810191909152601f909101601f19169091010190565b6001600160a01b03878116825263ffffffff87166020830152851660408201526060810184905260a060808201819052600090614d50908301848661516e565b6000602082840312156151e957600080fd5b8151610b2f81614230565b6000610120823603121561520757600080fd5b61520f61454f565b61521883614163565b81526020838101359082015260408301356001600160401b0381111561523d57600080fd5b615249368286016145c9565b60408301525060608301356001600160401b0381111561526857600080fd5b615274368286016145c9565b6060830152506080838101359082015260a0808401359082015260c0808401359082015260e08301356001600160401b038111156152b157600080fd5b6152bd368286016145c9565b60e0830152506101008301356001600160401b038111156152dd57600080fd5b6152e9368286016145c9565b6101008301525092915050565b803566ffffffffffffff198116906019841015613d875766ffffffffffffff1960199490940360031b84901b1690921692915050565b60008251614a9e81846020870161445c565b818103818111156116c1576116c161496f565b821515815260406020820152600061169560408301846150be565b60006001820161537e5761537e61496f565b5060010190565b634e487b7160e01b600052602160045260246000fd5b6000602082840312156153ad57600080fd5b81516001600160401b038111156153c357600080fd5b8201601f810184136153d457600080fd5b80516153e26145e8826145a2565b8181528560208385010111156153f757600080fd5b61217382602083016020860161445c565b60208152600061169560208301848661516e565b6001600160a01b038316815260406020820181905260009061169590830184614480565b63ffffffff81811683821601908111156116c1576116c161496f565b63ffffffff84168152606060208201526154826060820184516001600160a01b03169052565b602083015160808201526000604084015161012060a08401526154a9610180840182614480565b90506060850151605f198483030160c08501526154c68282614480565b915050608085015160e084015260a085015161010084015260c085015161012084015260e0850151605f19848303016101408501526155058282614480565b915050610100850151605f19848303016101608501526155258282614480565b92505050826040830152949350505050565b6001600160a01b03898116825263ffffffff89166020830152871660408201526060810186905260c060808201819052600090615577908301868861516e565b82810360a084015261558a81858761516e565b9b9a5050505050505050505050565b634e487b7160e01b600052603160045260246000fdfe360894a13ba1a3210667c828492db98dca3e2076cc3735a920a3ca505d382bbc657263363930302e7265666572656e63652d6d6f64756c61722d6163636f756e742e302e382e30a164736f6c634300081a000a","linkReferences":{}},"methodIdentifiers":{"UPGRADE_INTERFACE_VERSION()":"ad3cb1cc","accountId()":"9cfd7cff","entryPoint()":"b0d691fe","execute(address,uint256,bytes)":"b61d27f6","executeBatch((address,uint256,bytes)[])":"34fcd5be","executeUserOp((address,uint256,bytes,bytes,bytes32,uint256,bytes32,bytes,bytes),bytes32)":"8dd7712f","executeWithRuntimeValidation(bytes,bytes)":"f2680c0f","getExecutionData(bytes4)":"757c8a26","getNonce()":"d087d288","getValidationData(bytes24)":"d31b575b","initializeWithValidation(bytes25,bytes4[],bytes,bytes[])":"e919a623","installExecution(address,((bytes4,bool,bool)[],(bytes4,uint32,bool,bool)[],bytes4[]),bytes)":"001a63e9","installValidation(bytes25,bytes4[],bytes,bytes[])":"1bbf564c","isValidSignature(bytes32,bytes)":"1626ba7e","proxiableUUID()":"52d1902d","supportsInterface(bytes4)":"01ffc9a7","uninstallExecution(address,((bytes4,bool,bool)[],(bytes4,uint32,bool,bool)[],bytes4[]),bytes)":"93b1dc61","uninstallValidation(bytes24,bytes,bytes[])":"b6b1ccfe","upgradeToAndCall(address,bytes)":"4f1ef286","validateUserOp((address,uint256,bytes,bytes,bytes32,uint256,bytes32,bytes,bytes),bytes32,uint256)":"19822f7c"},"id":100}