{"abi":[{"type":"function","name":"limits","inputs":[{"name":"entityId","type":"uint32","internalType":"uint32"},{"name":"token","type":"address","internalType":"address"},{"name":"account","type":"address","internalType":"address"}],"outputs":[{"name":"hasLimit","type":"bool","internalType":"bool"},{"name":"limit","type":"uint256","internalType":"uint256"}],"stateMutability":"view"},{"type":"function","name":"moduleId","inputs":[],"outputs":[{"name":"","type":"string","internalType":"string"}],"stateMutability":"pure"},{"type":"function","name":"onInstall","inputs":[{"name":"data","type":"bytes","internalType":"bytes"}],"outputs":[],"stateMutability":"nonpayable"},{"type":"function","name":"onUninstall","inputs":[{"name":"data","type":"bytes","internalType":"bytes"}],"outputs":[],"stateMutability":"nonpayable"},{"type":"function","name":"postExecutionHook","inputs":[{"name":"","type":"uint32","internalType":"uint32"},{"name":"","type":"bytes","internalType":"bytes"}],"outputs":[],"stateMutability":"pure"},{"type":"function","name":"preExecutionHook","inputs":[{"name":"entityId","type":"uint32","internalType":"uint32"},{"name":"","type":"address","internalType":"address"},{"name":"","type":"uint256","internalType":"uint256"},{"name":"data","type":"bytes","internalType":"bytes"}],"outputs":[{"name":"","type":"bytes","internalType":"bytes"}],"stateMutability":"nonpayable"},{"type":"function","name":"supportsInterface","inputs":[{"name":"interfaceId","type":"bytes4","internalType":"bytes4"}],"outputs":[{"name":"","type":"bool","internalType":"bool"}],"stateMutability":"view"},{"type":"function","name":"updateLimits","inputs":[{"name":"entityId","type":"uint32","internalType":"uint32"},{"name":"token","type":"address","internalType":"address"},{"name":"hasLimit","type":"bool","internalType":"bool"},{"name":"newLimit","type":"uint256","internalType":"uint256"}],"outputs":[],"stateMutability":"nonpayable"},{"type":"error","name":"ERC20NotAllowed","inputs":[{"name":"","type":"address","internalType":"address"}]},{"type":"error","name":"ExceededTokenLimit","inputs":[]},{"type":"error","name":"InvalidCalldataLength","inputs":[]},{"type":"error","name":"NotImplemented","inputs":[]},{"type":"error","name":"SelectorNotAllowed","inputs":[]},{"type":"error","name":"SpendingRequestNotAllowed","inputs":[{"name":"","type":"bytes4","internalType":"bytes4"}]}],"bytecode":{"object":"0x6080604052348015600f57600080fd5b50610f548061001f6000396000f3fe608060405234801561001057600080fd5b50600436106100885760003560e01c80638a91b0e31161005b5780638a91b0e3146100f0578063a1308f2714610103578063bf0c001314610118578063ed6dfb131461016c57600080fd5b806301ffc9a71461008d5780634380c278146100b55780635d413a81146100ca5780636d61fe70146100dd575b600080fd5b6100a061009b366004610686565b61017f565b60405190151581526020015b60405180910390f35b6100c86100c33660046106f3565b6101aa565b005b6100c86100d8366004610788565b610239565b6100c86100eb3660046107da565b610252565b6100c86100fe3660046107da565b6102e0565b61010b610331565b6040516100ac919061086b565b61015561012636600461087e565b600060208181529381526040808220855292815282812090935282529020805460019091015460ff9091169082565b6040805192151583526020830191909152016100ac565b61010b61017a3660046108c7565b610351565b60006001600160e01b0319821663581660c960e11b14806101a457506101a482610474565b92915050565b6001600160a01b0383166101d9576040516301d4a78160e01b8152600060048201526024015b60405180910390fd5b6040805180820182529215158352602080840192835263ffffffff90951660009081528086528181206001600160a01b039095168152938552808420338552909452929091209051815490151560ff199091161781559051600190910155565b60405163d623472560e01b815260040160405180910390fd5b60008061026183850185610a0d565b9150915060005b81518160ff1610156102d9576000828260ff168151811061028b5761028b610ae9565b60200260200101516000015190506102c684826001868660ff16815181106102b5576102b5610ae9565b6020026020010151602001516101aa565b50806102d181610aff565b915050610268565b5050505050565b6000806102ef83850185610b2c565b63ffffffff166000908152602081815260408083206001600160a01b0390941683529281528282203383529052908120805460ff191681556001015550505050565b6060604051806060016040528060268152602001610f2260269139905090565b606060008061036085856104a9565b90925090506324f16c0560e11b6001600160e01b03198316016103ab57600080828060200190518101906103949190610bd5565b92505091506103a48a8383610583565b5050610459565b636581952160e11b6001600160e01b0319831601610434576000818060200190518101906103d99190610c2e565b905060005b81518110156103a45761042c8a8383815181106103fd576103fd610ae9565b60200260200101516000015184848151811061041b5761041b610ae9565b602002602001015160400151610583565b6001016103de565b604051637b0e4ea960e11b81526001600160e01b0319831660048201526024016101d0565b50506040805160208101909152600081529695505050505050565b60006001600160e01b031982166311b0306d60e21b14806101a457506301ffc9a760e01b6001600160e01b03198316146101a4565b60006060638dd7712f60e01b6104c26004848688610d3a565b6104cb91610d64565b6001600160e01b031916036105195760006104e98460048188610d3a565b8101906104f69190610ded565b5060600151602481015181516007190160089092019182529350915061057c9050565b610527600460008587610d3a565b61053091610d64565b61053d8460048188610d3a565b81818080601f01602080910402602001604051908101604052809392919081815260200183838082843760009201919091525095975091955050505050505b9250929050565b63ffffffff83166000908152602081815260408083206001600160a01b038616845282528083203384529091529020805460ff166105c15750505050565b6044825110156105e457604051630650569360e51b815260040160405180910390fd5b602082015160448301516105f782610650565b1561062f576001830154808211156106225760405163a55ac87760e01b815260040160405180910390fd5b8190036001840155610648565b604051635eda8c6960e11b815260040160405180910390fd5b505050505050565b60006001600160e01b0319821663a9059cbb60e01b14806101a457506001600160e01b0319821663095ea7b360e01b1492915050565b60006020828403121561069857600080fd5b81356001600160e01b0319811681146106b057600080fd5b9392505050565b803563ffffffff811681146106cb57600080fd5b919050565b6001600160a01b03811681146106e557600080fd5b50565b80356106cb816106d0565b6000806000806080858703121561070957600080fd5b610712856106b7565b93506020850135610722816106d0565b92506040850135801515811461073757600080fd5b9396929550929360600135925050565b60008083601f84011261075957600080fd5b5081356001600160401b0381111561077057600080fd5b60208301915083602082850101111561057c57600080fd5b60008060006040848603121561079d57600080fd5b6107a6846106b7565b925060208401356001600160401b038111156107c157600080fd5b6107cd86828701610747565b9497909650939450505050565b600080602083850312156107ed57600080fd5b82356001600160401b0381111561080357600080fd5b61080f85828601610747565b90969095509350505050565b60005b8381101561083657818101518382015260200161081e565b50506000910152565b6000815180845261085781602086016020860161081b565b601f01601f19169290920160200192915050565b6020815260006106b0602083018461083f565b60008060006060848603121561089357600080fd5b61089c846106b7565b925060208401356108ac816106d0565b915060408401356108bc816106d0565b809150509250925092565b6000806000806000608086880312156108df57600080fd5b6108e8866106b7565b945060208601356108f8816106d0565b93506040860135925060608601356001600160401b0381111561091a57600080fd5b61092688828901610747565b969995985093965092949392505050565b634e487b7160e01b600052604160045260246000fd5b604080519081016001600160401b038111828210171561096f5761096f610937565b60405290565b604051606081016001600160401b038111828210171561096f5761096f610937565b60405161012081016001600160401b038111828210171561096f5761096f610937565b604051601f8201601f191681016001600160401b03811182821017156109e2576109e2610937565b604052919050565b60006001600160401b03821115610a0357610a03610937565b5060051b60200190565b60008060408385031215610a2057600080fd5b610a29836106b7565b915060208301356001600160401b03811115610a4457600080fd5b8301601f81018513610a5557600080fd5b8035610a68610a63826109ea565b6109ba565b8082825260208201915060208360061b850101925087831115610a8a57600080fd5b6020840193505b82841015610adb5760408489031215610aa957600080fd5b610ab161094d565b8435610abc816106d0565b8152602085810135818301529083526040909401939190910190610a91565b809450505050509250929050565b634e487b7160e01b600052603260045260246000fd5b600060ff821660ff8103610b2357634e487b7160e01b600052601160045260246000fd5b60010192915050565b60008060408385031215610b3f57600080fd5b8235610b4a816106d0565b9150610b58602084016106b7565b90509250929050565b60006001600160401b03821115610b7a57610b7a610937565b50601f01601f191660200190565b600082601f830112610b9957600080fd5b8151610ba7610a6382610b61565b818152846020838601011115610bbc57600080fd5b610bcd82602083016020870161081b565b949350505050565b600080600060608486031215610bea57600080fd5b8351610bf5816106d0565b6020850151604086015191945092506001600160401b03811115610c1857600080fd5b610c2486828701610b88565b9150509250925092565b600060208284031215610c4057600080fd5b81516001600160401b03811115610c5657600080fd5b8201601f81018413610c6757600080fd5b8051610c75610a63826109ea565b8082825260208201915060208360051b850101925086831115610c9757600080fd5b602084015b83811015610d2f5780516001600160401b03811115610cba57600080fd5b85016060818a03601f19011215610cd057600080fd5b610cd8610975565b6020820151610ce6816106d0565b81526040820151602082015260608201516001600160401b03811115610d0b57600080fd5b610d1a8b602083860101610b88565b60408301525084525060209283019201610c9c565b509695505050505050565b60008085851115610d4a57600080fd5b83861115610d5757600080fd5b5050820193919092039150565b80356001600160e01b03198116906004841015610d95576001600160e01b0319600485900360031b81901b82161691505b5092915050565b600082601f830112610dad57600080fd5b8135610dbb610a6382610b61565b818152846020838601011115610dd057600080fd5b816020850160208301376000918101602001919091529392505050565b60008060408385031215610e0057600080fd5b82356001600160401b03811115610e1657600080fd5b83016101208186031215610e2957600080fd5b610e31610997565b610e3a826106e8565b81526020828101359082015260408201356001600160401b03811115610e5f57600080fd5b610e6b87828501610d9c565b60408301525060608201356001600160401b03811115610e8a57600080fd5b610e9687828501610d9c565b6060830152506080828101359082015260a0808301359082015260c0808301359082015260e08201356001600160401b03811115610ed357600080fd5b610edf87828501610d9c565b60e0830152506101008201356001600160401b03811115610eff57600080fd5b610f0b87828501610d9c565b610100830152509560209490940135945050505056fe657263363930302e65726332302d746f6b656e2d6c696d69742d6d6f64756c652e312e302e30a164736f6c634300081a000a","linkReferences":{}},"methodIdentifiers":{"limits(uint32,address,address)":"bf0c0013","moduleId()":"a1308f27","onInstall(bytes)":"6d61fe70","onUninstall(bytes)":"8a91b0e3","postExecutionHook(uint32,bytes)":"5d413a81","preExecutionHook(uint32,address,uint256,bytes)":"ed6dfb13","supportsInterface(bytes4)":"01ffc9a7","updateLimits(uint32,address,bool,uint256)":"4380c278"},"id":124}