{"abi":[{"type":"function","name":"allowedTargets","inputs":[{"name":"entityId","type":"uint32","internalType":"uint32"},{"name":"account","type":"address","internalType":"address"}],"outputs":[{"name":"allowedTarget","type":"address","internalType":"address"}],"stateMutability":"view"},{"type":"function","name":"moduleId","inputs":[],"outputs":[{"name":"","type":"string","internalType":"string"}],"stateMutability":"pure"},{"type":"function","name":"onInstall","inputs":[{"name":"data","type":"bytes","internalType":"bytes"}],"outputs":[],"stateMutability":"nonpayable"},{"type":"function","name":"onUninstall","inputs":[{"name":"data","type":"bytes","internalType":"bytes"}],"outputs":[],"stateMutability":"nonpayable"},{"type":"function","name":"preRuntimeValidationHook","inputs":[{"name":"entityId","type":"uint32","internalType":"uint32"},{"name":"","type":"address","internalType":"address"},{"name":"","type":"uint256","internalType":"uint256"},{"name":"data","type":"bytes","internalType":"bytes"},{"name":"authorization","type":"bytes","internalType":"bytes"}],"outputs":[],"stateMutability":"view"},{"type":"function","name":"preSignatureValidationHook","inputs":[{"name":"","type":"uint32","internalType":"uint32"},{"name":"","type":"address","internalType":"address"},{"name":"hash","type":"bytes32","internalType":"bytes32"},{"name":"signature","type":"bytes","internalType":"bytes"}],"outputs":[],"stateMutability":"pure"},{"type":"function","name":"preUserOpValidationHook","inputs":[{"name":"entityId","type":"uint32","internalType":"uint32"},{"name":"userOp","type":"tuple","internalType":"struct PackedUserOperation","components":[{"name":"sender","type":"address","internalType":"address"},{"name":"nonce","type":"uint256","internalType":"uint256"},{"name":"initCode","type":"bytes","internalType":"bytes"},{"name":"callData","type":"bytes","internalType":"bytes"},{"name":"accountGasLimits","type":"bytes32","internalType":"bytes32"},{"name":"preVerificationGas","type":"uint256","internalType":"uint256"},{"name":"gasFees","type":"bytes32","internalType":"bytes32"},{"name":"paymasterAndData","type":"bytes","internalType":"bytes"},{"name":"signature","type":"bytes","internalType":"bytes"}]},{"name":"","type":"bytes32","internalType":"bytes32"}],"outputs":[{"name":"","type":"uint256","internalType":"uint256"}],"stateMutability":"view"},{"type":"function","name":"supportsInterface","inputs":[{"name":"interfaceId","type":"bytes4","internalType":"bytes4"}],"outputs":[{"name":"","type":"bool","internalType":"bool"}],"stateMutability":"view"},{"type":"error","name":"NotImplemented","inputs":[]}],"bytecode":{"object":"0x6080604052348015600f57600080fd5b50610a108061001f6000396000f3fe608060405234801561001057600080fd5b50600436106100885760003560e01c80636d61fe701161005b5780636d61fe70146100fe5780638a91b0e314610111578063a1308f2714610124578063b536f6a41461013957600080fd5b806301ffc9a71461008d5780632a3d428c146100b55780633d6bda32146100d65780633f41826e146100eb575b600080fd5b6100a061009b3660046105c9565b610182565b60405190151581526020015b60405180910390f35b6100c86100c336600461060c565b6101ad565b6040519081526020016100ac565b6100e96100e43660046106cb565b610350565b005b6100e96100f936600461076d565b61047f565b6100e961010c3660046107de565b6104e4565b6100e961011f3660046107de565b610536565b61012c610574565b6040516100ac9190610820565b61016a61014736600461086e565b60006020818152928152604080822090935290815220546001600160a01b031681565b6040516001600160a01b0390911681526020016100ac565b60006001600160e01b0319821663028171ad60e41b14806101a757506101a782610594565b92915050565b6000635b0e93fb60e11b6101c460608501856108a5565b6101d3916004916000916108ec565b6101dc91610916565b6001600160e01b0319160361030c5760006101fa60608501856108a5565b610209916024916004916108ec565b810190610216919061094e565b905060006102286101008601866108a5565b6102319161096b565b60601c90506001600160a01b03821681146102935760405162461bcd60e51b815260206004820152601a60248201527f50726f6f6620646f65736e2774206d617463682074617267657400000000000060448201526064015b60405180910390fd5b63ffffffff86166000908152602081815260408083203384529091529020546001600160a01b038381169116146103015760405162461bcd60e51b815260206004820152601260248201527115185c99d95d081b9bdd08185b1b1bddd95960721b604482015260640161028a565b600092505050610349565b60405162461bcd60e51b8152602060048201526012602482015271155b9cdd5c1c1bdc9d1959081b595d1a1bd960721b604482015260640161028a565b9392505050565b635b0e93fb60e11b6103666004600086886108ec565b61036f91610916565b6001600160e01b0319160361030c57600061038e6024600486886108ec565b81019061039b919061094e565b905060006103a9838561096b565b60601c90506001600160a01b03821681146104065760405162461bcd60e51b815260206004820152601a60248201527f50726f6f6620646f65736e2774206d6174636820746172676574000000000000604482015260640161028a565b63ffffffff89166000908152602081815260408083203384529091529020546001600160a01b038381169116146104745760405162461bcd60e51b815260206004820152601260248201527115185c99d95d081b9bdd08185b1b1bddd95960721b604482015260640161028a565b505050505050505050565b8282826040516104909291906109ab565b6040518091039020146104dd5760405162461bcd60e51b8152602060048201526015602482015274141c995a5b5859d9481b9bdd081c1c9bdd9a591959605a1b604482015260640161028a565b5050505050565b6000806104f38385018561086e565b63ffffffff91909116600090815260208181526040808320338452909152902080546001600160a01b0319166001600160a01b0390921691909117905550505050565b6000610544828401846109bb565b63ffffffff16600090815260208181526040808320338452909152902080546001600160a01b0319169055505050565b60606040518060600160405280602d81526020016109d7602d9139905090565b60006001600160e01b031982166311b0306d60e21b14806101a757506301ffc9a760e01b6001600160e01b03198316146101a7565b6000602082840312156105db57600080fd5b81356001600160e01b03198116811461034957600080fd5b803563ffffffff8116811461060757600080fd5b919050565b60008060006060848603121561062157600080fd5b61062a846105f3565b9250602084013567ffffffffffffffff81111561064657600080fd5b8401610120818703121561065957600080fd5b929592945050506040919091013590565b6001600160a01b038116811461067f57600080fd5b50565b60008083601f84011261069457600080fd5b50813567ffffffffffffffff8111156106ac57600080fd5b6020830191508360208285010111156106c457600080fd5b9250929050565b600080600080600080600060a0888a0312156106e657600080fd5b6106ef886105f3565b965060208801356106ff8161066a565b955060408801359450606088013567ffffffffffffffff81111561072257600080fd5b61072e8a828b01610682565b909550935050608088013567ffffffffffffffff81111561074e57600080fd5b61075a8a828b01610682565b989b979a50959850939692959293505050565b60008060008060006080868803121561078557600080fd5b61078e866105f3565b9450602086013561079e8161066a565b935060408601359250606086013567ffffffffffffffff8111156107c157600080fd5b6107cd88828901610682565b969995985093965092949392505050565b600080602083850312156107f157600080fd5b823567ffffffffffffffff81111561080857600080fd5b61081485828601610682565b90969095509350505050565b602081526000825180602084015260005b8181101561084e5760208186018101516040868401015201610831565b506000604082850101526040601f19601f83011684010191505092915050565b6000806040838503121561088157600080fd5b61088a836105f3565b9150602083013561089a8161066a565b809150509250929050565b6000808335601e198436030181126108bc57600080fd5b83018035915067ffffffffffffffff8211156108d757600080fd5b6020019150368190038213156106c457600080fd5b600080858511156108fc57600080fd5b8386111561090957600080fd5b5050820193919092039150565b80356001600160e01b03198116906004841015610947576001600160e01b0319600485900360031b81901b82161691505b5092915050565b60006020828403121561096057600080fd5b81356103498161066a565b80356bffffffffffffffffffffffff198116906014841015610947576bffffffffffffffffffffffff1960149490940360031b84901b1690921692915050565b8183823760009101908152919050565b6000602082840312156109cd57600080fd5b610349826105f356fe657263363930302e6d6f636b2d6163636573732d636f6e74726f6c2d686f6f6b2d6d6f64756c652e312e302e30a164736f6c634300081a000a","linkReferences":{}},"methodIdentifiers":{"allowedTargets(uint32,address)":"b536f6a4","moduleId()":"a1308f27","onInstall(bytes)":"6d61fe70","onUninstall(bytes)":"8a91b0e3","preRuntimeValidationHook(uint32,address,uint256,bytes,bytes)":"3d6bda32","preSignatureValidationHook(uint32,address,bytes32,bytes)":"3f41826e","preUserOpValidationHook(uint32,(address,uint256,bytes,bytes,bytes32,uint256,bytes32,bytes,bytes),bytes32)":"2a3d428c","supportsInterface(bytes4)":"01ffc9a7"},"id":160}