{"abi":[{"type":"function","name":"moduleId","inputs":[],"outputs":[{"name":"","type":"string","internalType":"string"}],"stateMutability":"pure"},{"type":"function","name":"onInstall","inputs":[{"name":"data","type":"bytes","internalType":"bytes"}],"outputs":[],"stateMutability":"nonpayable"},{"type":"function","name":"onUninstall","inputs":[{"name":"data","type":"bytes","internalType":"bytes"}],"outputs":[],"stateMutability":"nonpayable"},{"type":"function","name":"replaySafeHash","inputs":[{"name":"account","type":"address","internalType":"address"},{"name":"hash","type":"bytes32","internalType":"bytes32"}],"outputs":[{"name":"","type":"bytes32","internalType":"bytes32"}],"stateMutability":"view"},{"type":"function","name":"signers","inputs":[{"name":"entityId","type":"uint32","internalType":"uint32"},{"name":"account","type":"address","internalType":"address"}],"outputs":[{"name":"","type":"address","internalType":"address"}],"stateMutability":"view"},{"type":"function","name":"supportsInterface","inputs":[{"name":"interfaceId","type":"bytes4","internalType":"bytes4"}],"outputs":[{"name":"","type":"bool","internalType":"bool"}],"stateMutability":"view"},{"type":"function","name":"transferSigner","inputs":[{"name":"entityId","type":"uint32","internalType":"uint32"},{"name":"newSigner","type":"address","internalType":"address"}],"outputs":[],"stateMutability":"nonpayable"},{"type":"function","name":"validateRuntime","inputs":[{"name":"account","type":"address","internalType":"address"},{"name":"entityId","type":"uint32","internalType":"uint32"},{"name":"sender","type":"address","internalType":"address"},{"name":"","type":"uint256","internalType":"uint256"},{"name":"","type":"bytes","internalType":"bytes"},{"name":"","type":"bytes","internalType":"bytes"}],"outputs":[],"stateMutability":"view"},{"type":"function","name":"validateSignature","inputs":[{"name":"account","type":"address","internalType":"address"},{"name":"entityId","type":"uint32","internalType":"uint32"},{"name":"","type":"address","internalType":"address"},{"name":"digest","type":"bytes32","internalType":"bytes32"},{"name":"signature","type":"bytes","internalType":"bytes"}],"outputs":[{"name":"","type":"bytes4","internalType":"bytes4"}],"stateMutability":"view"},{"type":"function","name":"validateUserOp","inputs":[{"name":"entityId","type":"uint32","internalType":"uint32"},{"name":"userOp","type":"tuple","internalType":"struct PackedUserOperation","components":[{"name":"sender","type":"address","internalType":"address"},{"name":"nonce","type":"uint256","internalType":"uint256"},{"name":"initCode","type":"bytes","internalType":"bytes"},{"name":"callData","type":"bytes","internalType":"bytes"},{"name":"accountGasLimits","type":"bytes32","internalType":"bytes32"},{"name":"preVerificationGas","type":"uint256","internalType":"uint256"},{"name":"gasFees","type":"bytes32","internalType":"bytes32"},{"name":"paymasterAndData","type":"bytes","internalType":"bytes"},{"name":"signature","type":"bytes","internalType":"bytes"}]},{"name":"userOpHash","type":"bytes32","internalType":"bytes32"}],"outputs":[{"name":"","type":"uint256","internalType":"uint256"}],"stateMutability":"view"},{"type":"event","name":"SignerTransferred","inputs":[{"name":"account","type":"address","indexed":true,"internalType":"address"},{"name":"entityId","type":"uint32","indexed":true,"internalType":"uint32"},{"name":"newSigner","type":"address","indexed":true,"internalType":"address"},{"name":"previousSigner","type":"address","indexed":false,"internalType":"address"}],"anonymous":true},{"type":"error","name":"NotAuthorized","inputs":[]},{"type":"error","name":"NotImplemented","inputs":[]}],"bytecode":{"object":"0x6080604052348015600f57600080fd5b50610c6a8061001f6000396000f3fe608060405234801561001057600080fd5b506004361061009e5760003560e01c80634aeb3b03116100665780634aeb3b031461015d5780636d61fe70146101705780638a91b0e314610183578063a1308f2714610196578063e7db7f7e146101ab57600080fd5b806301ffc9a7146100a35780630ab8785f146100cb578063217178fb146100ec578063219336d614610135578063465d33e014610148575b600080fd5b6100b66100b1366004610804565b6101d7565b60405190151581526020015b60405180910390f35b6100de6100d9366004610847565b610202565b6040519081526020016100c2565b61011d6100fa3660046108bd565b60006020818152928152604080822090935290815220546001600160a01b031681565b6040516001600160a01b0390911681526020016100c2565b6100de6101433660046108f4565b6102dd565b61015b610156366004610969565b61039e565b005b61015b61016b3660046108bd565b6103f4565b61015b61017e366004610a1d565b610402565b61015b610191366004610a1d565b610425565b61019e610445565b6040516100c29190610aaf565b6101be6101b9366004610ac2565b610465565b6040516001600160e01b031990911681526020016100c2565b60006001600160e01b0319821663ab3e34c160e01b14806101fc57506101fc8261050b565b92915050565b63ffffffff831660009081526020818152604082206102c591839061022990870187610b45565b6001600160a01b0390811682526020820192909252604001600020541661027d847f19457468657265756d205369676e6564204d6573736167653a0a3332000000006000908152601c91909152603c902090565b61028b610100870187610b62565b8080601f01602080910402602001604051908101604052809392919081815260200183838082843760009201919091525061054092505050565b156102d2575060006102d6565b5060015b9392505050565b60006102d661035084604080517f71062c282d40422f744945d587dbf4ecfd4f9cfad1d35d62c944373009d96162602082015246918101919091523060608201526001600160a01b038216608082015260009060a001604051602081830303815290604052805190602001209050919050565b7f294a8735843d4afb4f017c76faf3b7731def145ed0025fc9b1d5ce30adf113ff600090815260208590526040902060405161190160f01b8152600281019290925260228201526042902090565b63ffffffff87166000908152602081815260408083206001600160a01b03808d1685529252909120548782169116146103ea5760405163ea8e4eb560e01b815260040160405180910390fd5b5050505050505050565b6103fe82826105b4565b5050565b600080610411838501856108bd565b9150915061041f82826105b4565b50505050565b600061043382840184610ba9565b90506104408160006105b4565b505050565b60606040518060600160405280602d8152602001610c31602d9139905090565b60008061047288866102dd565b63ffffffff88166000908152602081815260408083206001600160a01b03808e16855290835292819020548151601f89018490048402810184019092528782529394506104df93909216918491889088908190840183828082843760009201919091525061054092505050565b156104f45750630b135d3f60e11b9050610501565b506001600160e01b031990505b9695505050505050565b60006001600160e01b031982166311b0306d60e21b14806101fc57506301ffc9a760e01b6001600160e01b03198316146101fc565b6000836001600160a01b03163b6000036105a257600080610561858561060d565b509092509050600081600381111561057b5761057b610bc4565b1480156105995750856001600160a01b0316826001600160a01b0316145b925050506102d6565b6105ad84848461065a565b90506102d6565b63ffffffff8216600081815260208181526040808320338085529083529281902080546001600160a01b031981166001600160a01b038881169182179093559251911680825294919391920160405180910390a3505050565b600080600083516041036106475760208401516040850151606086015160001a61063988828585610735565b955095509550505050610653565b50508151600091506002905b9250925092565b6000806000856001600160a01b0316858560405160240161067c929190610bda565b60408051601f198184030181529181526020820180516001600160e01b0316630b135d3f60e11b179052516106b19190610bfb565b600060405180830381855afa9150503d80600081146106ec576040519150601f19603f3d011682016040523d82523d6000602084013e6106f1565b606091505b509150915081801561070557506020815110155b801561050157508051630b135d3f60e11b9061072a9083016020908101908401610c17565b149695505050505050565b600080807f7fffffffffffffffffffffffffffffff5d576e7357a4501ddfe92f46681b20a084111561077057506000915060039050826107fa565b604080516000808252602082018084528a905260ff891692820192909252606081018790526080810186905260019060a0016020604051602081039080840390855afa1580156107c4573d6000803e3d6000fd5b5050604051601f1901519150506001600160a01b0381166107f0575060009250600191508290506107fa565b9250600091508190505b9450945094915050565b60006020828403121561081657600080fd5b81356001600160e01b0319811681146102d657600080fd5b803563ffffffff8116811461084257600080fd5b919050565b60008060006060848603121561085c57600080fd5b6108658461082e565b9250602084013567ffffffffffffffff81111561088157600080fd5b8401610120818703121561089457600080fd5b929592945050506040919091013590565b6001600160a01b03811681146108ba57600080fd5b50565b600080604083850312156108d057600080fd5b6108d98361082e565b915060208301356108e9816108a5565b809150509250929050565b6000806040838503121561090757600080fd5b8235610912816108a5565b946020939093013593505050565b60008083601f84011261093257600080fd5b50813567ffffffffffffffff81111561094a57600080fd5b60208301915083602082850101111561096257600080fd5b9250929050565b60008060008060008060008060c0898b03121561098557600080fd5b8835610990816108a5565b975061099e60208a0161082e565b965060408901356109ae816108a5565b955060608901359450608089013567ffffffffffffffff8111156109d157600080fd5b6109dd8b828c01610920565b90955093505060a089013567ffffffffffffffff8111156109fd57600080fd5b610a098b828c01610920565b999c989b5096995094979396929594505050565b60008060208385031215610a3057600080fd5b823567ffffffffffffffff811115610a4757600080fd5b610a5385828601610920565b90969095509350505050565b60005b83811015610a7a578181015183820152602001610a62565b50506000910152565b60008151808452610a9b816020860160208601610a5f565b601f01601f19169290920160200192915050565b6020815260006102d66020830184610a83565b60008060008060008060a08789031215610adb57600080fd5b8635610ae6816108a5565b9550610af46020880161082e565b94506040870135610b04816108a5565b935060608701359250608087013567ffffffffffffffff811115610b2757600080fd5b610b3389828a01610920565b979a9699509497509295939492505050565b600060208284031215610b5757600080fd5b81356102d6816108a5565b6000808335601e19843603018112610b7957600080fd5b83018035915067ffffffffffffffff821115610b9457600080fd5b60200191503681900382131561096257600080fd5b600060208284031215610bbb57600080fd5b6102d68261082e565b634e487b7160e01b600052602160045260246000fd5b828152604060208201526000610bf36040830184610a83565b949350505050565b60008251610c0d818460208701610a5f565b9190910192915050565b600060208284031215610c2957600080fd5b505191905056fe657263363930302e73696e676c652d7369676e65722d76616c69646174696f6e2d6d6f64756c652e312e302e30a164736f6c634300081a000a","linkReferences":{}},"methodIdentifiers":{"moduleId()":"a1308f27","onInstall(bytes)":"6d61fe70","onUninstall(bytes)":"8a91b0e3","replaySafeHash(address,bytes32)":"219336d6","signers(uint32,address)":"217178fb","supportsInterface(bytes4)":"01ffc9a7","transferSigner(uint32,address)":"4aeb3b03","validateRuntime(address,uint32,address,uint256,bytes,bytes)":"465d33e0","validateSignature(address,uint32,address,bytes32,bytes)":"e7db7f7e","validateUserOp(uint32,(address,uint256,bytes,bytes,bytes32,uint256,bytes32,bytes,bytes),bytes32)":"0ab8785f"},"id":127}