{"abi":[{"type":"constructor","inputs":[{"name":"anEntryPoint","type":"address","internalType":"contract IEntryPoint"}],"stateMutability":"nonpayable"},{"type":"receive","stateMutability":"payable"},{"type":"function","name":"UPGRADE_INTERFACE_VERSION","inputs":[],"outputs":[{"name":"","type":"string","internalType":"string"}],"stateMutability":"view"},{"type":"function","name":"addDeposit","inputs":[],"outputs":[],"stateMutability":"payable"},{"type":"function","name":"entryPoint","inputs":[],"outputs":[{"name":"","type":"address","internalType":"contract IEntryPoint"}],"stateMutability":"view"},{"type":"function","name":"execute","inputs":[{"name":"dest","type":"address","internalType":"address"},{"name":"value","type":"uint256","internalType":"uint256"},{"name":"func","type":"bytes","internalType":"bytes"}],"outputs":[],"stateMutability":"nonpayable"},{"type":"function","name":"executeBatch","inputs":[{"name":"dest","type":"address[]","internalType":"address[]"},{"name":"value","type":"uint256[]","internalType":"uint256[]"},{"name":"func","type":"bytes[]","internalType":"bytes[]"}],"outputs":[],"stateMutability":"nonpayable"},{"type":"function","name":"getDeposit","inputs":[],"outputs":[{"name":"","type":"uint256","internalType":"uint256"}],"stateMutability":"view"},{"type":"function","name":"getNonce","inputs":[],"outputs":[{"name":"","type":"uint256","internalType":"uint256"}],"stateMutability":"view"},{"type":"function","name":"initialize","inputs":[{"name":"anOwner","type":"address","internalType":"address"}],"outputs":[],"stateMutability":"nonpayable"},{"type":"function","name":"onERC1155BatchReceived","inputs":[{"name":"","type":"address","internalType":"address"},{"name":"","type":"address","internalType":"address"},{"name":"","type":"uint256[]","internalType":"uint256[]"},{"name":"","type":"uint256[]","internalType":"uint256[]"},{"name":"","type":"bytes","internalType":"bytes"}],"outputs":[{"name":"","type":"bytes4","internalType":"bytes4"}],"stateMutability":"pure"},{"type":"function","name":"onERC1155Received","inputs":[{"name":"","type":"address","internalType":"address"},{"name":"","type":"address","internalType":"address"},{"name":"","type":"uint256","internalType":"uint256"},{"name":"","type":"uint256","internalType":"uint256"},{"name":"","type":"bytes","internalType":"bytes"}],"outputs":[{"name":"","type":"bytes4","internalType":"bytes4"}],"stateMutability":"pure"},{"type":"function","name":"onERC721Received","inputs":[{"name":"","type":"address","internalType":"address"},{"name":"","type":"address","internalType":"address"},{"name":"","type":"uint256","internalType":"uint256"},{"name":"","type":"bytes","internalType":"bytes"}],"outputs":[{"name":"","type":"bytes4","internalType":"bytes4"}],"stateMutability":"pure"},{"type":"function","name":"owner","inputs":[],"outputs":[{"name":"","type":"address","internalType":"address"}],"stateMutability":"view"},{"type":"function","name":"proxiableUUID","inputs":[],"outputs":[{"name":"","type":"bytes32","internalType":"bytes32"}],"stateMutability":"view"},{"type":"function","name":"supportsInterface","inputs":[{"name":"interfaceId","type":"bytes4","internalType":"bytes4"}],"outputs":[{"name":"","type":"bool","internalType":"bool"}],"stateMutability":"view"},{"type":"function","name":"upgradeToAndCall","inputs":[{"name":"newImplementation","type":"address","internalType":"address"},{"name":"data","type":"bytes","internalType":"bytes"}],"outputs":[],"stateMutability":"payable"},{"type":"function","name":"validateUserOp","inputs":[{"name":"userOp","type":"tuple","internalType":"struct PackedUserOperation","components":[{"name":"sender","type":"address","internalType":"address"},{"name":"nonce","type":"uint256","internalType":"uint256"},{"name":"initCode","type":"bytes","internalType":"bytes"},{"name":"callData","type":"bytes","internalType":"bytes"},{"name":"accountGasLimits","type":"bytes32","internalType":"bytes32"},{"name":"preVerificationGas","type":"uint256","internalType":"uint256"},{"name":"gasFees","type":"bytes32","internalType":"bytes32"},{"name":"paymasterAndData","type":"bytes","internalType":"bytes"},{"name":"signature","type":"bytes","internalType":"bytes"}]},{"name":"userOpHash","type":"bytes32","internalType":"bytes32"},{"name":"missingAccountFunds","type":"uint256","internalType":"uint256"}],"outputs":[{"name":"validationData","type":"uint256","internalType":"uint256"}],"stateMutability":"nonpayable"},{"type":"function","name":"withdrawDepositTo","inputs":[{"name":"withdrawAddress","type":"address","internalType":"address payable"},{"name":"amount","type":"uint256","internalType":"uint256"}],"outputs":[],"stateMutability":"nonpayable"},{"type":"event","name":"Initialized","inputs":[{"name":"version","type":"uint64","indexed":false,"internalType":"uint64"}],"anonymous":false},{"type":"event","name":"SimpleAccountInitialized","inputs":[{"name":"entryPoint","type":"address","indexed":true,"internalType":"contract IEntryPoint"},{"name":"owner","type":"address","indexed":true,"internalType":"address"}],"anonymous":false},{"type":"event","name":"Upgraded","inputs":[{"name":"implementation","type":"address","indexed":true,"internalType":"address"}],"anonymous":false},{"type":"error","name":"AddressEmptyCode","inputs":[{"name":"target","type":"address","internalType":"address"}]},{"type":"error","name":"ECDSAInvalidSignature","inputs":[]},{"type":"error","name":"ECDSAInvalidSignatureLength","inputs":[{"name":"length","type":"uint256","internalType":"uint256"}]},{"type":"error","name":"ECDSAInvalidSignatureS","inputs":[{"name":"s","type":"bytes32","internalType":"bytes32"}]},{"type":"error","name":"ERC1967InvalidImplementation","inputs":[{"name":"implementation","type":"address","internalType":"address"}]},{"type":"error","name":"ERC1967NonPayable","inputs":[]},{"type":"error","name":"FailedCall","inputs":[]},{"type":"error","name":"InvalidInitialization","inputs":[]},{"type":"error","name":"NotInitializing","inputs":[]},{"type":"error","name":"UUPSUnauthorizedCallContext","inputs":[]},{"type":"error","name":"UUPSUnsupportedProxiableUUID","inputs":[{"name":"slot","type":"bytes32","internalType":"bytes32"}]}],"bytecode":{"object":"0x60c06040523060805234801561001457600080fd5b5060405161197738038061197783398101604081905261003391610100565b6001600160a01b03811660a05261004861004e565b50610130565b7ff0c57e16840df040f15088dc2f81fe391c3923bec73e23a9662efc9c229c6a00805468010000000000000000900460ff161561009e5760405163f92ee8a960e01b815260040160405180910390fd5b80546001600160401b03908116146100fd5780546001600160401b0319166001600160401b0390811782556040519081527fc7f505b2f371ae2175ee4913f4499e1f2633a7b5936321eed1cdaeb6115181d29060200160405180910390a15b50565b60006020828403121561011257600080fd5b81516001600160a01b038116811461012957600080fd5b9392505050565b60805160a0516117e3610194600039600081816102ad015281816105940152818161061c01528181610746015281816108eb0152818161092501528181610a930152610db3015260008181610be101528181610c0a0152610d5001526117e36000f3fe6080604052600436106101025760003560e01c80638da5cb5b11610095578063bc197c8111610064578063bc197c81146102f1578063c399ec8814610320578063c4d66de814610335578063d087d28814610355578063f23a6e611461036a57600080fd5b80638da5cb5b14610228578063ad3cb1cc14610260578063b0d691fe1461029e578063b61d27f6146102d157600080fd5b80634a58db19116100d15780634a58db19146101d85780634d44560d146101e05780634f1ef2861461020057806352d1902d1461021357600080fd5b806301ffc9a71461010e578063150b7a021461014357806319822f7c1461018857806347e1da2a146101b657600080fd5b3661010957005b600080fd5b34801561011a57600080fd5b5061012e6101293660046111d1565b610397565b60405190151581526020015b60405180910390f35b34801561014f57600080fd5b5061016f61015e366004611258565b630a85bd0160e11b95945050505050565b6040516001600160e01b0319909116815260200161013a565b34801561019457600080fd5b506101a86101a33660046112ca565b6103e9565b60405190815260200161013a565b3480156101c257600080fd5b506101d66101d1366004611361565b61040f565b005b6101d6610592565b3480156101ec57600080fd5b506101d66101fb366004611404565b610612565b6101d661020e366004611446565b61069b565b34801561021f57600080fd5b506101a86106ba565b34801561023457600080fd5b50600054610248906001600160a01b031681565b6040516001600160a01b03909116815260200161013a565b34801561026c57600080fd5b50610291604051806040016040528060058152602001640352e302e360dc1b81525081565b60405161013a9190611533565b3480156102aa57600080fd5b507f0000000000000000000000000000000000000000000000000000000000000000610248565b3480156102dd57600080fd5b506101d66102ec366004611566565b6106d7565b3480156102fd57600080fd5b5061016f61030c3660046115c1565b63bc197c8160e01b98975050505050505050565b34801561032c57600080fd5b506101a8610726565b34801561034157600080fd5b506101d6610350366004611689565b6107b7565b34801561036157600080fd5b506101a86108c4565b34801561037657600080fd5b5061016f6103853660046116a6565b63f23a6e6160e01b9695505050505050565b60006001600160e01b03198216630a85bd0160e11b14806103c857506001600160e01b03198216630271189760e51b145b806103e357506001600160e01b031982166301ffc9a760e01b145b92915050565b60006103f361091a565b6103fd8484610994565b905061040882610a3b565b9392505050565b610417610a88565b848114801561042d575082158061042d57508281145b6104745760405162461bcd60e51b815260206004820152601360248201527277726f6e67206172726179206c656e6774687360681b60448201526064015b60405180910390fd5b60008390036105205760005b8581101561051a5761051287878381811061049d5761049d61170f565b90506020020160208101906104b29190611689565b60008585858181106104c6576104c661170f565b90506020028101906104d89190611725565b8080601f016020809104026020016040519081016040528093929190818152602001838380828437600092019190915250610b1592505050565b600101610480565b5061058a565b60005b85811015610588576105808787838181106105405761054061170f565b90506020020160208101906105559190611689565b8686848181106105675761056761170f565b905060200201358585858181106104c6576104c661170f565b600101610523565b505b505050505050565b7f000000000000000000000000000000000000000000000000000000000000000060405163b760faf960e01b81523060048201526001600160a01b03919091169063b760faf99034906024016000604051808303818588803b1580156105f757600080fd5b505af115801561060b573d6000803e3d6000fd5b5050505050565b61061a610b85565b7f000000000000000000000000000000000000000000000000000000000000000060405163040b850f60e31b81526001600160a01b03848116600483015260248201849052919091169063205c287890604401600060405180830381600087803b15801561068757600080fd5b505af115801561058a573d6000803e3d6000fd5b6106a3610bd6565b6106ac82610c7b565b6106b68282610c83565b5050565b60006106c4610d45565b506000805160206117b783398151915290565b6106df610a88565b610720848484848080601f016020809104026020016040519081016040528093929190818152602001838380828437600092019190915250610b1592505050565b50505050565b6040516370a0823160e01b81523060048201526000906001600160a01b037f000000000000000000000000000000000000000000000000000000000000000016906370a08231906024015b602060405180830381865afa15801561078e573d6000803e3d6000fd5b505050506040513d601f19601f820116820180604052508101906107b2919061176b565b905090565b7ff0c57e16840df040f15088dc2f81fe391c3923bec73e23a9662efc9c229c6a008054600160401b810460ff1615906001600160401b03166000811580156107fc5750825b90506000826001600160401b031660011480156108185750303b155b905081158015610826575080155b156108445760405163f92ee8a960e01b815260040160405180910390fd5b845467ffffffffffffffff19166001178555831561086e57845460ff60401b1916600160401b1785555b61087786610d8e565b831561058a57845460ff60401b19168555604051600181527fc7f505b2f371ae2175ee4913f4499e1f2633a7b5936321eed1cdaeb6115181d29060200160405180910390a1505050505050565b604051631aab3f0d60e11b8152306004820152600060248201819052906001600160a01b037f000000000000000000000000000000000000000000000000000000000000000016906335567e1a90604401610771565b336001600160a01b037f000000000000000000000000000000000000000000000000000000000000000016146109925760405162461bcd60e51b815260206004820152601c60248201527f6163636f756e743a206e6f742066726f6d20456e747279506f696e7400000000604482015260640161046b565b565b7f19457468657265756d205369676e6564204d6573736167653a0a3332000000006000908152601c829052603c8120610a0f816109d5610100870187611725565b8080601f016020809104026020016040519081016040528093929190818152602001838380828437600092019190915250610dfd92505050565b6000546001600160a01b03908116911614610a2e5760019150506103e3565b5060009392505050565b50565b8015610a3857604051600090339060001990849084818181858888f193505050503d806000811461060b576040519150601f19603f3d011682016040523d82523d6000602084013e61060b565b336001600160a01b037f0000000000000000000000000000000000000000000000000000000000000000161480610ac957506000546001600160a01b031633145b6109925760405162461bcd60e51b815260206004820181905260248201527f6163636f756e743a206e6f74204f776e6572206f7220456e747279506f696e74604482015260640161046b565b600080846001600160a01b03168484604051610b319190611784565b60006040518083038185875af1925050503d8060008114610b6e576040519150601f19603f3d011682016040523d82523d6000602084013e610b73565b606091505b50915091508161060b57805160208201fd5b6000546001600160a01b0316331480610b9d57503330145b6109925760405162461bcd60e51b815260206004820152600a60248201526937b7363c9037bbb732b960b11b604482015260640161046b565b306001600160a01b037f0000000000000000000000000000000000000000000000000000000000000000161480610c5d57507f00000000000000000000000000000000000000000000000000000000000000006001600160a01b0316610c516000805160206117b7833981519152546001600160a01b031690565b6001600160a01b031614155b156109925760405163703e46dd60e11b815260040160405180910390fd5b610a38610b85565b816001600160a01b03166352d1902d6040518163ffffffff1660e01b8152600401602060405180830381865afa925050508015610cdd575060408051601f3d908101601f19168201909252610cda9181019061176b565b60015b610d0557604051634c9c8ce360e01b81526001600160a01b038316600482015260240161046b565b6000805160206117b78339815191528114610d3657604051632a87526960e21b81526004810182905260240161046b565b610d408383610e27565b505050565b306001600160a01b037f000000000000000000000000000000000000000000000000000000000000000016146109925760405163703e46dd60e11b815260040160405180910390fd5b600080546001600160a01b0319166001600160a01b03838116918217835560405191927f0000000000000000000000000000000000000000000000000000000000000000909116917f47e55c76e7a6f1fd8996a1da8008c1ea29699cca35e7bcd057f2dec313b6e5de9190a350565b600080600080610e0d8686610e7d565b925092509250610e1d8282610eca565b5090949350505050565b610e3082610f83565b6040516001600160a01b038316907fbc7cd75a20ee27fd9adebab32041f755214dbc6bffa90cc0225b39da2e5c2d3b90600090a2805115610e7557610d408282610fe8565b6106b661105e565b60008060008351604103610eb75760208401516040850151606086015160001a610ea98882858561107d565b955095509550505050610ec3565b50508151600091506002905b9250925092565b6000826003811115610ede57610ede6117a0565b03610ee7575050565b6001826003811115610efb57610efb6117a0565b03610f195760405163f645eedf60e01b815260040160405180910390fd5b6002826003811115610f2d57610f2d6117a0565b03610f4e5760405163fce698f760e01b81526004810182905260240161046b565b6003826003811115610f6257610f626117a0565b036106b6576040516335e2f38360e21b81526004810182905260240161046b565b806001600160a01b03163b600003610fb957604051634c9c8ce360e01b81526001600160a01b038216600482015260240161046b565b6000805160206117b783398151915280546001600160a01b0319166001600160a01b0392909216919091179055565b6060600080846001600160a01b0316846040516110059190611784565b600060405180830381855af49150503d8060008114611040576040519150601f19603f3d011682016040523d82523d6000602084013e611045565b606091505b509150915061105585838361114c565b95945050505050565b34156109925760405163b398979f60e01b815260040160405180910390fd5b600080807f7fffffffffffffffffffffffffffffff5d576e7357a4501ddfe92f46681b20a08411156110b85750600091506003905082611142565b604080516000808252602082018084528a905260ff891692820192909252606081018790526080810186905260019060a0016020604051602081039080840390855afa15801561110c573d6000803e3d6000fd5b5050604051601f1901519150506001600160a01b03811661113857506000925060019150829050611142565b9250600091508190505b9450945094915050565b6060826111615761115c826111a8565b610408565b815115801561117857506001600160a01b0384163b155b156111a157604051639996b31560e01b81526001600160a01b038516600482015260240161046b565b5080610408565b8051156111b85780518082602001fd5b60405163d6bda27560e01b815260040160405180910390fd5b6000602082840312156111e357600080fd5b81356001600160e01b03198116811461040857600080fd5b6001600160a01b0381168114610a3857600080fd5b60008083601f84011261122257600080fd5b5081356001600160401b0381111561123957600080fd5b60208301915083602082850101111561125157600080fd5b9250929050565b60008060008060006080868803121561127057600080fd5b853561127b816111fb565b9450602086013561128b816111fb565b93506040860135925060608601356001600160401b038111156112ad57600080fd5b6112b988828901611210565b969995985093965092949392505050565b6000806000606084860312156112df57600080fd5b83356001600160401b038111156112f557600080fd5b8401610120818703121561130857600080fd5b95602085013595506040909401359392505050565b60008083601f84011261132f57600080fd5b5081356001600160401b0381111561134657600080fd5b6020830191508360208260051b850101111561125157600080fd5b6000806000806000806060878903121561137a57600080fd5b86356001600160401b0381111561139057600080fd5b61139c89828a0161131d565b90975095505060208701356001600160401b038111156113bb57600080fd5b6113c789828a0161131d565b90955093505060408701356001600160401b038111156113e657600080fd5b6113f289828a0161131d565b979a9699509497509295939492505050565b6000806040838503121561141757600080fd5b8235611422816111fb565b946020939093013593505050565b634e487b7160e01b600052604160045260246000fd5b6000806040838503121561145957600080fd5b8235611464816111fb565b915060208301356001600160401b0381111561147f57600080fd5b8301601f8101851361149057600080fd5b80356001600160401b038111156114a9576114a9611430565b604051601f8201601f19908116603f011681016001600160401b03811182821017156114d7576114d7611430565b6040528181528282016020018710156114ef57600080fd5b816020840160208301376000602083830101528093505050509250929050565b60005b8381101561152a578181015183820152602001611512565b50506000910152565b602081526000825180602084015261155281604085016020870161150f565b601f01601f19169190910160400192915050565b6000806000806060858703121561157c57600080fd5b8435611587816111fb565b93506020850135925060408501356001600160401b038111156115a957600080fd5b6115b587828801611210565b95989497509550505050565b60008060008060008060008060a0898b0312156115dd57600080fd5b88356115e8816111fb565b975060208901356115f8816111fb565b965060408901356001600160401b0381111561161357600080fd5b61161f8b828c0161131d565b90975095505060608901356001600160401b0381111561163e57600080fd5b61164a8b828c0161131d565b90955093505060808901356001600160401b0381111561166957600080fd5b6116758b828c01611210565b999c989b5096995094979396929594505050565b60006020828403121561169b57600080fd5b8135610408816111fb565b60008060008060008060a087890312156116bf57600080fd5b86356116ca816111fb565b955060208701356116da816111fb565b9450604087013593506060870135925060808701356001600160401b0381111561170357600080fd5b6113f289828a01611210565b634e487b7160e01b600052603260045260246000fd5b6000808335601e1984360301811261173c57600080fd5b8301803591506001600160401b0382111561175657600080fd5b60200191503681900382131561125157600080fd5b60006020828403121561177d57600080fd5b5051919050565b6000825161179681846020870161150f565b9190910192915050565b634e487b7160e01b600052602160045260246000fdfe360894a13ba1a3210667c828492db98dca3e2076cc3735a920a3ca505d382bbca164736f6c634300081a000a","linkReferences":{}},"methodIdentifiers":{"UPGRADE_INTERFACE_VERSION()":"ad3cb1cc","addDeposit()":"4a58db19","entryPoint()":"b0d691fe","execute(address,uint256,bytes)":"b61d27f6","executeBatch(address[],uint256[],bytes[])":"47e1da2a","getDeposit()":"c399ec88","getNonce()":"d087d288","initialize(address)":"c4d66de8","onERC1155BatchReceived(address,address,uint256[],uint256[],bytes)":"bc197c81","onERC1155Received(address,address,uint256,uint256,bytes)":"f23a6e61","onERC721Received(address,address,uint256,bytes)":"150b7a02","owner()":"8da5cb5b","proxiableUUID()":"52d1902d","supportsInterface(bytes4)":"01ffc9a7","upgradeToAndCall(address,bytes)":"4f1ef286","validateUserOp((address,uint256,bytes,bytes,bytes32,uint256,bytes32,bytes,bytes),bytes32,uint256)":"19822f7c","withdrawDepositTo(address,uint256)":"4d44560d"},"id":15}