{"abi":[{"type":"function","name":"directCall","inputs":[],"outputs":[{"name":"","type":"bytes","internalType":"bytes"}],"stateMutability":"nonpayable"},{"type":"function","name":"getData","inputs":[],"outputs":[{"name":"","type":"bytes","internalType":"bytes"}],"stateMutability":"pure"},{"type":"function","name":"moduleId","inputs":[],"outputs":[{"name":"","type":"string","internalType":"string"}],"stateMutability":"pure"},{"type":"function","name":"onInstall","inputs":[{"name":"","type":"bytes","internalType":"bytes"}],"outputs":[],"stateMutability":"nonpayable"},{"type":"function","name":"onUninstall","inputs":[{"name":"","type":"bytes","internalType":"bytes"}],"outputs":[],"stateMutability":"nonpayable"},{"type":"function","name":"postExecutionHook","inputs":[{"name":"","type":"uint32","internalType":"uint32"},{"name":"preExecHookData","type":"bytes","internalType":"bytes"}],"outputs":[],"stateMutability":"nonpayable"},{"type":"function","name":"postHookRan","inputs":[],"outputs":[{"name":"","type":"bool","internalType":"bool"}],"stateMutability":"view"},{"type":"function","name":"preExecutionHook","inputs":[{"name":"","type":"uint32","internalType":"uint32"},{"name":"sender","type":"address","internalType":"address"},{"name":"","type":"uint256","internalType":"uint256"},{"name":"","type":"bytes","internalType":"bytes"}],"outputs":[{"name":"","type":"bytes","internalType":"bytes"}],"stateMutability":"nonpayable"},{"type":"function","name":"preHookRan","inputs":[],"outputs":[{"name":"","type":"bool","internalType":"bool"}],"stateMutability":"view"},{"type":"function","name":"supportsInterface","inputs":[{"name":"interfaceId","type":"bytes4","internalType":"bytes4"}],"outputs":[{"name":"","type":"bool","internalType":"bool"}],"stateMutability":"view"},{"type":"error","name":"NotImplemented","inputs":[]}],"bytecode":{"object":"0x60806040526000805461ffff19169055348015601a57600080fd5b506107108061002a6000396000f3fe608060405234801561001057600080fd5b506004361061009e5760003560e01c806386fc87ee1161006657806386fc87ee146101275780638a91b0e314610115578063a1308f271461012f578063ea6c114a14610168578063ed6dfb131461017a57600080fd5b806301ffc9a7146100a3578063104a5b68146100cb5780633bc5de30146100d85780635d413a81146101005780636d61fe7014610115575b600080fd5b6100b66100b13660046103f0565b61018d565b60405190151581526020015b60405180910390f35b6000546100b69060ff1681565b60408051808201909152600381526204546b60e81b60208201525b6040516100c29190610471565b61011361010e3660046104e6565b6101b8565b005b610113610123366004610539565b5050565b6100f361025f565b6040805180820190915260208082527f657263363930302e6469726563742d63616c6c2d6d6f64756c652e312e302e30908201526100f3565b6000546100b690610100900460ff1681565b6100f361018836600461057b565b6102fc565b60006001600160e01b0319821663581660c960e11b14806101b257506101b2826103bb565b92915050565b7f294ca736304d69a3903a2a35dbe3b48520114790aa614a95a5291731d4bdaab56101e5828401846105f8565b1461024b5760405162461bcd60e51b815260206004820152602b60248201527f6d6f636b206469726563742063616c6c20706f737420657865637574696f6e2060448201526a1a1bdbdac819985a5b195960aa1b60648201526084015b60405180910390fd5b50506000805461ff00191661010017905550565b6040805160048082526024820183526020820180516001600160e01b03166303bc5de360e41b1790529151635b0e93fb60e11b8152606092339263b61d27f6926102b0923092600092909101610611565b6000604051808303816000875af11580156102cf573d6000803e3d6000fd5b505050506040513d6000823e601f3d908101601f191682016040526102f79190810190610657565b905090565b60606001600160a01b03851630146103695760405162461bcd60e51b815260206004820152602a60248201527f6d6f636b206469726563742063616c6c2070726520657865637574696f6e20686044820152691bdbdac819985a5b195960b21b6064820152608401610242565b6000805460ff19166001179055604080517f294ca736304d69a3903a2a35dbe3b48520114790aa614a95a5291731d4bdaab5602082015201604051602081830303815290604052905095945050505050565b60006001600160e01b031982166311b0306d60e21b14806101b257506301ffc9a760e01b6001600160e01b03198316146101b2565b60006020828403121561040257600080fd5b81356001600160e01b03198116811461041a57600080fd5b9392505050565b60005b8381101561043c578181015183820152602001610424565b50506000910152565b6000815180845261045d816020860160208601610421565b601f01601f19169290920160200192915050565b60208152600061041a6020830184610445565b803563ffffffff8116811461049857600080fd5b919050565b60008083601f8401126104af57600080fd5b50813567ffffffffffffffff8111156104c757600080fd5b6020830191508360208285010111156104df57600080fd5b9250929050565b6000806000604084860312156104fb57600080fd5b61050484610484565b9250602084013567ffffffffffffffff81111561052057600080fd5b61052c8682870161049d565b9497909650939450505050565b6000806020838503121561054c57600080fd5b823567ffffffffffffffff81111561056357600080fd5b61056f8582860161049d565b90969095509350505050565b60008060008060006080868803121561059357600080fd5b61059c86610484565b945060208601356001600160a01b03811681146105b857600080fd5b935060408601359250606086013567ffffffffffffffff8111156105db57600080fd5b6105e78882890161049d565b969995985093965092949392505050565b60006020828403121561060a57600080fd5b5035919050565b60018060a01b03841681528260208201526060604082015260006106386060830184610445565b95945050505050565b634e487b7160e01b600052604160045260246000fd5b60006020828403121561066957600080fd5b815167ffffffffffffffff81111561068057600080fd5b8201601f8101841361069157600080fd5b805167ffffffffffffffff8111156106ab576106ab610641565b604051601f8201601f19908116603f0116810167ffffffffffffffff811182821017156106da576106da610641565b6040528181528282016020018610156106f257600080fd5b61063882602083016020860161042156fea164736f6c634300081a000a","linkReferences":{}},"methodIdentifiers":{"directCall()":"86fc87ee","getData()":"3bc5de30","moduleId()":"a1308f27","onInstall(bytes)":"6d61fe70","onUninstall(bytes)":"8a91b0e3","postExecutionHook(uint32,bytes)":"5d413a81","postHookRan()":"ea6c114a","preExecutionHook(uint32,address,uint256,bytes)":"ed6dfb13","preHookRan()":"104a5b68","supportsInterface(bytes4)":"01ffc9a7"},"id":159}