{"abi":[{"type":"function","name":"bar","inputs":[],"outputs":[{"name":"","type":"bytes32","internalType":"bytes32"}],"stateMutability":"pure"},{"type":"function","name":"executionManifest","inputs":[],"outputs":[{"name":"","type":"tuple","internalType":"struct ExecutionManifest","components":[{"name":"executionFunctions","type":"tuple[]","internalType":"struct ManifestExecutionFunction[]","components":[{"name":"executionSelector","type":"bytes4","internalType":"bytes4"},{"name":"skipRuntimeValidation","type":"bool","internalType":"bool"},{"name":"allowGlobalValidation","type":"bool","internalType":"bool"}]},{"name":"executionHooks","type":"tuple[]","internalType":"struct ManifestExecutionHook[]","components":[{"name":"executionSelector","type":"bytes4","internalType":"bytes4"},{"name":"entityId","type":"uint32","internalType":"uint32"},{"name":"isPreHook","type":"bool","internalType":"bool"},{"name":"isPostHook","type":"bool","internalType":"bool"}]},{"name":"interfaceIds","type":"bytes4[]","internalType":"bytes4[]"}]}],"stateMutability":"pure"},{"type":"function","name":"foo","inputs":[],"outputs":[{"name":"","type":"bytes32","internalType":"bytes32"}],"stateMutability":"pure"},{"type":"function","name":"moduleId","inputs":[],"outputs":[{"name":"","type":"string","internalType":"string"}],"stateMutability":"pure"},{"type":"function","name":"onInstall","inputs":[{"name":"","type":"bytes","internalType":"bytes"}],"outputs":[],"stateMutability":"nonpayable"},{"type":"function","name":"onUninstall","inputs":[{"name":"","type":"bytes","internalType":"bytes"}],"outputs":[],"stateMutability":"nonpayable"},{"type":"function","name":"supportsInterface","inputs":[{"name":"interfaceId","type":"bytes4","internalType":"bytes4"}],"outputs":[{"name":"","type":"bool","internalType":"bool"}],"stateMutability":"view"},{"type":"error","name":"NotImplemented","inputs":[]}],"bytecode":{"object":"0x6080604052348015600f57600080fd5b5061054a8061001f6000396000f3fe608060405234801561001057600080fd5b506004361061007d5760003560e01c8063a1308f271161005b578063a1308f27146100be578063ae5628c6146100d3578063c2985578146100e8578063febb0f7e1461011857600080fd5b806301ffc9a7146100825780636d61fe70146100aa5780638a91b0e3146100aa575b600080fd5b6100956100903660046102af565b61013e565b60405190151581526020015b60405180910390f35b6100bc6100b83660046102e0565b5050565b005b6100c6610175565b6040516100a19190610354565b6100db610195565b6040516100a19190610451565b7f435cd288e3694b535549c3af56ad805c149f92961bf84a1c647f7d86fc2431b45b6040519081526020016100a1565b7f41b1a0649752af1b28b3dc29a1556eee781e4a4c3a1f7f53f90fa834de098c4d61010a565b60006001600160e01b031982166311b0306d60e21b148061016f57506301ffc9a760e01b6001600160e01b03198316145b92915050565b606060405180606001604052806023815260200161051b60239139905090565b6101b960405180606001604052806060815260200160608152602001606081525090565b6101dd60405180606001604052806060815260200160608152602001606081525090565b6040805160028082526060820190925290816020015b60408051606081018252600080825260208083018290529282015282526000199092019101816101f35750508152604080516060810182526318530aaf60e31b8152600160208201526000918101829052825180519192909161025857610258610504565b60209081029190910181019190915260408051606081018252637f5d87bf60e11b815260009281018390529081019190915281518051600190811061029f5761029f610504565b6020908102919091010152919050565b6000602082840312156102c157600080fd5b81356001600160e01b0319811681146102d957600080fd5b9392505050565b600080602083850312156102f357600080fd5b823567ffffffffffffffff81111561030a57600080fd5b8301601f8101851361031b57600080fd5b803567ffffffffffffffff81111561033257600080fd5b85602082840101111561034457600080fd5b6020919091019590945092505050565b602081526000825180602084015260005b818110156103825760208186018101516040868401015201610365565b506000604082850101526040601f19601f83011684010191505092915050565b600081518084526020840193506020830160005b8281101561040b57815180516001600160e01b031916875260208082015163ffffffff1681890152604080830151151590890152606091820151151591880191909152608090960195909101906001016103b6565b5093949350505050565b600081518084526020840193506020830160005b8281101561040b5781516001600160e01b031916865260209586019590910190600101610429565b602080825282516060838301528051608084018190526000929190910190829060a08501905b808310156104be57835163ffffffff60e01b815116835260208101511515602084015260408101511515604084015250606082019150602084019350600183019250610477565b506020860151858203601f1901604087015292506104dc81846103a2565b925050506040840151601f198483030160608501526104fb8282610415565b95945050505050565b634e487b7160e01b600052603260045260246000fdfe657263363930302e726573756c742d63726561746f722d6d6f64756c652e312e302e30a164736f6c634300081a000a","linkReferences":{}},"methodIdentifiers":{"bar()":"febb0f7e","executionManifest()":"ae5628c6","foo()":"c2985578","moduleId()":"a1308f27","onInstall(bytes)":"6d61fe70","onUninstall(bytes)":"8a91b0e3","supportsInterface(bytes4)":"01ffc9a7"},"id":162}