{"abi":[{"type":"constructor","inputs":[{"name":"_resultCreator","type":"address","internalType":"contract ResultCreatorModule"},{"name":"_regularResultContract","type":"address","internalType":"contract RegularResultContract"}],"stateMutability":"nonpayable"},{"type":"function","name":"GLOBAL_VALIDATION","inputs":[],"outputs":[{"name":"","type":"uint8","internalType":"uint8"}],"stateMutability":"view"},{"type":"function","name":"REGULAR_RESULT_CONTRACT","inputs":[],"outputs":[{"name":"","type":"address","internalType":"contract RegularResultContract"}],"stateMutability":"view"},{"type":"function","name":"RESULT_CREATOR","inputs":[],"outputs":[{"name":"","type":"address","internalType":"contract ResultCreatorModule"}],"stateMutability":"view"},{"type":"function","name":"SELECTOR_ASSOCIATED_VALIDATION","inputs":[],"outputs":[{"name":"","type":"uint8","internalType":"uint8"}],"stateMutability":"view"},{"type":"function","name":"checkResultExecuteWithRuntimeValidation","inputs":[{"name":"target","type":"address","internalType":"address"},{"name":"expected","type":"bytes32","internalType":"bytes32"}],"outputs":[{"name":"","type":"bool","internalType":"bool"}],"stateMutability":"nonpayable"},{"type":"function","name":"checkResultFallback","inputs":[{"name":"expected","type":"bytes32","internalType":"bytes32"}],"outputs":[{"name":"","type":"bool","internalType":"bool"}],"stateMutability":"view"},{"type":"function","name":"executionManifest","inputs":[],"outputs":[{"name":"","type":"tuple","internalType":"struct ExecutionManifest","components":[{"name":"executionFunctions","type":"tuple[]","internalType":"struct ManifestExecutionFunction[]","components":[{"name":"executionSelector","type":"bytes4","internalType":"bytes4"},{"name":"skipRuntimeValidation","type":"bool","internalType":"bool"},{"name":"allowGlobalValidation","type":"bool","internalType":"bool"}]},{"name":"executionHooks","type":"tuple[]","internalType":"struct ManifestExecutionHook[]","components":[{"name":"executionSelector","type":"bytes4","internalType":"bytes4"},{"name":"entityId","type":"uint32","internalType":"uint32"},{"name":"isPreHook","type":"bool","internalType":"bool"},{"name":"isPostHook","type":"bool","internalType":"bool"}]},{"name":"interfaceIds","type":"bytes4[]","internalType":"bytes4[]"}]}],"stateMutability":"pure"},{"type":"function","name":"moduleId","inputs":[],"outputs":[{"name":"","type":"string","internalType":"string"}],"stateMutability":"pure"},{"type":"function","name":"onInstall","inputs":[{"name":"","type":"bytes","internalType":"bytes"}],"outputs":[],"stateMutability":"nonpayable"},{"type":"function","name":"onUninstall","inputs":[{"name":"","type":"bytes","internalType":"bytes"}],"outputs":[],"stateMutability":"nonpayable"},{"type":"function","name":"supportsInterface","inputs":[{"name":"interfaceId","type":"bytes4","internalType":"bytes4"}],"outputs":[{"name":"","type":"bool","internalType":"bool"}],"stateMutability":"view"},{"type":"function","name":"validateRuntime","inputs":[{"name":"","type":"address","internalType":"address"},{"name":"","type":"uint32","internalType":"uint32"},{"name":"sender","type":"address","internalType":"address"},{"name":"","type":"uint256","internalType":"uint256"},{"name":"","type":"bytes","internalType":"bytes"},{"name":"","type":"bytes","internalType":"bytes"}],"outputs":[],"stateMutability":"view"},{"type":"function","name":"validateSignature","inputs":[{"name":"","type":"address","internalType":"address"},{"name":"","type":"uint32","internalType":"uint32"},{"name":"","type":"address","internalType":"address"},{"name":"","type":"bytes32","internalType":"bytes32"},{"name":"","type":"bytes","internalType":"bytes"}],"outputs":[{"name":"","type":"bytes4","internalType":"bytes4"}],"stateMutability":"pure"},{"type":"function","name":"validateUserOp","inputs":[{"name":"","type":"uint32","internalType":"uint32"},{"name":"","type":"tuple","internalType":"struct PackedUserOperation","components":[{"name":"sender","type":"address","internalType":"address"},{"name":"nonce","type":"uint256","internalType":"uint256"},{"name":"initCode","type":"bytes","internalType":"bytes"},{"name":"callData","type":"bytes","internalType":"bytes"},{"name":"accountGasLimits","type":"bytes32","internalType":"bytes32"},{"name":"preVerificationGas","type":"uint256","internalType":"uint256"},{"name":"gasFees","type":"bytes32","internalType":"bytes32"},{"name":"paymasterAndData","type":"bytes","internalType":"bytes"},{"name":"signature","type":"bytes","internalType":"bytes"}]},{"name":"","type":"bytes32","internalType":"bytes32"}],"outputs":[{"name":"","type":"uint256","internalType":"uint256"}],"stateMutability":"pure"},{"type":"error","name":"NotAuthorized","inputs":[]},{"type":"error","name":"NotImplemented","inputs":[]}],"bytecode":{"object":"0x60c060405234801561001057600080fd5b50604051610f12380380610f1283398101604081905261002f9161005e565b6001600160a01b039182166080521660a052610098565b6001600160a01b038116811461005b57600080fd5b50565b6000806040838503121561007157600080fd5b825161007c81610046565b602084015190925061008d81610046565b809150509250929050565b60805160a051610e556100bd60003960006101bd0152600061013d0152610e556000f3fe608060405234801561001057600080fd5b50600436106100ea5760003560e01c80638d91d0981161008c578063ae5628c611610066578063ae5628c614610207578063e52df4511461021c578063e7db7f7e14610224578063ff8989b81461024b57600080fd5b80638d91d098146101b8578063a1308f27146101df578063a48d74b3146101f457600080fd5b8063465d33e0116100c8578063465d33e0146101775780636d61fe701461018c57806374636f5a1461019e5780638a91b0e31461018c57600080fd5b806301ffc9a7146100ef5780630ab8785f14610117578063299c823c14610138575b600080fd5b6101026100fd3660046107c7565b61025e565b60405190151581526020015b60405180910390f35b61012a610125366004610811565b610295565b60405190815260200161010e565b61015f7f000000000000000000000000000000000000000000000000000000000000000081565b6040516001600160a01b03909116815260200161010e565b61018a6101853660046108cf565b6102b0565b005b61018a61019a36600461097f565b5050565b6101a6600081565b60405160ff909116815260200161010e565b61015f7f000000000000000000000000000000000000000000000000000000000000000081565b6101e76102e3565b60405161010e9190610a11565b610102610202366004610a24565b610303565b61020f610372565b60405161010e9190610aec565b6101a6600181565b610232610125366004610b96565b6040516001600160e01b0319909116815260200161010e565b610102610259366004610c15565b610499565b60006001600160e01b031982166311b0306d60e21b148061028f57506301ffc9a760e01b6001600160e01b03198316145b92915050565b600060405163d623472560e01b815260040160405180910390fd5b6001600160a01b03861630146102d95760405163ea8e4eb560e01b815260040160405180910390fd5b5050505050505050565b6060604051806060016040528060248152602001610e2560249139905090565b600080336001600160a01b031663c29855786040518163ffffffff1660e01b8152600401602060405180830381865afa158015610344573d6000803e3d6000fd5b505050506040513d601f19601f820116820180604052508101906103689190610c3f565b9290921492915050565b61039660405180606001604052806060815260200160608152602001606081525090565b6103ba60405180606001604052806060815260200160608152602001606081525090565b6040805160028082526060820190925290816020015b60408051606081018252600080825260208083018290529282015282526000199092019101816103d057505081526040805160608101825263a48d74b360e01b8152600160208201526000918101829052825180519192909161043557610435610c6e565b6020026020010181905250604051806060016040528063ff8989b860e01b6001600160e01b031916815260200160011515815260200160001515815250816000015160018151811061048957610489610c6e565b6020908102919091010152919050565b6040805160048152602480820183526020820180516001600160e01b03166318530aaf60e31b17905291516000928392339263f2680c0f926104df928992879201610c84565b60408051601f198184030181529190526020810180516001600160e01b0316635b0e93fb60e11b1790526105446bffffffff00000000000000003060601b6bffffffffffffffffffffffff1916176000604051806020016040528060008152506105de565b6040518363ffffffff1660e01b8152600401610561929190610cab565b6000604051808303816000875af1158015610580573d6000803e3d6000fd5b505050506040513d6000823e601f3d908101601f191682016040526105a89190810190610cd0565b90506000818060200190518101906105c09190610cd0565b8060200190518101906105d39190610c3f565b909314949350505050565b604080516000808252602082019092526060919081610620565b6040805180820190915260008152606060208201528152602001906001900390816105f85790505b50905061062f85858386610638565b95945050505050565b6040805167ffffffffffffffff198616602082015260f885901b6001600160f81b031916603882015281516019818303018152603990910190915260609080610680856106d7565b604051602001610691929190610d7c565b6040516020818303038152906040529050806106ac8461076c565b6040516020016106bd929190610d7c565b60408051808303601f190181529190529695505050505050565b60408051602081019091526000808252606091905b8351811015610765578161073a85838151811061070b5761070b610c6e565b60200260200101516000015186848151811061072957610729610c6e565b602002602001015160200151610798565b60405160200161074b929190610d7c565b60408051601f1981840301815291905291506001016106ec565b5092915050565b606060ff82604051602001610782929190610dab565b6040516020818303038152906040529050919050565b6060828251836040516020016107b093929190610dda565b604051602081830303815290604052905092915050565b6000602082840312156107d957600080fd5b81356001600160e01b0319811681146107f157600080fd5b9392505050565b803563ffffffff8116811461080c57600080fd5b919050565b60008060006060848603121561082657600080fd5b61082f846107f8565b9250602084013567ffffffffffffffff81111561084b57600080fd5b8401610120818703121561085e57600080fd5b929592945050506040919091013590565b80356001600160a01b038116811461080c57600080fd5b60008083601f84011261089857600080fd5b50813567ffffffffffffffff8111156108b057600080fd5b6020830191508360208285010111156108c857600080fd5b9250929050565b60008060008060008060008060c0898b0312156108eb57600080fd5b6108f48961086f565b975061090260208a016107f8565b965061091060408a0161086f565b955060608901359450608089013567ffffffffffffffff81111561093357600080fd5b61093f8b828c01610886565b90955093505060a089013567ffffffffffffffff81111561095f57600080fd5b61096b8b828c01610886565b999c989b5096995094979396929594505050565b6000806020838503121561099257600080fd5b823567ffffffffffffffff8111156109a957600080fd5b6109b585828601610886565b90969095509350505050565b60005b838110156109dc5781810151838201526020016109c4565b50506000910152565b600081518084526109fd8160208601602086016109c1565b601f01601f19169290920160200192915050565b6020815260006107f160208301846109e5565b600060208284031215610a3657600080fd5b5035919050565b600081518084526020840193506020830160005b82811015610aa657815180516001600160e01b031916875260208082015163ffffffff168189015260408083015115159089015260609182015115159188019190915260809096019590910190600101610a51565b5093949350505050565b600081518084526020840193506020830160005b82811015610aa65781516001600160e01b031916865260209586019590910190600101610ac4565b602080825282516060838301528051608084018190526000929190910190829060a08501905b80831015610b5957835163ffffffff60e01b815116835260208101511515602084015260408101511515604084015250606082019150602084019350600183019250610b12565b506020860151858203601f190160408701529250610b778184610a3d565b925050506040840151601f1984830301606085015261062f8282610ab0565b60008060008060008060a08789031215610baf57600080fd5b610bb88761086f565b9550610bc6602088016107f8565b9450610bd46040880161086f565b935060608701359250608087013567ffffffffffffffff811115610bf757600080fd5b610c0389828a01610886565b979a9699509497509295939492505050565b60008060408385031215610c2857600080fd5b610c318361086f565b946020939093013593505050565b600060208284031215610c5157600080fd5b5051919050565b634e487b7160e01b600052604160045260246000fd5b634e487b7160e01b600052603260045260246000fd5b60018060a01b038416815282602082015260606040820152600061062f60608301846109e5565b604081526000610cbe60408301856109e5565b828103602084015261062f81856109e5565b600060208284031215610ce257600080fd5b815167ffffffffffffffff811115610cf957600080fd5b8201601f81018413610d0a57600080fd5b805167ffffffffffffffff811115610d2457610d24610c58565b604051601f8201601f19908116603f0116810167ffffffffffffffff81118282101715610d5357610d53610c58565b604052818152828201602001861015610d6b57600080fd5b61062f8260208301602086016109c1565b60008351610d8e8184602088016109c1565b835190830190610da28183602088016109c1565b01949350505050565b60ff60f81b8360f81b16815260008251610dcc8160018501602087016109c1565b919091016001019392505050565b60f884901b6001600160f81b031916815260e083901b6001600160e01b03191660018201528151600090610e158160058501602087016109c1565b9190910160050194935050505056fe657263363930302e726573756c742d636f6e73756d65722d6d6f64756c652e312e302e30a164736f6c634300081a000a","linkReferences":{}},"methodIdentifiers":{"GLOBAL_VALIDATION()":"e52df451","REGULAR_RESULT_CONTRACT()":"8d91d098","RESULT_CREATOR()":"299c823c","SELECTOR_ASSOCIATED_VALIDATION()":"74636f5a","checkResultExecuteWithRuntimeValidation(address,bytes32)":"ff8989b8","checkResultFallback(bytes32)":"a48d74b3","executionManifest()":"ae5628c6","moduleId()":"a1308f27","onInstall(bytes)":"6d61fe70","onUninstall(bytes)":"8a91b0e3","supportsInterface(bytes4)":"01ffc9a7","validateRuntime(address,uint32,address,uint256,bytes,bytes)":"465d33e0","validateSignature(address,uint32,address,bytes32,bytes)":"e7db7f7e","validateUserOp(uint32,(address,uint256,bytes,bytes,bytes32,uint256,bytes32,bytes,bytes),bytes32)":"0ab8785f"},"id":162}