{
  "_format": "hh-sol-artifact-1",
  "contractName": "BasicLibrary",
  "sourceName": "contracts/ignition/BasicLibrary.sol",
  "abi": [
    {
      "inputs": [
        {
          "internalType": "uint256",
          "name": "self",
          "type": "uint256"
        }
      ],
      "name": "addTwo",
      "outputs": [
        {
          "internalType": "uint256",
          "name": "",
          "type": "uint256"
        }
      ],
      "stateMutability": "pure",
      "type": "function"
    }
  ],
  "bytecode": "0x60d1610034600b8282823980515f1a60731461002857634e487b7160e01b5f525f60045260245ffd5b305f52607381538281f3fe73000000000000000000000000000000000000000030146080604052600436106032575f3560e01c8063cae57913146036575b5f80fd5b604560413660046067565b6057565b60405190815260200160405180910390f35b5f6061826002607d565b92915050565b5f602082840312156076575f80fd5b5035919050565b80820180821115606157634e487b7160e01b5f52601160045260245ffdfea2646970667358221220b02109bb98bc0a9f109797c1255bd0e140075db864627f40f0f7e41df9551c6a64736f6c63430008180033",
  "linkReferences": {},
  "deployedLinkReferences": {}
}