{
  "_format": "hh-sol-artifact-1",
  "contractName": "Rocket",
  "sourceName": "contracts/ignition/Rocket.sol",
  "abi": [
    {
      "inputs": [
        {
          "internalType": "string",
          "name": "_name",
          "type": "string"
        }
      ],
      "stateMutability": "nonpayable",
      "type": "constructor"
    },
    {
      "inputs": [],
      "name": "launch",
      "outputs": [],
      "stateMutability": "nonpayable",
      "type": "function"
    },
    {
      "inputs": [],
      "name": "name",
      "outputs": [
        {
          "internalType": "string",
          "name": "",
          "type": "string"
        }
      ],
      "stateMutability": "view",
      "type": "function"
    },
    {
      "inputs": [],
      "name": "status",
      "outputs": [
        {
          "internalType": "string",
          "name": "",
          "type": "string"
        }
      ],
      "stateMutability": "view",
      "type": "function"
    }
  ],
  "bytecode": "0x608060405234801561000f575f80fd5b506040516105a73803806105a783398101604081905261002e91610081565b5f61003982826101c7565b5060408051808201909152600881526734b3b734ba34b7b760c11b602082015260019061006690826101c7565b5050610286565b634e487b7160e01b5f52604160045260245ffd5b5f6020808385031215610092575f80fd5b82516001600160401b03808211156100a8575f80fd5b818501915085601f8301126100bb575f80fd5b8151818111156100cd576100cd61006d565b604051601f8201601f19908116603f011681019083821181831017156100f5576100f561006d565b81604052828152888684870101111561010c575f80fd5b5f93505b8284101561012d5784840186015181850187015292850192610110565b5f86848301015280965050505050505092915050565b600181811c9082168061015757607f821691505b60208210810361017557634e487b7160e01b5f52602260045260245ffd5b50919050565b601f8211156101c257805f5260205f20601f840160051c810160208510156101a05750805b601f840160051c820191505b818110156101bf575f81556001016101ac565b50505b505050565b81516001600160401b038111156101e0576101e061006d565b6101f4816101ee8454610143565b8461017b565b602080601f831160018114610227575f84156102105750858301515b5f19600386901b1c1916600185901b17855561027e565b5f85815260208120601f198616915b8281101561025557888601518255948401946001909101908401610236565b508582101561027257878501515f19600388901b60f8161c191681555b505060018460011b0185555b505050505050565b610314806102935f395ff3fe608060405234801561000f575f80fd5b506004361061003f575f3560e01c806301339c211461004357806306fdde031461004d578063200d2ed21461006b575b5f80fd5b61004b610073565b005b6100556100a2565b604051610062919061013a565b60405180910390f35b61005561012d565b6040805180820190915260088152673634b33a16b7b33360c11b602082015260019061009f908261021e565b50565b5f80546100ae9061019a565b80601f01602080910402602001604051908101604052809291908181526020018280546100da9061019a565b80156101255780601f106100fc57610100808354040283529160200191610125565b820191905f5260205f20905b81548152906001019060200180831161010857829003601f168201915b505050505081565b600180546100ae9061019a565b5f602080835283518060208501525f5b818110156101665785810183015185820160400152820161014a565b505f604082860101526040601f19601f8301168501019250505092915050565b634e487b7160e01b5f52604160045260245ffd5b600181811c908216806101ae57607f821691505b6020821081036101cc57634e487b7160e01b5f52602260045260245ffd5b50919050565b601f82111561021957805f5260205f20601f840160051c810160208510156101f75750805b601f840160051c820191505b81811015610216575f8155600101610203565b50505b505050565b815167ffffffffffffffff81111561023857610238610186565b61024c81610246845461019a565b846101d2565b602080601f83116001811461027f575f84156102685750858301515b5f19600386901b1c1916600185901b1785556102d6565b5f85815260208120601f198616915b828110156102ad5788860151825594840194600190910190840161028e565b50858210156102ca57878501515f19600388901b60f8161c191681555b505060018460011b0185555b50505050505056fea2646970667358221220e2a94f205758b4a248dfbfe00bdf2598d33c4451fc2625d7cf81e5f0fc1fe81264736f6c63430008180033",
  "linkReferences": {},
  "deployedLinkReferences": {}
}