{
  "_format": "hh-sol-artifact-1",
  "contractName": "BasicContract",
  "sourceName": "contracts/ignition/BasicContract.sol",
  "abi": [
    {
      "inputs": [
        {
          "internalType": "address",
          "name": "_sender",
          "type": "address"
        }
      ],
      "stateMutability": "nonpayable",
      "type": "constructor"
    },
    {
      "anonymous": false,
      "inputs": [
        {
          "indexed": false,
          "internalType": "uint256",
          "name": "eventArg",
          "type": "uint256"
        }
      ],
      "name": "BasicEvent",
      "type": "event"
    },
    {
      "inputs": [
        {
          "internalType": "uint256",
          "name": "funcArg",
          "type": "uint256"
        }
      ],
      "name": "basicFunction",
      "outputs": [],
      "stateMutability": "nonpayable",
      "type": "function"
    },
    {
      "inputs": [
        {
          "internalType": "uint256",
          "name": "arg",
          "type": "uint256"
        }
      ],
      "name": "otherFunction",
      "outputs": [],
      "stateMutability": "payable",
      "type": "function"
    },
    {
      "inputs": [],
      "name": "savedArg",
      "outputs": [
        {
          "internalType": "uint256",
          "name": "",
          "type": "uint256"
        }
      ],
      "stateMutability": "view",
      "type": "function"
    },
    {
      "inputs": [],
      "name": "sender",
      "outputs": [
        {
          "internalType": "address",
          "name": "",
          "type": "address"
        }
      ],
      "stateMutability": "view",
      "type": "function"
    },
    {
      "stateMutability": "payable",
      "type": "receive"
    }
  ],
  "bytecode": "0x608060405234801561000f575f80fd5b506040516101e83803806101e883398101604081905261002e91610053565b600180546001600160a01b0319166001600160a01b0392909216919091179055610080565b5f60208284031215610063575f80fd5b81516001600160a01b0381168114610079575f80fd5b9392505050565b61015b8061008d5f395ff3fe608060405260043610610041575f3560e01c806353a57b4a1461004c578063673b6d911461007357806367e404ce1461008757806392b4bb8a146100be575f80fd5b3661004857005b5f80fd5b348015610057575f80fd5b506100605f5481565b6040519081526020015b60405180910390f35b61008561008136600461010e565b5f55565b005b348015610092575f80fd5b506001546100a6906001600160a01b031681565b6040516001600160a01b03909116815260200161006a565b3480156100c9575f80fd5b506100856100d836600461010e565b6040518181527fb532177e7c269fcc7b98812c0fc27f2dd1970ad68f68cea8c18f0191848377a29060200160405180910390a150565b5f6020828403121561011e575f80fd5b503591905056fea264697066735822122002e40e9d59c0f8bb81613924f866932ce1b5b9f85e68885cf90ff22b733848a264736f6c63430008180033",
  "linkReferences": {},
  "deployedLinkReferences": {}
}