{
  "_format": "hh-sol-artifact-1",
  "contractName": "JaySmartAccount",
  "sourceName": "contracts/zex/JaySmartAccount.sol",
  "abi": [
    {
      "inputs": [],
      "name": "getSigValidationFailed",
      "outputs": [
        {
          "internalType": "uint256",
          "name": "",
          "type": "uint256"
        }
      ],
      "stateMutability": "pure",
      "type": "function"
    },
    {
      "inputs": [
        {
          "components": [
            {
              "internalType": "address",
              "name": "sender",
              "type": "address"
            },
            {
              "internalType": "bytes",
              "name": "signature",
              "type": "bytes"
            }
          ],
          "internalType": "struct UserOperation",
          "name": "userOp",
          "type": "tuple"
        },
        {
          "internalType": "bytes32",
          "name": "userOpHash",
          "type": "bytes32"
        }
      ],
      "name": "validateUserOp",
      "outputs": [
        {
          "internalType": "uint256",
          "name": "validationData",
          "type": "uint256"
        }
      ],
      "stateMutability": "nonpayable",
      "type": "function"
    }
  ],
  "bytecode": "0x6080604052348015600e575f5ffd5b506103ab8061001c5f395ff3fe608060405234801561000f575f5ffd5b5060043610610034575f3560e01c8063a2c6296414610038578063fefce75a14610056575b5f5ffd5b610040610086565b60405161004d91906101e8565b60405180910390f35b610070600480360381019061006b919061025e565b61008e565b60405161007d91906101e8565b60405180910390f35b5f6001905090565b5f6100cd6040518060400160405280601b81526020017f426173654163636f756e743a2076616c6964617465557365724f7000000000008152506100df565b6100d78383610178565b905092915050565b610175816040516024016100f39190610328565b6040516020818303038152906040527f41304fac000000000000000000000000000000000000000000000000000000007bffffffffffffffffffffffffffffffffffffffffffffffffffffffff19166020820180517bffffffffffffffffffffffffffffffffffffffffffffffffffffffff8381831617835250505050610182565b50565b5f5f905092915050565b6101998161019161019c6101bb565b63ffffffff16565b50565b5f6a636f6e736f6c652e6c6f6790505f5f835160208501845afa505050565b6101c6819050919050565b6101ce610348565b565b5f819050919050565b6101e2816101d0565b82525050565b5f6020820190506101fb5f8301846101d9565b92915050565b5f5ffd5b5f5ffd5b5f5ffd5b5f6040828403121561022257610221610209565b5b81905092915050565b5f819050919050565b61023d8161022b565b8114610247575f5ffd5b50565b5f8135905061025881610234565b92915050565b5f5f6040838503121561027457610273610201565b5b5f83013567ffffffffffffffff81111561029157610290610205565b5b61029d8582860161020d565b92505060206102ae8582860161024a565b9150509250929050565b5f81519050919050565b5f82825260208201905092915050565b8281835e5f83830152505050565b5f601f19601f8301169050919050565b5f6102fa826102b8565b61030481856102c2565b93506103148185602086016102d2565b61031d816102e0565b840191505092915050565b5f6020820190508181035f83015261034081846102f0565b905092915050565b7f4e487b71000000000000000000000000000000000000000000000000000000005f52605160045260245ffdfea2646970667358221220eaadcdb21c7653c75b0e37ec89106319217f4425d7a47973bb86a224691f58fe64736f6c634300081c0033",
  "linkReferences": {},
  "deployedLinkReferences": {}
}