{
  "_format": "hh-sol-artifact-1",
  "contractName": "BasicPlugin",
  "sourceName": "contracts/zex/BasicPlugin.sol",
  "abi": [
    {
      "inputs": [],
      "stateMutability": "nonpayable",
      "type": "constructor"
    },
    {
      "inputs": [],
      "name": "owner",
      "outputs": [
        {
          "internalType": "address",
          "name": "",
          "type": "address"
        }
      ],
      "stateMutability": "view",
      "type": "function"
    },
    {
      "inputs": [],
      "name": "pluginManifest",
      "outputs": [
        {
          "components": [
            {
              "internalType": "string",
              "name": "name",
              "type": "string"
            },
            {
              "internalType": "uint256",
              "name": "version",
              "type": "uint256"
            },
            {
              "internalType": "string",
              "name": "author",
              "type": "string"
            },
            {
              "internalType": "bytes32[]",
              "name": "reserves",
              "type": "bytes32[]"
            },
            {
              "internalType": "bytes4[]",
              "name": "interfaceIds",
              "type": "bytes4[]"
            }
          ],
          "internalType": "struct PluginManifest",
          "name": "manifest",
          "type": "tuple"
        }
      ],
      "stateMutability": "pure",
      "type": "function"
    }
  ],
  "bytecode": "0x6080604052348015600e575f5ffd5b50335f5f6101000a81548173ffffffffffffffffffffffffffffffffffffffff021916908373ffffffffffffffffffffffffffffffffffffffff16021790555061070a8061005b5f395ff3fe608060405234801561000f575f5ffd5b5060043610610034575f3560e01c80638da5cb5b14610038578063c776313014610056575b5f5ffd5b610040610074565b60405161004d9190610301565b60405180910390f35b61005e610098565b60405161006b91906105cc565b60405180910390f35b5f5f9054906101000a900473ffffffffffffffffffffffffffffffffffffffff1681565b6100a0610294565b6040518060400160405280600b81526020017f4261736963506c7567696e000000000000000000000000000000000000000000815250815f01819052506127108160200181815250506040518060400160405280600381526020017f5a4558000000000000000000000000000000000000000000000000000000000081525081604001819052505f600167ffffffffffffffff811115610143576101426105ec565b5b6040519080825280602002602001820160405280156101715781602001602082028036833780820191505090505b5090505f600167ffffffffffffffff8111156101905761018f6105ec565b5b6040519080825280602002602001820160405280156101be5781602001602082028036833780820191505090505b5090506301ffc9a760e01b825f815181106101dc576101db610619565b5b60200260200101907bffffffffffffffffffffffffffffffffffffffffffffffffffffffff191690817bffffffffffffffffffffffffffffffffffffffffffffffffffffffff191681525050825f015183602001518460400151604051602001610248939291906106a0565b60405160208183030381529060405280519060200120815f8151811061027157610270610619565b5b602002602001018181525050818360800181905250808360600181905250505090565b6040518060a00160405280606081526020015f81526020016060815260200160608152602001606081525090565b5f73ffffffffffffffffffffffffffffffffffffffff82169050919050565b5f6102eb826102c2565b9050919050565b6102fb816102e1565b82525050565b5f6020820190506103145f8301846102f2565b92915050565b5f81519050919050565b5f82825260208201905092915050565b8281835e5f83830152505050565b5f601f19601f8301169050919050565b5f61035c8261031a565b6103668185610324565b9350610376818560208601610334565b61037f81610342565b840191505092915050565b5f819050919050565b61039c8161038a565b82525050565b5f81519050919050565b5f82825260208201905092915050565b5f819050602082019050919050565b5f819050919050565b6103dd816103cb565b82525050565b5f6103ee83836103d4565b60208301905092915050565b5f602082019050919050565b5f610410826103a2565b61041a81856103ac565b9350610425836103bc565b805f5b8381101561045557815161043c88826103e3565b9750610447836103fa565b925050600181019050610428565b5085935050505092915050565b5f81519050919050565b5f82825260208201905092915050565b5f819050602082019050919050565b5f7fffffffff0000000000000000000000000000000000000000000000000000000082169050919050565b6104bf8161048b565b82525050565b5f6104d083836104b6565b60208301905092915050565b5f602082019050919050565b5f6104f282610462565b6104fc818561046c565b93506105078361047c565b805f5b8381101561053757815161051e88826104c5565b9750610529836104dc565b92505060018101905061050a565b5085935050505092915050565b5f60a083015f8301518482035f86015261055e8282610352565b91505060208301516105736020860182610393565b506040830151848203604086015261058b8282610352565b915050606083015184820360608601526105a58282610406565b915050608083015184820360808601526105bf82826104e8565b9150508091505092915050565b5f6020820190508181035f8301526105e48184610544565b905092915050565b7f4e487b71000000000000000000000000000000000000000000000000000000005f52604160045260245ffd5b7f4e487b71000000000000000000000000000000000000000000000000000000005f52603260045260245ffd5b5f81905092915050565b5f61065a8261031a565b6106648185610646565b9350610674818560208601610334565b80840191505092915050565b5f819050919050565b61069a6106958261038a565b610680565b82525050565b5f6106ab8286610650565b91506106b78285610689565b6020820191506106c78284610650565b915081905094935050505056fea264697066735822122056938df7c19b666994800a73ebe4144dc6aae7094708390e0b15b55c8f96741664736f6c634300081c0033",
  "linkReferences": {},
  "deployedLinkReferences": {}
}