{"abi":[{"type":"constructor","inputs":[{"name":"anEntryPoint","type":"address","internalType":"contract IEntryPoint"}],"stateMutability":"nonpayable"},{"type":"fallback","stateMutability":"payable"},{"type":"receive","stateMutability":"payable"},{"type":"function","name":"UPGRADE_INTERFACE_VERSION","inputs":[],"outputs":[{"name":"","type":"string","internalType":"string"}],"stateMutability":"view"},{"type":"function","name":"accountId","inputs":[],"outputs":[{"name":"","type":"string","internalType":"string"}],"stateMutability":"pure"},{"type":"function","name":"entryPoint","inputs":[],"outputs":[{"name":"","type":"address","internalType":"contract IEntryPoint"}],"stateMutability":"view"},{"type":"function","name":"execute","inputs":[{"name":"target","type":"address","internalType":"address"},{"name":"value","type":"uint256","internalType":"uint256"},{"name":"data","type":"bytes","internalType":"bytes"}],"outputs":[{"name":"result","type":"bytes","internalType":"bytes"}],"stateMutability":"payable"},{"type":"function","name":"executeBatch","inputs":[{"name":"calls","type":"tuple[]","internalType":"struct Call[]","components":[{"name":"target","type":"address","internalType":"address"},{"name":"value","type":"uint256","internalType":"uint256"},{"name":"data","type":"bytes","internalType":"bytes"}]}],"outputs":[{"name":"results","type":"bytes[]","internalType":"bytes[]"}],"stateMutability":"payable"},{"type":"function","name":"executeUserOp","inputs":[{"name":"userOp","type":"tuple","internalType":"struct PackedUserOperation","components":[{"name":"sender","type":"address","internalType":"address"},{"name":"nonce","type":"uint256","internalType":"uint256"},{"name":"initCode","type":"bytes","internalType":"bytes"},{"name":"callData","type":"bytes","internalType":"bytes"},{"name":"accountGasLimits","type":"bytes32","internalType":"bytes32"},{"name":"preVerificationGas","type":"uint256","internalType":"uint256"},{"name":"gasFees","type":"bytes32","internalType":"bytes32"},{"name":"paymasterAndData","type":"bytes","internalType":"bytes"},{"name":"signature","type":"bytes","internalType":"bytes"}]},{"name":"","type":"bytes32","internalType":"bytes32"}],"outputs":[],"stateMutability":"nonpayable"},{"type":"function","name":"executeWithRuntimeValidation","inputs":[{"name":"data","type":"bytes","internalType":"bytes"},{"name":"authorization","type":"bytes","internalType":"bytes"}],"outputs":[{"name":"","type":"bytes","internalType":"bytes"}],"stateMutability":"payable"},{"type":"function","name":"getExecutionData","inputs":[{"name":"selector","type":"bytes4","internalType":"bytes4"}],"outputs":[{"name":"data","type":"tuple","internalType":"struct ExecutionDataView","components":[{"name":"module","type":"address","internalType":"address"},{"name":"skipRuntimeValidation","type":"bool","internalType":"bool"},{"name":"allowGlobalValidation","type":"bool","internalType":"bool"},{"name":"executionHooks","type":"bytes25[]","internalType":"HookConfig[]"}]}],"stateMutability":"view"},{"type":"function","name":"getFallbackSigner","inputs":[],"outputs":[{"name":"","type":"address","internalType":"address"}],"stateMutability":"view"},{"type":"function","name":"getNonce","inputs":[],"outputs":[{"name":"","type":"uint256","internalType":"uint256"}],"stateMutability":"view"},{"type":"function","name":"getValidationData","inputs":[{"name":"validationFunction","type":"bytes24","internalType":"ModuleEntity"}],"outputs":[{"name":"data","type":"tuple","internalType":"struct ValidationDataView","components":[{"name":"isGlobal","type":"bool","internalType":"bool"},{"name":"isSignatureValidation","type":"bool","internalType":"bool"},{"name":"isUserOpValidation","type":"bool","internalType":"bool"},{"name":"validationHooks","type":"bytes25[]","internalType":"HookConfig[]"},{"name":"executionHooks","type":"bytes25[]","internalType":"HookConfig[]"},{"name":"selectors","type":"bytes4[]","internalType":"bytes4[]"}]}],"stateMutability":"view"},{"type":"function","name":"initializeWithValidation","inputs":[{"name":"","type":"bytes25","internalType":"ValidationConfig"},{"name":"","type":"bytes4[]","internalType":"bytes4[]"},{"name":"","type":"bytes","internalType":"bytes"},{"name":"","type":"bytes[]","internalType":"bytes[]"}],"outputs":[],"stateMutability":"pure"},{"type":"function","name":"installExecution","inputs":[{"name":"module","type":"address","internalType":"address"},{"name":"manifest","type":"tuple","internalType":"struct ExecutionManifest","components":[{"name":"executionFunctions","type":"tuple[]","internalType":"struct ManifestExecutionFunction[]","components":[{"name":"executionSelector","type":"bytes4","internalType":"bytes4"},{"name":"skipRuntimeValidation","type":"bool","internalType":"bool"},{"name":"allowGlobalValidation","type":"bool","internalType":"bool"}]},{"name":"executionHooks","type":"tuple[]","internalType":"struct ManifestExecutionHook[]","components":[{"name":"executionSelector","type":"bytes4","internalType":"bytes4"},{"name":"entityId","type":"uint32","internalType":"uint32"},{"name":"isPreHook","type":"bool","internalType":"bool"},{"name":"isPostHook","type":"bool","internalType":"bool"}]},{"name":"interfaceIds","type":"bytes4[]","internalType":"bytes4[]"}]},{"name":"moduleInstallData","type":"bytes","internalType":"bytes"}],"outputs":[],"stateMutability":"nonpayable"},{"type":"function","name":"installValidation","inputs":[{"name":"validationConfig","type":"bytes25","internalType":"ValidationConfig"},{"name":"selectors","type":"bytes4[]","internalType":"bytes4[]"},{"name":"installData","type":"bytes","internalType":"bytes"},{"name":"hooks","type":"bytes[]","internalType":"bytes[]"}],"outputs":[],"stateMutability":"nonpayable"},{"type":"function","name":"isFallbackSignerDisabled","inputs":[],"outputs":[{"name":"","type":"bool","internalType":"bool"}],"stateMutability":"view"},{"type":"function","name":"isValidSignature","inputs":[{"name":"hash","type":"bytes32","internalType":"bytes32"},{"name":"signature","type":"bytes","internalType":"bytes"}],"outputs":[{"name":"","type":"bytes4","internalType":"bytes4"}],"stateMutability":"view"},{"type":"function","name":"proxiableUUID","inputs":[],"outputs":[{"name":"","type":"bytes32","internalType":"bytes32"}],"stateMutability":"view"},{"type":"function","name":"replaySafeHash","inputs":[{"name":"hash","type":"bytes32","internalType":"bytes32"}],"outputs":[{"name":"","type":"bytes32","internalType":"bytes32"}],"stateMutability":"view"},{"type":"function","name":"setFallbackSignerDisabled","inputs":[{"name":"isDisabled","type":"bool","internalType":"bool"}],"outputs":[],"stateMutability":"nonpayable"},{"type":"function","name":"supportsInterface","inputs":[{"name":"interfaceId","type":"bytes4","internalType":"bytes4"}],"outputs":[{"name":"","type":"bool","internalType":"bool"}],"stateMutability":"view"},{"type":"function","name":"uninstallExecution","inputs":[{"name":"module","type":"address","internalType":"address"},{"name":"manifest","type":"tuple","internalType":"struct ExecutionManifest","components":[{"name":"executionFunctions","type":"tuple[]","internalType":"struct ManifestExecutionFunction[]","components":[{"name":"executionSelector","type":"bytes4","internalType":"bytes4"},{"name":"skipRuntimeValidation","type":"bool","internalType":"bool"},{"name":"allowGlobalValidation","type":"bool","internalType":"bool"}]},{"name":"executionHooks","type":"tuple[]","internalType":"struct ManifestExecutionHook[]","components":[{"name":"executionSelector","type":"bytes4","internalType":"bytes4"},{"name":"entityId","type":"uint32","internalType":"uint32"},{"name":"isPreHook","type":"bool","internalType":"bool"},{"name":"isPostHook","type":"bool","internalType":"bool"}]},{"name":"interfaceIds","type":"bytes4[]","internalType":"bytes4[]"}]},{"name":"moduleUninstallData","type":"bytes","internalType":"bytes"}],"outputs":[],"stateMutability":"nonpayable"},{"type":"function","name":"uninstallValidation","inputs":[{"name":"validationFunction","type":"bytes24","internalType":"ModuleEntity"},{"name":"uninstallData","type":"bytes","internalType":"bytes"},{"name":"hookUninstallData","type":"bytes[]","internalType":"bytes[]"}],"outputs":[],"stateMutability":"nonpayable"},{"type":"function","name":"updateFallbackSigner","inputs":[{"name":"fallbackSigner","type":"address","internalType":"address"}],"outputs":[],"stateMutability":"nonpayable"},{"type":"function","name":"upgradeToAndCall","inputs":[{"name":"newImplementation","type":"address","internalType":"address"},{"name":"data","type":"bytes","internalType":"bytes"}],"outputs":[],"stateMutability":"payable"},{"type":"function","name":"validateUserOp","inputs":[{"name":"userOp","type":"tuple","internalType":"struct PackedUserOperation","components":[{"name":"sender","type":"address","internalType":"address"},{"name":"nonce","type":"uint256","internalType":"uint256"},{"name":"initCode","type":"bytes","internalType":"bytes"},{"name":"callData","type":"bytes","internalType":"bytes"},{"name":"accountGasLimits","type":"bytes32","internalType":"bytes32"},{"name":"preVerificationGas","type":"uint256","internalType":"uint256"},{"name":"gasFees","type":"bytes32","internalType":"bytes32"},{"name":"paymasterAndData","type":"bytes","internalType":"bytes"},{"name":"signature","type":"bytes","internalType":"bytes"}]},{"name":"userOpHash","type":"bytes32","internalType":"bytes32"},{"name":"missingAccountFunds","type":"uint256","internalType":"uint256"}],"outputs":[{"name":"validationData","type":"uint256","internalType":"uint256"}],"stateMutability":"nonpayable"},{"type":"event","name":"ExecutionInstalled","inputs":[{"name":"module","type":"address","indexed":true,"internalType":"address"},{"name":"manifest","type":"tuple","indexed":false,"internalType":"struct ExecutionManifest","components":[{"name":"executionFunctions","type":"tuple[]","internalType":"struct ManifestExecutionFunction[]","components":[{"name":"executionSelector","type":"bytes4","internalType":"bytes4"},{"name":"skipRuntimeValidation","type":"bool","internalType":"bool"},{"name":"allowGlobalValidation","type":"bool","internalType":"bool"}]},{"name":"executionHooks","type":"tuple[]","internalType":"struct ManifestExecutionHook[]","components":[{"name":"executionSelector","type":"bytes4","internalType":"bytes4"},{"name":"entityId","type":"uint32","internalType":"uint32"},{"name":"isPreHook","type":"bool","internalType":"bool"},{"name":"isPostHook","type":"bool","internalType":"bool"}]},{"name":"interfaceIds","type":"bytes4[]","internalType":"bytes4[]"}]}],"anonymous":false},{"type":"event","name":"ExecutionUninstalled","inputs":[{"name":"module","type":"address","indexed":true,"internalType":"address"},{"name":"onUninstallSucceeded","type":"bool","indexed":false,"internalType":"bool"},{"name":"manifest","type":"tuple","indexed":false,"internalType":"struct ExecutionManifest","components":[{"name":"executionFunctions","type":"tuple[]","internalType":"struct ManifestExecutionFunction[]","components":[{"name":"executionSelector","type":"bytes4","internalType":"bytes4"},{"name":"skipRuntimeValidation","type":"bool","internalType":"bool"},{"name":"allowGlobalValidation","type":"bool","internalType":"bool"}]},{"name":"executionHooks","type":"tuple[]","internalType":"struct ManifestExecutionHook[]","components":[{"name":"executionSelector","type":"bytes4","internalType":"bytes4"},{"name":"entityId","type":"uint32","internalType":"uint32"},{"name":"isPreHook","type":"bool","internalType":"bool"},{"name":"isPostHook","type":"bool","internalType":"bool"}]},{"name":"interfaceIds","type":"bytes4[]","internalType":"bytes4[]"}]}],"anonymous":false},{"type":"event","name":"FallbackSignerDisabledSet","inputs":[{"name":"prevDisabled","type":"bool","indexed":false,"internalType":"bool"},{"name":"newDisabled","type":"bool","indexed":false,"internalType":"bool"}],"anonymous":false},{"type":"event","name":"FallbackSignerSet","inputs":[{"name":"previousFallbackSigner","type":"address","indexed":true,"internalType":"address"},{"name":"newFallbackSigner","type":"address","indexed":true,"internalType":"address"}],"anonymous":false},{"type":"event","name":"Initialized","inputs":[{"name":"version","type":"uint64","indexed":false,"internalType":"uint64"}],"anonymous":false},{"type":"event","name":"Upgraded","inputs":[{"name":"implementation","type":"address","indexed":true,"internalType":"address"}],"anonymous":false},{"type":"event","name":"ValidationInstalled","inputs":[{"name":"module","type":"address","indexed":true,"internalType":"address"},{"name":"entityId","type":"uint32","indexed":true,"internalType":"uint32"}],"anonymous":false},{"type":"event","name":"ValidationUninstalled","inputs":[{"name":"module","type":"address","indexed":true,"internalType":"address"},{"name":"entityId","type":"uint32","indexed":true,"internalType":"uint32"},{"name":"onUninstallSucceeded","type":"bool","indexed":false,"internalType":"bool"}],"anonymous":false},{"type":"error","name":"AddressEmptyCode","inputs":[{"name":"target","type":"address","internalType":"address"}]},{"type":"error","name":"ArrayLengthMismatch","inputs":[]},{"type":"error","name":"ERC1967InvalidImplementation","inputs":[{"name":"implementation","type":"address","internalType":"address"}]},{"type":"error","name":"ERC1967NonPayable","inputs":[]},{"type":"error","name":"Erc4337FunctionNotAllowed","inputs":[{"name":"selector","type":"bytes4","internalType":"bytes4"}]},{"type":"error","name":"ExecutionFunctionAlreadySet","inputs":[{"name":"selector","type":"bytes4","internalType":"bytes4"}]},{"type":"error","name":"ExecutionHookAlreadySet","inputs":[{"name":"hookConfig","type":"bytes25","internalType":"HookConfig"}]},{"type":"error","name":"FailedCall","inputs":[]},{"type":"error","name":"FallbackSignerDisabled","inputs":[]},{"type":"error","name":"FallbackSignerMismatch","inputs":[]},{"type":"error","name":"IModuleFunctionNotAllowed","inputs":[{"name":"selector","type":"bytes4","internalType":"bytes4"}]},{"type":"error","name":"InitializerDisabled","inputs":[]},{"type":"error","name":"InterfaceNotSupported","inputs":[{"name":"module","type":"address","internalType":"address"}]},{"type":"error","name":"InvalidInitialization","inputs":[]},{"type":"error","name":"ModuleInstallCallbackFailed","inputs":[{"name":"module","type":"address","internalType":"address"},{"name":"revertReason","type":"bytes","internalType":"bytes"}]},{"type":"error","name":"ModuleNotInstalled","inputs":[{"name":"module","type":"address","internalType":"address"}]},{"type":"error","name":"NativeFunctionNotAllowed","inputs":[{"name":"selector","type":"bytes4","internalType":"bytes4"}]},{"type":"error","name":"NonCanonicalEncoding","inputs":[]},{"type":"error","name":"NotEntryPoint","inputs":[]},{"type":"error","name":"NotInitializing","inputs":[]},{"type":"error","name":"NullModule","inputs":[]},{"type":"error","name":"PostExecHookReverted","inputs":[{"name":"module","type":"address","internalType":"address"},{"name":"entityId","type":"uint32","internalType":"uint32"},{"name":"revertReason","type":"bytes","internalType":"bytes"}]},{"type":"error","name":"PreExecHookReverted","inputs":[{"name":"module","type":"address","internalType":"address"},{"name":"entityId","type":"uint32","internalType":"uint32"},{"name":"revertReason","type":"bytes","internalType":"bytes"}]},{"type":"error","name":"PreRuntimeValidationHookFailed","inputs":[{"name":"module","type":"address","internalType":"address"},{"name":"entityId","type":"uint32","internalType":"uint32"},{"name":"revertReason","type":"bytes","internalType":"bytes"}]},{"type":"error","name":"PreValidationHookLimitExceeded","inputs":[]},{"type":"error","name":"RequireUserOperationContext","inputs":[]},{"type":"error","name":"RuntimeValidationFunctionReverted","inputs":[{"name":"module","type":"address","internalType":"address"},{"name":"entityId","type":"uint32","internalType":"uint32"},{"name":"revertReason","type":"bytes","internalType":"bytes"}]},{"type":"error","name":"SegmentOutOfOrder","inputs":[]},{"type":"error","name":"SelfCallRecursionDepthExceeded","inputs":[]},{"type":"error","name":"SignatureValidationInvalid","inputs":[{"name":"module","type":"address","internalType":"address"},{"name":"entityId","type":"uint32","internalType":"uint32"}]},{"type":"error","name":"UUPSUnauthorizedCallContext","inputs":[]},{"type":"error","name":"UUPSUnsupportedProxiableUUID","inputs":[{"name":"slot","type":"bytes32","internalType":"bytes32"}]},{"type":"error","name":"UnexpectedAggregator","inputs":[{"name":"module","type":"address","internalType":"address"},{"name":"entityId","type":"uint32","internalType":"uint32"},{"name":"aggregator","type":"address","internalType":"address"}]},{"type":"error","name":"UnrecognizedFunction","inputs":[{"name":"selector","type":"bytes4","internalType":"bytes4"}]},{"type":"error","name":"UserOpValidationInvalid","inputs":[{"name":"module","type":"address","internalType":"address"},{"name":"entityId","type":"uint32","internalType":"uint32"}]},{"type":"error","name":"ValidationAlreadySet","inputs":[{"name":"selector","type":"bytes4","internalType":"bytes4"},{"name":"validationFunction","type":"bytes24","internalType":"ModuleEntity"}]},{"type":"error","name":"ValidationFunctionMissing","inputs":[{"name":"selector","type":"bytes4","internalType":"bytes4"}]},{"type":"error","name":"ValidationSignatureSegmentMissing","inputs":[]}],"bytecode":{"object":"0x60c06040523060805234801561001457600080fd5b50604051615f01380380615f01833981016040819052610033916100e9565b6001600160a01b03811660a05280610049610050565b5050610119565b7fc531f081ecdb5a90f38c197521797881a6e5c752a7d451780f325a95f8b91f458054610100900460ff16156100995760405163f92ee8a960e01b815260040160405180910390fd5b805460ff908116146100e657805460ff191660ff90811782556040519081527fc7f505b2f371ae2175ee4913f4499e1f2633a7b5936321eed1cdaeb6115181d29060200160405180910390a15b50565b6000602082840312156100fb57600080fd5b81516001600160a01b038116811461011257600080fd5b9392505050565b60805160a051615d99610168600039600081816104e20152818161062e015281816110cd0152818161144e01526120d40152600081816126230152818161264c01526126de0152615d996000f3fe6080604052600436106101695760003560e01c80638dd7712f116100d1578063b6b1ccfe1161008a578063d087d28811610064578063d087d28814610579578063d31b575b1461058e578063e919a623146105bb578063f2680c0f146105db57610170565b8063b6b1ccfe14610519578063be23b3ff14610539578063ce1506be1461055957610170565b80638dd7712f1461044057806393b1dc61146104605780639cfd7cff14610480578063ad3cb1cc146104a2578063b0d691fe146104d3578063b61d27f61461050657610170565b80634f1ef286116101235780634f1ef2861461037257806352d1902d1461038557806362632a081461039a5780636ef3d7b7146103ba578063757c8a26146103e657806388de91081461041357610170565b80621a63e91461028057806301ffc9a7146102a25780631626ba7e146102d757806319822f7c146103045780631bbf564c1461033257806334fcd5be1461035257610170565b3661017057005b6000366060600061017f6105ee565b600080356001600160e01b031916815260019190910160205260409020546001600160a01b03169050806101dd576000356001600160e01b03191660405163fcfc5aad60e01b81526004016101d4919061482e565b60405180910390fd5b6000806101e8610612565b91509150600080846001600160a01b031660003660405161020a929190614843565b6000604051808303816000865af19150503d8060008114610247576040519150601f19603f3d011682016040523d82523d6000602084013e61024c565b606091505b50915091508161025e57805160208201fd5b610267836108b7565b610270846108b7565b8051975060200195505050505050f35b34801561028c57600080fd5b506102a061029b3660046148b4565b6109b8565b005b3480156102ae57600080fd5b506102c26102bd36600461494b565b6109ed565b60405190151581526020015b60405180910390f35b3480156102e357600080fd5b506102f76102f2366004614968565b610a5f565b6040516102ce919061482e565b34801561031057600080fd5b5061032461031f3660046149cc565b610c2a565b6040519081526020016102ce565b34801561033e57600080fd5b506102a061034d366004614a5d565b610c49565b610365610360366004614b20565b610c84565b6040516102ce9190614bb1565b6102a0610380366004614d24565b610dfa565b34801561039157600080fd5b50610324610e33565b3480156103a657600080fd5b506102a06103b5366004614d73565b610e50565b3480156103c657600080fd5b50600080516020615d6d83398151915254600160a01b900460ff166102c2565b3480156103f257600080fd5b5061040661040136600461494b565b610ede565b6040516102ce9190614dd6565b34801561041f57600080fd5b506104286110a4565b6040516001600160a01b0390911681526020016102ce565b34801561044c57600080fd5b506102a061045b366004614e1b565b6110c2565b34801561046c57600080fd5b506102a061047b3660046148b4565b611224565b34801561048c57600080fd5b5061049561123f565b6040516102ce9190614e5f565b3480156104ae57600080fd5b50610495604051806040016040528060058152602001640352e302e360dc1b81525081565b3480156104df57600080fd5b507f0000000000000000000000000000000000000000000000000000000000000000610428565b610495610514366004614e72565b61125f565b34801561052557600080fd5b506102a0610534366004614ecd565b6112cf565b34801561054557600080fd5b506102a0610554366004614f61565b611306565b34801561056557600080fd5b50610324610574366004614f7c565b611395565b34801561058557600080fd5b5061032461144a565b34801561059a57600080fd5b506105ae6105a9366004614f95565b6114de565b6040516102ce9190614fb0565b3480156105c757600080fd5b506102a06105d6366004614a5d565b61172b565b6104956105e9366004615068565b611744565b7fc531f081ecdb5a90f38c197521797881a6e5c752a7d451780f325a95f8b91f4590565b606080600061061f6105ee565b90506060336001600160a01b037f0000000000000000000000000000000000000000000000000000000000000000161480159061065c5750333014155b801561068b5750600080356001600160e01b0319168152600183016020526040902054600160a01b900460ff16155b156108325763ffffffff60401b3360601b6001600160601b031916176106b56000368360026118a5565b6001600160401b03198116600090815260028401602090815260408083206001018054825181850281018501909352808352919290919083018282801561072957602002820191906000526020600020905b815460381b66ffffffffffffff19168152600190910190602001808311610707575b505083519394506000925050505b818110156107bf576107b761076c848381518110610757576107576150bf565b602002602001015166ffffffffffffff191690565b6000368080601f016020809104026020016040519081016040528093929190818152602001838380828437600092018290525060408051602081019091529081529250611a82915050565b600101610737565b5061082c856002016000856001600160401b0319166001600160401b03191681526020019081526020016000206002016000368080601f016020809104026020016040519081016040528093929190818152602001838380828437600092019190915250611b1892505050565b93505050505b60006108ab83600101600080356001600160e01b0319166001600160e01b0319166001600160e01b03191681526020019081526020016000206001016000368080601f016020809104026020016040519081016040528093929190818152602001838380828437600092019190915250611b1892505050565b91959194509092505050565b8051805b80156109b3576108ca816150eb565b905060008382815181106108e0576108e06150bf565b6020026020010151905061090a81602001516001600160401b0319166001600160401b0319161590565b1561091557506108bb565b6020810151815160408051635d413a8160e01b8152606084901c9390911c63ffffffff16918391635d413a819161095191859190600401615102565b600060405180830381600087803b15801561096b57600080fd5b505af192505050801561097c575060015b6109ab57600061098a611c6a565b90508282826040516304b130f960e21b81526004016101d493929190615121565b5050506108bb565b505050565b6000806109c3610612565b915091506109d386868686611c89565b6109dc816108b7565b6109e5826108b7565b505050505050565b6000600160e01b6001600160e01b0319831601610a0c57506000919050565b63fe00365960e01b6001600160e01b0319831601610a2c57506001919050565b6000610a366105ee565b6001600160e01b0319909316600090815260039390930160205260409092205491909111919050565b600080610a6c8385615151565b9050610a7b8360188187615187565b935093506000610a896105ee565b6001600160401b031983166000908152600291909101602090815260409182902060010180548351818402810184019094528084529091830182828015610afd57602002820191906000526020600020905b815460381b66ffffffffffffff19168152600190910190602001808311610adb575b5050505050905060005b8151811015610c0357600080610b40610b2b858581518110610757576107576150bf565b606081901c9160409190911c63ffffffff1690565b90925090506060610b52898986611f31565b83838080601f01602080910402602001604051908101604052809392919081815260200183838082843760009201919091525050604051631fa0c13760e11b8152949f50929d50909550506001600160a01b0387169350633f41826e9250610bc59186915033908f9087906004016151b1565b60006040518083038186803b158015610bdd57600080fd5b505afa158015610bf1573d6000803e3d6000fd5b50505050505050806001019050610b07565b50610c0e8585611fdd565b94509450610c1e82878787612026565b925050505b9392505050565b6000610c346120c9565b610c3e8484612143565b9050610c23826122c3565b600080610c54610612565b91509150610c6789898989898989612310565b610c70816108b7565b610c79826108b7565b505050505050505050565b6060600080610c91610612565b909250905083806001600160401b03811115610caf57610caf614c16565b604051908082528060200260200182016040528015610ce257816020015b6060815260200190600190039081610ccd5790505b50935060005b81811015610dde57610db9878783818110610d0557610d056150bf565b9050602002810190610d1791906151ee565b610d25906020810190614d73565b888884818110610d3757610d376150bf565b9050602002810190610d4991906151ee565b60200135898985818110610d5f57610d5f6150bf565b9050602002810190610d7191906151ee565b610d7f90604081019061520e565b8080601f01602080910402602001604051908101604052809392919081815260200183838082843760009201919091525061259f92505050565b858281518110610dcb57610dcb6150bf565b6020908102919091010152600101610ce8565b5050610de9816108b7565b610df2826108b7565b505092915050565b610e02612618565b600080610e0d610612565b91509150610e1b84846126bd565b610e24816108b7565b610e2d826108b7565b50505050565b6000610e3d6126d3565b50600080516020615d2183398151915290565b600080610e5b610612565b915091506000610e76600080516020615d6d83398151915290565b80546040519192506001600160a01b03808716929116907fff0987ce2410243828513a99da18b4ecd9a056e73b906762182c64cd55ed339f90600090a380546001600160a01b0319166001600160a01b038516179055610ed5816108b7565b6109b3826108b7565b60408051608081018252600080825260208201819052918101919091526060808201526001600160e01b03198216635b0e93fb60e11b1480610f3057506001600160e01b03198216631a7e6adf60e11b145b80610f4b57506001600160e01b0319821663278f794360e11b145b80610f6557506001600160e01b03198216621a63e960e01b145b80610f8057506001600160e01b031982166393b1dc6160e01b145b15610f945730815260016040820152919050565b6000610f9e6105ee565b6001600160e01b03198416600090815260019182016020908152604080832080546001600160a01b038116885260ff600160a01b82048116151594890194909452600160a81b9004909216151590860152925090610ffd90830161271c565b9050806001600160401b0381111561101757611017614c16565b604051908082528060200260200182016040528015611040578160200160208202803683370190505b50606084015260005b8181101561109b576110646110616001850183612726565b90565b8460600151828151811061107a5761107a6150bf565b66ffffffffffffff1990921660209283029190910190910152600101611049565b5050505b919050565b60006110bd600080516020615d6d833981519152612732565b905090565b336001600160a01b037f0000000000000000000000000000000000000000000000000000000000000000161461110b57604051636b31ba1560e11b815260040160405180910390fd5b600061111b61010084018461520e565b61112a91601891600091615187565b61113391615151565b905060006111986111426105ee565b6001600160401b031984166000908152600291820160209081526040808320815136601f8101859004850282018501909352828152940193929181908401838280828437600092019190915250611b1892505050565b9050600080306111ab606088018861520e565b6111b9916004908290615187565b6040516111c7929190614843565b6000604051808303816000865af19150503d8060008114611204576040519150601f19603f3d011682016040523d82523d6000602084013e611209565b606091505b50915091508161121b57805160208201fd5b6109e5836108b7565b60008061122f610612565b915091506109d386868686612771565b60606040518060600160405280602c8152602001615d41602c9139905090565b606060008061126c610612565b915091506112b1878787878080601f01602080910402602001604051908101604052809392919081815260200183838082843760009201919091525061259f92505050565b92506112bc816108b7565b6112c5826108b7565b5050949350505050565b6000806112da610612565b915091506112eb878787878761297d565b6112f4816108b7565b6112fd826108b7565b50505050505050565b600080611311610612565b91509150600061132c600080516020615d6d83398151915290565b805460408051600160a01b90920460ff161515825286151560208301529192507fab5a673e153c2ad68f622bbcb2c70d9198164fea36813f1755cc4726ef8303cb910160405180910390a1805460ff60a01b1916600160a01b85151502179055610ed5816108b7565b60006114446113f6604080517f47e79534a245952e8b16893a336b85a3d9ea9fa8c573f3d803afb92a794692186020820152469181019190915230606082015260009060800160405160208183030381529060405280519060200120905090565b7f294a8735843d4afb4f017c76faf3b7731def145ed0025fc9b1d5ce30adf113ff600090815260208590526040902060405161190160f01b8152600281019290925260228201526042902090565b92915050565b60007f0000000000000000000000000000000000000000000000000000000000000000604051631aab3f0d60e11b8152306004820152600060248201526001600160a01b0391909116906335567e1a90604401602060405180830381865afa1580156114ba573d6000803e3d6000fd5b505050506040513d601f19601f820116820180604052508101906110bd9190615254565b6040805160c08101825260008082526020820181905291810182905260608082018190526080820181905260a0820152906115176105ee565b6001600160401b0319841660009081526002919091016020908152604091829020805460ff80821615158752610100820481161515878501526201000090910416151585840152600181018054845181850281018501909552808552919450918301828280156115b457602002820191906000526020600020905b815460381b66ffffffffffffff19168152600190910190602001808311611592575b5050505050826060018190525060006115cf8260020161271c565b9050806001600160401b038111156115e9576115e9614c16565b604051908082528060200260200182016040528015611612578160200160208202803683370190505b50608084015260005b8181101561166a576116336110616002850183612726565b84608001518281518110611649576116496150bf565b66ffffffffffffff199092166020928302919091019091015260010161161b565b50600061167983600401612c36565b8051909150806001600160401b0381111561169657611696614c16565b6040519080825280602002602001820160405280156116bf578160200160208202803683370190505b5060a086015260005b81811015611721578281815181106116e2576116e26150bf565b60200260200101518660a001518281518110611700576117006150bf565b6001600160e01b0319909216602092830291909101909101526001016116c8565b5050505050919050565b604051635226643d60e11b815260040160405180910390fd5b606060006117556018828587615187565b61175e91615151565b9050600084846018818110611775576117756150bf565b9091013560f81c600114915061179c9050878784846117955760016118a5565b60006118a5565b6117b48288886117af886019818c615187565b612c43565b600061181a6117c16105ee565b6001600160401b031985166000908152600291820160209081526040918290208251601f8d018390048302810183019093528b8352909201918b908b9081908401838280828437600092019190915250611b1892505050565b9050600080306001600160a01b03168a8a604051611839929190614843565b6000604051808303816000865af19150503d8060008114611876576040519150601f19603f3d011682016040523d82523d6000602084013e61187b565b606091505b50915091508161188d57805160208201fd5b611896836108b7565b9450505050505b949350505050565b60006118b46004828688615187565b6118bd9161526d565b90506372288ed160e01b6001600160e01b0319821601611903576118e48460048188615187565b90955093506118f7600460008688615187565b6119009161526d565b90505b61190e818484612da2565b6324f16c0560e11b6001600160e01b03198216016119765760006119358560048189615187565b81019061194291906152a3565b5090915050306001600160a01b03821603611970576040516354ff929d60e01b815260040160405180910390fd5b50611a7b565b636581952160e11b6001600160e01b0319821601611a7b57600061199d8560048189615187565b8101906119aa91906152fb565b905060005b81518110156112fd57306001600160a01b03168282815181106119d4576119d46150bf565b6020026020010151600001516001600160a01b031603611a73576000828281518110611a0257611a026150bf565b602002602001015160400151611a1790615416565b90506001600160e01b03198116635b0e93fb60e11b1480611a4857506001600160e01b03198116631a7e6adf60e11b145b15611a66576040516354ff929d60e01b815260040160405180910390fd5b611a71818787612da2565b505b6001016119af565b5050505050565b60408051631eb5ed1960e11b8152606085901c9185901c63ffffffff16908290633d6bda3290611abe908490339034908a908a90600401615454565b600060405180830381600087803b158015611ad857600080fd5b505af1925050508015611ae9575060015b611a7b576000611af7611c6a565b905082828260405163a53ac97560e01b81526004016101d493929190615121565b60606000611b258461271c565b9050806001600160401b03811115611b3f57611b3f614c16565b604051908082528060200260200182016040528015611b8557816020015b604080518082019091526060815260006020820152815260200190600190039081611b5d5790505b50915060005b81811015611bf2576000611ba26110618784612726565b9050600160391b811615611be95766ffffffffffffff198116848381518110611bcd57611bcd6150bf565b6020908102919091018101516001600160401b03199092169101525b50600101611b8b565b5060005b81811015610df2576000611c0d6110618784612726565b90506001603a1b811615611c61576060611c3166ffffffffffffff19831687612e45565b9050600160391b821615611c5f5780858481518110611c5257611c526150bf565b6020908102919091010151525b505b50600101611bf6565b604080513d81523d8101603f01601f19169091523d6000602083013e90565b6000611c936105ee565b90506001600160a01b038516611cbc5760405163021507ad60e41b815260040160405180910390fd5b6000611cc885806154a5565b9050905060005b81811015611d91576000611ce387806154a5565b83818110611cf357611cf36150bf565b611d09926020606090920201908101915061494b565b90506000611d1788806154a5565b84818110611d2757611d276150bf565b9050606002016020016020810190611d3f9190614f61565b90506000611d4d89806154a5565b85818110611d5d57611d5d6150bf565b9050606002016040016020810190611d759190614f61565b9050611d838383838d612ef0565b505050806001019050611ccf565b50611d9f60208601866154ed565b9050905060005b81811015611e3f576000611dbd60208801886154ed565b83818110611dcd57611dcd6150bf565b905060800201803603810190611de3919061554a565b80516001600160e01b0319166000908152600180870160209081526040808420918501519085015160608601519596509190920193611e25928d929091613006565b9050611e318282613056565b505050806001019050611da6565b50611e4d60408601866155ca565b9050905060005b81811015611ed4576001600384016000611e7160408a018a6155ca565b85818110611e8157611e816150bf565b9050602002016020810190611e96919061494b565b6001600160e01b0319166001600160e01b03191681526020019081526020016000206000828254611ec79190615613565b9091555050600101611e54565b50611ee88685856311b0306d60e21b613093565b856001600160a01b03167ffaa447b433b10d3cedff587bf1c996e5c2d62c8bda30ca3956de7ebb207206c286604051611f219190615879565b60405180910390a2505050505050565b36600036600080611f428888613151565b90508560ff168160ff161015611f6b576040516312b8d96760e31b815260040160405180910390fd5b8560ff168160ff1603611fc557366000366000611f888c8c613176565b935093509350935083839050600003611fb45760405163b91b669d60e01b815260040160405180910390fd5b92975090955093509150611fd49050565b36600089899450945094509450505b93509350935093565b36600060ff611fec8585613151565b60ff161461200d57604051630a8ec87f60e11b815260040160405180910390fd5b61201a8360018187615187565b915091505b9250929050565b60006001600160401b0319858116036120b45760006120436131d8565b905061208e8161205287611395565b86868080601f01602080910402602001604051908101604052809392919081815260200183838082843760009201919091525061322492505050565b156120a35750630b135d3f60e11b905061189d565b506001600160e01b0319905061189d565b6120c085858585613298565b95945050505050565b336001600160a01b037f000000000000000000000000000000000000000000000000000000000000000016146121415760405162461bcd60e51b815260206004820152601c60248201527f6163636f756e743a206e6f742066726f6d20456e747279506f696e740000000060448201526064016101d4565b565b60006004612154606085018561520e565b9050101561218c57612169606084018461520e565b6121729161526d565b60405163fcfc5aad60e01b81526004016101d4919061482e565b600061219c61010085018561520e565b6121ab91601891600091615187565b6121b491615151565b905060006121c661010086018661520e565b60188181106121d7576121d76150bf565b9091013560f81c600114915061220290506121f5606087018761520e565b84846117955760016118a5565b600061223161220f6105ee565b6001600160401b0319851660009081526002918201602052604090200161271c565b1180156122735750638dd7712f60e01b61224e606087018761520e565b61225d91600491600091615187565b6122669161526d565b6001600160e01b03191614155b1561229157604051632fa4f80560e11b815260040160405180910390fd5b6120c08261229e8761588c565b6122ac61010089018961520e565b6122ba916019908290615187565b886133cc565b50565b80156122c057604051600090339060001990849084818181858888f193505050503d8060008114611a7b576040519150601f19603f3d011682016040523d82523d6000602084013e611a7b565b600061231a6105ee565b6001600160401b03198916600090815260029190910160205260408120915066ffffffffffffff198916905b83811015612471576000858583818110612362576123626150bf565b9050602002810190612374919061520e565b61238391601991600091615187565b61238c9161598e565b90503660008787858181106123a3576123a36150bf565b90506020028101906123b5919061520e565b6123c3916019908290615187565b9092509050600160381b8316156124415760018681018054918201815560008181526020902090910180546001600160c81b031916603886901c1790555460ff1015612422576040516378f2405560e01b815260040160405180910390fd5b612439606084901c838363028171ad60e41b613093565b505050612469565b61244e8660020184613056565b612465606084901c838363581660c960e11b613093565b5050505b600101612346565b5060005b87811015612501576000898983818110612491576124916150bf565b90506020020160208101906124a6919061494b565b90506124bf600485016001600160e01b03198316613642565b6124f857604051636aea20cf60e11b81526001600160e01b0319821660048201526001600160401b0319841660248201526044016101d4565b50600101612475565b50815462ff00001961ff00196001603a1b8c1615151661ffff1990921691909117610100600160391b8c16151502171662010000600160381b8b1615150217825561255960608a901c878763ab3e34c160e01b613093565b60408051908a901c63ffffffff169060608b901c907fc36a28045e90a1163d24d4216c8cfd8c44c4e835a486fb84d511d6b9e0736db990600090a3505050505050505050565b60606000846001600160a01b031684846040516125bc91906159c4565b60006040518083038185875af1925050503d80600081146125f9576040519150601f19603f3d011682016040523d82523d6000602084013e6125fe565b606091505b50925090508061261057815160208301fd5b509392505050565b306001600160a01b037f000000000000000000000000000000000000000000000000000000000000000016148061269f57507f00000000000000000000000000000000000000000000000000000000000000006001600160a01b0316612693600080516020615d21833981519152546001600160a01b031690565b6001600160a01b031614155b156121415760405163703e46dd60e11b815260040160405180910390fd5b6126c5612618565b6126cf828261364e565b5050565b306001600160a01b037f000000000000000000000000000000000000000000000000000000000000000016146121415760405163703e46dd60e11b815260040160405180910390fd5b6000611444825490565b6000610c23838361370b565b80546000906001600160a01b0316801561274c5792915050565b600061275b3060006014613735565b9050612766816159d6565b60601c949350505050565b600061277b6105ee565b9050600061278c60208601866154ed565b9050905060005b8181101561282c5760006127aa60208801886154ed565b838181106127ba576127ba6150bf565b9050608002018036038101906127d0919061554a565b80516001600160e01b0319166000908152600180870160209081526040808420918501519085015160608601519596509190920193612812928d929091613006565b905061281e828261379e565b505050806001019050612793565b5061283785806154a5565b9050905060005b8181101561288c57600061285287806154a5565b83818110612862576128626150bf565b612878926020606090920201908101915061494b565b9050612883816137b2565b5060010161283e565b5061289a60408601866155ca565b9050905060005b818110156129215760016003840160006128be60408a018a6155ca565b858181106128ce576128ce6150bf565b90506020020160208101906128e3919061494b565b6001600160e01b0319166001600160e01b031916815260200190815260200160002060008282546129149190615a10565b90915550506001016128a1565b50600061292f8786866137eb565b9050866001600160a01b03167f333064fd0a538a0f9c35864ea1c585e562fb83b5b4649ba362ac250e8178aa63828860405161296c929190615a23565b60405180910390a250505050505050565b60006129876105ee565b6001600160401b03198716600090815260029190910160205260409020905060016129b187613858565b8215612b26576129c38260020161271c565b60018301546129d29190615613565b83146129f15760405163512509d360e11b815260040160405180910390fd5b6000805b6001840154811015612a9857366000878785818110612a1657612a166150bf565b9050602002810190612a28919061520e565b915091506000612a65610b2b886001018681548110612a4957612a496150bf565b60009182526020909120015460381b66ffffffffffffff191690565b509050858015612a7b5750612a7b8184846137eb565b955084612a8781615a3e565b9550505050508060010190506129f5565b5060005b612aa88460020161271c565b811015612b2357366000878785818110612ac457612ac46150bf565b9050602002810190612ad6919061520e565b90925090506000612af0610b2b61106160028a0187612726565b509050858015612b065750612b068184846137eb565b955084612b1281615a3e565b955050505050806001019050612a9c565b50505b612b346001830160006147fc565b600282016000612b438261271c565b905060005b81811015612b72576000612b5c8482612726565b9050612b68848261388d565b5050600101612b48565b506000612b818560040161271c565b905060005b81811015612bb6576000612b9d6004880182612726565b9050612bac600488018261388d565b5050600101612b86565b5060608a901c63ffffffff60408c901c16858015612bda5750612bda828c8c6137eb565b95508063ffffffff16826001600160a01b03167f43f7309d11ba6b2e180e9ab8a6da09d2fa1f585d7daed4b26c1c7f2a90b867a288604051612c20911515815260200190565b60405180910390a3505050505050505050505050565b60606000610c2383613899565b6000612c4d6105ee565b6001600160401b031987166000908152600291909101602090815260409182902060010180548351818402810184019094528084529091830182828015612cc157602002820191906000526020600020905b815460381b66ffffffffffffff19168152600190910190602001808311612c9f575b5050505050905060005b8151811015612d86576060612ce1858584611f31565b83838080601f016020809104026020016040519081016040528093929190818152602001838380828437600092019190915250508951949b50929950909550612d7d9450612d3f9350879287925082109050610757576107576150bf565b88888080601f016020809104026020016040519081016040528093929190818152602001838380828437600092019190915250869250611a82915050565b50600101612ccb565b50612d918383611fdd565b925092506109e586868686866138f5565b6000816002811115612db657612db6615a57565b03612de457612dc58383613948565b6109b357826040516367bda4fb60e11b81526004016101d4919061482e565b6001816002811115612df857612df8615a57565b03612e0757612dc58383613963565b612e118383613948565b158015612e255750612e238383613963565b155b156109b357826040516367bda4fb60e11b81526004016101d4919061482e565b6040805163ed6dfb1360e01b815260609184831c919085901c63ffffffff1690829063ed6dfb1390612e81908490339034908a906004016151b1565b6000604051808303816000875af1925050508015612ec157506040513d6000823e601f3d908101601f19168201604052612ebe9190810190615a6d565b60015b6120c0576000612ecf611c6a565b90508282826040516307a7515d60e41b81526004016101d493929190615121565b6000612efa6105ee565b6001600160e01b0319861660009081526001919091016020526040902080549091506001600160a01b031615612f45578460405163ec9cbcb360e01b81526004016101d4919061482e565b612f4e856139a1565b15612f6e578460405163e171c77960e01b81526004016101d4919061482e565b612f7785613b1a565b15612f975784604051636899f9b360e11b81526004016101d4919061482e565b612fa085613c43565b15612fc05784604051633cecfc3760e01b81526004016101d4919061482e565b8054921515600160a81b0260ff60a81b19941515600160a01b026001600160a81b03199094166001600160a01b0390931692909217929092179290921691909117905550565b60008161301457600061301a565b600160391b5b8361302657600061302c565b6001603a1b5b6001600160601b0319606088901b1663ffffffff60401b604088901b161717179050949350505050565b61306a8266ffffffffffffff198316613642565b6126cf5760405163236e22ad60e01b815266ffffffffffffff19821660048201526024016101d4565b8115610e2d576130a38482613cca565b6130cb57604051631c1582ff60e21b81526001600160a01b03851660048201526024016101d4565b6040516306d61fe760e41b81526001600160a01b03851690636d61fe70906130f99086908690600401615b03565b600060405180830381600087803b15801561311357600080fd5b505af1925050508015613124575060015b610e2d576000613132611c6a565b90508481604051631672bd9360e01b81526004016101d4929190615b17565b600082826000818110613166576131666150bf565b919091013560f81c949350505050565b36600081818061318a60056001888a615187565b6131939161526d565b60e01c905060006131a5826005615b3b565b63ffffffff1690506131ba816005898b615187565b90965094506131cb8782818b615187565b9699959850965050505050565b600080516020615d6d833981519152805460009190600160a01b900460ff161561321557604051637342498560e11b815260040160405180910390fd5b61321e81612732565b91505090565b6000836001600160a01b03163b600003613286576000806132458585613ce6565b509092509050600081600381111561325f5761325f615a57565b14801561327d5750856001600160a01b0316826001600160a01b0316145b92505050610c23565b613291848484613d33565b9050610c23565b6000806132a36105ee565b9050600080606088901c604089901c63ffffffff166001600160401b03198a1660009081526002860160205260409020549193509150610100900460ff1661331557604051635f5943f760e01b81526001600160a01b038316600482015263ffffffff821660248201526044016101d4565b6040516373edbfbf60e11b8152630b135d3f60e11b906001600160a01b0384169063e7db7f7e90613354903090869033908e908e908e90600401615b57565b602060405180830381865afa158015613371573d6000803e3d6000fd5b505050506040513d601f19601f820116820180604052508101906133959190615b97565b6001600160e01b031916036133b75750630b135d3f60e11b925061189d915050565b506001600160e01b0319979650505050505050565b60008060006133d96105ee565b6001600160401b03198916600090815260029190910160209081526040918290206001018054835181840281018401909452808452909183018282801561344d57602002820191906000526020600020905b815460381b66ffffffffffffff1916815260019091019060200180831161342b575b5050505050905060005b81518110156135c15761346b878783611f31565b83838080601f016020809104026020016040519081016040528093929190818152602001838380828437600081840152601f19601f820116905080830192505050505050509250909192508a6101000182829a509a508390525050506000806134e2610b2b858581518110610757576107576150bf565b915091506000826001600160a01b0316632a3d428c838d8b6040518463ffffffff1660e01b815260040161351893929190615bb4565b6020604051808303816000875af1158015613537573d6000803e3d6000fd5b505050506040513d601f19601f8201168201806040525081019061355b9190615254565b90506001816001600160a01b031611156135a757604051630934314160e01b81526001600160a01b03808516600483015263ffffffff84166024830152821660448201526064016101d4565b6135b18682613e0e565b9550505050806001019050613457565b506135cc8686611fdd565b8080601f01602080910402602001604051908101604052809392919081815260200183838082843760009201829052506101008c01949094525061361591508a90508987613ed2565b905081516000146136315761362a8382613f5b565b9250613635565b8092505b5090979650505050505050565b6000610c238383614036565b816001600160a01b03166352d1902d6040518163ffffffff1660e01b8152600401602060405180830381865afa9250505080156136a8575060408051601f3d908101601f191682019092526136a591810190615254565b60015b6136d057604051634c9c8ce360e01b81526001600160a01b03831660048201526024016101d4565b600080516020615d21833981519152811461370157604051632a87526960e21b8152600481018290526024016101d4565b6109b38383614085565b6000826000018281548110613722576137226150bf565b9060005260206000200154905092915050565b60405161ffff82106137475761ffff91505b8183108383030260208101601d850183873c8082015160ff1661378157603d853b038060281c3d3d3e808403818511028203858211029150505b808252600081602084010152806040830101604052509392505050565b6109b38266ffffffffffffff19831661388d565b60006137bc6105ee565b6001600160e01b03199092166000908152600192909201602052506040902080546001600160b01b0319169055565b60018115610c2357604051638a91b0e360e01b81526001600160a01b03851690638a91b0e3906138219086908690600401615b03565b600060405180830381600087803b15801561383b57600080fd5b505af192505050801561384c575060015b610c2357506000610c23565b60006138626105ee565b6001600160401b031990921660009081526002929092016020525060409020805462ffffff19169055565b6000610c2383836140db565b6060816000018054806020026020016040519081016040528092919081815260200182805480156138e957602002820191906000526020600020905b8154815260200190600101908083116138d5575b50505050509050919050565b6001600160401b03198581160361393b5760006139106131d8565b9050336001600160a01b0382161461197057604051633845015960e01b815260040160405180910390fd5b611a7b85858585856141d5565b600061395383614271565b8015610c235750610c23826142b1565b6000610c236001600160e01b0319841661397b6105ee565b6001600160401b03198516600090815260029190910160205260409020600401906142cf565b60006001600160e01b031982166306608bdf60e21b14806139d157506001600160e01b03198216621a63e960e01b145b806139ec57506001600160e01b031982166393b1dc6160e01b145b80613a0757506001600160e01b031982166306efd59360e21b145b80613a2257506001600160e01b03198216635b58e67f60e11b145b80613a3d57506001600160e01b03198216635b0e93fb60e11b145b80613a5857506001600160e01b03198216631a7e6adf60e11b145b80613a7357506001600160e01b0319821663f2680c0f60e01b145b80613a8e57506001600160e01b03198216639cfd7cff60e01b145b80613aa957506001600160e01b031982166301ffc9a760e01b145b80613ac457506001600160e01b031982166352d1902d60e01b145b80613adf57506001600160e01b0319821663278f794360e11b145b80613afa57506001600160e01b03198216633abe451360e11b145b8061144457506001600160e01b0319821663d31b575b60e01b1492915050565b60006001600160e01b031982166306d61fe760e41b1480613b4b57506001600160e01b03198216638a91b0e360e01b145b80613b6657506001600160e01b0319821663a1308f2760e01b145b80613b8157506001600160e01b0319821663572b146360e11b145b80613b9c57506001600160e01b0319821663ed6dfb1360e01b145b80613bb757506001600160e01b03198216635d413a8160e01b145b80613bd257506001600160e01b03198216630ab8785f60e01b145b80613bed57506001600160e01b03198216630232e99f60e51b145b80613c0857506001600160e01b031982166373edbfbf60e11b145b80613c2357506001600160e01b03198216630a8f50a360e21b145b8061144457506001600160e01b03198216631eb5ed1960e11b1492915050565b60006001600160e01b03198216632dd8113360e01b1480613c7457506001600160e01b0319821663062a422b60e01b145b80613c8f57506001600160e01b0319821663ae574a4360e01b145b80613caa57506001600160e01b031982166314add44b60e21b145b8061144457506001600160e01b03198216637c627b2160e01b1492915050565b6000613cd5836142e7565b8015610c235750610c23838361431a565b60008060008351604103613d205760208401516040850151606086015160001a613d128882858561439d565b955095509550505050613d2c565b50508151600091506002905b9250925092565b6000806000856001600160a01b03168585604051602401613d55929190615c8f565b60408051601f198184030181529181526020820180516001600160e01b0316630b135d3f60e11b17905251613d8a91906159c4565b600060405180830381855afa9150503d8060008114613dc5576040519150601f19603f3d011682016040523d82523d6000602084013e613dca565b606091505b5091509150818015613dde57506020815110155b8015610c1e57508051630b135d3f60e11b90613e039083016020908101908401615254565b149695505050505050565b600060a083901c65ffffffffffff81168203613e2d575065ffffffffffff5b60a083901c65ffffffffffff8116600003613e4b575065ffffffffffff5b8065ffffffffffff168265ffffffffffff1611613e745760a08265ffffffffffff16901b613e82565b60a08165ffffffffffff16901b5b925060d085811c9085901c808210613ea65760d08265ffffffffffff16901b613eb4565b60d08165ffffffffffff16901b5b851794508587176001600160a01b0316851794505050505092915050565b60006001600160401b031984811603613f50576000613eef6131d8565b9050613f3781613f2c857f19457468657265756d205369676e6564204d6573736167653a0a3332000000006000908152601c91909152603c902090565b866101000151613224565b15613f46576000915050610c23565b6001915050610c23565b61189d84848461446c565b600060a083901c65ffffffffffff81168203613f7a575065ffffffffffff5b60a083901c65ffffffffffff8116600003613f98575065ffffffffffff5b8065ffffffffffff168265ffffffffffff1611613fc15760a08265ffffffffffff16901b613fcf565b60a08165ffffffffffff16901b5b925060d085811c9085901c808210613ff35760d08265ffffffffffff16901b614001565b60d08165ffffffffffff16901b5b85179450866001600160a01b031660011461401c578561401f565b60015b6001600160a01b0316851794505050505092915050565b600081815260018301602052604081205461407d57508154600181810184556000848152602080822090930184905584548482528286019093526040902091909155611444565b506000611444565b61408e8261455d565b6040516001600160a01b038316907fbc7cd75a20ee27fd9adebab32041f755214dbc6bffa90cc0225b39da2e5c2d3b90600090a28051156140d3576109b382826145c2565b6126cf61462f565b600081815260018301602052604081205480156141c45760006140ff600183615a10565b855490915060009061411390600190615a10565b9050808214614178576000866000018281548110614133576141336150bf565b9060005260206000200154905080876000018481548110614156576141566150bf565b6000918252602080832090910192909255918252600188019052604090208390555b855486908061418957614189615ca8565b600190038181906000526020600020016000905590558560010160008681526020019081526020016000206000905560019350505050611444565b6000915050611444565b5092915050565b60408051630232e99f60e51b8152606087901c9187901c63ffffffff1690829063465d33e0906142179030908590339034908d908d908d908d90600401615cbe565b600060405180830381600087803b15801561423157600080fd5b505af1925050508015614242575060015b6112fd576000614250611c6a565b90508282826040516392a47d6b60e01b81526004016101d493929190615121565b60006001600160e01b0319821663be23b3ff60e01b14806142a257506001600160e01b03198216630c4c654160e31b145b8061144457506114448261464e565b60006001600160401b03198281161480611444575061144482614747565b60008181526001830160205260408120541515610c23565b60006142fa826301ffc9a760e01b61431a565b80156114445750614313826001600160e01b031961431a565b1592915050565b6000808260405160240161432e919061482e565b60408051601f19818403018152919052602080820180516001600160e01b03166301ffc9a760e01b178152825192935060009283928392909183918a617530fa92503d91506000519050828015614386575060208210155b80156143925750600081115b979650505050505050565b600080807f7fffffffffffffffffffffffffffffff5d576e7357a4501ddfe92f46681b20a08411156143d85750600091506003905082614462565b604080516000808252602082018084528a905260ff891692820192909252606081018790526080810186905260019060a0016020604051602081039080840390855afa15801561442c573d6000803e3d6000fd5b5050604051601f1901519150506001600160a01b03811661445857506000925060019150829050614462565b9250600091508190505b9450945094915050565b6000806144776105ee565b9050600080606087901c604088901c63ffffffff166001600160401b031989166000908152600286016020526040902054919350915062010000900460ff166144ea576040516366058a4360e11b81526001600160a01b038316600482015263ffffffff821660248201526044016101d4565b604051630ab8785f60e01b81526001600160a01b03831690630ab8785f9061451a9084908a908a90600401615bb4565b6020604051808303816000875af1158015614539573d6000803e3d6000fd5b505050506040513d601f19601f820116820180604052508101906143929190615254565b806001600160a01b03163b60000361459357604051634c9c8ce360e01b81526001600160a01b03821660048201526024016101d4565b600080516020615d2183398151915280546001600160a01b0319166001600160a01b0392909216919091179055565b6060600080846001600160a01b0316846040516145df91906159c4565b600060405180830381855af49150503d806000811461461a576040519150601f19603f3d011682016040523d82523d6000602084013e61461f565b606091505b50915091506120c0858383614777565b34156121415760405163b398979f60e01b815260040160405180910390fd5b60006001600160e01b03198216635b0e93fb60e11b148061467f57506001600160e01b03198216631a7e6adf60e11b145b8061469957506001600160e01b03198216621a63e960e01b145b806146b457506001600160e01b031982166393b1dc6160e01b145b806146cf57506001600160e01b031982166306efd59360e21b145b806146ea57506001600160e01b03198216635b58e67f60e11b145b8061470557506001600160e01b0319821663278f794360e11b145b1561471257506001919050565b61471a6105ee565b6001600160e01b03199290921660009081526001909201602052506040902054600160a81b900460ff1690565b60006147516105ee565b6001600160401b0319909216600090815260029290920160205250604090205460ff1690565b60608261478c57614787826147d3565b610c23565b81511580156147a357506001600160a01b0384163b155b156147cc57604051639996b31560e01b81526001600160a01b03851660048201526024016101d4565b5080610c23565b8051156147e35780518082602001fd5b60405163d6bda27560e01b815260040160405180910390fd5b50805460008255906000526020600020908101906122c091905b8082111561482a5760008155600101614816565b5090565b6001600160e01b031991909116815260200190565b8183823760009101908152919050565b6001600160a01b03811681146122c057600080fd5b803561109f81614853565b60008083601f84011261488557600080fd5b5081356001600160401b0381111561489c57600080fd5b60208301915083602082850101111561201f57600080fd5b600080600080606085870312156148ca57600080fd5b84356148d581614853565b935060208501356001600160401b038111156148f057600080fd5b85016060818803121561490257600080fd5b925060408501356001600160401b0381111561491d57600080fd5b61492987828801614873565b95989497509550505050565b6001600160e01b0319811681146122c057600080fd5b60006020828403121561495d57600080fd5b8135610c2381614935565b60008060006040848603121561497d57600080fd5b8335925060208401356001600160401b0381111561499a57600080fd5b6149a686828701614873565b9497909650939450505050565b600061012082840312156149c657600080fd5b50919050565b6000806000606084860312156149e157600080fd5b83356001600160401b038111156149f757600080fd5b614a03868287016149b3565b9660208601359650604090950135949350505050565b60008083601f840112614a2b57600080fd5b5081356001600160401b03811115614a4257600080fd5b6020830191508360208260051b850101111561201f57600080fd5b60008060008060008060006080888a031215614a7857600080fd5b873566ffffffffffffff1981168114614a9057600080fd5b965060208801356001600160401b03811115614aab57600080fd5b614ab78a828b01614a19565b90975095505060408801356001600160401b03811115614ad657600080fd5b614ae28a828b01614873565b90955093505060608801356001600160401b03811115614b0157600080fd5b614b0d8a828b01614a19565b989b979a50959850939692959293505050565b60008060208385031215614b3357600080fd5b82356001600160401b03811115614b4957600080fd5b614b5585828601614a19565b90969095509350505050565b60005b83811015614b7c578181015183820152602001614b64565b50506000910152565b60008151808452614b9d816020860160208601614b61565b601f01601f19169290920160200192915050565b6000602082016020835280845180835260408501915060408160051b86010192506020860160005b82811015614c0a57603f19878603018452614bf5858351614b85565b94506020938401939190910190600101614bd9565b50929695505050505050565b634e487b7160e01b600052604160045260246000fd5b604051606081016001600160401b0381118282101715614c4e57614c4e614c16565b60405290565b60405161012081016001600160401b0381118282101715614c4e57614c4e614c16565b604051601f8201601f191681016001600160401b0381118282101715614c9f57614c9f614c16565b604052919050565b60006001600160401b03821115614cc057614cc0614c16565b50601f01601f191660200190565b600082601f830112614cdf57600080fd5b8135614cf2614ced82614ca7565b614c77565b818152846020838601011115614d0757600080fd5b816020850160208301376000918101602001919091529392505050565b60008060408385031215614d3757600080fd5b8235614d4281614853565b915060208301356001600160401b03811115614d5d57600080fd5b614d6985828601614cce565b9150509250929050565b600060208284031215614d8557600080fd5b8135610c2381614853565b600081518084526020840193506020830160005b82811015614dcc57815166ffffffffffffff1916865260209586019590910190600101614da4565b5093949350505050565b6020815260018060a01b0382511660208201526020820151151560408201526040820151151560608201526000606083015160808084015261189d60a0840182614d90565b60008060408385031215614e2e57600080fd5b82356001600160401b03811115614e4457600080fd5b614e50858286016149b3565b95602094909401359450505050565b602081526000610c236020830184614b85565b60008060008060608587031215614e8857600080fd5b8435614e9381614853565b93506020850135925060408501356001600160401b0381111561491d57600080fd5b80356001600160401b03198116811461109f57600080fd5b600080600080600060608688031215614ee557600080fd5b614eee86614eb5565b945060208601356001600160401b03811115614f0957600080fd5b614f1588828901614873565b90955093505060408601356001600160401b03811115614f3457600080fd5b614f4088828901614a19565b969995985093965092949392505050565b8035801515811461109f57600080fd5b600060208284031215614f7357600080fd5b610c2382614f51565b600060208284031215614f8e57600080fd5b5035919050565b600060208284031215614fa757600080fd5b610c2382614eb5565b602081528151151560208201526020820151151560408201526040820151151560608201526000606083015160c06080840152614ff060e0840182614d90565b90506080840151601f198483030160a085015261500d8282614d90565b60a0860151858203601f190160c0870152805180835260209182019450600093509101905b8083101561505e5783516001600160e01b03191682526020938401936001939093019290910190615032565b5095945050505050565b6000806000806040858703121561507e57600080fd5b84356001600160401b0381111561509457600080fd5b6150a087828801614873565b90955093505060208501356001600160401b0381111561491d57600080fd5b634e487b7160e01b600052603260045260246000fd5b634e487b7160e01b600052601160045260246000fd5b6000816150fa576150fa6150d5565b506000190190565b63ffffffff8316815260406020820152600061189d6040830184614b85565b6001600160a01b038416815263ffffffff831660208201526060604082018190526000906120c090830184614b85565b80356001600160401b031981169060188410156141ce576001600160401b031960189490940360031b84901b1690921692915050565b6000808585111561519757600080fd5b838611156151a457600080fd5b5050820193919092039150565b63ffffffff8516815260018060a01b03841660208201528260408201526080606082015260006151e46080830184614b85565b9695505050505050565b60008235605e1983360301811261520457600080fd5b9190910192915050565b6000808335601e1984360301811261522557600080fd5b8301803591506001600160401b0382111561523f57600080fd5b60200191503681900382131561201f57600080fd5b60006020828403121561526657600080fd5b5051919050565b80356001600160e01b031981169060048410156141ce576001600160e01b031960049490940360031b84901b1690921692915050565b6000806000606084860312156152b857600080fd5b83356152c381614853565b92506020840135915060408401356001600160401b038111156152e557600080fd5b6152f186828701614cce565b9150509250925092565b60006020828403121561530d57600080fd5b81356001600160401b0381111561532357600080fd5b8201601f8101841361533457600080fd5b80356001600160401b0381111561534d5761534d614c16565b8060051b61535d60208201614c77565b9182526020818401810192908101908784111561537957600080fd5b6020850192505b838310156143925782356001600160401b0381111561539e57600080fd5b85016060818a03601f190112156153b457600080fd5b6153bc614c2c565b60208201356153ca81614853565b81526040820135602082015260608201356001600160401b038111156153ef57600080fd5b6153fe8b602083860101614cce565b60408301525083525060209283019290910190615380565b805160208201516001600160e01b031981169190600482101561544d576001600160e01b0319600483900360031b81901b82161692505b5050919050565b63ffffffff8616815260018060a01b038516602082015283604082015260a06060820152600061548760a0830185614b85565b82810360808401526154998185614b85565b98975050505050505050565b6000808335601e198436030181126154bc57600080fd5b8301803591506001600160401b038211156154d657600080fd5b602001915060608102360382131561201f57600080fd5b6000808335601e1984360301811261550457600080fd5b8301803591506001600160401b0382111561551e57600080fd5b6020019150600781901b360382131561201f57600080fd5b803563ffffffff8116811461109f57600080fd5b6000608082840312801561555d57600080fd5b50604051608081016001600160401b038111828210171561558057615580614c16565b604052823561558e81614935565b815261559c60208401615536565b60208201526155ad60408401614f51565b60408201526155be60608401614f51565b60608201529392505050565b6000808335601e198436030181126155e157600080fd5b8301803591506001600160401b038211156155fb57600080fd5b6020019150600581901b360382131561201f57600080fd5b80820180821115611444576114446150d5565b81835260208301925060008160005b84811015614dcc57813561564881614935565b6001600160e01b031916865261566060208301614f51565b1515602087015261567360408301614f51565b151560408701526060958601959190910190600101615635565b6000808335601e198436030181126156a457600080fd5b83016020810192503590506001600160401b038111156156c357600080fd5b8060071b360382131561201f57600080fd5b81835260208301925060008160005b84811015614dcc5781356156f781614935565b6001600160e01b031916865263ffffffff61571460208401615536565b16602087015261572660408301614f51565b1515604087015261573960608301614f51565b1515606087015260809586019591909101906001016156e4565b6000808335601e1984360301811261576a57600080fd5b83016020810192503590506001600160401b0381111561578957600080fd5b8060051b360382131561201f57600080fd5b81835260208301925060008160005b84811015614dcc5781356157bd81614935565b6001600160e01b031916865260209586019591909101906001016157aa565b60008135601e198336030181126157f257600080fd5b82016020810190356001600160401b0381111561580e57600080fd5b60608102360382131561582057600080fd5b60608552615832606086018284615626565b915050615842602084018461568d565b85830360208701526158558382846156d5565b925050506158666040840184615753565b85830360408701526151e483828461579b565b602081526000610c2360208301846157dc565b6000610120823603121561589f57600080fd5b6158a7614c54565b6158b083614868565b81526020838101359082015260408301356001600160401b038111156158d557600080fd5b6158e136828601614cce565b60408301525060608301356001600160401b0381111561590057600080fd5b61590c36828601614cce565b6060830152506080838101359082015260a0808401359082015260c0808401359082015260e08301356001600160401b0381111561594957600080fd5b61595536828601614cce565b60e0830152506101008301356001600160401b0381111561597557600080fd5b61598136828601614cce565b6101008301525092915050565b803566ffffffffffffff1981169060198410156141ce5766ffffffffffffff1960199490940360031b84901b1690921692915050565b60008251615204818460208701614b61565b805160208201516001600160601b031981169190601482101561544d576001600160601b031960149290920360031b82901b161692915050565b81810381811115611444576114446150d5565b821515815260406020820152600061189d60408301846157dc565b600060018201615a5057615a506150d5565b5060010190565b634e487b7160e01b600052602160045260246000fd5b600060208284031215615a7f57600080fd5b81516001600160401b03811115615a9557600080fd5b8201601f81018413615aa657600080fd5b8051615ab4614ced82614ca7565b818152856020838501011115615ac957600080fd5b6120c0826020830160208601614b61565b81835281816020850137506000828201602090810191909152601f909101601f19169091010190565b60208152600061189d602083018486615ada565b6001600160a01b038316815260406020820181905260009061189d90830184614b85565b63ffffffff8181168382160190811115611444576114446150d5565b6001600160a01b03878116825263ffffffff87166020830152851660408201526060810184905260a0608082018190526000906154999083018486615ada565b600060208284031215615ba957600080fd5b8151610c2381614935565b63ffffffff8416815260606020820152615bda6060820184516001600160a01b03169052565b602083015160808201526000604084015161012060a0840152615c01610180840182614b85565b90506060850151605f198483030160c0850152615c1e8282614b85565b915050608085015160e084015260a085015161010084015260c085015161012084015260e0850151605f1984830301610140850152615c5d8282614b85565b915050610100850151605f1984830301610160850152615c7d8282614b85565b92505050826040830152949350505050565b82815260406020820152600061189d6040830184614b85565b634e487b7160e01b600052603160045260246000fd5b6001600160a01b03898116825263ffffffff89166020830152871660408201526060810186905260c060808201819052600090615cfe9083018688615ada565b82810360a0840152615d11818587615ada565b9b9a505050505050505050505056fe360894a13ba1a3210667c828492db98dca3e2076cc3735a920a3ca505d382bbc657263363930302e7265666572656e63652d73656d692d6d6f64756c61722d6163636f756e742e302e382e305b9dc9aa943f8fa2653ceceda5e3798f0686455280432166ba472eca0bc17a32a164736f6c634300081a000a","linkReferences":{}},"methodIdentifiers":{"UPGRADE_INTERFACE_VERSION()":"ad3cb1cc","accountId()":"9cfd7cff","entryPoint()":"b0d691fe","execute(address,uint256,bytes)":"b61d27f6","executeBatch((address,uint256,bytes)[])":"34fcd5be","executeUserOp((address,uint256,bytes,bytes,bytes32,uint256,bytes32,bytes,bytes),bytes32)":"8dd7712f","executeWithRuntimeValidation(bytes,bytes)":"f2680c0f","getExecutionData(bytes4)":"757c8a26","getFallbackSigner()":"88de9108","getNonce()":"d087d288","getValidationData(bytes24)":"d31b575b","initializeWithValidation(bytes25,bytes4[],bytes,bytes[])":"e919a623","installExecution(address,((bytes4,bool,bool)[],(bytes4,uint32,bool,bool)[],bytes4[]),bytes)":"001a63e9","installValidation(bytes25,bytes4[],bytes,bytes[])":"1bbf564c","isFallbackSignerDisabled()":"6ef3d7b7","isValidSignature(bytes32,bytes)":"1626ba7e","proxiableUUID()":"52d1902d","replaySafeHash(bytes32)":"ce1506be","setFallbackSignerDisabled(bool)":"be23b3ff","supportsInterface(bytes4)":"01ffc9a7","uninstallExecution(address,((bytes4,bool,bool)[],(bytes4,uint32,bool,bool)[],bytes4[]),bytes)":"93b1dc61","uninstallValidation(bytes24,bytes,bytes[])":"b6b1ccfe","updateFallbackSigner(address)":"62632a08","upgradeToAndCall(address,bytes)":"4f1ef286","validateUserOp((address,uint256,bytes,bytes,bytes32,uint256,bytes32,bytes,bytes),bytes32,uint256)":"19822f7c"},"id":101}