{"abi":[{"type":"function","name":"GLOBAL_VALIDATION","inputs":[],"outputs":[{"name":"","type":"uint8","internalType":"uint8"}],"stateMutability":"view"},{"type":"function","name":"SELECTOR_ASSOCIATED_VALIDATION","inputs":[],"outputs":[{"name":"","type":"uint8","internalType":"uint8"}],"stateMutability":"view"}],"bytecode":{"object":"0x6080604052348015600f57600080fd5b50606880601d6000396000f3fe6080604052348015600f57600080fd5b506004361060325760003560e01c806374636f5a146037578063e52df451146054575b600080fd5b603e600081565b60405160ff909116815260200160405180910390f35b603e60018156fea164736f6c634300081a000a","linkReferences":{}},"methodIdentifiers":{"GLOBAL_VALIDATION()":"e52df451","SELECTOR_ASSOCIATED_VALIDATION()":"74636f5a"},"id":173}