{"abi":[{"type":"constructor","inputs":[],"stateMutability":"nonpayable"},{"type":"function","name":"balanceOf","inputs":[{"name":"account","type":"address","internalType":"address"},{"name":"id","type":"uint256","internalType":"uint256"}],"outputs":[{"name":"","type":"uint256","internalType":"uint256"}],"stateMutability":"view"},{"type":"function","name":"balanceOfBatch","inputs":[{"name":"accounts","type":"address[]","internalType":"address[]"},{"name":"ids","type":"uint256[]","internalType":"uint256[]"}],"outputs":[{"name":"","type":"uint256[]","internalType":"uint256[]"}],"stateMutability":"view"},{"type":"function","name":"isApprovedForAll","inputs":[{"name":"account","type":"address","internalType":"address"},{"name":"operator","type":"address","internalType":"address"}],"outputs":[{"name":"","type":"bool","internalType":"bool"}],"stateMutability":"view"},{"type":"function","name":"mint","inputs":[{"name":"to","type":"address","internalType":"address"},{"name":"id","type":"uint256","internalType":"uint256"},{"name":"amount","type":"uint256","internalType":"uint256"}],"outputs":[],"stateMutability":"nonpayable"},{"type":"function","name":"safeBatchTransferFrom","inputs":[{"name":"from","type":"address","internalType":"address"},{"name":"to","type":"address","internalType":"address"},{"name":"ids","type":"uint256[]","internalType":"uint256[]"},{"name":"values","type":"uint256[]","internalType":"uint256[]"},{"name":"data","type":"bytes","internalType":"bytes"}],"outputs":[],"stateMutability":"nonpayable"},{"type":"function","name":"safeTransferFrom","inputs":[{"name":"from","type":"address","internalType":"address"},{"name":"to","type":"address","internalType":"address"},{"name":"id","type":"uint256","internalType":"uint256"},{"name":"value","type":"uint256","internalType":"uint256"},{"name":"data","type":"bytes","internalType":"bytes"}],"outputs":[],"stateMutability":"nonpayable"},{"type":"function","name":"setApprovalForAll","inputs":[{"name":"operator","type":"address","internalType":"address"},{"name":"approved","type":"bool","internalType":"bool"}],"outputs":[],"stateMutability":"nonpayable"},{"type":"function","name":"supportsInterface","inputs":[{"name":"interfaceId","type":"bytes4","internalType":"bytes4"}],"outputs":[{"name":"","type":"bool","internalType":"bool"}],"stateMutability":"view"},{"type":"function","name":"uri","inputs":[{"name":"","type":"uint256","internalType":"uint256"}],"outputs":[{"name":"","type":"string","internalType":"string"}],"stateMutability":"view"},{"type":"event","name":"ApprovalForAll","inputs":[{"name":"account","type":"address","indexed":true,"internalType":"address"},{"name":"operator","type":"address","indexed":true,"internalType":"address"},{"name":"approved","type":"bool","indexed":false,"internalType":"bool"}],"anonymous":false},{"type":"event","name":"TransferBatch","inputs":[{"name":"operator","type":"address","indexed":true,"internalType":"address"},{"name":"from","type":"address","indexed":true,"internalType":"address"},{"name":"to","type":"address","indexed":true,"internalType":"address"},{"name":"ids","type":"uint256[]","indexed":false,"internalType":"uint256[]"},{"name":"values","type":"uint256[]","indexed":false,"internalType":"uint256[]"}],"anonymous":false},{"type":"event","name":"TransferSingle","inputs":[{"name":"operator","type":"address","indexed":true,"internalType":"address"},{"name":"from","type":"address","indexed":true,"internalType":"address"},{"name":"to","type":"address","indexed":true,"internalType":"address"},{"name":"id","type":"uint256","indexed":false,"internalType":"uint256"},{"name":"value","type":"uint256","indexed":false,"internalType":"uint256"}],"anonymous":false},{"type":"event","name":"URI","inputs":[{"name":"value","type":"string","indexed":false,"internalType":"string"},{"name":"id","type":"uint256","indexed":true,"internalType":"uint256"}],"anonymous":false},{"type":"error","name":"ERC1155InsufficientBalance","inputs":[{"name":"sender","type":"address","internalType":"address"},{"name":"balance","type":"uint256","internalType":"uint256"},{"name":"needed","type":"uint256","internalType":"uint256"},{"name":"tokenId","type":"uint256","internalType":"uint256"}]},{"type":"error","name":"ERC1155InvalidApprover","inputs":[{"name":"approver","type":"address","internalType":"address"}]},{"type":"error","name":"ERC1155InvalidArrayLength","inputs":[{"name":"idsLength","type":"uint256","internalType":"uint256"},{"name":"valuesLength","type":"uint256","internalType":"uint256"}]},{"type":"error","name":"ERC1155InvalidOperator","inputs":[{"name":"operator","type":"address","internalType":"address"}]},{"type":"error","name":"ERC1155InvalidReceiver","inputs":[{"name":"receiver","type":"address","internalType":"address"}]},{"type":"error","name":"ERC1155InvalidSender","inputs":[{"name":"sender","type":"address","internalType":"address"}]},{"type":"error","name":"ERC1155MissingApprovalForAll","inputs":[{"name":"operator","type":"address","internalType":"address"},{"name":"owner","type":"address","internalType":"address"}]}],"bytecode":{"object":"0x608060405234801561001057600080fd5b506040805160208101909152600081526100298161002f565b5061019c565b600261003b82826100de565b5050565b634e487b7160e01b600052604160045260246000fd5b600181811c9082168061006957607f821691505b60208210810361008957634e487b7160e01b600052602260045260246000fd5b50919050565b601f8211156100d957806000526020600020601f840160051c810160208510156100b65750805b601f840160051c820191505b818110156100d657600081556001016100c2565b50505b505050565b81516001600160401b038111156100f7576100f761003f565b61010b816101058454610055565b8461008f565b6020601f82116001811461013f57600083156101275750848201515b600019600385901b1c1916600184901b1784556100d6565b600084815260208120601f198516915b8281101561016f578785015182556020948501946001909201910161014f565b508482101561018d5786840151600019600387901b60f8161c191681555b50505050600190811b01905550565b611150806101ab6000396000f3fe608060405234801561001057600080fd5b50600436106100925760003560e01c80632eb2c2d6116100665780632eb2c2d6146101155780634e1273f414610128578063a22cb46514610148578063e985e9c51461015b578063f242432a1461016e57600080fd5b8062fdd58e1461009757806301ffc9a7146100bd5780630e89341c146100e0578063156e29f614610100575b600080fd5b6100aa6100a5366004610afa565b610181565b6040519081526020015b60405180910390f35b6100d06100cb366004610b3d565b6101a9565b60405190151581526020016100b4565b6100f36100ee366004610b61565b6101f9565b6040516100b49190610bc0565b61011361010e366004610bd3565b61028d565b005b610113610123366004610d4e565b6102ad565b61013b610136366004610e04565b610319565b6040516100b49190610f09565b610113610156366004610f1c565b6103e6565b6100d0610169366004610f58565b6103f5565b61011361017c366004610f8b565b610423565b6000818152602081815260408083206001600160a01b03861684529091529020545b92915050565b60006001600160e01b03198216636cdb3d1360e11b14806101da57506001600160e01b031982166303a24d0760e21b145b806101a357506301ffc9a760e01b6001600160e01b03198316146101a3565b60606002805461020890610fe4565b80601f016020809104026020016040519081016040528092919081815260200182805461023490610fe4565b80156102815780601f1061025657610100808354040283529160200191610281565b820191906000526020600020905b81548152906001019060200180831161026457829003601f168201915b50505050509050919050565b6102a883838360405180602001604052806000815250610482565b505050565b336001600160a01b03861681148015906102ce57506102cc86826103f5565b155b156103045760405163711bec9160e11b81526001600160a01b038083166004830152871660248201526044015b60405180910390fd5b61031186868686866104df565b505050505050565b6060815183511461034a5781518351604051635b05999160e01b8152600481019290925260248201526044016102fb565b6000835167ffffffffffffffff81111561036657610366610c06565b60405190808252806020026020018201604052801561038f578160200160208202803683370190505b50905060005b84518110156103de576020808202860101516103b990602080840287010151610181565b8282815181106103cb576103cb61101e565b6020908102919091010152600101610395565b509392505050565b6103f1338383610546565b5050565b6001600160a01b03918216600090815260016020908152604080832093909416825291909152205460ff1690565b336001600160a01b0386168114801590610444575061044286826103f5565b155b156104755760405163711bec9160e11b81526001600160a01b038083166004830152871660248201526044016102fb565b61031186868686866105dc565b6001600160a01b0384166104ac57604051632bfa23e760e11b8152600060048201526024016102fb565b6040805160018082526020820186905281830190815260608201859052608082019092529061031160008784848761066a565b6001600160a01b03841661050957604051632bfa23e760e11b8152600060048201526024016102fb565b6001600160a01b03851661053257604051626a0d4560e21b8152600060048201526024016102fb565b61053f858585858561066a565b5050505050565b6001600160a01b03821661056f5760405162ced3e160e81b8152600060048201526024016102fb565b6001600160a01b03838116600081815260016020908152604080832094871680845294825291829020805460ff191686151590811790915591519182527f17307eab39ab6107e8899845ad3d59bd9653f200f220920489ca2b5937696c31910160405180910390a3505050565b6001600160a01b03841661060657604051632bfa23e760e11b8152600060048201526024016102fb565b6001600160a01b03851661062f57604051626a0d4560e21b8152600060048201526024016102fb565b60408051600180825260208201869052818301908152606082018590526080820190925290610661878784848761066a565b50505050505050565b610676858585856106bd565b6001600160a01b0384161561053f57825133906001036106af57602084810151908401516106a88389898585896108d1565b5050610311565b6103118187878787876109f5565b80518251146106ec5781518151604051635b05999160e01b8152600481019290925260248201526044016102fb565b3360005b83518110156107f2576020818102858101820151908501909101516001600160a01b038816156107a3576000828152602081815260408083206001600160a01b038c1684529091529020548181101561077c576040516303dee4c560e01b81526001600160a01b038a1660048201526024810182905260448101839052606481018490526084016102fb565b6000838152602081815260408083206001600160a01b038d16845290915290209082900390555b6001600160a01b038716156107e8576000828152602081815260408083206001600160a01b038b168452909152812080548392906107e2908490611034565b90915550505b50506001016106f0565b5082516001036108735760208301516000906020840151909150856001600160a01b0316876001600160a01b0316846001600160a01b03167fc3d58168c5ae7397731d063d5bbf3d657854427343f4c083240f7aacaa2d0f628585604051610864929190918252602082015260400190565b60405180910390a4505061053f565b836001600160a01b0316856001600160a01b0316826001600160a01b03167f4a39dc06d4c0dbc64b70af90fd698a233a518aa5d07e595d983b8c0526c8f7fb86866040516108c2929190611055565b60405180910390a45050505050565b6001600160a01b0384163b156103115760405163f23a6e6160e01b81526001600160a01b0385169063f23a6e61906109159089908990889088908890600401611083565b6020604051808303816000875af1925050508015610950575060408051601f3d908101601f1916820190925261094d918101906110c8565b60015b6109b9573d80801561097e576040519150601f19603f3d011682016040523d82523d6000602084013e610983565b606091505b5080516000036109b157604051632bfa23e760e11b81526001600160a01b03861660048201526024016102fb565b805181602001fd5b6001600160e01b0319811663f23a6e6160e01b1461066157604051632bfa23e760e11b81526001600160a01b03861660048201526024016102fb565b6001600160a01b0384163b156103115760405163bc197c8160e01b81526001600160a01b0385169063bc197c8190610a3990899089908890889088906004016110e5565b6020604051808303816000875af1925050508015610a74575060408051601f3d908101601f19168201909252610a71918101906110c8565b60015b610aa2573d80801561097e576040519150601f19603f3d011682016040523d82523d6000602084013e610983565b6001600160e01b0319811663bc197c8160e01b1461066157604051632bfa23e760e11b81526001600160a01b03861660048201526024016102fb565b80356001600160a01b0381168114610af557600080fd5b919050565b60008060408385031215610b0d57600080fd5b610b1683610ade565b946020939093013593505050565b6001600160e01b031981168114610b3a57600080fd5b50565b600060208284031215610b4f57600080fd5b8135610b5a81610b24565b9392505050565b600060208284031215610b7357600080fd5b5035919050565b6000815180845260005b81811015610ba057602081850181015186830182015201610b84565b506000602082860101526020601f19601f83011685010191505092915050565b602081526000610b5a6020830184610b7a565b600080600060608486031215610be857600080fd5b610bf184610ade565b95602085013595506040909401359392505050565b634e487b7160e01b600052604160045260246000fd5b604051601f8201601f1916810167ffffffffffffffff81118282101715610c4557610c45610c06565b604052919050565b600067ffffffffffffffff821115610c6757610c67610c06565b5060051b60200190565b600082601f830112610c8257600080fd5b8135610c95610c9082610c4d565b610c1c565b8082825260208201915060208360051b860101925085831115610cb757600080fd5b602085015b83811015610cd4578035835260209283019201610cbc565b5095945050505050565b600082601f830112610cef57600080fd5b813567ffffffffffffffff811115610d0957610d09610c06565b610d1c601f8201601f1916602001610c1c565b818152846020838601011115610d3157600080fd5b816020850160208301376000918101602001919091529392505050565b600080600080600060a08688031215610d6657600080fd5b610d6f86610ade565b9450610d7d60208701610ade565b9350604086013567ffffffffffffffff811115610d9957600080fd5b610da588828901610c71565b935050606086013567ffffffffffffffff811115610dc257600080fd5b610dce88828901610c71565b925050608086013567ffffffffffffffff811115610deb57600080fd5b610df788828901610cde565b9150509295509295909350565b60008060408385031215610e1757600080fd5b823567ffffffffffffffff811115610e2e57600080fd5b8301601f81018513610e3f57600080fd5b8035610e4d610c9082610c4d565b8082825260208201915060208360051b850101925087831115610e6f57600080fd5b6020840193505b82841015610e9857610e8784610ade565b825260209384019390910190610e76565b9450505050602083013567ffffffffffffffff811115610eb757600080fd5b610ec385828601610c71565b9150509250929050565b600081518084526020840193506020830160005b82811015610eff578151865260209586019590910190600101610ee1565b5093949350505050565b602081526000610b5a6020830184610ecd565b60008060408385031215610f2f57600080fd5b610f3883610ade565b915060208301358015158114610f4d57600080fd5b809150509250929050565b60008060408385031215610f6b57600080fd5b610f7483610ade565b9150610f8260208401610ade565b90509250929050565b600080600080600060a08688031215610fa357600080fd5b610fac86610ade565b9450610fba60208701610ade565b93506040860135925060608601359150608086013567ffffffffffffffff811115610deb57600080fd5b600181811c90821680610ff857607f821691505b60208210810361101857634e487b7160e01b600052602260045260246000fd5b50919050565b634e487b7160e01b600052603260045260246000fd5b808201808211156101a357634e487b7160e01b600052601160045260246000fd5b6040815260006110686040830185610ecd565b828103602084015261107a8185610ecd565b95945050505050565b6001600160a01b03868116825285166020820152604081018490526060810183905260a0608082018190526000906110bd90830184610b7a565b979650505050505050565b6000602082840312156110da57600080fd5b8151610b5a81610b24565b6001600160a01b0386811682528516602082015260a06040820181905260009061111190830186610ecd565b82810360608401526111238186610ecd565b905082810360808401526111378185610b7a565b9897505050505050505056fea164736f6c634300081a000a","linkReferences":{}},"methodIdentifiers":{"balanceOf(address,uint256)":"00fdd58e","balanceOfBatch(address[],uint256[])":"4e1273f4","isApprovedForAll(address,address)":"e985e9c5","mint(address,uint256,uint256)":"156e29f6","safeBatchTransferFrom(address,address,uint256[],uint256[],bytes)":"2eb2c2d6","safeTransferFrom(address,address,uint256,uint256,bytes)":"f242432a","setApprovalForAll(address,bool)":"a22cb465","supportsInterface(bytes4)":"01ffc9a7","uri(uint256)":"0e89341c"},"id":153}